{
  "contractName": "AuctionFactory",
  "abi": [
    {
      "constant": true,
      "inputs": [],
      "name": "cfoAddress",
      "outputs": [
        {
          "name": "",
          "type": "address"
        }
      ],
      "payable": false,
      "stateMutability": "view",
      "type": "function"
    },
    {
      "constant": true,
      "inputs": [],
      "name": "ceoAddress",
      "outputs": [
        {
          "name": "",
          "type": "address"
        }
      ],
      "payable": false,
      "stateMutability": "view",
      "type": "function"
    },
    {
      "constant": true,
      "inputs": [
        {
          "name": "",
          "type": "uint256"
        }
      ],
      "name": "auctionIndexes",
      "outputs": [
        {
          "name": "",
          "type": "uint256"
        }
      ],
      "payable": false,
      "stateMutability": "view",
      "type": "function"
    },
    {
      "constant": false,
      "inputs": [
        {
          "name": "_newCEO",
          "type": "address"
        }
      ],
      "name": "setCEO",
      "outputs": [],
      "payable": false,
      "stateMutability": "nonpayable",
      "type": "function"
    },
    {
      "constant": false,
      "inputs": [
        {
          "name": "_newCOO",
          "type": "address"
        }
      ],
      "name": "setCOO",
      "outputs": [],
      "payable": false,
      "stateMutability": "nonpayable",
      "type": "function"
    },
    {
      "constant": false,
      "inputs": [],
      "name": "unpause",
      "outputs": [],
      "payable": false,
      "stateMutability": "nonpayable",
      "type": "function"
    },
    {
      "constant": true,
      "inputs": [],
      "name": "vaultAddress",
      "outputs": [
        {
          "name": "",
          "type": "address"
        }
      ],
      "payable": false,
      "stateMutability": "view",
      "type": "function"
    },
    {
      "constant": false,
      "inputs": [
        {
          "name": "_newCFO",
          "type": "address"
        }
      ],
      "name": "setCFO",
      "outputs": [],
      "payable": false,
      "stateMutability": "nonpayable",
      "type": "function"
    },
    {
      "constant": true,
      "inputs": [
        {
          "name": "",
          "type": "uint256"
        }
      ],
      "name": "auctions",
      "outputs": [
        {
          "name": "id",
          "type": "uint256"
        },
        {
          "name": "description",
          "type": "string"
        },
        {
          "name": "price",
          "type": "uint256"
        },
        {
          "name": "minimumIncrement",
          "type": "uint256"
        },
        {
          "name": "currentOwner",
          "type": "address"
        },
        {
          "name": "timeCreated",
          "type": "uint256"
        },
        {
          "name": "duration",
          "type": "uint256"
        },
        {
          "name": "increaseTime",
          "type": "uint256"
        },
        {
          "name": "isAuctionScheme",
          "type": "bool"
        },
        {
          "name": "hasBeenSwaped",
          "type": "bool"
        },
        {
          "name": "canBeSwaped",
          "type": "bool"
        }
      ],
      "payable": false,
      "stateMutability": "view",
      "type": "function"
    },
    {
      "constant": true,
      "inputs": [],
      "name": "paused",
      "outputs": [
        {
          "name": "",
          "type": "bool"
        }
      ],
      "payable": false,
      "stateMutability": "view",
      "type": "function"
    },
    {
      "constant": false,
      "inputs": [],
      "name": "pause",
      "outputs": [],
      "payable": false,
      "stateMutability": "nonpayable",
      "type": "function"
    },
    {
      "constant": true,
      "inputs": [],
      "name": "cooAddress",
      "outputs": [
        {
          "name": "",
          "type": "address"
        }
      ],
      "payable": false,
      "stateMutability": "view",
      "type": "function"
    },
    {
      "inputs": [
        {
          "name": "_vaultAddress",
          "type": "address"
        }
      ],
      "payable": false,
      "stateMutability": "nonpayable",
      "type": "constructor"
    },
    {
      "anonymous": false,
      "inputs": [
        {
          "indexed": false,
          "name": "newBidder",
          "type": "address"
        },
        {
          "indexed": false,
          "name": "_auctionId",
          "type": "uint256"
        },
        {
          "indexed": false,
          "name": "amount",
          "type": "uint256"
        }
      ],
      "name": "NewBid",
      "type": "event"
    },
    {
      "anonymous": false,
      "inputs": [
        {
          "indexed": false,
          "name": "auctionOwner",
          "type": "address"
        },
        {
          "indexed": false,
          "name": "_auctionId",
          "type": "uint256"
        },
        {
          "indexed": false,
          "name": "amount",
          "type": "uint256"
        }
      ],
      "name": "AuctionFinished",
      "type": "event"
    },
    {
      "anonymous": false,
      "inputs": [
        {
          "indexed": false,
          "name": "newContract",
          "type": "address"
        }
      ],
      "name": "ContractUpgrade",
      "type": "event"
    },
    {
      "constant": false,
      "inputs": [
        {
          "name": "_auctionId",
          "type": "uint256"
        },
        {
          "name": "_description",
          "type": "string"
        },
        {
          "name": "_price",
          "type": "uint256"
        },
        {
          "name": "_minimumIncrement",
          "type": "uint256"
        },
        {
          "name": "_duration",
          "type": "uint256"
        },
        {
          "name": "_increaseTime",
          "type": "uint256"
        }
      ],
      "name": "createAuctionScheme",
      "outputs": [],
      "payable": false,
      "stateMutability": "nonpayable",
      "type": "function"
    },
    {
      "constant": false,
      "inputs": [
        {
          "name": "_auctionId",
          "type": "uint256"
        }
      ],
      "name": "bid",
      "outputs": [],
      "payable": true,
      "stateMutability": "payable",
      "type": "function"
    },
    {
      "constant": false,
      "inputs": [
        {
          "name": "_auctionId",
          "type": "uint256"
        }
      ],
      "name": "endAuction",
      "outputs": [],
      "payable": false,
      "stateMutability": "nonpayable",
      "type": "function"
    },
    {
      "constant": false,
      "inputs": [
        {
          "name": "_auctionId",
          "type": "uint256"
        }
      ],
      "name": "swapAuction",
      "outputs": [],
      "payable": false,
      "stateMutability": "nonpayable",
      "type": "function"
    },
    {
      "constant": false,
      "inputs": [
        {
          "name": "_auctionId",
          "type": "uint256"
        }
      ],
      "name": "enableSwap",
      "outputs": [],
      "payable": false,
      "stateMutability": "nonpayable",
      "type": "function"
    },
    {
      "constant": true,
      "inputs": [],
      "name": "listAuctionIds",
      "outputs": [
        {
          "name": "",
          "type": "uint256[]"
        }
      ],
      "payable": false,
      "stateMutability": "view",
      "type": "function"
    },
    {
      "constant": false,
      "inputs": [
        {
          "name": "_vaultAddress",
          "type": "address"
        }
      ],
      "name": "setVaultAddress",
      "outputs": [],
      "payable": false,
      "stateMutability": "nonpayable",
      "type": "function"
    }
  ],
  "bytecode": "0x60806040526002805460a060020a60ff021916905534801561002057600080fd5b50604051602080610dd383398101604052516005805433600160a060020a03199182161790915560068054909116600160a060020a03909216919091179055610d658061006e6000396000f3006080604052600436106101065763ffffffff7c01000000000000000000000000000000000000000000000000000000006000350416630102fbe0811461010b57806301e30cf7146101255780630519ce79146101955780630a0f8168146101c65780630c06fa6d146101db57806327d7874c146102055780632ba73c15146102265780633f4ba83a14610247578063430bf08a1461025c578063454a2ab3146102715780634e0a33791461027c578063571a26a01461029d5780635c975abb1461038a5780638456cb59146103b357806385535cc5146103c8578063af36ec78146103e9578063b047fb5014610401578063b9a2de3a14610416578063fc8980581461042e575b600080fd5b34801561011757600080fd5b50610123600435610493565b005b34801561013157600080fd5b5060408051602060046024803582810135601f810185900485028601850190965285855261012395833595369560449491939091019190819084018382808284375094975050843595505050602083013592604081013592506060013590506104f2565b3480156101a157600080fd5b506101aa6105a9565b60408051600160a060020a039092168252519081900360200190f35b3480156101d257600080fd5b506101aa6105b8565b3480156101e757600080fd5b506101f36004356105c7565b60408051918252519081900360200190f35b34801561021157600080fd5b50610123600160a060020a03600435166105e6565b34801561023257600080fd5b50610123600160a060020a0360043516610641565b34801561025357600080fd5b5061012361069c565b34801561026857600080fd5b506101aa6106fc565b61012360043561070b565b34801561028857600080fd5b50610123600160a060020a0360043516610849565b3480156102a957600080fd5b506102b56004356108a4565b604080518c81529081018a905260608101899052600160a060020a038816608082015260a0810187905260c0810186905260e0810185905283151561010082015282151561012082015281151561014082015261016060208083018281528d51928401929092528c516101808401918e019080838360005b8381101561034557818101518382015260200161032d565b50505050905090810190601f1680156103725780820380516001836020036101000a031916815260200191505b509c5050505050505050505050505060405180910390f35b34801561039657600080fd5b5061039f610997565b604080519115158252519081900360200190f35b3480156103bf57600080fd5b506101236109b8565b3480156103d457600080fd5b50610123600160a060020a0360043516610a5a565b3480156103f557600080fd5b50610123600435610ab5565b34801561040d57600080fd5b506101aa610b4a565b34801561042257600080fd5b50610123600435610b59565b34801561043a57600080fd5b50610443610c30565b60408051602080825283518183015283519192839290830191858101910280838360005b8381101561047f578181015183820152602001610467565b505050509050019250505060405180910390f35b600054600160a060020a031633146104aa57600080fd5b60008181526003602052604090206006810154600590910154429101116104d057600080fd5b6000908152600360205260409020600801805462ff0000191662010000179055565b6104fb86610c89565b1561050557600080fd5b600086815260036020908152604090912060088101805460ff19166001908117909155888255875161053e939290910191880190610ca1565b5060008681526003602081905260408220600281019690965585019390935560068401919091556007830155426005909201919091556004805460018101825591527f8a35acfbc15ff81a39ae7d344fd709f28e8600b4aa8c65c6b64bfe7fe36bd19b019190915550565b600154600160a060020a031681565b600054600160a060020a031681565b60048054829081106105d557fe5b600091825260209091200154905081565b600054600160a060020a031633146105fd57600080fd5b600160a060020a038116151561061257600080fd5b6000805473ffffffffffffffffffffffffffffffffffffffff1916600160a060020a0392909216919091179055565b600054600160a060020a0316331461065857600080fd5b600160a060020a038116151561066d57600080fd5b6002805473ffffffffffffffffffffffffffffffffffffffff1916600160a060020a0392909216919091179055565b600054600160a060020a031633146106b357600080fd5b60025474010000000000000000000000000000000000000000900460ff1615156106dc57600080fd5b6002805474ff000000000000000000000000000000000000000019169055565b600654600160a060020a031681565b61071481610c89565b151561071f57600080fd5b600081815260036020526040902060068101546005909101544291011061074557600080fd5b6000818152600360208190526040909120908101546002909101540134101561076d57600080fd5b60008181526003602052604080822060048101546002909101549151600160a060020a039091169282156108fc02929190818181858888f193505050501580156107bb573d6000803e3d6000fd5b5060008181526003602090815260409182902060048101805473ffffffffffffffffffffffffffffffffffffffff1916339081179091556007820154600583018054909101905534600290920182905583519081529182018490528183015290517f87f5b2fe112bf269d30fb8ca9dc0bde0afd0cc39258e13fafd75fe794795bf0e9181900360600190a150565b600054600160a060020a0316331461086057600080fd5b600160a060020a038116151561087557600080fd5b6001805473ffffffffffffffffffffffffffffffffffffffff1916600160a060020a0392909216919091179055565b6003602090815260009182526040918290208054600180830180548651600293821615610100026000190190911692909204601f8101869004860283018601909652858252919492939092908301828280156109415780601f1061091657610100808354040283529160200191610941565b820191906000526020600020905b81548152906001019060200180831161092457829003601f168201915b5050505060028301546003840154600485015460058601546006870154600788015460089098015496979496939550600160a060020a0390921693909260ff80821691610100810482169162010000909104168b565b60025474010000000000000000000000000000000000000000900460ff1681565b600254600160a060020a03163314806109db5750600054600160a060020a031633145b806109f05750600154600160a060020a031633145b15156109fb57600080fd5b60025474010000000000000000000000000000000000000000900460ff1615610a2357600080fd5b6002805474ff0000000000000000000000000000000000000000191674010000000000000000000000000000000000000000179055565b600054600160a060020a03163314610a7157600080fd5b600160a060020a0381161515610a8657600080fd5b6006805473ffffffffffffffffffffffffffffffffffffffff1916600160a060020a0392909216919091179055565b60008181526003602052604090206008015462010000900460ff161515600114610ade57600080fd5b6000818152600360205260409020600681015460059091015442910111610b0457600080fd5b600081815260036020526040902060040154600160a060020a03163314610b2a57600080fd5b6000908152600360205260409020600801805461ff001916610100179055565b600254600160a060020a031681565b6000818152600360205260409020600681015460059091015442910111610b7f57600080fd5b600654600082815260036020526040808220600201549051600160a060020a039093169281156108fc0292818181858888f19350505050158015610bc7573d6000803e3d6000fd5b5060008181526003602090815260409182902060048101546002909101548351600160a060020a0390921682529181018490528083019190915290517f099d7286b4d3c895f712c3ba7ea61459fcece0415373b7ff952cfacbda24b08a9181900360600190a150565b60606004805480602002602001604051908101604052809291908181526020018280548015610c7e57602002820191906000526020600020905b815481526020019060010190808311610c6a575b505050505090505b90565b60009081526003602052604090206008015460ff1690565b828054600181600116156101000203166002900490600052602060002090601f016020900481019282601f10610ce257805160ff1916838001178555610d0f565b82800160010185558215610d0f579182015b82811115610d0f578251825591602001919060010190610cf4565b50610d1b929150610d1f565b5090565b610c8691905b80821115610d1b5760008155600101610d255600a165627a7a72305820f1709ca786d6e4cd84250dcfdb1a56ca32038043ec526399e30b7979efd197560029",
  "source": "pragma solidity ^0.4.24;\n\nimport \"./util/AccessControl.sol\";\n\ncontract AuctionFactory is AccessControl {\n\n    struct AuctionScheme {\n        uint id;\n        string description;\n        uint256 price;\n        uint minimumIncrement;\n        address currentOwner;\n        uint timeCreated;\n        uint duration;\n        uint increaseTime;\n        bool isAuctionScheme;\n        bool hasBeenSwaped;\n        bool canBeSwaped;\n    }\n\n    event NewBid(address newBidder, uint256 _auctionId, uint256 amount);\n    event AuctionFinished(address auctionOwner, uint256 _auctionId, uint256 amount);\n\n    mapping (uint => AuctionScheme) public auctions;\n\n    uint256[] public auctionIndexes;\n\n    address ceoAddress;\n\n    address public vaultAddress;\n\n    constructor(address _vaultAddress) public {\n        ceoAddress = msg.sender;\n        vaultAddress = _vaultAddress;\n    }\n\n    function createAuctionScheme(\n        uint _auctionId, \n        string _description, \n        uint _price, \n        uint _minimumIncrement, \n        uint _duration, \n        uint _increaseTime\n    ) public {\n        require(!auctionExists(_auctionId));\n        auctions[_auctionId].isAuctionScheme = true;\n        auctions[_auctionId].id = _auctionId;\n        auctions[_auctionId].description = _description;\n        auctions[_auctionId].price = _price;\n\n        auctions[_auctionId].minimumIncrement = _minimumIncrement;\n        auctions[_auctionId].duration = _duration;\n        auctions[_auctionId].increaseTime = _increaseTime;\n        auctions[_auctionId].timeCreated = block.timestamp;\n\n        auctionIndexes.push(_auctionId);\n    }\n\n    function bid(uint _auctionId) public payable {\n        require(auctionExists(_auctionId));\n        require((auctions[_auctionId].timeCreated + auctions[_auctionId].duration) < block.timestamp);\n        require (msg.value >= auctions[_auctionId].price + auctions[_auctionId].minimumIncrement);\n        auctions[_auctionId].currentOwner.transfer(auctions[_auctionId].price);\n        auctions[_auctionId].currentOwner = msg.sender;\n        auctions[_auctionId].timeCreated += auctions[_auctionId].increaseTime; \n        auctions[_auctionId].price = msg.value;\n        emit NewBid(msg.sender, _auctionId, msg.value);\n    }\n\n    function endAuction(uint _auctionId) public {\n        require((auctions[_auctionId].timeCreated + auctions[_auctionId].duration) > block.timestamp);\n        vaultAddress.transfer(auctions[_auctionId].price);\n        emit AuctionFinished(auctions[_auctionId].currentOwner, _auctionId, auctions[_auctionId].price);\n    }\n\n    function swapAuction(uint _auctionId) public {\n        require (auctions[_auctionId].canBeSwaped == true);\n        require((auctions[_auctionId].timeCreated + auctions[_auctionId].duration) > block.timestamp);\n        require(auctions[_auctionId].currentOwner == msg.sender);\n        auctions[_auctionId].hasBeenSwaped = true;\n    }\n\n    function enableSwap(uint _auctionId) public onlyCEO {\n        require((auctions[_auctionId].timeCreated + auctions[_auctionId].duration) > block.timestamp);\n        auctions[_auctionId].canBeSwaped = true;\n    }\n\n    // Verify existence of id to avoid collision\n    function auctionExists( uint _auctionId) internal view returns(bool) {\n        return auctions[_auctionId].isAuctionScheme;\n    }\n\n    function listAuctionIds() external view returns(uint256[]){\n        return auctionIndexes;\n    }\n\n    // Set a new address for vault contract\n    function setVaultAddress(address _vaultAddress) public onlyCEO {\n        require(_vaultAddress != address(0x0));\n        vaultAddress = _vaultAddress;\n    }\n}",
  "sourcePath": "/Users/jonathanaraneda/BlockchainProjects/unicornsvsdinosaurs-smartcontracts/contracts/AuctionFactory.sol",
  "compiler": {
    "name": "solc",
    "version": "0.4.24+commit.e67f0147.Emscripten.clang"
  },
  "schemaVersion": "2.0.1",
  "updatedAt": "2018-08-03T00:21:33.126Z"
}