{
  "contractName": "BeastOwnership",
  "abi": [
    {
      "constant": true,
      "inputs": [],
      "name": "cfoAddress",
      "outputs": [
        {
          "name": "",
          "type": "address"
        }
      ],
      "payable": false,
      "stateMutability": "view",
      "type": "function"
    },
    {
      "constant": true,
      "inputs": [],
      "name": "name",
      "outputs": [
        {
          "name": "",
          "type": "string"
        }
      ],
      "payable": false,
      "stateMutability": "view",
      "type": "function"
    },
    {
      "constant": true,
      "inputs": [],
      "name": "ceoAddress",
      "outputs": [
        {
          "name": "",
          "type": "address"
        }
      ],
      "payable": false,
      "stateMutability": "view",
      "type": "function"
    },
    {
      "constant": true,
      "inputs": [],
      "name": "siringAuction",
      "outputs": [
        {
          "name": "",
          "type": "address"
        }
      ],
      "payable": false,
      "stateMutability": "view",
      "type": "function"
    },
    {
      "constant": false,
      "inputs": [
        {
          "name": "_newCEO",
          "type": "address"
        }
      ],
      "name": "setCEO",
      "outputs": [],
      "payable": false,
      "stateMutability": "nonpayable",
      "type": "function"
    },
    {
      "constant": false,
      "inputs": [
        {
          "name": "_newCOO",
          "type": "address"
        }
      ],
      "name": "setCOO",
      "outputs": [],
      "payable": false,
      "stateMutability": "nonpayable",
      "type": "function"
    },
    {
      "constant": false,
      "inputs": [],
      "name": "unpause",
      "outputs": [],
      "payable": false,
      "stateMutability": "nonpayable",
      "type": "function"
    },
    {
      "constant": true,
      "inputs": [
        {
          "name": "",
          "type": "uint256"
        }
      ],
      "name": "sireAllowedToAddress",
      "outputs": [
        {
          "name": "",
          "type": "address"
        }
      ],
      "payable": false,
      "stateMutability": "view",
      "type": "function"
    },
    {
      "constant": false,
      "inputs": [
        {
          "name": "_newCFO",
          "type": "address"
        }
      ],
      "name": "setCFO",
      "outputs": [],
      "payable": false,
      "stateMutability": "nonpayable",
      "type": "function"
    },
    {
      "constant": true,
      "inputs": [
        {
          "name": "",
          "type": "uint256"
        }
      ],
      "name": "beastIndexToOwner",
      "outputs": [
        {
          "name": "",
          "type": "address"
        }
      ],
      "payable": false,
      "stateMutability": "view",
      "type": "function"
    },
    {
      "constant": true,
      "inputs": [],
      "name": "paused",
      "outputs": [
        {
          "name": "",
          "type": "bool"
        }
      ],
      "payable": false,
      "stateMutability": "view",
      "type": "function"
    },
    {
      "constant": true,
      "inputs": [],
      "name": "secondsPerBlock",
      "outputs": [
        {
          "name": "",
          "type": "uint256"
        }
      ],
      "payable": false,
      "stateMutability": "view",
      "type": "function"
    },
    {
      "constant": false,
      "inputs": [],
      "name": "pause",
      "outputs": [],
      "payable": false,
      "stateMutability": "nonpayable",
      "type": "function"
    },
    {
      "constant": true,
      "inputs": [],
      "name": "symbol",
      "outputs": [
        {
          "name": "",
          "type": "string"
        }
      ],
      "payable": false,
      "stateMutability": "view",
      "type": "function"
    },
    {
      "constant": true,
      "inputs": [
        {
          "name": "",
          "type": "uint256"
        }
      ],
      "name": "cooldowns",
      "outputs": [
        {
          "name": "",
          "type": "uint32"
        }
      ],
      "payable": false,
      "stateMutability": "view",
      "type": "function"
    },
    {
      "constant": true,
      "inputs": [],
      "name": "cooAddress",
      "outputs": [
        {
          "name": "",
          "type": "address"
        }
      ],
      "payable": false,
      "stateMutability": "view",
      "type": "function"
    },
    {
      "constant": true,
      "inputs": [],
      "name": "erc721Metadata",
      "outputs": [
        {
          "name": "",
          "type": "address"
        }
      ],
      "payable": false,
      "stateMutability": "view",
      "type": "function"
    },
    {
      "constant": true,
      "inputs": [
        {
          "name": "",
          "type": "uint256"
        }
      ],
      "name": "beastIndexToApproved",
      "outputs": [
        {
          "name": "",
          "type": "address"
        }
      ],
      "payable": false,
      "stateMutability": "view",
      "type": "function"
    },
    {
      "constant": true,
      "inputs": [],
      "name": "saleAuction",
      "outputs": [
        {
          "name": "",
          "type": "address"
        }
      ],
      "payable": false,
      "stateMutability": "view",
      "type": "function"
    },
    {
      "anonymous": false,
      "inputs": [
        {
          "indexed": false,
          "name": "from",
          "type": "address"
        },
        {
          "indexed": false,
          "name": "to",
          "type": "address"
        },
        {
          "indexed": false,
          "name": "tokenId",
          "type": "uint256"
        }
      ],
      "name": "Transfer",
      "type": "event"
    },
    {
      "anonymous": false,
      "inputs": [
        {
          "indexed": false,
          "name": "owner",
          "type": "address"
        },
        {
          "indexed": false,
          "name": "approved",
          "type": "address"
        },
        {
          "indexed": false,
          "name": "tokenId",
          "type": "uint256"
        }
      ],
      "name": "Approval",
      "type": "event"
    },
    {
      "anonymous": false,
      "inputs": [
        {
          "indexed": false,
          "name": "owner",
          "type": "address"
        },
        {
          "indexed": false,
          "name": "beastId",
          "type": "uint256"
        },
        {
          "indexed": false,
          "name": "matronId",
          "type": "uint256"
        },
        {
          "indexed": false,
          "name": "sireId",
          "type": "uint256"
        },
        {
          "indexed": false,
          "name": "genes",
          "type": "uint256"
        }
      ],
      "name": "Birth",
      "type": "event"
    },
    {
      "anonymous": false,
      "inputs": [
        {
          "indexed": false,
          "name": "newContract",
          "type": "address"
        }
      ],
      "name": "ContractUpgrade",
      "type": "event"
    },
    {
      "constant": true,
      "inputs": [
        {
          "name": "_interfaceID",
          "type": "bytes4"
        }
      ],
      "name": "supportsInterface",
      "outputs": [
        {
          "name": "",
          "type": "bool"
        }
      ],
      "payable": false,
      "stateMutability": "view",
      "type": "function"
    },
    {
      "constant": false,
      "inputs": [
        {
          "name": "_contractAddress",
          "type": "address"
        }
      ],
      "name": "setMetadataAddress",
      "outputs": [],
      "payable": false,
      "stateMutability": "nonpayable",
      "type": "function"
    },
    {
      "constant": true,
      "inputs": [
        {
          "name": "_owner",
          "type": "address"
        }
      ],
      "name": "balanceOf",
      "outputs": [
        {
          "name": "count",
          "type": "uint256"
        }
      ],
      "payable": false,
      "stateMutability": "view",
      "type": "function"
    },
    {
      "constant": false,
      "inputs": [
        {
          "name": "_to",
          "type": "address"
        },
        {
          "name": "_tokenId",
          "type": "uint256"
        }
      ],
      "name": "transfer",
      "outputs": [],
      "payable": false,
      "stateMutability": "nonpayable",
      "type": "function"
    },
    {
      "constant": false,
      "inputs": [
        {
          "name": "_to",
          "type": "address"
        },
        {
          "name": "_tokenId",
          "type": "uint256"
        }
      ],
      "name": "approve",
      "outputs": [],
      "payable": false,
      "stateMutability": "nonpayable",
      "type": "function"
    },
    {
      "constant": false,
      "inputs": [
        {
          "name": "_from",
          "type": "address"
        },
        {
          "name": "_to",
          "type": "address"
        },
        {
          "name": "_tokenId",
          "type": "uint256"
        }
      ],
      "name": "transferFrom",
      "outputs": [],
      "payable": false,
      "stateMutability": "nonpayable",
      "type": "function"
    },
    {
      "constant": true,
      "inputs": [],
      "name": "totalSupply",
      "outputs": [
        {
          "name": "",
          "type": "uint256"
        }
      ],
      "payable": false,
      "stateMutability": "view",
      "type": "function"
    },
    {
      "constant": true,
      "inputs": [
        {
          "name": "_tokenId",
          "type": "uint256"
        }
      ],
      "name": "ownerOf",
      "outputs": [
        {
          "name": "owner",
          "type": "address"
        }
      ],
      "payable": false,
      "stateMutability": "view",
      "type": "function"
    },
    {
      "constant": true,
      "inputs": [
        {
          "name": "_owner",
          "type": "address"
        }
      ],
      "name": "tokensOfOwner",
      "outputs": [
        {
          "name": "ownerTokens",
          "type": "uint256[]"
        }
      ],
      "payable": false,
      "stateMutability": "view",
      "type": "function"
    },
    {
      "constant": true,
      "inputs": [
        {
          "name": "_tokenId",
          "type": "uint256"
        },
        {
          "name": "_preferredTransport",
          "type": "string"
        }
      ],
      "name": "tokenMetadata",
      "outputs": [
        {
          "name": "infoUrl",
          "type": "string"
        }
      ],
      "payable": false,
      "stateMutability": "view",
      "type": "function"
    }
  ],
  "bytecode": "0x6002805460a060020a60ff0219169055610240604052603c6080908152607860a05261012c60c05261025860e05261070861010052610e1061012052611c2061014052613840610160526170806101805261e1006101a052620151806101c0526202a3006101e052620546006102005262093a80610220526200008790600390600e620000a1565b50600f6005553480156200009a57600080fd5b506200016b565b600283019183908215620001325791602002820160005b83821115620000fe57835183826101000a81548163ffffffff021916908363ffffffff1602179055509260200192600401602081600301049283019260010302620000b8565b8015620001305782816101000a81549063ffffffff0219169055600401602081600301049283019260010302620000fe565b505b506200014092915062000144565b5090565b6200016891905b808211156200014057805463ffffffff191681556001016200014b565b90565b611183806200017b6000396000f3006080604052600436106101745763ffffffff7c010000000000000000000000000000000000000000000000000000000060003504166301ffc9a781146101795780630519ce79146101c45780630560ff44146101f557806306fdde031461028e578063095ea7b3146102a35780630a0f8168146102c957806318160ddd146102de57806321717ebf1461030557806323b872dd1461031a57806327d7874c146103445780632ba73c15146103655780633f4ba83a1461038657806346116e6f1461039b5780634e0a3379146103b35780635318673f146103d45780635c975abb146103ec5780636352211e1461040157806370a08231146104195780637a7d49371461043a5780638456cb591461044f5780638462151c1461046457806395d89b41146104d55780639d6fac6f146104ea578063a9059cbb1461051b578063b047fb501461053f578063bc4006f514610554578063d11dffee14610569578063e17b25af14610581578063e6cbe351146105a2575b600080fd5b34801561018557600080fd5b506101b07bffffffffffffffffffffffffffffffffffffffffffffffffffffffff19600435166105b7565b604080519115158252519081900360200190f35b3480156101d057600080fd5b506101d961084a565b60408051600160a060020a039092168252519081900360200190f35b34801561020157600080fd5b50610219600480359060248035908101910135610859565b6040805160208082528351818301528351919283929083019185019080838360005b8381101561025357818101518382015260200161023b565b50505050905090810190601f1680156102805780820380516001836020036101000a031916815260200191505b509250505060405180910390f35b34801561029a57600080fd5b5061021961095c565b3480156102af57600080fd5b506102c7600160a060020a0360043516602435610993565b005b3480156102d557600080fd5b506101d9610a15565b3480156102ea57600080fd5b506102f3610a24565b60408051918252519081900360200190f35b34801561031157600080fd5b506101d9610a2e565b34801561032657600080fd5b506102c7600160a060020a0360043581169060243516604435610a3d565b34801561035057600080fd5b506102c7600160a060020a0360043516610ab9565b34801561037157600080fd5b506102c7600160a060020a0360043516610b07565b34801561039257600080fd5b506102c7610b55565b3480156103a757600080fd5b506101d9600435610ba4565b3480156103bf57600080fd5b506102c7600160a060020a0360043516610bbf565b3480156103e057600080fd5b506101d9600435610c0d565b3480156103f857600080fd5b506101b0610c28565b34801561040d57600080fd5b506101d9600435610c38565b34801561042557600080fd5b506102f3600160a060020a0360043516610c5c565b34801561044657600080fd5b506102f3610c77565b34801561045b57600080fd5b506102c7610c7d565b34801561047057600080fd5b50610485600160a060020a0360043516610cfd565b60408051602080825283518183015283519192839290830191858101910280838360005b838110156104c15781810151838201526020016104a9565b505050509050019250505060405180910390f35b3480156104e157600080fd5b50610219610dcf565b3480156104f657600080fd5b50610502600435610e06565b6040805163ffffffff9092168252519081900360200190f35b34801561052757600080fd5b506102c7600160a060020a0360043516602435610e33565b34801561054b57600080fd5b506101d9610ecf565b34801561056057600080fd5b506101d9610ede565b34801561057557600080fd5b506101d9600435610eed565b34801561058d57600080fd5b506102c7600160a060020a0360043516610f08565b3480156105ae57600080fd5b506101d9610f41565b604080517f737570706f727473496e74657266616365286279746573342900000000000000815290519081900360190190206000907bffffffffffffffffffffffffffffffffffffffffffffffffffffffff19838116911614806108425750604080517f746f6b656e4d657461646174612875696e743235362c737472696e67290000008152815190819003601d0181207f746f6b656e734f664f776e657228616464726573732900000000000000000000825282519182900360160182207f7472616e7366657246726f6d28616464726573732c616464726573732c75696e83527f7432353629000000000000000000000000000000000000000000000000000000602084015283519283900360250183207f7472616e7366657228616464726573732c75696e743235362900000000000000845284519384900360190184207f617070726f766528616464726573732c75696e74323536290000000000000000855285519485900360180185207f6f776e65724f662875696e743235362900000000000000000000000000000000865286519586900360100186207f62616c616e63654f662861646472657373290000000000000000000000000000875287519687900360120187207f746f74616c537570706c792829000000000000000000000000000000000000008852885197889003600d0188207f73796d626f6c2829000000000000000000000000000000000000000000000000895289519889900360080189207f6e616d65282900000000000000000000000000000000000000000000000000008a529951988990036006019098207bffffffffffffffffffffffffffffffffffffffffffffffffffffffff198c811691909a189098181818181818181891909116145b90505b919050565b600154600160a060020a031681565b6060610863611138565b600d54600090600160a060020a0316151561087d57600080fd5b600d54604080517fcb4799f2000000000000000000000000000000000000000000000000000000008152600481018981526024820192835260448201889052600160a060020a039093169263cb4799f2928a928a928a929091606401848480828437820191505094505050505060a060405180830381600087803b15801561090457600080fd5b505af1158015610918573d6000803e3d6000fd5b505050506040513d601f19601f8201168201806040525060a081101561093d57600080fd5b50608081015190925090506109528282610f50565b9695505050505050565b60408051808201909152601181527f52756d626c654c6567656e644265617374000000000000000000000000000000602082015281565b60025460a060020a900460ff16156109aa57600080fd5b6109b43382610fa4565b15156109bf57600080fd5b6109c98183610fc4565b60408051338152600160a060020a038416602082015280820183905290517f8c5be1e5ebec7d5bd14f71427d1e84f3dd0314c0f7b2291e5b200ac8c7c3b9259181900360600190a15050565b600054600160a060020a031681565b6006546000190190565b600c54600160a060020a031681565b60025460a060020a900460ff1615610a5457600080fd5b600160a060020a0382161515610a6957600080fd5b600160a060020a038216301415610a7f57600080fd5b610a893382610ff2565b1515610a9457600080fd5b610a9e8382610fa4565b1515610aa957600080fd5b610ab4838383611012565b505050565b600054600160a060020a03163314610ad057600080fd5b600160a060020a0381161515610ae557600080fd5b60008054600160a060020a031916600160a060020a0392909216919091179055565b600054600160a060020a03163314610b1e57600080fd5b600160a060020a0381161515610b3357600080fd5b60028054600160a060020a031916600160a060020a0392909216919091179055565b600054600160a060020a03163314610b6c57600080fd5b60025460a060020a900460ff161515610b8457600080fd5b6002805474ff000000000000000000000000000000000000000019169055565b600a60205260009081526040902054600160a060020a031681565b600054600160a060020a03163314610bd657600080fd5b600160a060020a0381161515610beb57600080fd5b60018054600160a060020a031916600160a060020a0392909216919091179055565b600760205260009081526040902054600160a060020a031681565b60025460a060020a900460ff1681565b600081815260076020526040902054600160a060020a031680151561084557600080fd5b600160a060020a031660009081526008602052604090205490565b60055481565b600254600160a060020a0316331480610ca05750600054600160a060020a031633145b80610cb55750600154600160a060020a031633145b1515610cc057600080fd5b60025460a060020a900460ff1615610cd757600080fd5b6002805474ff0000000000000000000000000000000000000000191660a060020a179055565b6060600060606000806000610d1187610c5c565b9450841515610d30576040805160008152602081019091529550610dc5565b84604051908082528060200260200182016040528015610d5a578160200160208202803883390190505b509350610d65610a24565b925060009150600190505b828111610dc157600081815260076020526040902054600160a060020a0388811691161415610db957808483815181101515610da857fe5b602090810290910101526001909101905b600101610d70565b8395505b5050505050919050565b60408051808201909152600381527f524c420000000000000000000000000000000000000000000000000000000000602082015281565b600381600e8110610e1357fe5b60089182820401919006600402915054906101000a900463ffffffff1681565b60025460a060020a900460ff1615610e4a57600080fd5b600160a060020a0382161515610e5f57600080fd5b600160a060020a038216301415610e7557600080fd5b600b54600160a060020a0383811691161415610e9057600080fd5b600c54600160a060020a0383811691161415610eab57600080fd5b610eb53382610fa4565b1515610ec057600080fd5b610ecb338383611012565b5050565b600254600160a060020a031681565b600d54600160a060020a031681565b600960205260009081526040902054600160a060020a031681565b600054600160a060020a03163314610f1f57600080fd5b600d8054600160a060020a031916600160a060020a0392909216919091179055565b600b54600160a060020a031681565b606080600080846040519080825280601f01601f191660200182016040528015610f84578160200160208202803883390190505b5092505060208201905084610f9a8282876110f4565b5090949350505050565b600090815260076020526040902054600160a060020a0391821691161490565b6000918252600960205260409091208054600160a060020a031916600160a060020a03909216919091179055565b600090815260096020526040902054600160a060020a0391821691161490565b600160a060020a03808316600081815260086020908152604080832080546001019055858352600790915290208054600160a060020a03191690911790558316156110a557600160a060020a03831660009081526008602090815260408083208054600019019055838352600a82528083208054600160a060020a03199081169091556009909252909120805490911690555b60408051600160a060020a0380861682528416602082015280820183905290517fddf252ad1be2c89b69c2b068fc378daa952ba7f163c4a11628f55a4df523b3ef9181900360600190a1505050565b60005b60208210611119578251845260209384019390920191601f19909101906110f7565b50905182516020929092036101000a6000190180199091169116179052565b60806040519081016040528060049060208202803883395091929150505600a165627a7a72305820afa7f90b3ceffccde0b74343ea0abd116e272413a987d3e1ee13b316d17067b30029",
  "source": "pragma solidity ^0.4.24;\n\nimport \"./BeastBase.sol\";\nimport \"./token/ERC721Metadata.sol\";\nimport \"./token/ERC721.sol\";\n\ncontract BeastOwnership  is BeastBase, ERC721 {\n\n    /// @notice Name and symbol of the non fungible token, as defined in ERC721.\n    string public constant name = \"RumbleLegendBeast\";\n    string public constant symbol = \"RLB\";\n\n    // The contract that will return beast metadata\n    ERC721Metadata public erc721Metadata;\n\n    bytes4 constant InterfaceSignature_ERC165 = bytes4(keccak256(\"supportsInterface(bytes4)\"));\n\n    bytes4 constant InterfaceSignature_ERC721 = \n        bytes4(keccak256(\"name()\")) ^\n        bytes4(keccak256(\"symbol()\")) ^\n        bytes4(keccak256(\"totalSupply()\")) ^\n        bytes4(keccak256(\"balanceOf(address)\")) ^\n        bytes4(keccak256(\"ownerOf(uint256)\")) ^\n        bytes4(keccak256(\"approve(address,uint256)\")) ^\n        bytes4(keccak256(\"transfer(address,uint256)\")) ^\n        bytes4(keccak256(\"transferFrom(address,address,uint256)\")) ^\n        bytes4(keccak256(\"tokensOfOwner(address)\")) ^\n        bytes4(keccak256(\"tokenMetadata(uint256,string)\"));\n\n    /// @notice Introspection interface as per ERC-165 (https://github.com/ethereum/EIPs/issues/165).\n    ///  Returns true for any standardized interfaces implemented by this contract. We implement\n    ///  ERC-165 (obviously!) and ERC-721.\n    function supportsInterface(bytes4 _interfaceID) external view returns (bool) {\n        // DEBUG ONLY\n        //require((InterfaceSignature_ERC165 == 0x01ffc9a7) && (InterfaceSignature_ERC721 == 0x9a20483d));\n\n        return ((_interfaceID == InterfaceSignature_ERC165) || (_interfaceID == InterfaceSignature_ERC721));\n    }\n\n    /// @dev Set the address of the sibling contract that tracks metadata.\n    ///  CEO only.\n    function setMetadataAddress(address _contractAddress) public onlyCEO {\n        erc721Metadata = ERC721Metadata(_contractAddress);\n    }\n\n    // Internal utility functions: These functions all assume that their input arguments\n    // are valid. We leave it to public methods to sanitize their inputs and follow\n    // the required logic.\n\n    /// @dev Checks if a given address is the current owner of a particular Beast.\n    /// @param _claimant the address we are validating against.\n    /// @param _tokenId beast id, only valid when > 0\n    function _owns(address _claimant, uint256 _tokenId) internal view returns (bool) {\n        return beastIndexToOwner[_tokenId] == _claimant;\n    }\n\n    /// @dev Checks if a given address currently has transferApproval for a particular Beast.\n    /// @param _claimant the address we are confirming beast is approved for.\n    /// @param _tokenId beast id, only valid when > 0\n    function _approvedFor(address _claimant, uint256 _tokenId) internal view returns (bool) {\n        return beastIndexToApproved[_tokenId] == _claimant;\n    }\n\n    /// @dev Marks an address as being approved for transferFrom(), overwriting any previous\n    ///  approval. Setting _approved to address(0) clears all transfer approval.\n    ///  NOTE: _approve() does NOT send the Approval event. This is intentional because\n    ///  _approve() and transferFrom() are used together for putting Beasts on auction, and\n    ///  there is no value in spamming the log with Approval events in that case.\n    function _approve(uint256 _tokenId, address _approved) internal {\n        beastIndexToApproved[_tokenId] = _approved;\n    }\n\n    /// @notice Returns the number of Beasts owned by a specific address.\n    /// @param _owner The owner address to check.\n    /// @dev Required for ERC-721 compliance\n    function balanceOf(address _owner) public view returns (uint256 count) {\n        return ownershipTokenCount[_owner];\n    }\n\n    /// @notice Transfers a Beast to another address. If transferring to a smart\n    ///  contract be VERY CAREFUL to ensure that it is aware of ERC-721 (or\n    ///  RumbleLegends specifically) or your Beast may be lost forever. Seriously.\n    /// @param _to The address of the recipient, can be a user or contract.\n    /// @param _tokenId The ID of the Beast to transfer.\n    /// @dev Required for ERC-721 compliance.\n    function transfer(\n        address _to,\n        uint256 _tokenId\n    )\n        external\n        whenNotPaused\n    {\n        // Safety check to prevent against an unexpected 0x0 default.\n        require(_to != address(0));\n        // Disallow transfers to this contract to prevent accidental misuse.\n        // The contract should never own any beasts (except very briefly\n        // after a gen0 cat is created and before it goes on auction).\n        require(_to != address(this));\n        // Disallow transfers to the auction contracts to prevent accidental\n        // misuse. Auction contracts should only take ownership of beasts\n        // through the allow + transferFrom flow.\n        \n        require(_to != address(saleAuction));\n        require(_to != address(siringAuction));\n\n        // You can only send your own cat.\n        require(_owns(msg.sender, _tokenId));\n\n        // Reassign ownership, clear pending approvals, emit Transfer event.\n        _transfer(msg.sender, _to, _tokenId);\n    }\n\n    /// @notice Grant another address the right to transfer a specific Beast via\n    ///  transferFrom(). This is the preferred flow for transfering NFTs to contracts.\n    /// @param _to The address to be granted transfer approval. Pass address(0) to\n    ///  clear all approvals.\n    /// @param _tokenId The ID of the Beast that can be transferred if this call succeeds.\n    /// @dev Required for ERC-721 compliance.\n    function approve(\n        address _to,\n        uint256 _tokenId\n    )\n        external\n        whenNotPaused\n    {\n        // Only an owner can grant transfer approval.\n        require(_owns(msg.sender, _tokenId));\n\n        // Register the approval (replacing any previous approval).\n        _approve(_tokenId, _to);\n\n        // Emit approval event.\n        Approval(msg.sender, _to, _tokenId);\n    }\n\n    /// @notice Transfer a Beast owned by another address, for which the calling address\n    ///  has previously been granted transfer approval by the owner.\n    /// @param _from The address that owns the Beast to be transfered.\n    /// @param _to The address that should take ownership of the Beast. Can be any address,\n    ///  including the caller.\n    /// @param _tokenId The ID of the Beast to be transferred.\n    /// @dev Required for ERC-721 compliance.\n    function transferFrom(\n        address _from,\n        address _to,\n        uint256 _tokenId\n    )\n        external\n        whenNotPaused\n    {\n        // Safety check to prevent against an unexpected 0x0 default.\n        require(_to != address(0));\n        // Disallow transfers to this contract to prevent accidental misuse.\n        // The contract should never own any beasts (except very briefly\n        // after a gen0 cat is created and before it goes on auction).\n        require(_to != address(this));\n        // Check for approval and valid ownership\n        require(_approvedFor(msg.sender, _tokenId));\n        require(_owns(_from, _tokenId));\n\n        // Reassign ownership (also clears pending approvals and emits Transfer event).\n        _transfer(_from, _to, _tokenId);\n    }\n\n    /// @notice Returns the total number of beasts currently in existence.\n    /// @dev Required for ERC-721 compliance.\n    function totalSupply() public view returns (uint) {\n        return beasts.length - 1;\n    }\n\n    /// @notice Returns the address currently assigned ownership of a given Beast.\n    /// @dev Required for ERC-721 compliance.\n    function ownerOf(uint256 _tokenId)\n        external\n        view\n        returns (address owner)\n    {\n        owner = beastIndexToOwner[_tokenId];\n\n        require(owner != address(0));\n    }\n\n    /// @notice Returns a list of all Beast IDs assigned to an address.\n    /// @param _owner The owner whose beasts we are interested in.\n    /// @dev This method MUST NEVER be called by smart contract code. First, it's fairly\n    ///  expensive (it walks the entire Beast array looking for cats belonging to owner),\n    ///  but it also returns a dynamic array, which is only supported for web3 calls, and\n    ///  not contract-to-contract calls.\n    function tokensOfOwner(address _owner) external view returns(uint256[] ownerTokens) {\n        uint256 tokenCount = balanceOf(_owner);\n\n        if (tokenCount == 0) {\n            // Return an empty array\n            return new uint256[](0);\n        } else {\n            uint256[] memory result = new uint256[](tokenCount);\n            uint256 totalBeasts = totalSupply();\n            uint256 resultIndex = 0;\n\n            // We count on the fact that all cats have IDs starting at 1 and increasing\n            // sequentially up to the totalCat count.\n            uint256 beastId;\n\n            for (beastId = 1; beastId <= totalBeasts; beastId++) {\n                if (beastIndexToOwner[beastId] == _owner) {\n                    result[resultIndex] = beastId;\n                    resultIndex++;\n                }\n            }\n\n            return result;\n        }\n    }\n\n    /// @dev Adapted from memcpy() by @arachnid (Nick Johnson <arachnid@notdot.net>)\n    ///  This method is licenced under the Apache License.\n    ///  Ref: https://github.com/Arachnid/solidity-stringutils/blob/2f6ca9accb48ae14c66f1437ec50ed19a0616f78/strings.sol\n    function _memcpy(uint _dest, uint _src, uint _len) private view {\n        // Copy word-length chunks while possible\n        for(; _len >= 32; _len -= 32) {\n            assembly {\n                mstore(_dest, mload(_src))\n            }\n            _dest += 32;\n            _src += 32;\n        }\n\n        // Copy remaining bytes\n        uint256 mask = 256 ** (32 - _len) - 1;\n        assembly {\n            let srcpart := and(mload(_src), not(mask))\n            let destpart := and(mload(_dest), mask)\n            mstore(_dest, or(destpart, srcpart))\n        }\n    }\n\n    /// @dev Adapted from toString(slice) by @arachnid (Nick Johnson <arachnid@notdot.net>)\n    ///  This method is licenced under the Apache License.\n    ///  Ref: https://github.com/Arachnid/solidity-stringutils/blob/2f6ca9accb48ae14c66f1437ec50ed19a0616f78/strings.sol\n    function _toString(bytes32[4] _rawBytes, uint256 _stringLength) private view returns (string) {\n        var outputString = new string(_stringLength);\n        uint256 outputPtr;\n        uint256 bytesPtr;\n\n        assembly {\n            outputPtr := add(outputString, 32)\n            bytesPtr := _rawBytes\n        }\n\n        _memcpy(outputPtr, bytesPtr, _stringLength);\n\n        return outputString;\n    }\n\n    /// @notice Returns a URI pointing to a metadata package for this token conforming to\n    ///  ERC-721 (https://github.com/ethereum/EIPs/issues/721)\n    /// @param _tokenId The ID number of the Beast whose metadata should be returned.\n    function tokenMetadata(uint256 _tokenId, string _preferredTransport) external view returns (string infoUrl) {\n        require(erc721Metadata != address(0));\n        bytes32[4] memory buffer;\n        uint256 count;\n        (buffer, count) = erc721Metadata.getMetadata(_tokenId, _preferredTransport);\n\n        return _toString(buffer, count);\n    }\n}\n",
  "sourcePath": "/Users/jonathanaraneda/BlockchainProjects/unicornsvsdinosaurs-smartcontracts/contracts/BeastOwnership.sol",
  "compiler": {
    "name": "solc",
    "version": "0.4.24+commit.e67f0147.Emscripten.clang"
  },
  "schemaVersion": "2.0.1",
  "updatedAt": "2018-08-03T01:48:24.072Z"
}