{
  "contractName": "BeastAuction",
  "abi": [
    {
      "constant": true,
      "inputs": [
        {
          "name": "_interfaceID",
          "type": "bytes4"
        }
      ],
      "name": "supportsInterface",
      "outputs": [
        {
          "name": "",
          "type": "bool"
        }
      ],
      "payable": false,
      "stateMutability": "view",
      "type": "function"
    },
    {
      "constant": true,
      "inputs": [],
      "name": "cfoAddress",
      "outputs": [
        {
          "name": "",
          "type": "address"
        }
      ],
      "payable": false,
      "stateMutability": "view",
      "type": "function"
    },
    {
      "constant": true,
      "inputs": [
        {
          "name": "_tokenId",
          "type": "uint256"
        },
        {
          "name": "_preferredTransport",
          "type": "string"
        }
      ],
      "name": "tokenMetadata",
      "outputs": [
        {
          "name": "infoUrl",
          "type": "string"
        }
      ],
      "payable": false,
      "stateMutability": "view",
      "type": "function"
    },
    {
      "constant": true,
      "inputs": [],
      "name": "name",
      "outputs": [
        {
          "name": "",
          "type": "string"
        }
      ],
      "payable": false,
      "stateMutability": "view",
      "type": "function"
    },
    {
      "constant": false,
      "inputs": [
        {
          "name": "_to",
          "type": "address"
        },
        {
          "name": "_tokenId",
          "type": "uint256"
        }
      ],
      "name": "approve",
      "outputs": [],
      "payable": false,
      "stateMutability": "nonpayable",
      "type": "function"
    },
    {
      "constant": true,
      "inputs": [],
      "name": "ceoAddress",
      "outputs": [
        {
          "name": "",
          "type": "address"
        }
      ],
      "payable": false,
      "stateMutability": "view",
      "type": "function"
    },
    {
      "constant": true,
      "inputs": [],
      "name": "totalSupply",
      "outputs": [
        {
          "name": "",
          "type": "uint256"
        }
      ],
      "payable": false,
      "stateMutability": "view",
      "type": "function"
    },
    {
      "constant": true,
      "inputs": [
        {
          "name": "_beastId",
          "type": "uint256"
        }
      ],
      "name": "isPregnant",
      "outputs": [
        {
          "name": "",
          "type": "bool"
        }
      ],
      "payable": false,
      "stateMutability": "view",
      "type": "function"
    },
    {
      "constant": false,
      "inputs": [
        {
          "name": "_address",
          "type": "address"
        }
      ],
      "name": "setGeneMagicAddress",
      "outputs": [],
      "payable": false,
      "stateMutability": "nonpayable",
      "type": "function"
    },
    {
      "constant": true,
      "inputs": [],
      "name": "siringAuction",
      "outputs": [
        {
          "name": "",
          "type": "address"
        }
      ],
      "payable": false,
      "stateMutability": "view",
      "type": "function"
    },
    {
      "constant": false,
      "inputs": [
        {
          "name": "_from",
          "type": "address"
        },
        {
          "name": "_to",
          "type": "address"
        },
        {
          "name": "_tokenId",
          "type": "uint256"
        }
      ],
      "name": "transferFrom",
      "outputs": [],
      "payable": false,
      "stateMutability": "nonpayable",
      "type": "function"
    },
    {
      "constant": false,
      "inputs": [
        {
          "name": "_newCEO",
          "type": "address"
        }
      ],
      "name": "setCEO",
      "outputs": [],
      "payable": false,
      "stateMutability": "nonpayable",
      "type": "function"
    },
    {
      "constant": false,
      "inputs": [
        {
          "name": "_newCOO",
          "type": "address"
        }
      ],
      "name": "setCOO",
      "outputs": [],
      "payable": false,
      "stateMutability": "nonpayable",
      "type": "function"
    },
    {
      "constant": false,
      "inputs": [],
      "name": "unpause",
      "outputs": [],
      "payable": false,
      "stateMutability": "nonpayable",
      "type": "function"
    },
    {
      "constant": true,
      "inputs": [
        {
          "name": "",
          "type": "uint256"
        }
      ],
      "name": "sireAllowedToAddress",
      "outputs": [
        {
          "name": "",
          "type": "address"
        }
      ],
      "payable": false,
      "stateMutability": "view",
      "type": "function"
    },
    {
      "constant": true,
      "inputs": [
        {
          "name": "_matronId",
          "type": "uint256"
        },
        {
          "name": "_sireId",
          "type": "uint256"
        }
      ],
      "name": "canBreedWith",
      "outputs": [
        {
          "name": "",
          "type": "bool"
        }
      ],
      "payable": false,
      "stateMutability": "view",
      "type": "function"
    },
    {
      "constant": false,
      "inputs": [
        {
          "name": "val",
          "type": "uint256"
        }
      ],
      "name": "setAutoBirthFee",
      "outputs": [],
      "payable": false,
      "stateMutability": "nonpayable",
      "type": "function"
    },
    {
      "constant": false,
      "inputs": [
        {
          "name": "_addr",
          "type": "address"
        },
        {
          "name": "_sireId",
          "type": "uint256"
        }
      ],
      "name": "approveSiring",
      "outputs": [],
      "payable": false,
      "stateMutability": "nonpayable",
      "type": "function"
    },
    {
      "constant": false,
      "inputs": [
        {
          "name": "_newCFO",
          "type": "address"
        }
      ],
      "name": "setCFO",
      "outputs": [],
      "payable": false,
      "stateMutability": "nonpayable",
      "type": "function"
    },
    {
      "constant": true,
      "inputs": [
        {
          "name": "",
          "type": "uint256"
        }
      ],
      "name": "beastIndexToOwner",
      "outputs": [
        {
          "name": "",
          "type": "address"
        }
      ],
      "payable": false,
      "stateMutability": "view",
      "type": "function"
    },
    {
      "constant": true,
      "inputs": [],
      "name": "paused",
      "outputs": [
        {
          "name": "",
          "type": "bool"
        }
      ],
      "payable": false,
      "stateMutability": "view",
      "type": "function"
    },
    {
      "constant": true,
      "inputs": [
        {
          "name": "_tokenId",
          "type": "uint256"
        }
      ],
      "name": "ownerOf",
      "outputs": [
        {
          "name": "owner",
          "type": "address"
        }
      ],
      "payable": false,
      "stateMutability": "view",
      "type": "function"
    },
    {
      "constant": true,
      "inputs": [
        {
          "name": "_owner",
          "type": "address"
        }
      ],
      "name": "balanceOf",
      "outputs": [
        {
          "name": "count",
          "type": "uint256"
        }
      ],
      "payable": false,
      "stateMutability": "view",
      "type": "function"
    },
    {
      "constant": true,
      "inputs": [],
      "name": "secondsPerBlock",
      "outputs": [
        {
          "name": "",
          "type": "uint256"
        }
      ],
      "payable": false,
      "stateMutability": "view",
      "type": "function"
    },
    {
      "constant": true,
      "inputs": [],
      "name": "geneMagic",
      "outputs": [
        {
          "name": "",
          "type": "address"
        }
      ],
      "payable": false,
      "stateMutability": "view",
      "type": "function"
    },
    {
      "constant": false,
      "inputs": [],
      "name": "pause",
      "outputs": [],
      "payable": false,
      "stateMutability": "nonpayable",
      "type": "function"
    },
    {
      "constant": true,
      "inputs": [
        {
          "name": "_owner",
          "type": "address"
        }
      ],
      "name": "tokensOfOwner",
      "outputs": [
        {
          "name": "ownerTokens",
          "type": "uint256[]"
        }
      ],
      "payable": false,
      "stateMutability": "view",
      "type": "function"
    },
    {
      "constant": false,
      "inputs": [
        {
          "name": "_matronId",
          "type": "uint256"
        }
      ],
      "name": "giveBirth",
      "outputs": [
        {
          "name": "",
          "type": "uint256"
        }
      ],
      "payable": false,
      "stateMutability": "nonpayable",
      "type": "function"
    },
    {
      "constant": true,
      "inputs": [],
      "name": "symbol",
      "outputs": [
        {
          "name": "",
          "type": "string"
        }
      ],
      "payable": false,
      "stateMutability": "view",
      "type": "function"
    },
    {
      "constant": true,
      "inputs": [
        {
          "name": "",
          "type": "uint256"
        }
      ],
      "name": "cooldowns",
      "outputs": [
        {
          "name": "",
          "type": "uint32"
        }
      ],
      "payable": false,
      "stateMutability": "view",
      "type": "function"
    },
    {
      "constant": false,
      "inputs": [
        {
          "name": "_to",
          "type": "address"
        },
        {
          "name": "_tokenId",
          "type": "uint256"
        }
      ],
      "name": "transfer",
      "outputs": [],
      "payable": false,
      "stateMutability": "nonpayable",
      "type": "function"
    },
    {
      "constant": true,
      "inputs": [],
      "name": "cooAddress",
      "outputs": [
        {
          "name": "",
          "type": "address"
        }
      ],
      "payable": false,
      "stateMutability": "view",
      "type": "function"
    },
    {
      "constant": true,
      "inputs": [],
      "name": "autoBirthFee",
      "outputs": [
        {
          "name": "",
          "type": "uint256"
        }
      ],
      "payable": false,
      "stateMutability": "view",
      "type": "function"
    },
    {
      "constant": true,
      "inputs": [],
      "name": "pregnantBeasts",
      "outputs": [
        {
          "name": "",
          "type": "uint256"
        }
      ],
      "payable": false,
      "stateMutability": "view",
      "type": "function"
    },
    {
      "constant": true,
      "inputs": [],
      "name": "erc721Metadata",
      "outputs": [
        {
          "name": "",
          "type": "address"
        }
      ],
      "payable": false,
      "stateMutability": "view",
      "type": "function"
    },
    {
      "constant": true,
      "inputs": [
        {
          "name": "",
          "type": "uint256"
        }
      ],
      "name": "beastIndexToApproved",
      "outputs": [
        {
          "name": "",
          "type": "address"
        }
      ],
      "payable": false,
      "stateMutability": "view",
      "type": "function"
    },
    {
      "constant": true,
      "inputs": [
        {
          "name": "_beastId",
          "type": "uint256"
        }
      ],
      "name": "isReadyToBreed",
      "outputs": [
        {
          "name": "",
          "type": "bool"
        }
      ],
      "payable": false,
      "stateMutability": "view",
      "type": "function"
    },
    {
      "constant": false,
      "inputs": [
        {
          "name": "_contractAddress",
          "type": "address"
        }
      ],
      "name": "setMetadataAddress",
      "outputs": [],
      "payable": false,
      "stateMutability": "nonpayable",
      "type": "function"
    },
    {
      "constant": true,
      "inputs": [],
      "name": "saleAuction",
      "outputs": [
        {
          "name": "",
          "type": "address"
        }
      ],
      "payable": false,
      "stateMutability": "view",
      "type": "function"
    },
    {
      "constant": false,
      "inputs": [
        {
          "name": "_matronId",
          "type": "uint256"
        },
        {
          "name": "_sireId",
          "type": "uint256"
        }
      ],
      "name": "breedWithAuto",
      "outputs": [],
      "payable": true,
      "stateMutability": "payable",
      "type": "function"
    },
    {
      "anonymous": false,
      "inputs": [
        {
          "indexed": false,
          "name": "owner",
          "type": "address"
        },
        {
          "indexed": false,
          "name": "matronId",
          "type": "uint256"
        },
        {
          "indexed": false,
          "name": "sireId",
          "type": "uint256"
        },
        {
          "indexed": false,
          "name": "cooldownEndBlock",
          "type": "uint256"
        }
      ],
      "name": "Pregnant",
      "type": "event"
    },
    {
      "anonymous": false,
      "inputs": [
        {
          "indexed": false,
          "name": "from",
          "type": "address"
        },
        {
          "indexed": false,
          "name": "to",
          "type": "address"
        },
        {
          "indexed": false,
          "name": "tokenId",
          "type": "uint256"
        }
      ],
      "name": "Transfer",
      "type": "event"
    },
    {
      "anonymous": false,
      "inputs": [
        {
          "indexed": false,
          "name": "owner",
          "type": "address"
        },
        {
          "indexed": false,
          "name": "approved",
          "type": "address"
        },
        {
          "indexed": false,
          "name": "tokenId",
          "type": "uint256"
        }
      ],
      "name": "Approval",
      "type": "event"
    },
    {
      "anonymous": false,
      "inputs": [
        {
          "indexed": false,
          "name": "owner",
          "type": "address"
        },
        {
          "indexed": false,
          "name": "beastId",
          "type": "uint256"
        },
        {
          "indexed": false,
          "name": "matronId",
          "type": "uint256"
        },
        {
          "indexed": false,
          "name": "sireId",
          "type": "uint256"
        },
        {
          "indexed": false,
          "name": "genes",
          "type": "uint256"
        }
      ],
      "name": "Birth",
      "type": "event"
    },
    {
      "anonymous": false,
      "inputs": [
        {
          "indexed": false,
          "name": "newContract",
          "type": "address"
        }
      ],
      "name": "ContractUpgrade",
      "type": "event"
    },
    {
      "constant": false,
      "inputs": [
        {
          "name": "_address",
          "type": "address"
        }
      ],
      "name": "setSaleAuctionAddress",
      "outputs": [],
      "payable": false,
      "stateMutability": "nonpayable",
      "type": "function"
    },
    {
      "constant": false,
      "inputs": [
        {
          "name": "_address",
          "type": "address"
        }
      ],
      "name": "setSiringAuctionAddress",
      "outputs": [],
      "payable": false,
      "stateMutability": "nonpayable",
      "type": "function"
    },
    {
      "constant": false,
      "inputs": [
        {
          "name": "_beastId",
          "type": "uint256"
        },
        {
          "name": "_startingPrice",
          "type": "uint256"
        },
        {
          "name": "_endingPrice",
          "type": "uint256"
        },
        {
          "name": "_duration",
          "type": "uint256"
        }
      ],
      "name": "createSaleAuction",
      "outputs": [],
      "payable": false,
      "stateMutability": "nonpayable",
      "type": "function"
    },
    {
      "constant": false,
      "inputs": [
        {
          "name": "_beastId",
          "type": "uint256"
        },
        {
          "name": "_startingPrice",
          "type": "uint256"
        },
        {
          "name": "_endingPrice",
          "type": "uint256"
        },
        {
          "name": "_duration",
          "type": "uint256"
        }
      ],
      "name": "createSiringAuction",
      "outputs": [],
      "payable": false,
      "stateMutability": "nonpayable",
      "type": "function"
    },
    {
      "constant": false,
      "inputs": [
        {
          "name": "_sireId",
          "type": "uint256"
        },
        {
          "name": "_matronId",
          "type": "uint256"
        }
      ],
      "name": "bidOnSiringAuction",
      "outputs": [],
      "payable": true,
      "stateMutability": "payable",
      "type": "function"
    },
    {
      "constant": false,
      "inputs": [],
      "name": "withdrawAuctionBalances",
      "outputs": [],
      "payable": false,
      "stateMutability": "nonpayable",
      "type": "function"
    }
  ],
  "bytecode": "0x6003805460a060020a60ff0219169055610240604052603c6080908152607860a05261012c60c05261025860e05261070861010052610e1061012052611c2061014052613840610160526170806101805261e1006101a052620151806101c0526202a3006101e052620546006102005262093a80610220526200008790600490600e620000ac565b50600f60065566071afd498d0000600f55348015620000a557600080fd5b5062000176565b6002830191839082156200013d5791602002820160005b838211156200010957835183826101000a81548163ffffffff021916908363ffffffff1602179055509260200192600401602081600301049283019260010302620000c3565b80156200013b5782816101000a81549063ffffffff021916905560040160208160030104928301926001030262000109565b505b506200014b9291506200014f565b5090565b6200017391905b808211156200014b57805463ffffffff1916815560010162000156565b90565b612ecc80620001866000396000f3006080604052600436106102165763ffffffff60e060020a60003504166301ffc9a7811461021b5780630519ce79146102665780630560ff441461029757806306fdde0314610330578063095ea7b3146103455780630a0f81681461036b57806314001f4c1461038057806318160ddd146103a15780631940a936146103c85780631dfcec0b146103e057806321717ebf1461040157806323b872dd1461041657806327d7874c146104405780632ba73c15146104615780633d7d3f5a146104825780633f4ba83a146104a357806346116e6f146104b857806346d22c70146104d05780634ad8c938146104eb5780634b85fd551461050c5780634dfff04f146105245780634e0a3379146105485780635318673f146105695780635c975abb146105815780636352211e146105965780636fbde40d146105ae57806370a08231146105cf5780637a7d4937146105f057806382eefc9a146106055780638456cb591461061a5780638462151c1461062f57806388c2a0bf146106a057806391876e57146106b857806395d89b41146106cd5780639d6fac6f146106e2578063a9059cbb14610713578063b047fb5014610737578063b0c35c051461074c578063bbdacd0f14610761578063bc4006f514610776578063d11dffee1461078b578063d3e6f49f146107a3578063e17b25af146107bb578063e6cbe351146107dc578063ed60ade6146107f1578063f7d8c883146107ff575b600080fd5b34801561022757600080fd5b506102527bffffffffffffffffffffffffffffffffffffffffffffffffffffffff196004351661080d565b604080519115158252519081900360200190f35b34801561027257600080fd5b5061027b610aa0565b60408051600160a060020a039092168252519081900360200190f35b3480156102a357600080fd5b506102bb600480359060248035908101910135610aaf565b6040805160208082528351818301528351919283929083019185019080838360005b838110156102f55781810151838201526020016102dd565b50505050905090810190601f1680156103225780820380516001836020036101000a031916815260200191505b509250505060405180910390f35b34801561033c57600080fd5b506102bb610bb2565b34801561035157600080fd5b50610369600160a060020a0360043516602435610be9565b005b34801561037757600080fd5b5061027b610c6b565b34801561038c57600080fd5b50610369600160a060020a0360043516610c7a565b3480156103ad57600080fd5b506103b6610d2f565b60408051918252519081900360200190f35b3480156103d457600080fd5b50610252600435610d39565b3480156103ec57600080fd5b50610369600160a060020a0360043516610d83565b34801561040d57600080fd5b5061027b610e38565b34801561042257600080fd5b50610369600160a060020a0360043581169060243516604435610e47565b34801561044c57600080fd5b50610369600160a060020a0360043516610ec3565b34801561046d57600080fd5b50610369600160a060020a0360043516610f11565b34801561048e57600080fd5b50610369600435602435604435606435610f5f565b3480156104af57600080fd5b50610369611054565b3480156104c457600080fd5b5061027b6004356110a3565b3480156104dc57600080fd5b506102526004356024356110be565b3480156104f757600080fd5b5061036960043560243560443560643561113e565b34801561051857600080fd5b50610369600435611216565b34801561053057600080fd5b50610369600160a060020a0360043516602435611232565b34801561055457600080fd5b50610369600160a060020a036004351661128c565b34801561057557600080fd5b5061027b6004356112da565b34801561058d57600080fd5b506102526112f5565b3480156105a257600080fd5b5061027b600435611305565b3480156105ba57600080fd5b50610369600160a060020a0360043516611329565b3480156105db57600080fd5b506103b6600160a060020a03600435166113de565b3480156105fc57600080fd5b506103b66113f9565b34801561061157600080fd5b5061027b6113ff565b34801561062657600080fd5b5061036961140e565b34801561063b57600080fd5b50610650600160a060020a036004351661148e565b60408051602080825283518183015283519192839290830191858101910280838360005b8381101561068c578181015183820152602001610674565b505050509050019250505060405180910390f35b3480156106ac57600080fd5b506103b6600435611560565b3480156106c457600080fd5b50610369611891565b3480156106d957600080fd5b506102bb6119ac565b3480156106ee57600080fd5b506106fa6004356119e3565b6040805163ffffffff9092168252519081900360200190f35b34801561071f57600080fd5b50610369600160a060020a0360043516602435611a10565b34801561074357600080fd5b5061027b611aac565b34801561075857600080fd5b506103b6611abb565b34801561076d57600080fd5b506103b6611ac1565b34801561078257600080fd5b5061027b611ac7565b34801561079757600080fd5b5061027b600435611ad6565b3480156107af57600080fd5b50610252600435611af1565b3480156107c757600080fd5b50610369600160a060020a0360043516611cb9565b3480156107e857600080fd5b5061027b611cf2565b610369600435602435611d01565b610369600435602435611e9b565b604080517f737570706f727473496e74657266616365286279746573342900000000000000815290519081900360190190206000907bffffffffffffffffffffffffffffffffffffffffffffffffffffffff1983811691161480610a985750604080517f746f6b656e4d657461646174612875696e743235362c737472696e67290000008152815190819003601d0181207f746f6b656e734f664f776e657228616464726573732900000000000000000000825282519182900360160182207f7472616e7366657246726f6d28616464726573732c616464726573732c75696e83527f7432353629000000000000000000000000000000000000000000000000000000602084015283519283900360250183207f7472616e7366657228616464726573732c75696e743235362900000000000000845284519384900360190184207f617070726f766528616464726573732c75696e74323536290000000000000000855285519485900360180185207f6f776e65724f662875696e743235362900000000000000000000000000000000865286519586900360100186207f62616c616e63654f662861646472657373290000000000000000000000000000875287519687900360120187207f746f74616c537570706c792829000000000000000000000000000000000000008852885197889003600d0188207f73796d626f6c2829000000000000000000000000000000000000000000000000895289519889900360080189207f6e616d65282900000000000000000000000000000000000000000000000000008a529951988990036006019098207bffffffffffffffffffffffffffffffffffffffffffffffffffffffff198c811691909a189098181818181818181891909116145b90505b919050565b600254600160a060020a031681565b6060610ab9612d9b565b600e54600090600160a060020a03161515610ad357600080fd5b600e54604080517fcb4799f2000000000000000000000000000000000000000000000000000000008152600481018981526024820192835260448201889052600160a060020a039093169263cb4799f2928a928a928a929091606401848480828437820191505094505050505060a060405180830381600087803b158015610b5a57600080fd5b505af1158015610b6e573d6000803e3d6000fd5b505050506040513d601f19601f8201168201806040525060a0811015610b9357600080fd5b5060808101519092509050610ba8828261219b565b9695505050505050565b60408051808201909152601181527f52756d626c654c6567656e644265617374000000000000000000000000000000602082015281565b60035460a060020a900460ff1615610c0057600080fd5b610c0a33826121ef565b1515610c1557600080fd5b610c1f818361220f565b60408051338152600160a060020a038416602082015280820183905290517f8c5be1e5ebec7d5bd14f71427d1e84f3dd0314c0f7b2291e5b200ac8c7c3b9259181900360600190a15050565b600154600160a060020a031681565b600154600090600160a060020a03163314610c9457600080fd5b81905080600160a060020a03166376190f8f6040518163ffffffff1660e060020a028152600401602060405180830381600087803b158015610cd557600080fd5b505af1158015610ce9573d6000803e3d6000fd5b505050506040513d6020811015610cff57600080fd5b50511515610d0c57600080fd5b600d8054600160a060020a031916600160a060020a039290921691909117905550565b6007546000190190565b6000808211610d4757600080fd5b6007805483908110610d5557fe5b600091825260209091206007909102016003015468010000000000000000900463ffffffff16151592915050565b600154600090600160a060020a03163314610d9d57600080fd5b81905080600160a060020a03166364b13bc96040518163ffffffff1660e060020a028152600401602060405180830381600087803b158015610dde57600080fd5b505af1158015610df2573d6000803e3d6000fd5b505050506040513d6020811015610e0857600080fd5b50511515610e1557600080fd5b60118054600160a060020a031916600160a060020a039290921691909117905550565b600d54600160a060020a031681565b60035460a060020a900460ff1615610e5e57600080fd5b600160a060020a0382161515610e7357600080fd5b600160a060020a038216301415610e8957600080fd5b610e93338261223d565b1515610e9e57600080fd5b610ea883826121ef565b1515610eb357600080fd5b610ebe83838361225d565b505050565b600154600160a060020a03163314610eda57600080fd5b600160a060020a0381161515610eef57600080fd5b60018054600160a060020a031916600160a060020a0392909216919091179055565b600154600160a060020a03163314610f2857600080fd5b600160a060020a0381161515610f3d57600080fd5b60038054600160a060020a031916600160a060020a0392909216919091179055565b60035460a060020a900460ff1615610f7657600080fd5b610f8033856121ef565b1515610f8b57600080fd5b610f9484610d39565b15610f9e57600080fd5b600c54610fb5908590600160a060020a031661220f565b600c54604080517f27ebe40a000000000000000000000000000000000000000000000000000000008152600481018790526024810186905260448101859052606481018490523360848201529051600160a060020a03909216916327ebe40a9160a48082019260009290919082900301818387803b15801561103657600080fd5b505af115801561104a573d6000803e3d6000fd5b5050505050505050565b600154600160a060020a0316331461106b57600080fd5b60035460a060020a900460ff16151561108357600080fd5b6003805474ff000000000000000000000000000000000000000019169055565b600b60205260009081526040902054600160a060020a031681565b600080808085116110ce57600080fd5b600084116110db57600080fd5b60078054869081106110e957fe5b9060005260206000209060070201915060078481548110151561110857fe5b906000526020600020906007020190506111248286838761233f565b80156111355750611135848661249e565b95945050505050565b60035460a060020a900460ff161561115557600080fd5b61115f33856121ef565b151561116a57600080fd5b61117384611af1565b151561117e57600080fd5b600d54611195908590600160a060020a031661220f565b600d54604080517f27ebe40a000000000000000000000000000000000000000000000000000000008152600481018790526024810186905260448101859052606481018490523360848201529051600160a060020a03909216916327ebe40a9160a48082019260009290919082900301818387803b15801561103657600080fd5b600354600160a060020a0316331461122d57600080fd5b600f55565b60035460a060020a900460ff161561124957600080fd5b61125333826121ef565b151561125e57600080fd5b6000908152600b602052604090208054600160a060020a031916600160a060020a0392909216919091179055565b600154600160a060020a031633146112a357600080fd5b600160a060020a03811615156112b857600080fd5b60028054600160a060020a031916600160a060020a0392909216919091179055565b600860205260009081526040902054600160a060020a031681565b60035460a060020a900460ff1681565b600081815260086020526040902054600160a060020a0316801515610a9b57600080fd5b600154600090600160a060020a0316331461134357600080fd5b81905080600160a060020a03166385b861886040518163ffffffff1660e060020a028152600401602060405180830381600087803b15801561138457600080fd5b505af1158015611398573d6000803e3d6000fd5b505050506040513d60208110156113ae57600080fd5b505115156113bb57600080fd5b600c8054600160a060020a031916600160a060020a039290921691909117905550565b600160a060020a031660009081526009602052604090205490565b60065481565b601154600160a060020a031681565b600354600160a060020a03163314806114315750600154600160a060020a031633145b806114465750600254600160a060020a031633145b151561145157600080fd5b60035460a060020a900460ff161561146857600080fd5b6003805474ff0000000000000000000000000000000000000000191660a060020a179055565b60606000606060008060006114a2876113de565b94508415156114c1576040805160008152602081019091529550611556565b846040519080825280602002602001820160405280156114eb578160200160208202803883390190505b5093506114f6610d2f565b925060009150600190505b82811161155257600081815260086020526040902054600160a060020a038881169116141561154a5780848381518110151561153957fe5b602090810290910101526001909101905b600101611501565b8395505b5050505050919050565b600080600080600080600080600360149054906101000a900460ff1615151561158857600080fd5b600780548a90811061159657fe5b600091825260209091206007909102016002810154909750608060020a900467ffffffffffffffff1615156115ca57600080fd5b60408051610220810182528854815260018901546020820152600289015467ffffffffffffffff808216938301939093526801000000000000000080820484166060840152608060020a82048416608084015260c060020a90910490921660a08201526003808a015463ffffffff80821660c08501526401000000008204811660e08501529381049093166101008084019190915261ffff6c0100000000000000000000000085048116610120850152607060020a90940490931661014083015260048a015461016083015260058a015460ff80821661018085015293810484166101a084015262010000810484166101c0840152611757938b926101e085019263010000009004909116908111156116df57fe5b60038111156116ea57fe5b81526040805160c0810182526006939093015460ff8082168552610100820481166020868101919091526201000083048216938601939093526301000000820481166060860152640100000000820481166080860152650100000000009091041660a084015201526124f3565b151561176257600080fd5b6003870154600780546801000000000000000090920463ffffffff169750908790811061178b57fe5b600091825260209091206003808a015460079093029091019081015490965061ffff607060020a9283900481169650919004168410156117d8576003850154607060020a900461ffff1693505b6117e866038d7ea4c68000612524565b60008a8152600860205260409020546003890154919450600160a060020a03169250611831908a9068010000000000000000900463ffffffff166001870161ffff1686866125ba565b6003880180546bffffffff00000000000000001916905560108054600019019055600f54604051919250339181156108fc0291906000818181858888f19350505050158015611884573d6000803e3d6000fd5b5098975050505050505050565b600354600160a060020a03163314806118b45750600154600160a060020a031633145b806118c95750600254600160a060020a031633145b15156118d457600080fd5b600c60009054906101000a9004600160a060020a0316600160a060020a0316635fd8c7106040518163ffffffff1660e060020a028152600401600060405180830381600087803b15801561192757600080fd5b505af115801561193b573d6000803e3d6000fd5b50505050600d60009054906101000a9004600160a060020a0316600160a060020a0316635fd8c7106040518163ffffffff1660e060020a028152600401600060405180830381600087803b15801561199257600080fd5b505af11580156119a6573d6000803e3d6000fd5b50505050565b60408051808201909152600381527f524c420000000000000000000000000000000000000000000000000000000000602082015281565b600481600e81106119f057fe5b60089182820401919006600402915054906101000a900463ffffffff1681565b60035460a060020a900460ff1615611a2757600080fd5b600160a060020a0382161515611a3c57600080fd5b600160a060020a038216301415611a5257600080fd5b600c54600160a060020a0383811691161415611a6d57600080fd5b600d54600160a060020a0383811691161415611a8857600080fd5b611a9233826121ef565b1515611a9d57600080fd5b611aa833838361225d565b5050565b600354600160a060020a031681565b600f5481565b60105481565b600e54600160a060020a031681565b600a60205260009081526040902054600160a060020a031681565b600080808311611b0057600080fd5b6007805484908110611b0e57fe5b60009182526020918290206040805161022081018252600790930290910180548352600181015493830193909352600283015467ffffffffffffffff808216928401929092526801000000000000000080820483166060850152608060020a82048316608085015260c060020a90910490911660a083015260038084015463ffffffff80821660c08601526401000000008204811660e08601529281049092166101008085019190915261ffff6c0100000000000000000000000084048116610120860152607060020a9093049092166101408401526004840154610160840152600584015460ff80821661018086015292810483166101a085015262010000810483166101c0850152939450611cb29385926101e085019263010000009092041690811115611c3a57fe5b6003811115611c4557fe5b81526040805160c0810182526006939093015460ff8082168552610100820481166020868101919091526201000083048216938601939093526301000000820481166060860152640100000000820481166080860152650100000000009091041660a08401520152612acc565b9392505050565b600154600160a060020a03163314611cd057600080fd5b600e8054600160a060020a031916600160a060020a0392909216919091179055565b600c54600160a060020a031681565b60035460009060a060020a900460ff1615611d1b57600080fd5b611d2533836121ef565b1515611d3057600080fd5b611d3982611af1565b1515611d4457600080fd5b611d4e8284612afc565b1515611d5957600080fd5b600d54604080517fc55d0f56000000000000000000000000000000000000000000000000000000008152600481018690529051600160a060020a039092169163c55d0f56916024808201926020929091908290030181600087803b158015611dc057600080fd5b505af1158015611dd4573d6000803e3d6000fd5b505050506040513d6020811015611dea57600080fd5b5051600f549091508101341015611e0057600080fd5b600d54600f54604080517f454a2ab3000000000000000000000000000000000000000000000000000000008152600481018790529051600160a060020a039093169263454a2ab39234039160248082019260009290919082900301818588803b158015611e6c57600080fd5b505af1158015611e80573d6000803e3d6000fd5b5050505050610ebe8263ffffffff168463ffffffff16612b4b565b600354600090819060a060020a900460ff1615611eb757600080fd5b600f54341015611ec657600080fd5b611ed033856121ef565b1515611edb57600080fd5b611ee5838561249e565b1515611ef057600080fd5b6007805485908110611efe57fe5b60009182526020918290206040805161022081018252600790930290910180548352600181015493830193909352600283015467ffffffffffffffff808216928401929092526801000000000000000080820483166060850152608060020a82048316608085015260c060020a90910490911660a083015260038084015463ffffffff80821660c08601526401000000008204811660e08601529281049092166101008085019190915261ffff6c0100000000000000000000000084048116610120860152607060020a9093049092166101408401526004840154610160840152600584015460ff80821661018086015292810483166101a085015262010000810483166101c085015293955061202a9386926101e085019263010000009092041690811115611c3a57fe5b151561203557600080fd5b600780548490811061204357fe5b60009182526020918290206040805161022081018252600790930290910180548352600181015493830193909352600283015467ffffffffffffffff808216928401929092526801000000000000000080820483166060850152608060020a82048316608085015260c060020a90910490911660a083015260038084015463ffffffff80821660c08601526401000000008204811660e08601529281049092166101008085019190915261ffff6c0100000000000000000000000084048116610120860152607060020a9093049092166101408401526004840154610160840152600584015460ff80821661018086015292810483166101a085015262010000810483166101c085015293945061216f9385926101e085019263010000009092041690811115611c3a57fe5b151561217a57600080fd5b6121868285838661233f565b151561219157600080fd5b6119a68484612b4b565b606080600080846040519080825280601f01601f1916602001820160405280156121cf578160200160208202803883390190505b50925050602082019050846121e5828287612c78565b5090949350505050565b600090815260086020526040902054600160a060020a0391821691161490565b6000918252600a60205260409091208054600160a060020a031916600160a060020a03909216919091179055565b6000908152600a6020526040902054600160a060020a0391821691161490565b600160a060020a03808316600081815260096020908152604080832080546001019055858352600890915290208054600160a060020a03191690911790558316156122f057600160a060020a03831660009081526009602090815260408083208054600019019055838352600b82528083208054600160a060020a0319908116909155600a909252909120805490911690555b60408051600160a060020a0380861682528416602082015280820183905290517fddf252ad1be2c89b69c2b068fc378daa952ba7f163c4a11628f55a4df523b3ef9181900360600190a1505050565b60008184141561235157506000612496565b6003850154640100000000900463ffffffff1682148061237a5750600385015463ffffffff1682145b1561238757506000612496565b6003830154640100000000900463ffffffff168414806123b05750600383015463ffffffff1684145b156123bd57506000612496565b6003830154640100000000900463ffffffff1615806123ec57506003850154640100000000900463ffffffff16155b156123f957506001612496565b600385810154908401546401000000009182900463ffffffff9081169290910416148061243f575060038086015490840154640100000000900463ffffffff9081169116145b1561244c57506000612496565b6003808601549084015463ffffffff90811664010000000090920416148061248557506003808601549084015463ffffffff9081169116145b1561249257506000612496565b5060015b949350505050565b6000818152600860205260408082205484835290822054600160a060020a0391821691168082148061113557506000858152600b6020526040902054600160a060020a03908116908316149250505092915050565b600081610100015163ffffffff16600014158015610a9857505060a0015167ffffffffffffffff4381169116111590565b600061252e612dba565b681020846100000000008152681020886100000000006020808301919091526810208c610000000000604080840191909152681020906100000000006060840152670688211840000000608084015267068822184000000060a084015280514281529051908190039091019020819060059006600101600881106125ae57fe5b60200201519392505050565b60006125c4612dda565b600063ffffffff881688146125d857600080fd5b63ffffffff871687146125ea57600080fd5b61ffff861686146125fa57600080fd5b6040805161022081018252600080825260208201889052918101829052606081018290524267ffffffffffffffff16608082015260a0810182905263ffffffff808a1660c08301528a1660e08201526101008101829052610120810182905261ffff8816610140820152610160810182905260016101808201526101a081018290526101c08101829052906101e082019081526040805160c08082018352600180835260208084018290528385018290526060808501839052608080860184905260a0808701859052978301959095526007805480850180835560008390528a517fa66cc928b5edb82af9bd49922954155ab7b0942694bea4ce44661d9a8736c68892909302918201928355938a01517fa66cc928b5edb82af9bd49922954155ab7b0942694bea4ce44661d9a8736c689820155968901517fa66cc928b5edb82af9bd49922954155ab7b0942694bea4ce44661d9a8736c68a88018054938b0151978b0151998b015167ffffffffffffffff1990941667ffffffffffffffff928316176fffffffffffffffff000000000000000019166801000000000000000098831689021777ffffffffffffffff000000000000000000000000000000001916608060020a9a83169a909a029990991777ffffffffffffffffffffffffffffffffffffffffffffffff1660c060020a919093160291909117909655918601517fa66cc928b5edb82af9bd49922954155ab7b0942694bea4ce44661d9a8736c68b8501805460e0890151610100808b01516101208c01516101408d015163ffffffff1990951663ffffffff9788161767ffffffff00000000191664010000000094881694909402939093176bffffffff000000000000000019169516909702939093176dffff00000000000000000000000019166c0100000000000000000000000061ffff94851602176fffff00000000000000000000000000001916607060020a93909116929092029190911790556101608601517fa66cc928b5edb82af9bd49922954155ab7b0942694bea4ce44661d9a8736c68c8501556101808601517fa66cc928b5edb82af9bd49922954155ab7b0942694bea4ce44661d9a8736c68d90940180546101a08801516101c089015160ff1990921660ff9788161761ff0019169087169095029490941762ff00001916620100009590941694909402929092178084556101e0860151959750919490938793909263ff0000001916630100000083600381111561298957fe5b02179055506102009190910151805160069092018054602083015160408401516060850151608086015160a09096015160ff1990941660ff9788161761ff001916610100938816939093029290921762ff0000191662010000918716919091021763ff00000019166301000000918616919091021764ff000000001916640100000000938516939093029290921765ff0000000000191665010000000000939092169290920217905503905063ffffffff81168114612a4757600080fd5b60e082015160c083015160208085015160408051600160a060020a038a16815292830186905263ffffffff948516838201529290931660608201526080810192909252517f0a5311bd2a6608f08a180df2ee7c5946819a649b204b554bb8e39825b2c50ad59181900360a00190a1612ac16000858361225d565b979650505050505050565b600081610100015163ffffffff166000148015610a9857505060a0015167ffffffffffffffff4381169116111590565b6000806000600785815481101515612b1057fe5b90600052602060002090600702019150600784815481101515612b2f57fe5b906000526020600020906007020190506111358286838761233f565b600080600783815481101515612b5d57fe5b90600052602060002090600702019150600784815481101515612b7c57fe5b600091825260209091206007909102016003810180546bffffffff000000000000000019166801000000000000000063ffffffff8716021790559050612bc182612cbc565b612bca81612cbc565b6000848152600b602090815260408083208054600160a060020a03199081169091558684528184208054909116905560108054600101905586835260088252918290205460028401548351600160a060020a03909216825291810187905280830186905260c060020a90910467ffffffffffffffff16606082015290517f241ea03ca20251805084d27d4440371c34a0b85ff108f6bb5611248f73818b80916080908290030190a150505050565b60005b60208210612c9d578251845260209384019390920191601f1990910190612c7b565b50905182516020929092036101000a6000190180199091169116179052565b60065460038201544391906004906c01000000000000000000000000900461ffff16600e8110612ce857fe5b600891828204019190066004029054906101000a900463ffffffff1663ffffffff16811515612d1357fe5b04018160020160186101000a81548167ffffffffffffffff021916908367ffffffffffffffff160217905550600d81600301600c9054906101000a900461ffff1661ffff161015612d985760038101805461ffff6c010000000000000000000000008083048216600101909116026dffff000000000000000000000000199091161790555b50565b6080604051908101604052806004906020820280388339509192915050565b610100604051908101604052806008906020820280388339509192915050565b604080516102c081018252600080825260208201819052918101829052606081018290526080810182905260a0810182905260c0810182905260e08101829052610100810182905261012081018290526101408101829052610160810182905261018081018290526101a081018290526101c08101829052906101e08201908152602001612e66612e6b565b905290565b6040805160c081018252600080825260208201819052918101829052606081018290526080810182905260a0810191909152905600a165627a7a72305820ffb91640b9cf064942f436249d4435ce6cda9eb9af901648bb1a9c50312d80b90029",
  "source": "pragma solidity ^0.4.24;\n\nimport \"./BeastBreeding.sol\";\nimport \"./auction/ClockAuction.sol\";\nimport \"./auction/SaleClockAuction.sol\";\n\ncontract BeastAuction is BeastBreeding {\n\n    /// @dev Sets the reference to the sale auction.\n    /// @param _address - Address of sale contract.\n    function setSaleAuctionAddress(address _address) public onlyCEO {\n        SaleClockAuction candidateContract = SaleClockAuction(_address);\n\n        // NOTE: verify that a contract is what we expect - https://github.com/Lunyr/crowdsale-contracts/blob/cfadd15986c30521d8ba7d5b6f57b4fefcc7ac38/contracts/LunyrToken.sol#L117\n        require(candidateContract.isSaleClockAuction());\n\n        // Set the new contract address\n        saleAuction = candidateContract;\n    }\n\n    /// @dev Sets the reference to the siring auction.\n    /// @param _address - Address of siring contract.\n    function setSiringAuctionAddress(address _address) external onlyCEO {\n        SiringClockAuction candidateContract = SiringClockAuction(_address);\n\n        // NOTE: verify that a contract is what we expect - https://github.com/Lunyr/crowdsale-contracts/blob/cfadd15986c30521d8ba7d5b6f57b4fefcc7ac38/contracts/LunyrToken.sol#L117\n        require(candidateContract.isSiringClockAuction());\n\n        // Set the new contract address\n        siringAuction = candidateContract;\n    }\n\n    /// @dev Put a beast up for auction.\n    ///  Does some ownership trickery to create auctions in one tx.\n    function createSaleAuction(\n        uint256 _beastId,\n        uint256 _startingPrice,\n        uint256 _endingPrice,\n        uint256 _duration\n    )\n        public\n        whenNotPaused\n    {\n        // Auction contract checks input sizes\n        // If beast is already on any auction, this will throw\n        // because it will be owned by the auction contract.\n        require(_owns(msg.sender, _beastId));\n        // Ensure the beast is not pregnant to prevent the auction\n        // contract accidentally receiving ownership of the child.\n        // NOTE: the beast IS allowed to be in a cooldown.\n        require(!isPregnant(_beastId));\n        _approve(_beastId, saleAuction);\n        // Sale auction throws if inputs are invalid and clears\n        // transfer and sire approval after escrowing the beast.\n        saleAuction.createAuction(\n            _beastId,\n            _startingPrice,\n            _endingPrice,\n            _duration,\n            msg.sender\n        );\n    }\n\n    /// @dev Put a beast up for auction to be sire.\n    ///  Performs checks to ensure the beast can be sired, then\n    ///  delegates to reverse auction.\n    function createSiringAuction(\n        uint256 _beastId,\n        uint256 _startingPrice,\n        uint256 _endingPrice,\n        uint256 _duration\n    )\n        external\n        whenNotPaused\n    {\n        // Auction contract checks input sizes\n        // If beast is already on any auction, this will throw\n        // because it will be owned by the auction contract.\n        require(_owns(msg.sender, _beastId));\n        require(isReadyToBreed(_beastId));\n        _approve(_beastId, siringAuction);\n        // Siring auction throws if inputs are invalid and clears\n        // transfer and sire approval after escrowing the beast.\n        siringAuction.createAuction(\n            _beastId,\n            _startingPrice,\n            _endingPrice,\n            _duration,\n            msg.sender\n        );\n    }\n\n    /// @dev Completes a siring auction by bidding.\n    ///  Immediately breeds the winning matron with the sire on auction.\n    /// @param _sireId - ID of the sire on auction.\n    /// @param _matronId - ID of the matron owned by the bidder.\n    function bidOnSiringAuction(\n        uint256 _sireId,\n        uint256 _matronId\n    )\n        external\n        payable\n        whenNotPaused\n    {\n        // Auction contract checks input sizes\n        require(_owns(msg.sender, _matronId));\n        require(isReadyToBreed(_matronId));\n        require(_canBreedWithViaAuction(_matronId, _sireId));\n\n        // Define the current price of the auction.\n        uint256 currentPrice = siringAuction.getCurrentPrice(_sireId);\n        require(msg.value >= currentPrice + autoBirthFee);\n\n        // Siring auction will throw if the bid fails.\n        siringAuction.bid.value(msg.value - autoBirthFee)(_sireId);\n        _breedWith(uint32(_matronId), uint32(_sireId));\n    }\n\n    /// @dev Transfers the balance of the sale auction contract\n    /// to the Legends contract. We use two-step withdrawal to\n    /// prevent two transfer calls in the auction bid function.\n    // TODO: Check if balance must go to Split Payment\n    function withdrawAuctionBalances() external onlyCLevel {\n        saleAuction.withdrawBalance();\n        siringAuction.withdrawBalance();\n    }\n}",
  "sourcePath": "/Users/jonathanaraneda/BlockchainProjects/unicornsvsdinosaurs-smartcontracts/contracts/BeastAuction.sol",
  "compiler": {
    "name": "solc",
    "version": "0.4.24+commit.e67f0147.Emscripten.clang"
  },
  "schemaVersion": "2.0.1",
  "updatedAt": "2018-08-03T00:21:33.130Z"
}