{
  "contractName": "BeastMinting",
  "abi": [
    {
      "constant": true,
      "inputs": [
        {
          "name": "_interfaceID",
          "type": "bytes4"
        }
      ],
      "name": "supportsInterface",
      "outputs": [
        {
          "name": "",
          "type": "bool"
        }
      ],
      "payable": false,
      "stateMutability": "view",
      "type": "function"
    },
    {
      "constant": true,
      "inputs": [],
      "name": "cfoAddress",
      "outputs": [
        {
          "name": "",
          "type": "address"
        }
      ],
      "payable": false,
      "stateMutability": "view",
      "type": "function"
    },
    {
      "constant": true,
      "inputs": [
        {
          "name": "_tokenId",
          "type": "uint256"
        },
        {
          "name": "_preferredTransport",
          "type": "string"
        }
      ],
      "name": "tokenMetadata",
      "outputs": [
        {
          "name": "infoUrl",
          "type": "string"
        }
      ],
      "payable": false,
      "stateMutability": "view",
      "type": "function"
    },
    {
      "constant": true,
      "inputs": [],
      "name": "name",
      "outputs": [
        {
          "name": "",
          "type": "string"
        }
      ],
      "payable": false,
      "stateMutability": "view",
      "type": "function"
    },
    {
      "constant": false,
      "inputs": [
        {
          "name": "_to",
          "type": "address"
        },
        {
          "name": "_tokenId",
          "type": "uint256"
        }
      ],
      "name": "approve",
      "outputs": [],
      "payable": false,
      "stateMutability": "nonpayable",
      "type": "function"
    },
    {
      "constant": true,
      "inputs": [],
      "name": "ceoAddress",
      "outputs": [
        {
          "name": "",
          "type": "address"
        }
      ],
      "payable": false,
      "stateMutability": "view",
      "type": "function"
    },
    {
      "constant": false,
      "inputs": [
        {
          "name": "_address",
          "type": "address"
        }
      ],
      "name": "setSiringAuctionAddress",
      "outputs": [],
      "payable": false,
      "stateMutability": "nonpayable",
      "type": "function"
    },
    {
      "constant": true,
      "inputs": [],
      "name": "totalSupply",
      "outputs": [
        {
          "name": "",
          "type": "uint256"
        }
      ],
      "payable": false,
      "stateMutability": "view",
      "type": "function"
    },
    {
      "constant": true,
      "inputs": [
        {
          "name": "_beastId",
          "type": "uint256"
        }
      ],
      "name": "isPregnant",
      "outputs": [
        {
          "name": "",
          "type": "bool"
        }
      ],
      "payable": false,
      "stateMutability": "view",
      "type": "function"
    },
    {
      "constant": false,
      "inputs": [
        {
          "name": "_address",
          "type": "address"
        }
      ],
      "name": "setGeneMagicAddress",
      "outputs": [],
      "payable": false,
      "stateMutability": "nonpayable",
      "type": "function"
    },
    {
      "constant": true,
      "inputs": [],
      "name": "siringAuction",
      "outputs": [
        {
          "name": "",
          "type": "address"
        }
      ],
      "payable": false,
      "stateMutability": "view",
      "type": "function"
    },
    {
      "constant": false,
      "inputs": [
        {
          "name": "_from",
          "type": "address"
        },
        {
          "name": "_to",
          "type": "address"
        },
        {
          "name": "_tokenId",
          "type": "uint256"
        }
      ],
      "name": "transferFrom",
      "outputs": [],
      "payable": false,
      "stateMutability": "nonpayable",
      "type": "function"
    },
    {
      "constant": false,
      "inputs": [
        {
          "name": "_newCEO",
          "type": "address"
        }
      ],
      "name": "setCEO",
      "outputs": [],
      "payable": false,
      "stateMutability": "nonpayable",
      "type": "function"
    },
    {
      "constant": false,
      "inputs": [
        {
          "name": "_newCOO",
          "type": "address"
        }
      ],
      "name": "setCOO",
      "outputs": [],
      "payable": false,
      "stateMutability": "nonpayable",
      "type": "function"
    },
    {
      "constant": false,
      "inputs": [
        {
          "name": "_beastId",
          "type": "uint256"
        },
        {
          "name": "_startingPrice",
          "type": "uint256"
        },
        {
          "name": "_endingPrice",
          "type": "uint256"
        },
        {
          "name": "_duration",
          "type": "uint256"
        }
      ],
      "name": "createSaleAuction",
      "outputs": [],
      "payable": false,
      "stateMutability": "nonpayable",
      "type": "function"
    },
    {
      "constant": false,
      "inputs": [],
      "name": "unpause",
      "outputs": [],
      "payable": false,
      "stateMutability": "nonpayable",
      "type": "function"
    },
    {
      "constant": true,
      "inputs": [
        {
          "name": "",
          "type": "uint256"
        }
      ],
      "name": "sireAllowedToAddress",
      "outputs": [
        {
          "name": "",
          "type": "address"
        }
      ],
      "payable": false,
      "stateMutability": "view",
      "type": "function"
    },
    {
      "constant": true,
      "inputs": [
        {
          "name": "_matronId",
          "type": "uint256"
        },
        {
          "name": "_sireId",
          "type": "uint256"
        }
      ],
      "name": "canBreedWith",
      "outputs": [
        {
          "name": "",
          "type": "bool"
        }
      ],
      "payable": false,
      "stateMutability": "view",
      "type": "function"
    },
    {
      "constant": false,
      "inputs": [
        {
          "name": "_beastId",
          "type": "uint256"
        },
        {
          "name": "_startingPrice",
          "type": "uint256"
        },
        {
          "name": "_endingPrice",
          "type": "uint256"
        },
        {
          "name": "_duration",
          "type": "uint256"
        }
      ],
      "name": "createSiringAuction",
      "outputs": [],
      "payable": false,
      "stateMutability": "nonpayable",
      "type": "function"
    },
    {
      "constant": false,
      "inputs": [
        {
          "name": "val",
          "type": "uint256"
        }
      ],
      "name": "setAutoBirthFee",
      "outputs": [],
      "payable": false,
      "stateMutability": "nonpayable",
      "type": "function"
    },
    {
      "constant": false,
      "inputs": [
        {
          "name": "_addr",
          "type": "address"
        },
        {
          "name": "_sireId",
          "type": "uint256"
        }
      ],
      "name": "approveSiring",
      "outputs": [],
      "payable": false,
      "stateMutability": "nonpayable",
      "type": "function"
    },
    {
      "constant": false,
      "inputs": [
        {
          "name": "_newCFO",
          "type": "address"
        }
      ],
      "name": "setCFO",
      "outputs": [],
      "payable": false,
      "stateMutability": "nonpayable",
      "type": "function"
    },
    {
      "constant": true,
      "inputs": [
        {
          "name": "",
          "type": "uint256"
        }
      ],
      "name": "beastIndexToOwner",
      "outputs": [
        {
          "name": "",
          "type": "address"
        }
      ],
      "payable": false,
      "stateMutability": "view",
      "type": "function"
    },
    {
      "constant": true,
      "inputs": [],
      "name": "paused",
      "outputs": [
        {
          "name": "",
          "type": "bool"
        }
      ],
      "payable": false,
      "stateMutability": "view",
      "type": "function"
    },
    {
      "constant": true,
      "inputs": [
        {
          "name": "_tokenId",
          "type": "uint256"
        }
      ],
      "name": "ownerOf",
      "outputs": [
        {
          "name": "owner",
          "type": "address"
        }
      ],
      "payable": false,
      "stateMutability": "view",
      "type": "function"
    },
    {
      "constant": false,
      "inputs": [
        {
          "name": "_address",
          "type": "address"
        }
      ],
      "name": "setSaleAuctionAddress",
      "outputs": [],
      "payable": false,
      "stateMutability": "nonpayable",
      "type": "function"
    },
    {
      "constant": true,
      "inputs": [
        {
          "name": "_owner",
          "type": "address"
        }
      ],
      "name": "balanceOf",
      "outputs": [
        {
          "name": "count",
          "type": "uint256"
        }
      ],
      "payable": false,
      "stateMutability": "view",
      "type": "function"
    },
    {
      "constant": true,
      "inputs": [],
      "name": "secondsPerBlock",
      "outputs": [
        {
          "name": "",
          "type": "uint256"
        }
      ],
      "payable": false,
      "stateMutability": "view",
      "type": "function"
    },
    {
      "constant": true,
      "inputs": [],
      "name": "geneMagic",
      "outputs": [
        {
          "name": "",
          "type": "address"
        }
      ],
      "payable": false,
      "stateMutability": "view",
      "type": "function"
    },
    {
      "constant": false,
      "inputs": [],
      "name": "pause",
      "outputs": [],
      "payable": false,
      "stateMutability": "nonpayable",
      "type": "function"
    },
    {
      "constant": true,
      "inputs": [
        {
          "name": "_owner",
          "type": "address"
        }
      ],
      "name": "tokensOfOwner",
      "outputs": [
        {
          "name": "ownerTokens",
          "type": "uint256[]"
        }
      ],
      "payable": false,
      "stateMutability": "view",
      "type": "function"
    },
    {
      "constant": false,
      "inputs": [
        {
          "name": "_matronId",
          "type": "uint256"
        }
      ],
      "name": "giveBirth",
      "outputs": [
        {
          "name": "",
          "type": "uint256"
        }
      ],
      "payable": false,
      "stateMutability": "nonpayable",
      "type": "function"
    },
    {
      "constant": false,
      "inputs": [],
      "name": "withdrawAuctionBalances",
      "outputs": [],
      "payable": false,
      "stateMutability": "nonpayable",
      "type": "function"
    },
    {
      "constant": true,
      "inputs": [],
      "name": "symbol",
      "outputs": [
        {
          "name": "",
          "type": "string"
        }
      ],
      "payable": false,
      "stateMutability": "view",
      "type": "function"
    },
    {
      "constant": true,
      "inputs": [],
      "name": "promoBeastCreatedCount",
      "outputs": [
        {
          "name": "",
          "type": "uint256"
        }
      ],
      "payable": false,
      "stateMutability": "view",
      "type": "function"
    },
    {
      "constant": true,
      "inputs": [],
      "name": "legendaryRandomBoxOpenedCount",
      "outputs": [
        {
          "name": "",
          "type": "uint256"
        }
      ],
      "payable": false,
      "stateMutability": "view",
      "type": "function"
    },
    {
      "constant": true,
      "inputs": [
        {
          "name": "",
          "type": "uint256"
        }
      ],
      "name": "cooldowns",
      "outputs": [
        {
          "name": "",
          "type": "uint32"
        }
      ],
      "payable": false,
      "stateMutability": "view",
      "type": "function"
    },
    {
      "constant": false,
      "inputs": [
        {
          "name": "_to",
          "type": "address"
        },
        {
          "name": "_tokenId",
          "type": "uint256"
        }
      ],
      "name": "transfer",
      "outputs": [],
      "payable": false,
      "stateMutability": "nonpayable",
      "type": "function"
    },
    {
      "constant": true,
      "inputs": [],
      "name": "cooAddress",
      "outputs": [
        {
          "name": "",
          "type": "address"
        }
      ],
      "payable": false,
      "stateMutability": "view",
      "type": "function"
    },
    {
      "constant": true,
      "inputs": [],
      "name": "autoBirthFee",
      "outputs": [
        {
          "name": "",
          "type": "uint256"
        }
      ],
      "payable": false,
      "stateMutability": "view",
      "type": "function"
    },
    {
      "constant": true,
      "inputs": [],
      "name": "pregnantBeasts",
      "outputs": [
        {
          "name": "",
          "type": "uint256"
        }
      ],
      "payable": false,
      "stateMutability": "view",
      "type": "function"
    },
    {
      "constant": true,
      "inputs": [],
      "name": "erc721Metadata",
      "outputs": [
        {
          "name": "",
          "type": "address"
        }
      ],
      "payable": false,
      "stateMutability": "view",
      "type": "function"
    },
    {
      "constant": true,
      "inputs": [
        {
          "name": "",
          "type": "uint256"
        }
      ],
      "name": "beastIndexToApproved",
      "outputs": [
        {
          "name": "",
          "type": "address"
        }
      ],
      "payable": false,
      "stateMutability": "view",
      "type": "function"
    },
    {
      "constant": true,
      "inputs": [
        {
          "name": "_beastId",
          "type": "uint256"
        }
      ],
      "name": "isReadyToBreed",
      "outputs": [
        {
          "name": "",
          "type": "bool"
        }
      ],
      "payable": false,
      "stateMutability": "view",
      "type": "function"
    },
    {
      "constant": true,
      "inputs": [],
      "name": "randomBoxOpenedCount",
      "outputs": [
        {
          "name": "",
          "type": "uint256"
        }
      ],
      "payable": false,
      "stateMutability": "view",
      "type": "function"
    },
    {
      "constant": true,
      "inputs": [],
      "name": "PROMO_CREATION_LIMIT",
      "outputs": [
        {
          "name": "",
          "type": "uint256"
        }
      ],
      "payable": false,
      "stateMutability": "view",
      "type": "function"
    },
    {
      "constant": false,
      "inputs": [
        {
          "name": "_contractAddress",
          "type": "address"
        }
      ],
      "name": "setMetadataAddress",
      "outputs": [],
      "payable": false,
      "stateMutability": "nonpayable",
      "type": "function"
    },
    {
      "constant": true,
      "inputs": [],
      "name": "saleAuction",
      "outputs": [
        {
          "name": "",
          "type": "address"
        }
      ],
      "payable": false,
      "stateMutability": "view",
      "type": "function"
    },
    {
      "constant": false,
      "inputs": [
        {
          "name": "_sireId",
          "type": "uint256"
        },
        {
          "name": "_matronId",
          "type": "uint256"
        }
      ],
      "name": "bidOnSiringAuction",
      "outputs": [],
      "payable": true,
      "stateMutability": "payable",
      "type": "function"
    },
    {
      "constant": true,
      "inputs": [],
      "name": "eggFactory",
      "outputs": [
        {
          "name": "",
          "type": "address"
        }
      ],
      "payable": false,
      "stateMutability": "view",
      "type": "function"
    },
    {
      "constant": false,
      "inputs": [
        {
          "name": "_matronId",
          "type": "uint256"
        },
        {
          "name": "_sireId",
          "type": "uint256"
        }
      ],
      "name": "breedWithAuto",
      "outputs": [],
      "payable": true,
      "stateMutability": "payable",
      "type": "function"
    },
    {
      "anonymous": false,
      "inputs": [
        {
          "indexed": false,
          "name": "legendId",
          "type": "uint256"
        }
      ],
      "name": "EggOpened",
      "type": "event"
    },
    {
      "anonymous": false,
      "inputs": [
        {
          "indexed": false,
          "name": "legendId",
          "type": "uint256"
        }
      ],
      "name": "PromoBeastCreated",
      "type": "event"
    },
    {
      "anonymous": false,
      "inputs": [
        {
          "indexed": false,
          "name": "legendId",
          "type": "uint256"
        }
      ],
      "name": "RandomBoxOpened",
      "type": "event"
    },
    {
      "anonymous": false,
      "inputs": [
        {
          "indexed": false,
          "name": "legendId",
          "type": "uint256"
        }
      ],
      "name": "LegendaryRandomBoxOpened",
      "type": "event"
    },
    {
      "anonymous": false,
      "inputs": [
        {
          "indexed": false,
          "name": "owner",
          "type": "address"
        },
        {
          "indexed": false,
          "name": "matronId",
          "type": "uint256"
        },
        {
          "indexed": false,
          "name": "sireId",
          "type": "uint256"
        },
        {
          "indexed": false,
          "name": "cooldownEndBlock",
          "type": "uint256"
        }
      ],
      "name": "Pregnant",
      "type": "event"
    },
    {
      "anonymous": false,
      "inputs": [
        {
          "indexed": false,
          "name": "from",
          "type": "address"
        },
        {
          "indexed": false,
          "name": "to",
          "type": "address"
        },
        {
          "indexed": false,
          "name": "tokenId",
          "type": "uint256"
        }
      ],
      "name": "Transfer",
      "type": "event"
    },
    {
      "anonymous": false,
      "inputs": [
        {
          "indexed": false,
          "name": "owner",
          "type": "address"
        },
        {
          "indexed": false,
          "name": "approved",
          "type": "address"
        },
        {
          "indexed": false,
          "name": "tokenId",
          "type": "uint256"
        }
      ],
      "name": "Approval",
      "type": "event"
    },
    {
      "anonymous": false,
      "inputs": [
        {
          "indexed": false,
          "name": "owner",
          "type": "address"
        },
        {
          "indexed": false,
          "name": "beastId",
          "type": "uint256"
        },
        {
          "indexed": false,
          "name": "matronId",
          "type": "uint256"
        },
        {
          "indexed": false,
          "name": "sireId",
          "type": "uint256"
        },
        {
          "indexed": false,
          "name": "genes",
          "type": "uint256"
        }
      ],
      "name": "Birth",
      "type": "event"
    },
    {
      "anonymous": false,
      "inputs": [
        {
          "indexed": false,
          "name": "newContract",
          "type": "address"
        }
      ],
      "name": "ContractUpgrade",
      "type": "event"
    },
    {
      "constant": false,
      "inputs": [
        {
          "name": "_address",
          "type": "address"
        }
      ],
      "name": "setEggFactoryAddress",
      "outputs": [],
      "payable": false,
      "stateMutability": "nonpayable",
      "type": "function"
    },
    {
      "constant": false,
      "inputs": [
        {
          "name": "_genes",
          "type": "uint256"
        },
        {
          "name": "_owner",
          "type": "address"
        }
      ],
      "name": "createPromoBeast",
      "outputs": [],
      "payable": false,
      "stateMutability": "nonpayable",
      "type": "function"
    },
    {
      "constant": false,
      "inputs": [
        {
          "name": "_owner",
          "type": "address"
        }
      ],
      "name": "createBeastFromRandomBox",
      "outputs": [],
      "payable": false,
      "stateMutability": "nonpayable",
      "type": "function"
    },
    {
      "constant": false,
      "inputs": [
        {
          "name": "_owner",
          "type": "address"
        }
      ],
      "name": "createBeastFromLegendaryRandomBox",
      "outputs": [],
      "payable": false,
      "stateMutability": "nonpayable",
      "type": "function"
    },
    {
      "constant": false,
      "inputs": [
        {
          "name": "_eggId",
          "type": "uint256"
        },
        {
          "name": "_amount",
          "type": "uint256"
        }
      ],
      "name": "hatchEgg",
      "outputs": [],
      "payable": false,
      "stateMutability": "nonpayable",
      "type": "function"
    }
  ],
  "bytecode": "0x6003805460a060020a60ff0219169055610240604052603c6080908152607860a05261012c60c05261025860e05261070861010052610e1061012052611c2061014052613840610160526170806101805261e1006101a052620151806101c0526202a3006101e052620546006102005262093a80610220526200008790600490600e620000ac565b50600f60065566071afd498d0000600f55348015620000a557600080fd5b5062000176565b6002830191839082156200013d5791602002820160005b838211156200010957835183826101000a81548163ffffffff021916908363ffffffff1602179055509260200192600401602081600301049283019260010302620000c3565b80156200013b5782816101000a81549063ffffffff021916905560040160208160030104928301926001030262000109565b505b506200014b9291506200014f565b5090565b6200017391905b808211156200014b57805463ffffffff1916815560010162000156565b90565b6133c780620001866000396000f3006080604052600436106102845763ffffffff60e060020a60003504166301ffc9a781146102895780630519ce79146102d45780630560ff441461030557806306fdde031461039e578063095ea7b3146103b35780630a0f8168146103d957806314001f4c146103ee578063147013bf1461040f57806318160ddd146104305780631940a936146104575780631dccf00c1461046f5780631dfcec0b1461049057806321717ebf146104b157806323b872dd146104c657806327d7874c146104f05780632ba73c15146105115780633d7d3f5a146105325780633f4ba83a1461055357806346116e6f1461056857806346d22c70146105805780634ad8c9381461059b5780634b85fd55146105bc5780634dfff04f146105d45780634e0a3379146105f85780635318673f146106195780635c975abb146106315780636352211e146106465780636fbde40d1461065e5780636fc2790e1461067f57806370a082311461069a5780637a7d4937146106bb57806382eefc9a146106d05780638456cb59146106e55780638462151c146106fa57806388c2a0bf1461076b57806391876e571461078357806395d89b41146107985780639941df54146107ad5780639a39fb12146107c25780639d6fac6f146107d7578063a9059cbb14610808578063b047fb501461082c578063b0c35c0514610841578063bbdacd0f14610856578063bc4006f51461086b578063d11dffee14610880578063d3e6f49f14610898578063ddd5c029146108b0578063defb9584146108c5578063e17b25af146108da578063e6cbe351146108fb578063eab2b9a414610910578063ed60ade614610931578063ef9b621c1461093f578063f7d8c88314610954578063f817bdaf14610962575b600080fd5b34801561029557600080fd5b506102c07bffffffffffffffffffffffffffffffffffffffffffffffffffffffff1960043516610986565b604080519115158252519081900360200190f35b3480156102e057600080fd5b506102e9610c19565b60408051600160a060020a039092168252519081900360200190f35b34801561031157600080fd5b50610329600480359060248035908101910135610c28565b6040805160208082528351818301528351919283929083019185019080838360005b8381101561036357818101518382015260200161034b565b50505050905090810190601f1680156103905780820380516001836020036101000a031916815260200191505b509250505060405180910390f35b3480156103aa57600080fd5b50610329610d2b565b3480156103bf57600080fd5b506103d7600160a060020a0360043516602435610d62565b005b3480156103e557600080fd5b506102e9610de4565b3480156103fa57600080fd5b506103d7600160a060020a0360043516610df3565b34801561041b57600080fd5b506103d7600160a060020a0360043516610ea8565b34801561043c57600080fd5b50610445610f3f565b60408051918252519081900360200190f35b34801561046357600080fd5b506102c0600435610f49565b34801561047b57600080fd5b506103d7600160a060020a0360043516610f93565b34801561049c57600080fd5b506103d7600160a060020a036004351661102a565b3480156104bd57600080fd5b506102e96110df565b3480156104d257600080fd5b506103d7600160a060020a03600435811690602435166044356110ee565b3480156104fc57600080fd5b506103d7600160a060020a036004351661116a565b34801561051d57600080fd5b506103d7600160a060020a03600435166111b8565b34801561053e57600080fd5b506103d7600435602435604435606435611206565b34801561055f57600080fd5b506103d76112fb565b34801561057457600080fd5b506102e960043561134a565b34801561058c57600080fd5b506102c0600435602435611365565b3480156105a757600080fd5b506103d76004356024356044356064356113e5565b3480156105c857600080fd5b506103d76004356114bd565b3480156105e057600080fd5b506103d7600160a060020a03600435166024356114d9565b34801561060457600080fd5b506103d7600160a060020a0360043516611533565b34801561062557600080fd5b506102e9600435611581565b34801561063d57600080fd5b506102c061159c565b34801561065257600080fd5b506102e96004356115ac565b34801561066a57600080fd5b506103d7600160a060020a03600435166115d0565b34801561068b57600080fd5b506103d7600435602435611685565b3480156106a657600080fd5b50610445600160a060020a036004351661176c565b3480156106c757600080fd5b50610445611787565b3480156106dc57600080fd5b506102e961178d565b3480156106f157600080fd5b506103d761179c565b34801561070657600080fd5b5061071b600160a060020a036004351661181c565b60408051602080825283518183015283519192839290830191858101910280838360005b8381101561075757818101518382015260200161073f565b505050509050019250505060405180910390f35b34801561077757600080fd5b506104456004356118ee565b34801561078f57600080fd5b506103d7611c1f565b3480156107a457600080fd5b50610329611d3a565b3480156107b957600080fd5b50610445611d71565b3480156107ce57600080fd5b50610445611d77565b3480156107e357600080fd5b506107ef600435611d7d565b6040805163ffffffff9092168252519081900360200190f35b34801561081457600080fd5b506103d7600160a060020a0360043516602435611daa565b34801561083857600080fd5b506102e9611e46565b34801561084d57600080fd5b50610445611e55565b34801561086257600080fd5b50610445611e5b565b34801561087757600080fd5b506102e9611e61565b34801561088c57600080fd5b506102e9600435611e70565b3480156108a457600080fd5b506102c0600435611e8b565b3480156108bc57600080fd5b50610445612053565b3480156108d157600080fd5b50610445612059565b3480156108e657600080fd5b506103d7600160a060020a036004351661205e565b34801561090757600080fd5b506102e9612097565b34801561091c57600080fd5b506103d7600160a060020a03600435166120a6565b6103d760043560243561215b565b34801561094b57600080fd5b506102e96122f5565b6103d7600435602435612304565b34801561096e57600080fd5b506103d7600435600160a060020a0360243516612604565b604080517f737570706f727473496e74657266616365286279746573342900000000000000815290519081900360190190206000907bffffffffffffffffffffffffffffffffffffffffffffffffffffffff1983811691161480610c115750604080517f746f6b656e4d657461646174612875696e743235362c737472696e67290000008152815190819003601d0181207f746f6b656e734f664f776e657228616464726573732900000000000000000000825282519182900360160182207f7472616e7366657246726f6d28616464726573732c616464726573732c75696e83527f7432353629000000000000000000000000000000000000000000000000000000602084015283519283900360250183207f7472616e7366657228616464726573732c75696e743235362900000000000000845284519384900360190184207f617070726f766528616464726573732c75696e74323536290000000000000000855285519485900360180185207f6f776e65724f662875696e743235362900000000000000000000000000000000865286519586900360100186207f62616c616e63654f662861646472657373290000000000000000000000000000875287519687900360120187207f746f74616c537570706c792829000000000000000000000000000000000000008852885197889003600d0188207f73796d626f6c2829000000000000000000000000000000000000000000000000895289519889900360080189207f6e616d65282900000000000000000000000000000000000000000000000000008a529951988990036006019098207bffffffffffffffffffffffffffffffffffffffffffffffffffffffff198c811691909a189098181818181818181891909116145b90505b919050565b600254600160a060020a031681565b6060610c32613296565b600e54600090600160a060020a03161515610c4c57600080fd5b600e54604080517fcb4799f2000000000000000000000000000000000000000000000000000000008152600481018981526024820192835260448201889052600160a060020a039093169263cb4799f2928a928a928a929091606401848480828437820191505094505050505060a060405180830381600087803b158015610cd357600080fd5b505af1158015610ce7573d6000803e3d6000fd5b505050506040513d601f19601f8201168201806040525060a0811015610d0c57600080fd5b5060808101519092509050610d218282612696565b9695505050505050565b60408051808201909152601181527f52756d626c654c6567656e644265617374000000000000000000000000000000602082015281565b60035460a060020a900460ff1615610d7957600080fd5b610d8333826126ea565b1515610d8e57600080fd5b610d98818361270a565b60408051338152600160a060020a038416602082015280820183905290517f8c5be1e5ebec7d5bd14f71427d1e84f3dd0314c0f7b2291e5b200ac8c7c3b9259181900360600190a15050565b600154600160a060020a031681565b600154600090600160a060020a03163314610e0d57600080fd5b81905080600160a060020a03166376190f8f6040518163ffffffff1660e060020a028152600401602060405180830381600087803b158015610e4e57600080fd5b505af1158015610e62573d6000803e3d6000fd5b505050506040513d6020811015610e7857600080fd5b50511515610e8557600080fd5b600d8054600160a060020a031916600160a060020a039290921691909117905550565b6003546000908190600160a060020a03163314610ec457600080fd5b600160a060020a0383161515610ed957600080fd5b601480546001019055610ef266038d7ea4c68000612738565b9150610f03600080600085876127ce565b6040805182815290519192507f7d5917e650ed8f410e646ee48c18ae7623011556d29329e189c2d3dd0a3ce1ee919081900360200190a1505050565b6007546000190190565b6000808211610f5757600080fd5b6007805483908110610f6557fe5b600091825260209091206007909102016003015468010000000000000000900463ffffffff16151592915050565b6003546000908190600160a060020a03163314610faf57600080fd5b600160a060020a0383161515610fc457600080fd5b601380546001019055610fdd66038d7ea4c68000612738565b9150610fee600080600085876127ce565b6040805182815290519192507f6c213846665cccdf36f59f714230343571b963d939adb61e51bad0d124cbb7ed919081900360200190a1505050565b600154600090600160a060020a0316331461104457600080fd5b81905080600160a060020a03166364b13bc96040518163ffffffff1660e060020a028152600401602060405180830381600087803b15801561108557600080fd5b505af1158015611099573d6000803e3d6000fd5b505050506040513d60208110156110af57600080fd5b505115156110bc57600080fd5b60118054600160a060020a031916600160a060020a039290921691909117905550565b600d54600160a060020a031681565b60035460a060020a900460ff161561110557600080fd5b600160a060020a038216151561111a57600080fd5b600160a060020a03821630141561113057600080fd5b61113a3382612ce0565b151561114557600080fd5b61114f83826126ea565b151561115a57600080fd5b611165838383612d00565b505050565b600154600160a060020a0316331461118157600080fd5b600160a060020a038116151561119657600080fd5b60018054600160a060020a031916600160a060020a0392909216919091179055565b600154600160a060020a031633146111cf57600080fd5b600160a060020a03811615156111e457600080fd5b60038054600160a060020a031916600160a060020a0392909216919091179055565b60035460a060020a900460ff161561121d57600080fd5b61122733856126ea565b151561123257600080fd5b61123b84610f49565b1561124557600080fd5b600c5461125c908590600160a060020a031661270a565b600c54604080517f27ebe40a000000000000000000000000000000000000000000000000000000008152600481018790526024810186905260448101859052606481018490523360848201529051600160a060020a03909216916327ebe40a9160a48082019260009290919082900301818387803b1580156112dd57600080fd5b505af11580156112f1573d6000803e3d6000fd5b5050505050505050565b600154600160a060020a0316331461131257600080fd5b60035460a060020a900460ff16151561132a57600080fd5b6003805474ff000000000000000000000000000000000000000019169055565b600b60205260009081526040902054600160a060020a031681565b6000808080851161137557600080fd5b6000841161138257600080fd5b600780548690811061139057fe5b906000526020600020906007020191506007848154811015156113af57fe5b906000526020600020906007020190506113cb82868387612de2565b80156113dc57506113dc8486612f41565b95945050505050565b60035460a060020a900460ff16156113fc57600080fd5b61140633856126ea565b151561141157600080fd5b61141a84611e8b565b151561142557600080fd5b600d5461143c908590600160a060020a031661270a565b600d54604080517f27ebe40a000000000000000000000000000000000000000000000000000000008152600481018790526024810186905260448101859052606481018490523360848201529051600160a060020a03909216916327ebe40a9160a48082019260009290919082900301818387803b1580156112dd57600080fd5b600354600160a060020a031633146114d457600080fd5b600f55565b60035460a060020a900460ff16156114f057600080fd5b6114fa33826126ea565b151561150557600080fd5b6000908152600b602052604090208054600160a060020a031916600160a060020a0392909216919091179055565b600154600160a060020a0316331461154a57600080fd5b600160a060020a038116151561155f57600080fd5b60028054600160a060020a031916600160a060020a0392909216919091179055565b600860205260009081526040902054600160a060020a031681565b60035460a060020a900460ff1681565b600081815260086020526040902054600160a060020a0316801515610c1457600080fd5b600154600090600160a060020a031633146115ea57600080fd5b81905080600160a060020a03166385b861886040518163ffffffff1660e060020a028152600401602060405180830381600087803b15801561162b57600080fd5b505af115801561163f573d6000803e3d6000fd5b505050506040513d602081101561165557600080fd5b5051151561166257600080fd5b600c8054600160a060020a031916600160a060020a039290921691909117905550565b601554604080517fa5007da7000000000000000000000000000000000000000000000000000000008152600481018590526024810184905290516000928392600160a060020a039091169163a5007da791604480820192869290919082900301818387803b1580156116f657600080fd5b505af115801561170a573d6000803e3d6000fd5b5050505061171e66038d7ea4c68000612738565b915061172f600080600085336127ce565b6040805182815290519192507ff8a9b46497a559a0138386210ebe6f79e5a29546b16e269725a0f12afd04094d919081900360200190a150505050565b600160a060020a031660009081526009602052604090205490565b60065481565b601154600160a060020a031681565b600354600160a060020a03163314806117bf5750600154600160a060020a031633145b806117d45750600254600160a060020a031633145b15156117df57600080fd5b60035460a060020a900460ff16156117f657600080fd5b6003805474ff0000000000000000000000000000000000000000191660a060020a179055565b60606000606060008060006118308761176c565b945084151561184f5760408051600081526020810190915295506118e4565b84604051908082528060200260200182016040528015611879578160200160208202803883390190505b509350611884610f3f565b925060009150600190505b8281116118e057600081815260086020526040902054600160a060020a03888116911614156118d8578084838151811015156118c757fe5b602090810290910101526001909101905b60010161188f565b8395505b5050505050919050565b600080600080600080600080600360149054906101000a900460ff1615151561191657600080fd5b600780548a90811061192457fe5b600091825260209091206007909102016002810154909750608060020a900467ffffffffffffffff16151561195857600080fd5b60408051610220810182528854815260018901546020820152600289015467ffffffffffffffff808216938301939093526801000000000000000080820484166060840152608060020a82048416608084015260c060020a90910490921660a08201526003808a015463ffffffff80821660c08501526401000000008204811660e08501529381049093166101008084019190915261ffff6c0100000000000000000000000085048116610120850152607060020a90940490931661014083015260048a015461016083015260058a015460ff80821661018085015293810484166101a084015262010000810484166101c0840152611ae5938b926101e08501926301000000900490911690811115611a6d57fe5b6003811115611a7857fe5b81526040805160c0810182526006939093015460ff8082168552610100820481166020868101919091526201000083048216938601939093526301000000820481166060860152640100000000820481166080860152650100000000009091041660a08401520152612f96565b1515611af057600080fd5b6003870154600780546801000000000000000090920463ffffffff1697509087908110611b1957fe5b600091825260209091206003808a015460079093029091019081015490965061ffff607060020a928390048116965091900416841015611b66576003850154607060020a900461ffff1693505b611b7666038d7ea4c68000612738565b60008a8152600860205260409020546003890154919450600160a060020a03169250611bbf908a9068010000000000000000900463ffffffff166001870161ffff1686866127ce565b6003880180546bffffffff00000000000000001916905560108054600019019055600f54604051919250339181156108fc0291906000818181858888f19350505050158015611c12573d6000803e3d6000fd5b5098975050505050505050565b600354600160a060020a0316331480611c425750600154600160a060020a031633145b80611c575750600254600160a060020a031633145b1515611c6257600080fd5b600c60009054906101000a9004600160a060020a0316600160a060020a0316635fd8c7106040518163ffffffff1660e060020a028152600401600060405180830381600087803b158015611cb557600080fd5b505af1158015611cc9573d6000803e3d6000fd5b50505050600d60009054906101000a9004600160a060020a0316600160a060020a0316635fd8c7106040518163ffffffff1660e060020a028152600401600060405180830381600087803b158015611d2057600080fd5b505af1158015611d34573d6000803e3d6000fd5b50505050565b60408051808201909152600381527f524c420000000000000000000000000000000000000000000000000000000000602082015281565b60125481565b60145481565b600481600e8110611d8a57fe5b60089182820401919006600402915054906101000a900463ffffffff1681565b60035460a060020a900460ff1615611dc157600080fd5b600160a060020a0382161515611dd657600080fd5b600160a060020a038216301415611dec57600080fd5b600c54600160a060020a0383811691161415611e0757600080fd5b600d54600160a060020a0383811691161415611e2257600080fd5b611e2c33826126ea565b1515611e3757600080fd5b611e42338383612d00565b5050565b600354600160a060020a031681565b600f5481565b60105481565b600e54600160a060020a031681565b600a60205260009081526040902054600160a060020a031681565b600080808311611e9a57600080fd5b6007805484908110611ea857fe5b60009182526020918290206040805161022081018252600790930290910180548352600181015493830193909352600283015467ffffffffffffffff808216928401929092526801000000000000000080820483166060850152608060020a82048316608085015260c060020a90910490911660a083015260038084015463ffffffff80821660c08601526401000000008204811660e08601529281049092166101008085019190915261ffff6c0100000000000000000000000084048116610120860152607060020a9093049092166101408401526004840154610160840152600584015460ff80821661018086015292810483166101a085015262010000810483166101c085015293945061204c9385926101e085019263010000009092041690811115611fd457fe5b6003811115611fdf57fe5b81526040805160c0810182526006939093015460ff8082168552610100820481166020868101919091526201000083048216938601939093526301000000820481166060860152640100000000820481166080860152650100000000009091041660a08401520152612fc7565b9392505050565b60135481565b609681565b600154600160a060020a0316331461207557600080fd5b600e8054600160a060020a031916600160a060020a0392909216919091179055565b600c54600160a060020a031681565b600154600090600160a060020a031633146120c057600080fd5b81905080600160a060020a03166399d1c4136040518163ffffffff1660e060020a028152600401602060405180830381600087803b15801561210157600080fd5b505af1158015612115573d6000803e3d6000fd5b505050506040513d602081101561212b57600080fd5b5051151561213857600080fd5b60158054600160a060020a031916600160a060020a039290921691909117905550565b60035460009060a060020a900460ff161561217557600080fd5b61217f33836126ea565b151561218a57600080fd5b61219382611e8b565b151561219e57600080fd5b6121a88284612ff7565b15156121b357600080fd5b600d54604080517fc55d0f56000000000000000000000000000000000000000000000000000000008152600481018690529051600160a060020a039092169163c55d0f56916024808201926020929091908290030181600087803b15801561221a57600080fd5b505af115801561222e573d6000803e3d6000fd5b505050506040513d602081101561224457600080fd5b5051600f54909150810134101561225a57600080fd5b600d54600f54604080517f454a2ab3000000000000000000000000000000000000000000000000000000008152600481018790529051600160a060020a039093169263454a2ab39234039160248082019260009290919082900301818588803b1580156122c657600080fd5b505af11580156122da573d6000803e3d6000fd5b50505050506111658263ffffffff168463ffffffff16613046565b601554600160a060020a031681565b600354600090819060a060020a900460ff161561232057600080fd5b600f5434101561232f57600080fd5b61233933856126ea565b151561234457600080fd5b61234e8385612f41565b151561235957600080fd5b600780548590811061236757fe5b60009182526020918290206040805161022081018252600790930290910180548352600181015493830193909352600283015467ffffffffffffffff808216928401929092526801000000000000000080820483166060850152608060020a82048316608085015260c060020a90910490911660a083015260038084015463ffffffff80821660c08601526401000000008204811660e08601529281049092166101008085019190915261ffff6c0100000000000000000000000084048116610120860152607060020a9093049092166101408401526004840154610160840152600584015460ff80821661018086015292810483166101a085015262010000810483166101c08501529395506124939386926101e085019263010000009092041690811115611fd457fe5b151561249e57600080fd5b60078054849081106124ac57fe5b60009182526020918290206040805161022081018252600790930290910180548352600181015493830193909352600283015467ffffffffffffffff808216928401929092526801000000000000000080820483166060850152608060020a82048316608085015260c060020a90910490911660a083015260038084015463ffffffff80821660c08601526401000000008204811660e08601529281049092166101008085019190915261ffff6c0100000000000000000000000084048116610120860152607060020a9093049092166101408401526004840154610160840152600584015460ff80821661018086015292810483166101a085015262010000810483166101c08501529394506125d89385926101e085019263010000009092041690811115611fd457fe5b15156125e357600080fd5b6125ef82858386612de2565b15156125fa57600080fd5b611d348484613046565b600354600090600160a060020a0316331461261e57600080fd5b600160a060020a038216151561263357600080fd5b60125460961161264257600080fd5b612651600080600086866127ce565b6012805460010190556040805182815290519192507f9c8654d2981423bb733d46aeecbd2cca931fa46094d91de4e1af4a341e23de3a919081900360200190a1505050565b606080600080846040519080825280601f01601f1916602001820160405280156126ca578160200160208202803883390190505b50925050602082019050846126e0828287613173565b5090949350505050565b600090815260086020526040902054600160a060020a0391821691161490565b6000918252600a60205260409091208054600160a060020a031916600160a060020a03909216919091179055565b60006127426132b5565b681020846100000000008152681020886100000000006020808301919091526810208c610000000000604080840191909152681020906100000000006060840152670688211840000000608084015267068822184000000060a084015280514281529051908190039091019020819060059006600101600881106127c257fe5b60200201519392505050565b60006127d86132d5565b600063ffffffff881688146127ec57600080fd5b63ffffffff871687146127fe57600080fd5b61ffff8616861461280e57600080fd5b6040805161022081018252600080825260208201889052918101829052606081018290524267ffffffffffffffff16608082015260a0810182905263ffffffff808a1660c08301528a1660e08201526101008101829052610120810182905261ffff8816610140820152610160810182905260016101808201526101a081018290526101c08101829052906101e082019081526040805160c08082018352600180835260208084018290528385018290526060808501839052608080860184905260a0808701859052978301959095526007805480850180835560008390528a517fa66cc928b5edb82af9bd49922954155ab7b0942694bea4ce44661d9a8736c68892909302918201928355938a01517fa66cc928b5edb82af9bd49922954155ab7b0942694bea4ce44661d9a8736c689820155968901517fa66cc928b5edb82af9bd49922954155ab7b0942694bea4ce44661d9a8736c68a88018054938b0151978b0151998b015167ffffffffffffffff1990941667ffffffffffffffff928316176fffffffffffffffff000000000000000019166801000000000000000098831689021777ffffffffffffffff000000000000000000000000000000001916608060020a9a83169a909a029990991777ffffffffffffffffffffffffffffffffffffffffffffffff1660c060020a919093160291909117909655918601517fa66cc928b5edb82af9bd49922954155ab7b0942694bea4ce44661d9a8736c68b8501805460e0890151610100808b01516101208c01516101408d015163ffffffff1990951663ffffffff9788161767ffffffff00000000191664010000000094881694909402939093176bffffffff000000000000000019169516909702939093176dffff00000000000000000000000019166c0100000000000000000000000061ffff94851602176fffff00000000000000000000000000001916607060020a93909116929092029190911790556101608601517fa66cc928b5edb82af9bd49922954155ab7b0942694bea4ce44661d9a8736c68c8501556101808601517fa66cc928b5edb82af9bd49922954155ab7b0942694bea4ce44661d9a8736c68d90940180546101a08801516101c089015160ff1990921660ff9788161761ff0019169087169095029490941762ff00001916620100009590941694909402929092178084556101e0860151959750919490938793909263ff00000019166301000000836003811115612b9d57fe5b02179055506102009190910151805160069092018054602083015160408401516060850151608086015160a09096015160ff1990941660ff9788161761ff001916610100938816939093029290921762ff0000191662010000918716919091021763ff00000019166301000000918616919091021764ff000000001916640100000000938516939093029290921765ff0000000000191665010000000000939092169290920217905503905063ffffffff81168114612c5b57600080fd5b60e082015160c083015160208085015160408051600160a060020a038a16815292830186905263ffffffff948516838201529290931660608201526080810192909252517f0a5311bd2a6608f08a180df2ee7c5946819a649b204b554bb8e39825b2c50ad59181900360a00190a1612cd560008583612d00565b979650505050505050565b6000908152600a6020526040902054600160a060020a0391821691161490565b600160a060020a03808316600081815260096020908152604080832080546001019055858352600890915290208054600160a060020a0319169091179055831615612d9357600160a060020a03831660009081526009602090815260408083208054600019019055838352600b82528083208054600160a060020a0319908116909155600a909252909120805490911690555b60408051600160a060020a0380861682528416602082015280820183905290517fddf252ad1be2c89b69c2b068fc378daa952ba7f163c4a11628f55a4df523b3ef9181900360600190a1505050565b600081841415612df457506000612f39565b6003850154640100000000900463ffffffff16821480612e1d5750600385015463ffffffff1682145b15612e2a57506000612f39565b6003830154640100000000900463ffffffff16841480612e535750600383015463ffffffff1684145b15612e6057506000612f39565b6003830154640100000000900463ffffffff161580612e8f57506003850154640100000000900463ffffffff16155b15612e9c57506001612f39565b600385810154908401546401000000009182900463ffffffff90811692909104161480612ee2575060038086015490840154640100000000900463ffffffff9081169116145b15612eef57506000612f39565b6003808601549084015463ffffffff908116640100000000909204161480612f2857506003808601549084015463ffffffff9081169116145b15612f3557506000612f39565b5060015b949350505050565b6000818152600860205260408082205484835290822054600160a060020a039182169116808214806113dc57506000858152600b6020526040902054600160a060020a03908116908316149250505092915050565b600081610100015163ffffffff16600014158015610c1157505060a0015167ffffffffffffffff4381169116111590565b600081610100015163ffffffff166000148015610c1157505060a0015167ffffffffffffffff4381169116111590565b600080600060078581548110151561300b57fe5b9060005260206000209060070201915060078481548110151561302a57fe5b906000526020600020906007020190506113dc82868387612de2565b60008060078381548110151561305857fe5b9060005260206000209060070201915060078481548110151561307757fe5b600091825260209091206007909102016003810180546bffffffff000000000000000019166801000000000000000063ffffffff87160217905590506130bc826131b7565b6130c5816131b7565b6000848152600b602090815260408083208054600160a060020a03199081169091558684528184208054909116905560108054600101905586835260088252918290205460028401548351600160a060020a03909216825291810187905280830186905260c060020a90910467ffffffffffffffff16606082015290517f241ea03ca20251805084d27d4440371c34a0b85ff108f6bb5611248f73818b80916080908290030190a150505050565b60005b60208210613198578251845260209384019390920191601f1990910190613176565b50905182516020929092036101000a6000190180199091169116179052565b60065460038201544391906004906c01000000000000000000000000900461ffff16600e81106131e357fe5b600891828204019190066004029054906101000a900463ffffffff1663ffffffff1681151561320e57fe5b04018160020160186101000a81548167ffffffffffffffff021916908367ffffffffffffffff160217905550600d81600301600c9054906101000a900461ffff1661ffff1610156132935760038101805461ffff6c010000000000000000000000008083048216600101909116026dffff000000000000000000000000199091161790555b50565b6080604051908101604052806004906020820280388339509192915050565b610100604051908101604052806008906020820280388339509192915050565b604080516102c081018252600080825260208201819052918101829052606081018290526080810182905260a0810182905260c0810182905260e08101829052610100810182905261012081018290526101408101829052610160810182905261018081018290526101a081018290526101c08101829052906101e08201908152602001613361613366565b905290565b6040805160c081018252600080825260208201819052918101829052606081018290526080810182905260a0810191909152905600a165627a7a72305820b17cb0edf57781c80d79f803bcc810a2647ad42cbacf699c58099a81f6de51030029",
  "source": "pragma solidity ^0.4.24;\n\nimport \"./BeastAuction.sol\";\nimport \"./interface/GeneMagicInterface.sol\";\nimport \"./interface/EggFactoryInterface.sol\";\nimport \"./util/Random.sol\";\n\ncontract BeastMinting is Random, BeastAuction {\n\n    event EggOpened(uint256 legendId);\n    event PromoBeastCreated(uint256 legendId);\n    event RandomBoxOpened(uint256 legendId);\n    event LegendaryRandomBoxOpened(uint256 legendId);\n\n    uint256 public constant PROMO_CREATION_LIMIT = 150; // Limits the number of beast the contract owner can ever create.\n\n    uint256 public promoBeastCreatedCount; // Amount of promo beasts created\n    uint256 public randomBoxOpenedCount; // Amount of random boxes opened\n    uint256 public legendaryRandomBoxOpenedCount; // Amount of legendary random boxes opened\n\n    EggFactoryInterface public eggFactory;\n\n    /// @dev Sets the reference to the egg factory\n    /// @param _address - Address of egg factory contract.\n    function setEggFactoryAddress(address _address) public onlyCEO {\n        EggFactoryInterface candidateContract = EggFactoryInterface(_address);\n        require(candidateContract.isEggFactory());\n        eggFactory = candidateContract;\n    }\n\n    /**\n     * Create a beast based on \"PROMO\"\n     * @dev genes must be created outside in a custom way\n     */\n    function createPromoBeast(uint256 _genes, address _owner) external onlyCOO {\n        require(_owner != address(0));\n        require(promoBeastCreatedCount < PROMO_CREATION_LIMIT);\n\n        uint256 legendId = _createBeast(0, 0, 0, _genes, _owner);\n        promoBeastCreatedCount++;\n        emit PromoBeastCreated(legendId);\n    }\n\n    /**\n     * Create a beast based on a random box\n     * @dev beast can be uni or dino\n     */\n    function createBeastFromRandomBox(address _owner) external onlyCOO {\n        require(_owner != address(0));\n        randomBoxOpenedCount++;\n        // TODO: Random gens\n        uint256 randomGens = random(1000000000000000);\n        uint256 legendId = _createBeast(0, 0, 0, randomGens, _owner);\n        emit RandomBoxOpened(legendId);\n    }\n\n    /**\n     * Create a beast based on a legendary random box\n     * @dev beast can be uni or dino and MUST be a Legedary pedigree\n     */\n    function createBeastFromLegendaryRandomBox(address _owner) external onlyCOO {\n        require(_owner != address(0));\n        legendaryRandomBoxOpenedCount++;\n        // TODO: Specific gens for Legendary\n        uint256 randomGens = random(1000000000000000);\n        uint256 legendId = _createBeast(0, 0, 0, randomGens, _owner);\n        emit LegendaryRandomBoxOpened(legendId);\n    }\n\n    /**\n     * Hatch an egg of Egg Factory\n     */\n    function hatchEgg(uint256 _eggId, uint256 _amount) external {\n        eggFactory.openEgg(_eggId, _amount); // TODO: check throw\n\n        //TODO: Get base gens from Egg Scheme (_eggId)\n\n        uint256 randomGens = random(1000000000000000); \n        uint256 legendId = _createBeast(0, 0, 0, randomGens, msg.sender);\n        emit EggOpened(legendId);\n    }\n}",
  "sourcePath": "/Users/jonathanaraneda/BlockchainProjects/unicornsvsdinosaurs-smartcontracts/contracts/BeastMinting.sol",
  "compiler": {
    "name": "solc",
    "version": "0.4.24+commit.e67f0147.Emscripten.clang"
  },
  "schemaVersion": "2.0.1",
  "updatedAt": "2018-08-03T01:48:24.071Z"
}