{
  "contractName": "BeastBase",
  "abi": [
    {
      "constant": true,
      "inputs": [],
      "name": "cfoAddress",
      "outputs": [
        {
          "name": "",
          "type": "address"
        }
      ],
      "payable": false,
      "stateMutability": "view",
      "type": "function"
    },
    {
      "constant": true,
      "inputs": [],
      "name": "ceoAddress",
      "outputs": [
        {
          "name": "",
          "type": "address"
        }
      ],
      "payable": false,
      "stateMutability": "view",
      "type": "function"
    },
    {
      "constant": true,
      "inputs": [],
      "name": "siringAuction",
      "outputs": [
        {
          "name": "",
          "type": "address"
        }
      ],
      "payable": false,
      "stateMutability": "view",
      "type": "function"
    },
    {
      "constant": false,
      "inputs": [
        {
          "name": "_newCEO",
          "type": "address"
        }
      ],
      "name": "setCEO",
      "outputs": [],
      "payable": false,
      "stateMutability": "nonpayable",
      "type": "function"
    },
    {
      "constant": false,
      "inputs": [
        {
          "name": "_newCOO",
          "type": "address"
        }
      ],
      "name": "setCOO",
      "outputs": [],
      "payable": false,
      "stateMutability": "nonpayable",
      "type": "function"
    },
    {
      "constant": false,
      "inputs": [],
      "name": "unpause",
      "outputs": [],
      "payable": false,
      "stateMutability": "nonpayable",
      "type": "function"
    },
    {
      "constant": true,
      "inputs": [
        {
          "name": "",
          "type": "uint256"
        }
      ],
      "name": "sireAllowedToAddress",
      "outputs": [
        {
          "name": "",
          "type": "address"
        }
      ],
      "payable": false,
      "stateMutability": "view",
      "type": "function"
    },
    {
      "constant": false,
      "inputs": [
        {
          "name": "_newCFO",
          "type": "address"
        }
      ],
      "name": "setCFO",
      "outputs": [],
      "payable": false,
      "stateMutability": "nonpayable",
      "type": "function"
    },
    {
      "constant": true,
      "inputs": [
        {
          "name": "",
          "type": "uint256"
        }
      ],
      "name": "beastIndexToOwner",
      "outputs": [
        {
          "name": "",
          "type": "address"
        }
      ],
      "payable": false,
      "stateMutability": "view",
      "type": "function"
    },
    {
      "constant": true,
      "inputs": [],
      "name": "paused",
      "outputs": [
        {
          "name": "",
          "type": "bool"
        }
      ],
      "payable": false,
      "stateMutability": "view",
      "type": "function"
    },
    {
      "constant": true,
      "inputs": [],
      "name": "secondsPerBlock",
      "outputs": [
        {
          "name": "",
          "type": "uint256"
        }
      ],
      "payable": false,
      "stateMutability": "view",
      "type": "function"
    },
    {
      "constant": false,
      "inputs": [],
      "name": "pause",
      "outputs": [],
      "payable": false,
      "stateMutability": "nonpayable",
      "type": "function"
    },
    {
      "constant": true,
      "inputs": [
        {
          "name": "",
          "type": "uint256"
        }
      ],
      "name": "cooldowns",
      "outputs": [
        {
          "name": "",
          "type": "uint32"
        }
      ],
      "payable": false,
      "stateMutability": "view",
      "type": "function"
    },
    {
      "constant": true,
      "inputs": [],
      "name": "cooAddress",
      "outputs": [
        {
          "name": "",
          "type": "address"
        }
      ],
      "payable": false,
      "stateMutability": "view",
      "type": "function"
    },
    {
      "constant": true,
      "inputs": [
        {
          "name": "",
          "type": "uint256"
        }
      ],
      "name": "beastIndexToApproved",
      "outputs": [
        {
          "name": "",
          "type": "address"
        }
      ],
      "payable": false,
      "stateMutability": "view",
      "type": "function"
    },
    {
      "constant": true,
      "inputs": [],
      "name": "saleAuction",
      "outputs": [
        {
          "name": "",
          "type": "address"
        }
      ],
      "payable": false,
      "stateMutability": "view",
      "type": "function"
    },
    {
      "anonymous": false,
      "inputs": [
        {
          "indexed": false,
          "name": "owner",
          "type": "address"
        },
        {
          "indexed": false,
          "name": "beastId",
          "type": "uint256"
        },
        {
          "indexed": false,
          "name": "matronId",
          "type": "uint256"
        },
        {
          "indexed": false,
          "name": "sireId",
          "type": "uint256"
        },
        {
          "indexed": false,
          "name": "genes",
          "type": "uint256"
        }
      ],
      "name": "Birth",
      "type": "event"
    },
    {
      "anonymous": false,
      "inputs": [
        {
          "indexed": false,
          "name": "from",
          "type": "address"
        },
        {
          "indexed": false,
          "name": "to",
          "type": "address"
        },
        {
          "indexed": false,
          "name": "tokenId",
          "type": "uint256"
        }
      ],
      "name": "Transfer",
      "type": "event"
    },
    {
      "anonymous": false,
      "inputs": [
        {
          "indexed": false,
          "name": "newContract",
          "type": "address"
        }
      ],
      "name": "ContractUpgrade",
      "type": "event"
    }
  ],
  "bytecode": "0x6002805460a060020a60ff0219169055610240604052603c6080908152607860a05261012c60c05261025860e05261070861010052610e1061012052611c2061014052613840610160526170806101805261e1006101a052620151806101c0526202a3006101e052620546006102005262093a806102205261008590600390600e61009d565b50600f60055534801561009757600080fd5b5061015d565b6002830191839082156101295791602002820160005b838211156100f757835183826101000a81548163ffffffff021916908363ffffffff16021790555092602001926004016020816003010492830192600103026100b3565b80156101275782816101000a81549063ffffffff02191690556004016020816003010492830192600103026100f7565b505b50610135929150610139565b5090565b61015a91905b8082111561013557805463ffffffff1916815560010161013f565b90565b6105f68061016c6000396000f3006080604052600436106100e55763ffffffff7c01000000000000000000000000000000000000000000000000000000006000350416630519ce7981146100ea5780630a0f81681461011b57806321717ebf1461013057806327d7874c146101455780632ba73c15146101685780633f4ba83a1461018957806346116e6f1461019e5780634e0a3379146101b65780635318673f146101d75780635c975abb146101ef5780637a7d4937146102185780638456cb591461023f5780639d6fac6f14610254578063b047fb5014610285578063d11dffee1461029a578063e6cbe351146102b2575b600080fd5b3480156100f657600080fd5b506100ff6102c7565b60408051600160a060020a039092168252519081900360200190f35b34801561012757600080fd5b506100ff6102d6565b34801561013c57600080fd5b506100ff6102e5565b34801561015157600080fd5b50610166600160a060020a03600435166102f4565b005b34801561017457600080fd5b50610166600160a060020a036004351661034f565b34801561019557600080fd5b506101666103aa565b3480156101aa57600080fd5b506100ff60043561040a565b3480156101c257600080fd5b50610166600160a060020a0360043516610425565b3480156101e357600080fd5b506100ff600435610480565b3480156101fb57600080fd5b5061020461049b565b604080519115158252519081900360200190f35b34801561022457600080fd5b5061022d6104bc565b60408051918252519081900360200190f35b34801561024b57600080fd5b506101666104c2565b34801561026057600080fd5b5061026c600435610564565b6040805163ffffffff9092168252519081900360200190f35b34801561029157600080fd5b506100ff610591565b3480156102a657600080fd5b506100ff6004356105a0565b3480156102be57600080fd5b506100ff6105bb565b600154600160a060020a031681565b600054600160a060020a031681565b600c54600160a060020a031681565b600054600160a060020a0316331461030b57600080fd5b600160a060020a038116151561032057600080fd5b6000805473ffffffffffffffffffffffffffffffffffffffff1916600160a060020a0392909216919091179055565b600054600160a060020a0316331461036657600080fd5b600160a060020a038116151561037b57600080fd5b6002805473ffffffffffffffffffffffffffffffffffffffff1916600160a060020a0392909216919091179055565b600054600160a060020a031633146103c157600080fd5b60025474010000000000000000000000000000000000000000900460ff1615156103ea57600080fd5b6002805474ff000000000000000000000000000000000000000019169055565b600a60205260009081526040902054600160a060020a031681565b600054600160a060020a0316331461043c57600080fd5b600160a060020a038116151561045157600080fd5b6001805473ffffffffffffffffffffffffffffffffffffffff1916600160a060020a0392909216919091179055565b600760205260009081526040902054600160a060020a031681565b60025474010000000000000000000000000000000000000000900460ff1681565b60055481565b600254600160a060020a03163314806104e55750600054600160a060020a031633145b806104fa5750600154600160a060020a031633145b151561050557600080fd5b60025474010000000000000000000000000000000000000000900460ff161561052d57600080fd5b6002805474ff0000000000000000000000000000000000000000191674010000000000000000000000000000000000000000179055565b600381600e811061057157fe5b60089182820401919006600402915054906101000a900463ffffffff1681565b600254600160a060020a031681565b600960205260009081526040902054600160a060020a031681565b600b54600160a060020a0316815600a165627a7a72305820ac111b99b60d16af585dee46063552ceb826a91b3375c98546b3a1f0282d4c230029",
  "source": "pragma solidity ^0.4.24;\n\nimport \"./util/AccessControl.sol\";\nimport \"./auction/SaleClockAuction.sol\";\nimport \"./auction/SiringClockAuction.sol\";\n\n/// @title Base contract for Rumble Legends. Holds all common structs, events and base variables.\n/// @dev See the BeastCore contract documentation to understand how the various contract facets are arranged.\ncontract BeastBase is AccessControl {\n    /*** EVENTS ***/\n\n    /// @dev The Birth event is fired whenever a new beasts comes into existence. This obviously\n    ///  includes any time a beast is created through the giveBirth method, but it is also called\n    ///  when a new gen0 beast is created.\n    event Birth(address owner, uint256 beastId, uint256 matronId, uint256 sireId, uint256 genes);\n\n    /// @dev Transfer event as defined in current draft of ERC721. Emitted every time a beasts\n    ///  ownership is assigned, including births.\n    event Transfer(address from, address to, uint256 tokenId);\n\n    /*** DATA TYPES ***/\n\n    enum Pedigree {Common,Rare,Epic, Legendary}\n\n    // @dev This attributes are the beats base to play the different challenge,\n    // each challenge will use different combination of atributes. \n    struct Attrs {\n        uint8 strength;\n        uint8 dexterity;\n        uint8 endurance;\n        uint8 knowledge;\n        uint8 wisdom;\n        uint8 charisma;\n    }\n    // TODO: Describe\n    struct Beast {\n        uint race;\n        uint256 genes; // first bit represent the type ( uni or dino )\n        uint64 experience; // the experience the beast has.\n        uint64 challengeCoolDown;\n        uint64 birthTime; // The timestamp from the block when this beast came into existence.\n        uint64 cooldownEndBlock;\n        uint32 sireId;\n        uint32 matronId;\n        uint32 siringWithId;\n        uint16 cooldownIndex;\n        uint16 generation;\n        uint skillId;\n        uint8 level; // the level of the beast, based on experience.\n        uint8 preferedAttribute; // The one atttribute that we want to increment when level up.(0,1,2,3,4 or 5)\n        uint8 element; // 0 = Earth, 1 = Water, 2 = Fire, 3 = Air.\n        Pedigree pedigree;\n        Attrs attrs;\n    }\n\n    /*** CONSTANTS ***/\n\n    /// @dev A lookup table indicating the cooldown duration after any successful\n    ///  breeding action, called \"pregnancy time\" for matrons and \"siring cooldown\"\n    ///  for sires. Designed such that the cooldown roughly doubles each time a beast\n    ///  is bred, encouraging owners not to just keep breeding the same beast over\n    ///  and over again. Caps out at one week (a beast can breed an unbounded number\n    ///  of times, and the maximum cooldown is always seven days).\n    uint32[14] public cooldowns = [\n        uint32(1 minutes),\n        uint32(2 minutes),\n        uint32(5 minutes),\n        uint32(10 minutes),\n        uint32(30 minutes),\n        uint32(1 hours),\n        uint32(2 hours),\n        uint32(4 hours),\n        uint32(8 hours),\n        uint32(16 hours),\n        uint32(1 days),\n        uint32(2 days),\n        uint32(4 days),\n        uint32(7 days)\n    ];\n\n    // An approximation of currently how many seconds are in between blocks.\n    uint256 public secondsPerBlock = 15;\n\n    /*** STORAGE ***/\n\n    /// TODO: Description\n    Beast[] beasts;\n\n    /// TODO: Description\n    mapping (uint256 => address) public beastIndexToOwner;\n\n    // @dev A mapping from owner address to count of tokens that address owns.\n    //  Used internally inside balanceOf() to resolve ownership count.\n    mapping (address => uint256) ownershipTokenCount;\n\n    /// @dev A mapping from BeastIDs to an address that has been approved to call\n    ///  transferFrom(). Each Beast can only have one approved address for transfer\n    ///  at any time. A zero value means no approval is outstanding.\n    mapping (uint256 => address) public beastIndexToApproved;\n\n    /// @dev A mapping from BeastIDs to an address that has been approved to use\n    ///  this Beast for siring via breedWith(). Each Beast can only have one approved\n    ///  address for siring at any time. A zero value means no approval is outstanding.\n    mapping (uint256 => address) public sireAllowedToAddress;\n\n    /// @dev The address of the ClockAuction contract that handles sales of beasts. This\n    ///  same contract handles both peer-to-peer sales as well as the gen0 sales which are\n    ///  initiated every 15 minutes.\n    SaleClockAuction public saleAuction;\n\n    /// @dev The address of a custom ClockAuction subclassed contract that handles siring\n    ///  auctions. Needs to be separate from saleAuction because the actions taken on success\n    ///  after a sales and siring auction are quite different.\n    SiringClockAuction public siringAuction;\n\n    /// @dev Assigns ownership of a specific Beast to an address.\n    function _transfer(address _from, address _to, uint256 _tokenId) internal {\n        // Since the number of beasts is capped to 2^32 we can't overflow this\n        ownershipTokenCount[_to]++;\n        // transfer ownership\n        beastIndexToOwner[_tokenId] = _to;\n        // When creating new beasts _from is 0x0, but we can't account that address.\n        if (_from != address(0)) {\n            ownershipTokenCount[_from]--;\n            // once the beasts is transferred also clear sire allowances\n            delete sireAllowedToAddress[_tokenId];\n            // clear any previously approved ownership exchange\n            delete beastIndexToApproved[_tokenId];\n        }\n        // Emit the transfer event.\n        Transfer(_from, _to, _tokenId);\n    }\n\n    /// TODO: Description\n    function _createBeast(\n        uint256 _matronId,\n        uint256 _sireId,\n        uint256 _generation,\n        uint256 _genes,\n        address _owner\n    )\n        internal\n        returns (uint256)\n    {\n        // prevent overflows\n        require(_matronId == uint256(uint32(_matronId)));\n        require(_sireId == uint256(uint32(_sireId)));\n        require(_generation == uint256(uint16(_generation)));\n\n        // TODO: Skill ID = 0 is not the right thing to do, we want to have random skills?\n        // TODO: element = 0 is not right as well, should be taken out from ADN.\n        Beast memory _beast = Beast({\n            race: 0, // TODO: Extract from Genes\n            genes: _genes,\n            experience: 0,\n            challengeCoolDown: 0,\n            birthTime: uint64(now),\n            cooldownEndBlock: 0,\n            sireId: uint32(_sireId),\n            matronId: uint32(_matronId),\n            siringWithId: 0,\n            cooldownIndex: 0,\n            generation: uint16(_generation),\n            skillId: 0, // TODO: Extract from Genes\n            level: 1,\n            preferedAttribute: 0,\n            element: 0, // TODO: Extract from Genes \n            pedigree: Pedigree.Common, // TODO: Extract from Genes\n            attrs: Attrs({\n                strength: 1,\n                dexterity: 1,\n                endurance: 1,\n                knowledge: 1,\n                wisdom: 1,\n                charisma: 1\n            })\n        });\n        uint256 newBeastId = beasts.push(_beast) - 1;\n\n        // prevent overflow of 4 billion beasts\n        require(newBeastId == uint256(uint32(newBeastId)));\n\n        // emit the birth event\n        emit Birth(\n            _owner,\n            newBeastId,\n            uint256(_beast.matronId),\n            uint256(_beast.sireId),\n            _beast.genes\n        );\n\n        // This will assign ownership, and also emit the Transfer event as\n        // per ERC721 draft\n        _transfer(0, _owner, newBeastId);\n\n        return newBeastId;\n    }\n}",
  "sourcePath": "/Users/jonathanaraneda/BlockchainProjects/unicornsvsdinosaurs-smartcontracts/contracts/BeastBase.sol",
  "compiler": {
    "name": "solc",
    "version": "0.4.24+commit.e67f0147.Emscripten.clang"
  },
  "schemaVersion": "2.0.1",
  "updatedAt": "2018-08-03T00:21:33.132Z"
}