{
  "contractName": "BeastOwnership",
  "abi": [
    {
      "constant": true,
      "inputs": [
        {
          "name": "_interfaceID",
          "type": "bytes4"
        }
      ],
      "name": "supportsInterface",
      "outputs": [
        {
          "name": "",
          "type": "bool"
        }
      ],
      "payable": false,
      "stateMutability": "view",
      "type": "function"
    },
    {
      "constant": true,
      "inputs": [],
      "name": "cfoAddress",
      "outputs": [
        {
          "name": "",
          "type": "address"
        }
      ],
      "payable": false,
      "stateMutability": "view",
      "type": "function"
    },
    {
      "constant": true,
      "inputs": [
        {
          "name": "_tokenId",
          "type": "uint256"
        },
        {
          "name": "_preferredTransport",
          "type": "string"
        }
      ],
      "name": "tokenMetadata",
      "outputs": [
        {
          "name": "infoUrl",
          "type": "string"
        }
      ],
      "payable": false,
      "stateMutability": "view",
      "type": "function"
    },
    {
      "constant": true,
      "inputs": [],
      "name": "name",
      "outputs": [
        {
          "name": "",
          "type": "string"
        }
      ],
      "payable": false,
      "stateMutability": "view",
      "type": "function"
    },
    {
      "constant": false,
      "inputs": [
        {
          "name": "_to",
          "type": "address"
        },
        {
          "name": "_tokenId",
          "type": "uint256"
        }
      ],
      "name": "approve",
      "outputs": [],
      "payable": false,
      "stateMutability": "nonpayable",
      "type": "function"
    },
    {
      "constant": true,
      "inputs": [],
      "name": "ceoAddress",
      "outputs": [
        {
          "name": "",
          "type": "address"
        }
      ],
      "payable": false,
      "stateMutability": "view",
      "type": "function"
    },
    {
      "constant": true,
      "inputs": [],
      "name": "totalSupply",
      "outputs": [
        {
          "name": "",
          "type": "uint256"
        }
      ],
      "payable": false,
      "stateMutability": "view",
      "type": "function"
    },
    {
      "constant": false,
      "inputs": [
        {
          "name": "_from",
          "type": "address"
        },
        {
          "name": "_to",
          "type": "address"
        },
        {
          "name": "_tokenId",
          "type": "uint256"
        }
      ],
      "name": "transferFrom",
      "outputs": [],
      "payable": false,
      "stateMutability": "nonpayable",
      "type": "function"
    },
    {
      "constant": false,
      "inputs": [
        {
          "name": "_newCEO",
          "type": "address"
        }
      ],
      "name": "setCEO",
      "outputs": [],
      "payable": false,
      "stateMutability": "nonpayable",
      "type": "function"
    },
    {
      "constant": false,
      "inputs": [
        {
          "name": "_newCOO",
          "type": "address"
        }
      ],
      "name": "setCOO",
      "outputs": [],
      "payable": false,
      "stateMutability": "nonpayable",
      "type": "function"
    },
    {
      "constant": false,
      "inputs": [],
      "name": "unpause",
      "outputs": [],
      "payable": false,
      "stateMutability": "nonpayable",
      "type": "function"
    },
    {
      "constant": true,
      "inputs": [
        {
          "name": "",
          "type": "uint256"
        }
      ],
      "name": "sireAllowedToAddress",
      "outputs": [
        {
          "name": "",
          "type": "address"
        }
      ],
      "payable": false,
      "stateMutability": "view",
      "type": "function"
    },
    {
      "constant": false,
      "inputs": [
        {
          "name": "_newCFO",
          "type": "address"
        }
      ],
      "name": "setCFO",
      "outputs": [],
      "payable": false,
      "stateMutability": "nonpayable",
      "type": "function"
    },
    {
      "constant": true,
      "inputs": [
        {
          "name": "",
          "type": "uint256"
        }
      ],
      "name": "beastIndexToOwner",
      "outputs": [
        {
          "name": "",
          "type": "address"
        }
      ],
      "payable": false,
      "stateMutability": "view",
      "type": "function"
    },
    {
      "constant": true,
      "inputs": [],
      "name": "paused",
      "outputs": [
        {
          "name": "",
          "type": "bool"
        }
      ],
      "payable": false,
      "stateMutability": "view",
      "type": "function"
    },
    {
      "constant": true,
      "inputs": [
        {
          "name": "_tokenId",
          "type": "uint256"
        }
      ],
      "name": "ownerOf",
      "outputs": [
        {
          "name": "owner",
          "type": "address"
        }
      ],
      "payable": false,
      "stateMutability": "view",
      "type": "function"
    },
    {
      "constant": true,
      "inputs": [
        {
          "name": "_owner",
          "type": "address"
        }
      ],
      "name": "balanceOf",
      "outputs": [
        {
          "name": "count",
          "type": "uint256"
        }
      ],
      "payable": false,
      "stateMutability": "view",
      "type": "function"
    },
    {
      "constant": true,
      "inputs": [],
      "name": "secondsPerBlock",
      "outputs": [
        {
          "name": "",
          "type": "uint256"
        }
      ],
      "payable": false,
      "stateMutability": "view",
      "type": "function"
    },
    {
      "constant": false,
      "inputs": [],
      "name": "pause",
      "outputs": [],
      "payable": false,
      "stateMutability": "nonpayable",
      "type": "function"
    },
    {
      "constant": true,
      "inputs": [
        {
          "name": "_owner",
          "type": "address"
        }
      ],
      "name": "tokensOfOwner",
      "outputs": [
        {
          "name": "ownerTokens",
          "type": "uint256[]"
        }
      ],
      "payable": false,
      "stateMutability": "view",
      "type": "function"
    },
    {
      "constant": true,
      "inputs": [],
      "name": "symbol",
      "outputs": [
        {
          "name": "",
          "type": "string"
        }
      ],
      "payable": false,
      "stateMutability": "view",
      "type": "function"
    },
    {
      "constant": false,
      "inputs": [
        {
          "name": "_to",
          "type": "address"
        },
        {
          "name": "_tokenId",
          "type": "uint256"
        }
      ],
      "name": "transfer",
      "outputs": [],
      "payable": false,
      "stateMutability": "nonpayable",
      "type": "function"
    },
    {
      "constant": true,
      "inputs": [],
      "name": "cooAddress",
      "outputs": [
        {
          "name": "",
          "type": "address"
        }
      ],
      "payable": false,
      "stateMutability": "view",
      "type": "function"
    },
    {
      "constant": true,
      "inputs": [],
      "name": "erc721Metadata",
      "outputs": [
        {
          "name": "",
          "type": "address"
        }
      ],
      "payable": false,
      "stateMutability": "view",
      "type": "function"
    },
    {
      "constant": true,
      "inputs": [
        {
          "name": "",
          "type": "uint256"
        }
      ],
      "name": "beastIndexToApproved",
      "outputs": [
        {
          "name": "",
          "type": "address"
        }
      ],
      "payable": false,
      "stateMutability": "view",
      "type": "function"
    },
    {
      "constant": false,
      "inputs": [
        {
          "name": "_contractAddress",
          "type": "address"
        }
      ],
      "name": "setMetadataAddress",
      "outputs": [],
      "payable": false,
      "stateMutability": "nonpayable",
      "type": "function"
    },
    {
      "anonymous": false,
      "inputs": [
        {
          "indexed": false,
          "name": "from",
          "type": "address"
        },
        {
          "indexed": false,
          "name": "to",
          "type": "address"
        },
        {
          "indexed": false,
          "name": "tokenId",
          "type": "uint256"
        }
      ],
      "name": "Transfer",
      "type": "event"
    },
    {
      "anonymous": false,
      "inputs": [
        {
          "indexed": false,
          "name": "owner",
          "type": "address"
        },
        {
          "indexed": false,
          "name": "approved",
          "type": "address"
        },
        {
          "indexed": false,
          "name": "tokenId",
          "type": "uint256"
        }
      ],
      "name": "Approval",
      "type": "event"
    },
    {
      "anonymous": false,
      "inputs": [
        {
          "indexed": false,
          "name": "owner",
          "type": "address"
        },
        {
          "indexed": false,
          "name": "beastId",
          "type": "uint256"
        },
        {
          "indexed": false,
          "name": "matronId",
          "type": "uint256"
        },
        {
          "indexed": false,
          "name": "sireId",
          "type": "uint256"
        },
        {
          "indexed": false,
          "name": "genes",
          "type": "uint256"
        }
      ],
      "name": "Birth",
      "type": "event"
    },
    {
      "anonymous": false,
      "inputs": [
        {
          "indexed": false,
          "name": "newContract",
          "type": "address"
        }
      ],
      "name": "ContractUpgrade",
      "type": "event"
    }
  ],
  "bytecode": "0x60606040526000600260146101000a81548160ff021916908315150217905550600f600355341561002f57600080fd5b611ddc8061003e6000396000f300606060405260043610610154576000357c0100000000000000000000000000000000000000000000000000000000900463ffffffff16806301ffc9a7146101595780630519ce79146101b35780630560ff441461020857806306fdde03146102b8578063095ea7b3146103465780630a0f81681461038857806318160ddd146103dd57806323b872dd1461040657806327d7874c146104675780632ba73c15146104a05780633f4ba83a146104d957806346116e6f146104ee5780634e0a3379146105515780635318673f1461058a5780635c975abb146105ed5780636352211e1461061a57806370a082311461067d5780637a7d4937146106ca5780638456cb59146106f35780638462151c1461070857806395d89b4114610796578063a9059cbb14610824578063b047fb5014610866578063bc4006f5146108bb578063d11dffee14610910578063e17b25af14610973575b600080fd5b341561016457600080fd5b61019960048080357bffffffffffffffffffffffffffffffffffffffffffffffffffffffff19169060200190919050506109ac565b604051808215151515815260200191505060405180910390f35b34156101be57600080fd5b6101c6610cbd565b604051808273ffffffffffffffffffffffffffffffffffffffff1673ffffffffffffffffffffffffffffffffffffffff16815260200191505060405180910390f35b341561021357600080fd5b61023d60048080359060200190919080359060200190820180359060200191909192905050610ce3565b6040518080602001828103825283818151815260200191508051906020019080838360005b8381101561027d578082015181840152602081019050610262565b50505050905090810190601f1680156102aa5780820380516001836020036101000a031916815260200191505b509250505060405180910390f35b34156102c357600080fd5b6102cb610e4e565b6040518080602001828103825283818151815260200191508051906020019080838360005b8381101561030b5780820151818401526020810190506102f0565b50505050905090810190601f1680156103385780820380516001836020036101000a031916815260200191505b509250505060405180910390f35b341561035157600080fd5b610386600480803573ffffffffffffffffffffffffffffffffffffffff16906020019091908035906020019091905050610e87565b005b341561039357600080fd5b61039b610f65565b604051808273ffffffffffffffffffffffffffffffffffffffff1673ffffffffffffffffffffffffffffffffffffffff16815260200191505060405180910390f35b34156103e857600080fd5b6103f0610f8a565b6040518082815260200191505060405180910390f35b341561041157600080fd5b610465600480803573ffffffffffffffffffffffffffffffffffffffff1690602001909190803573ffffffffffffffffffffffffffffffffffffffff16906020019091908035906020019091905050610f9a565b005b341561047257600080fd5b61049e600480803573ffffffffffffffffffffffffffffffffffffffff16906020019091905050611067565b005b34156104ab57600080fd5b6104d7600480803573ffffffffffffffffffffffffffffffffffffffff16906020019091905050611141565b005b34156104e457600080fd5b6104ec61121c565b005b34156104f957600080fd5b61050f60048080359060200190919050506112af565b604051808273ffffffffffffffffffffffffffffffffffffffff1673ffffffffffffffffffffffffffffffffffffffff16815260200191505060405180910390f35b341561055c57600080fd5b610588600480803573ffffffffffffffffffffffffffffffffffffffff169060200190919050506112e2565b005b341561059557600080fd5b6105ab60048080359060200190919050506113bd565b604051808273ffffffffffffffffffffffffffffffffffffffff1673ffffffffffffffffffffffffffffffffffffffff16815260200191505060405180910390f35b34156105f857600080fd5b6106006113f0565b604051808215151515815260200191505060405180910390f35b341561062557600080fd5b61063b6004808035906020019091905050611403565b604051808273ffffffffffffffffffffffffffffffffffffffff1673ffffffffffffffffffffffffffffffffffffffff16815260200191505060405180910390f35b341561068857600080fd5b6106b4600480803573ffffffffffffffffffffffffffffffffffffffff1690602001909190505061147c565b6040518082815260200191505060405180910390f35b34156106d557600080fd5b6106dd6114c5565b6040518082815260200191505060405180910390f35b34156106fe57600080fd5b6107066114cb565b005b341561071357600080fd5b61073f600480803573ffffffffffffffffffffffffffffffffffffffff1690602001909190505061160f565b6040518080602001828103825283818151815260200191508051906020019060200280838360005b83811015610782578082015181840152602081019050610767565b505050509050019250505060405180910390f35b34156107a157600080fd5b6107a9611746565b6040518080602001828103825283818151815260200191508051906020019080838360005b838110156107e95780820151818401526020810190506107ce565b50505050905090810190601f1680156108165780820380516001836020036101000a031916815260200191505b509250505060405180910390f35b341561082f57600080fd5b610864600480803573ffffffffffffffffffffffffffffffffffffffff1690602001909190803590602001909190505061177f565b005b341561087157600080fd5b610879611836565b604051808273ffffffffffffffffffffffffffffffffffffffff1673ffffffffffffffffffffffffffffffffffffffff16815260200191505060405180910390f35b34156108c657600080fd5b6108ce61185c565b604051808273ffffffffffffffffffffffffffffffffffffffff1673ffffffffffffffffffffffffffffffffffffffff16815260200191505060405180910390f35b341561091b57600080fd5b6109316004808035906020019091905050611882565b604051808273ffffffffffffffffffffffffffffffffffffffff1673ffffffffffffffffffffffffffffffffffffffff16815260200191505060405180910390f35b341561097e57600080fd5b6109aa600480803573ffffffffffffffffffffffffffffffffffffffff169060200190919050506118b5565b005b600060405180807f737570706f727473496e74657266616365286279746573342900000000000000815250601901905060405180910390207bffffffffffffffffffffffffffffffffffffffffffffffffffffffff1916827bffffffffffffffffffffffffffffffffffffffffffffffffffffffff19161480610cb6575060405180807f746f6b656e4d657461646174612875696e743235362c737472696e6729000000815250601d019050604051809103902060405180807f746f6b656e734f664f776e6572286164647265737329000000000000000000008152506016019050604051809103902060405180807f7472616e7366657246726f6d28616464726573732c616464726573732c75696e81526020017f74323536290000000000000000000000000000000000000000000000000000008152506025019050604051809103902060405180807f7472616e7366657228616464726573732c75696e7432353629000000000000008152506019019050604051809103902060405180807f617070726f766528616464726573732c75696e743235362900000000000000008152506018019050604051809103902060405180807f6f776e65724f662875696e7432353629000000000000000000000000000000008152506010019050604051809103902060405180807f62616c616e63654f6628616464726573732900000000000000000000000000008152506012019050604051809103902060405180807f746f74616c537570706c79282900000000000000000000000000000000000000815250600d019050604051809103902060405180807f73796d626f6c28290000000000000000000000000000000000000000000000008152506008019050604051809103902060405180807f6e616d6528290000000000000000000000000000000000000000000000000000815250600601905060405180910390201818181818181818187bffffffffffffffffffffffffffffffffffffffffffffffffffffffff1916827bffffffffffffffffffffffffffffffffffffffffffffffffffffffff1916145b9050919050565b600160009054906101000a900473ffffffffffffffffffffffffffffffffffffffff1681565b610ceb611d5d565b610cf3611d71565b60008073ffffffffffffffffffffffffffffffffffffffff16600960009054906101000a900473ffffffffffffffffffffffffffffffffffffffff1673ffffffffffffffffffffffffffffffffffffffff1614151515610d5257600080fd5b600960009054906101000a900473ffffffffffffffffffffffffffffffffffffffff1673ffffffffffffffffffffffffffffffffffffffff1663cb4799f2878787600060405160a001526040518463ffffffff167c010000000000000000000000000000000000000000000000000000000002815260040180848152602001806020018281038252848482818152602001925080828437820191505094505050505060a060405180830381600087803b1515610e0d57600080fd5b6102c65a03f11515610e1e57600080fd5b505050604051806080018051906020016040528092508193505050610e438282611954565b925050509392505050565b6040805190810160405280600b81526020017f43727970746f426561737400000000000000000000000000000000000000000081525081565b600260149054906101000a900460ff16151515610ea357600080fd5b610ead33826119ac565b1515610eb857600080fd5b610ec28183611a18565b7f8c5be1e5ebec7d5bd14f71427d1e84f3dd0314c0f7b2291e5b200ac8c7c3b925338383604051808473ffffffffffffffffffffffffffffffffffffffff1673ffffffffffffffffffffffffffffffffffffffff1681526020018373ffffffffffffffffffffffffffffffffffffffff1673ffffffffffffffffffffffffffffffffffffffff168152602001828152602001935050505060405180910390a15050565b6000809054906101000a900473ffffffffffffffffffffffffffffffffffffffff1681565b6000600160048054905003905090565b600260149054906101000a900460ff16151515610fb657600080fd5b600073ffffffffffffffffffffffffffffffffffffffff168273ffffffffffffffffffffffffffffffffffffffff1614151515610ff257600080fd5b3073ffffffffffffffffffffffffffffffffffffffff168273ffffffffffffffffffffffffffffffffffffffff161415151561102d57600080fd5b6110373382611a6e565b151561104257600080fd5b61104c83826119ac565b151561105757600080fd5b611062838383611ada565b505050565b6000809054906101000a900473ffffffffffffffffffffffffffffffffffffffff1673ffffffffffffffffffffffffffffffffffffffff163373ffffffffffffffffffffffffffffffffffffffff161415156110c257600080fd5b600073ffffffffffffffffffffffffffffffffffffffff168173ffffffffffffffffffffffffffffffffffffffff16141515156110fe57600080fd5b806000806101000a81548173ffffffffffffffffffffffffffffffffffffffff021916908373ffffffffffffffffffffffffffffffffffffffff16021790555050565b6000809054906101000a900473ffffffffffffffffffffffffffffffffffffffff1673ffffffffffffffffffffffffffffffffffffffff163373ffffffffffffffffffffffffffffffffffffffff1614151561119c57600080fd5b600073ffffffffffffffffffffffffffffffffffffffff168173ffffffffffffffffffffffffffffffffffffffff16141515156111d857600080fd5b80600260006101000a81548173ffffffffffffffffffffffffffffffffffffffff021916908373ffffffffffffffffffffffffffffffffffffffff16021790555050565b6000809054906101000a900473ffffffffffffffffffffffffffffffffffffffff1673ffffffffffffffffffffffffffffffffffffffff163373ffffffffffffffffffffffffffffffffffffffff1614151561127757600080fd5b600260149054906101000a900460ff16151561129257600080fd5b6000600260146101000a81548160ff021916908315150217905550565b60086020528060005260406000206000915054906101000a900473ffffffffffffffffffffffffffffffffffffffff1681565b6000809054906101000a900473ffffffffffffffffffffffffffffffffffffffff1673ffffffffffffffffffffffffffffffffffffffff163373ffffffffffffffffffffffffffffffffffffffff1614151561133d57600080fd5b600073ffffffffffffffffffffffffffffffffffffffff168173ffffffffffffffffffffffffffffffffffffffff161415151561137957600080fd5b80600160006101000a81548173ffffffffffffffffffffffffffffffffffffffff021916908373ffffffffffffffffffffffffffffffffffffffff16021790555050565b60056020528060005260406000206000915054906101000a900473ffffffffffffffffffffffffffffffffffffffff1681565b600260149054906101000a900460ff1681565b60006005600083815260200190815260200160002060009054906101000a900473ffffffffffffffffffffffffffffffffffffffff169050600073ffffffffffffffffffffffffffffffffffffffff168173ffffffffffffffffffffffffffffffffffffffff161415151561147757600080fd5b919050565b6000600660008373ffffffffffffffffffffffffffffffffffffffff1673ffffffffffffffffffffffffffffffffffffffff168152602001908152602001600020549050919050565b60035481565b600260009054906101000a900473ffffffffffffffffffffffffffffffffffffffff1673ffffffffffffffffffffffffffffffffffffffff163373ffffffffffffffffffffffffffffffffffffffff16148061157357506000809054906101000a900473ffffffffffffffffffffffffffffffffffffffff1673ffffffffffffffffffffffffffffffffffffffff163373ffffffffffffffffffffffffffffffffffffffff16145b806115cb5750600160009054906101000a900473ffffffffffffffffffffffffffffffffffffffff1673ffffffffffffffffffffffffffffffffffffffff163373ffffffffffffffffffffffffffffffffffffffff16145b15156115d657600080fd5b600260149054906101000a900460ff161515156115f257600080fd5b6001600260146101000a81548160ff021916908315150217905550565b611617611d9c565b6000611621611d9c565b600080600061162f8761147c565b945060008514156116615760006040518059106116495750595b9080825280602002602001820160405250955061173c565b8460405180591061166f5750595b9080825280602002602001820160405250935061168a610f8a565b925060009150600190505b8281111515611738578673ffffffffffffffffffffffffffffffffffffffff166005600083815260200190815260200160002060009054906101000a900473ffffffffffffffffffffffffffffffffffffffff1673ffffffffffffffffffffffffffffffffffffffff16141561172b5780848381518110151561171457fe5b906020019060200201818152505081806001019250505b8080600101915050611695565b8395505b5050505050919050565b6040805190810160405280600381526020017f425354000000000000000000000000000000000000000000000000000000000081525081565b600260149054906101000a900460ff1615151561179b57600080fd5b600073ffffffffffffffffffffffffffffffffffffffff168273ffffffffffffffffffffffffffffffffffffffff16141515156117d757600080fd5b3073ffffffffffffffffffffffffffffffffffffffff168273ffffffffffffffffffffffffffffffffffffffff161415151561181257600080fd5b61181c33826119ac565b151561182757600080fd5b611832338383611ada565b5050565b600260009054906101000a900473ffffffffffffffffffffffffffffffffffffffff1681565b600960009054906101000a900473ffffffffffffffffffffffffffffffffffffffff1681565b60076020528060005260406000206000915054906101000a900473ffffffffffffffffffffffffffffffffffffffff1681565b6000809054906101000a900473ffffffffffffffffffffffffffffffffffffffff1673ffffffffffffffffffffffffffffffffffffffff163373ffffffffffffffffffffffffffffffffffffffff1614151561191057600080fd5b80600960006101000a81548173ffffffffffffffffffffffffffffffffffffffff021916908373ffffffffffffffffffffffffffffffffffffffff16021790555050565b61195c611d5d565b611964611d5d565b600080846040518059106119755750595b9080825280601f01601f191660200182016040525092506020830191508590506119a0828287611d12565b82935050505092915050565b60008273ffffffffffffffffffffffffffffffffffffffff166005600084815260200190815260200160002060009054906101000a900473ffffffffffffffffffffffffffffffffffffffff1673ffffffffffffffffffffffffffffffffffffffff1614905092915050565b806007600084815260200190815260200160002060006101000a81548173ffffffffffffffffffffffffffffffffffffffff021916908373ffffffffffffffffffffffffffffffffffffffff1602179055505050565b60008273ffffffffffffffffffffffffffffffffffffffff166007600084815260200190815260200160002060009054906101000a900473ffffffffffffffffffffffffffffffffffffffff1673ffffffffffffffffffffffffffffffffffffffff1614905092915050565b600660008373ffffffffffffffffffffffffffffffffffffffff1673ffffffffffffffffffffffffffffffffffffffff16815260200190815260200160002060008154809291906001019190505550816005600083815260200190815260200160002060006101000a81548173ffffffffffffffffffffffffffffffffffffffff021916908373ffffffffffffffffffffffffffffffffffffffff160217905550600073ffffffffffffffffffffffffffffffffffffffff168373ffffffffffffffffffffffffffffffffffffffff16141515611c6e57600660008473ffffffffffffffffffffffffffffffffffffffff1673ffffffffffffffffffffffffffffffffffffffff16815260200190815260200160002060008154809291906001900391905055506008600082815260200190815260200160002060006101000a81549073ffffffffffffffffffffffffffffffffffffffff02191690556007600082815260200190815260200160002060006101000a81549073ffffffffffffffffffffffffffffffffffffffff02191690555b7fddf252ad1be2c89b69c2b068fc378daa952ba7f163c4a11628f55a4df523b3ef838383604051808473ffffffffffffffffffffffffffffffffffffffff1673ffffffffffffffffffffffffffffffffffffffff1681526020018373ffffffffffffffffffffffffffffffffffffffff1673ffffffffffffffffffffffffffffffffffffffff168152602001828152602001935050505060405180910390a1505050565b60005b602082101515611d3a5782518452602084019350602083019250602082039150611d15565b6001826020036101000a0390508019835116818551168181178652505050505050565b602060405190810160405280600081525090565b6080604051908101604052806004905b6000801916815260200190600190039081611d815790505090565b6020604051908101604052806000815250905600a165627a7a7230582042e59b16326a5873e062db89306bf917d72fa05190de87fab264c0b2a41f3ce90029",
  "source": "pragma solidity ^0.4.18;\n\nimport './BeastBase.sol';\nimport './token/ERC721Metadata.sol';\nimport './token/ERC721.sol';\n\ncontract BeastOwnership  is BeastBase, ERC721 {\n\n    /// @notice Name and symbol of the non fungible token, as defined in ERC721.\n    string public constant name = \"CryptoBeast\";\n    string public constant symbol = \"BST\";\n\n    // The contract that will return kitty metadata\n    ERC721Metadata public erc721Metadata;\n\n    bytes4 constant InterfaceSignature_ERC165 =\n        bytes4(keccak256(\"supportsInterface(bytes4)\"));\n\n    bytes4 constant InterfaceSignature_ERC721 =\n        bytes4(keccak256(\"name()\")) ^\n        bytes4(keccak256(\"symbol()\")) ^\n        bytes4(keccak256(\"totalSupply()\")) ^\n        bytes4(keccak256(\"balanceOf(address)\")) ^\n        bytes4(keccak256(\"ownerOf(uint256)\")) ^\n        bytes4(keccak256(\"approve(address,uint256)\")) ^\n        bytes4(keccak256(\"transfer(address,uint256)\")) ^\n        bytes4(keccak256(\"transferFrom(address,address,uint256)\")) ^\n        bytes4(keccak256(\"tokensOfOwner(address)\")) ^\n        bytes4(keccak256(\"tokenMetadata(uint256,string)\"));\n\n    /// @notice Introspection interface as per ERC-165 (https://github.com/ethereum/EIPs/issues/165).\n    ///  Returns true for any standardized interfaces implemented by this contract. We implement\n    ///  ERC-165 (obviously!) and ERC-721.\n    function supportsInterface(bytes4 _interfaceID) external view returns (bool) {\n        // DEBUG ONLY\n        //require((InterfaceSignature_ERC165 == 0x01ffc9a7) && (InterfaceSignature_ERC721 == 0x9a20483d));\n\n        return ((_interfaceID == InterfaceSignature_ERC165) || (_interfaceID == InterfaceSignature_ERC721));\n    }\n\n    /// @dev Set the address of the sibling contract that tracks metadata.\n    ///  CEO only.\n    function setMetadataAddress(address _contractAddress) public onlyCEO {\n        erc721Metadata = ERC721Metadata(_contractAddress);\n    }\n\n    // Internal utility functions: These functions all assume that their input arguments\n    // are valid. We leave it to public methods to sanitize their inputs and follow\n    // the required logic.\n\n    /// @dev Checks if a given address is the current owner of a particular Kitty.\n    /// @param _claimant the address we are validating against.\n    /// @param _tokenId kitten id, only valid when > 0\n    function _owns(address _claimant, uint256 _tokenId) internal view returns (bool) {\n        return beastIndexToOwner[_tokenId] == _claimant;\n    }\n\n    /// @dev Checks if a given address currently has transferApproval for a particular Kitty.\n    /// @param _claimant the address we are confirming kitten is approved for.\n    /// @param _tokenId kitten id, only valid when > 0\n    function _approvedFor(address _claimant, uint256 _tokenId) internal view returns (bool) {\n        return beastIndexToApproved[_tokenId] == _claimant;\n    }\n\n    /// @dev Marks an address as being approved for transferFrom(), overwriting any previous\n    ///  approval. Setting _approved to address(0) clears all transfer approval.\n    ///  NOTE: _approve() does NOT send the Approval event. This is intentional because\n    ///  _approve() and transferFrom() are used together for putting Kitties on auction, and\n    ///  there is no value in spamming the log with Approval events in that case.\n    function _approve(uint256 _tokenId, address _approved) internal {\n        beastIndexToApproved[_tokenId] = _approved;\n    }\n\n    /// @notice Returns the number of Kitties owned by a specific address.\n    /// @param _owner The owner address to check.\n    /// @dev Required for ERC-721 compliance\n    function balanceOf(address _owner) public view returns (uint256 count) {\n        return ownershipTokenCount[_owner];\n    }\n\n    /// @notice Transfers a Kitty to another address. If transferring to a smart\n    ///  contract be VERY CAREFUL to ensure that it is aware of ERC-721 (or\n    ///  CryptoKitties specifically) or your Kitty may be lost forever. Seriously.\n    /// @param _to The address of the recipient, can be a user or contract.\n    /// @param _tokenId The ID of the Kitty to transfer.\n    /// @dev Required for ERC-721 compliance.\n    function transfer(\n        address _to,\n        uint256 _tokenId\n    )\n        external\n        whenNotPaused\n    {\n        // Safety check to prevent against an unexpected 0x0 default.\n        require(_to != address(0));\n        // Disallow transfers to this contract to prevent accidental misuse.\n        // The contract should never own any kitties (except very briefly\n        // after a gen0 cat is created and before it goes on auction).\n        require(_to != address(this));\n        // Disallow transfers to the auction contracts to prevent accidental\n        // misuse. Auction contracts should only take ownership of kitties\n        // through the allow + transferFrom flow.\n        \n        //require(_to != address(saleAuction));\n        //require(_to != address(siringAuction));\n\n        // You can only send your own cat.\n        require(_owns(msg.sender, _tokenId));\n\n        // Reassign ownership, clear pending approvals, emit Transfer event.\n        _transfer(msg.sender, _to, _tokenId);\n    }\n\n    /// @notice Grant another address the right to transfer a specific Kitty via\n    ///  transferFrom(). This is the preferred flow for transfering NFTs to contracts.\n    /// @param _to The address to be granted transfer approval. Pass address(0) to\n    ///  clear all approvals.\n    /// @param _tokenId The ID of the Kitty that can be transferred if this call succeeds.\n    /// @dev Required for ERC-721 compliance.\n    function approve(\n        address _to,\n        uint256 _tokenId\n    )\n        external\n        whenNotPaused\n    {\n        // Only an owner can grant transfer approval.\n        require(_owns(msg.sender, _tokenId));\n\n        // Register the approval (replacing any previous approval).\n        _approve(_tokenId, _to);\n\n        // Emit approval event.\n        Approval(msg.sender, _to, _tokenId);\n    }\n\n    /// @notice Transfer a Kitty owned by another address, for which the calling address\n    ///  has previously been granted transfer approval by the owner.\n    /// @param _from The address that owns the Kitty to be transfered.\n    /// @param _to The address that should take ownership of the Kitty. Can be any address,\n    ///  including the caller.\n    /// @param _tokenId The ID of the Kitty to be transferred.\n    /// @dev Required for ERC-721 compliance.\n    function transferFrom(\n        address _from,\n        address _to,\n        uint256 _tokenId\n    )\n        external\n        whenNotPaused\n    {\n        // Safety check to prevent against an unexpected 0x0 default.\n        require(_to != address(0));\n        // Disallow transfers to this contract to prevent accidental misuse.\n        // The contract should never own any kitties (except very briefly\n        // after a gen0 cat is created and before it goes on auction).\n        require(_to != address(this));\n        // Check for approval and valid ownership\n        require(_approvedFor(msg.sender, _tokenId));\n        require(_owns(_from, _tokenId));\n\n        // Reassign ownership (also clears pending approvals and emits Transfer event).\n        _transfer(_from, _to, _tokenId);\n    }\n\n    /// @notice Returns the total number of Kitties currently in existence.\n    /// @dev Required for ERC-721 compliance.\n    function totalSupply() public view returns (uint) {\n        return beasts.length - 1;\n    }\n\n    /// @notice Returns the address currently assigned ownership of a given Kitty.\n    /// @dev Required for ERC-721 compliance.\n    function ownerOf(uint256 _tokenId)\n        external\n        view\n        returns (address owner)\n    {\n        owner = beastIndexToOwner[_tokenId];\n\n        require(owner != address(0));\n    }\n\n    /// @notice Returns a list of all Kitty IDs assigned to an address.\n    /// @param _owner The owner whose Kitties we are interested in.\n    /// @dev This method MUST NEVER be called by smart contract code. First, it's fairly\n    ///  expensive (it walks the entire Kitty array looking for cats belonging to owner),\n    ///  but it also returns a dynamic array, which is only supported for web3 calls, and\n    ///  not contract-to-contract calls.\n    function tokensOfOwner(address _owner) external view returns(uint256[] ownerTokens) {\n        uint256 tokenCount = balanceOf(_owner);\n\n        if (tokenCount == 0) {\n            // Return an empty array\n            return new uint256[](0);\n        } else {\n            uint256[] memory result = new uint256[](tokenCount);\n            uint256 totalBeasts = totalSupply();\n            uint256 resultIndex = 0;\n\n            // We count on the fact that all cats have IDs starting at 1 and increasing\n            // sequentially up to the totalCat count.\n            uint256 beastId;\n\n            for (beastId = 1; beastId <= totalBeasts; beastId++) {\n                if (beastIndexToOwner[beastId] == _owner) {\n                    result[resultIndex] = beastId;\n                    resultIndex++;\n                }\n            }\n\n            return result;\n        }\n    }\n\n    /// @dev Adapted from memcpy() by @arachnid (Nick Johnson <arachnid@notdot.net>)\n    ///  This method is licenced under the Apache License.\n    ///  Ref: https://github.com/Arachnid/solidity-stringutils/blob/2f6ca9accb48ae14c66f1437ec50ed19a0616f78/strings.sol\n    function _memcpy(uint _dest, uint _src, uint _len) private view {\n        // Copy word-length chunks while possible\n        for(; _len >= 32; _len -= 32) {\n            assembly {\n                mstore(_dest, mload(_src))\n            }\n            _dest += 32;\n            _src += 32;\n        }\n\n        // Copy remaining bytes\n        uint256 mask = 256 ** (32 - _len) - 1;\n        assembly {\n            let srcpart := and(mload(_src), not(mask))\n            let destpart := and(mload(_dest), mask)\n            mstore(_dest, or(destpart, srcpart))\n        }\n    }\n\n    /// @dev Adapted from toString(slice) by @arachnid (Nick Johnson <arachnid@notdot.net>)\n    ///  This method is licenced under the Apache License.\n    ///  Ref: https://github.com/Arachnid/solidity-stringutils/blob/2f6ca9accb48ae14c66f1437ec50ed19a0616f78/strings.sol\n    function _toString(bytes32[4] _rawBytes, uint256 _stringLength) private view returns (string) {\n        var outputString = new string(_stringLength);\n        uint256 outputPtr;\n        uint256 bytesPtr;\n\n        assembly {\n            outputPtr := add(outputString, 32)\n            bytesPtr := _rawBytes\n        }\n\n        _memcpy(outputPtr, bytesPtr, _stringLength);\n\n        return outputString;\n    }\n\n    /// @notice Returns a URI pointing to a metadata package for this token conforming to\n    ///  ERC-721 (https://github.com/ethereum/EIPs/issues/721)\n    /// @param _tokenId The ID number of the Kitty whose metadata should be returned.\n    function tokenMetadata(uint256 _tokenId, string _preferredTransport) external view returns (string infoUrl) {\n        require(erc721Metadata != address(0));\n        bytes32[4] memory buffer;\n        uint256 count;\n        (buffer, count) = erc721Metadata.getMetadata(_tokenId, _preferredTransport);\n\n        return _toString(buffer, count);\n    }\n}\n",
  "sourcePath": "/Users/jonathanaraneda/BlockchainProjects/unis_dinos/contracts/BeastOwnership.sol",
  "compiler": {
    "name": "solc",
    "version": "0.4.18+commit.9cf6e910.Emscripten.clang"
  },
  "schemaVersion": "1.0.1",
  "updatedAt": "2018-02-17T02:45:44.180Z"
}