{
  "contractName": "Beasts",
  "abi": [
    {
      "constant": true,
      "inputs": [
        {
          "name": "_interfaceID",
          "type": "bytes4"
        }
      ],
      "name": "supportsInterface",
      "outputs": [
        {
          "name": "",
          "type": "bool"
        }
      ],
      "payable": false,
      "stateMutability": "view",
      "type": "function"
    },
    {
      "constant": true,
      "inputs": [],
      "name": "cfoAddress",
      "outputs": [
        {
          "name": "",
          "type": "address"
        }
      ],
      "payable": false,
      "stateMutability": "view",
      "type": "function"
    },
    {
      "constant": true,
      "inputs": [
        {
          "name": "_tokenId",
          "type": "uint256"
        },
        {
          "name": "_preferredTransport",
          "type": "string"
        }
      ],
      "name": "tokenMetadata",
      "outputs": [
        {
          "name": "infoUrl",
          "type": "string"
        }
      ],
      "payable": false,
      "stateMutability": "view",
      "type": "function"
    },
    {
      "constant": true,
      "inputs": [],
      "name": "name",
      "outputs": [
        {
          "name": "",
          "type": "string"
        }
      ],
      "payable": false,
      "stateMutability": "view",
      "type": "function"
    },
    {
      "constant": false,
      "inputs": [
        {
          "name": "_to",
          "type": "address"
        },
        {
          "name": "_tokenId",
          "type": "uint256"
        }
      ],
      "name": "approve",
      "outputs": [],
      "payable": false,
      "stateMutability": "nonpayable",
      "type": "function"
    },
    {
      "constant": true,
      "inputs": [],
      "name": "ceoAddress",
      "outputs": [
        {
          "name": "",
          "type": "address"
        }
      ],
      "payable": false,
      "stateMutability": "view",
      "type": "function"
    },
    {
      "constant": false,
      "inputs": [
        {
          "name": "_address",
          "type": "address"
        }
      ],
      "name": "setSiringAuctionAddress",
      "outputs": [],
      "payable": false,
      "stateMutability": "nonpayable",
      "type": "function"
    },
    {
      "constant": false,
      "inputs": [
        {
          "name": "_owner",
          "type": "address"
        }
      ],
      "name": "createBeastFromLegendaryRandomBox",
      "outputs": [],
      "payable": false,
      "stateMutability": "nonpayable",
      "type": "function"
    },
    {
      "constant": true,
      "inputs": [],
      "name": "totalSupply",
      "outputs": [
        {
          "name": "",
          "type": "uint256"
        }
      ],
      "payable": false,
      "stateMutability": "view",
      "type": "function"
    },
    {
      "constant": true,
      "inputs": [
        {
          "name": "_beastId",
          "type": "uint256"
        }
      ],
      "name": "isPregnant",
      "outputs": [
        {
          "name": "",
          "type": "bool"
        }
      ],
      "payable": false,
      "stateMutability": "view",
      "type": "function"
    },
    {
      "constant": false,
      "inputs": [
        {
          "name": "_owner",
          "type": "address"
        }
      ],
      "name": "createBeastFromRandomBox",
      "outputs": [],
      "payable": false,
      "stateMutability": "nonpayable",
      "type": "function"
    },
    {
      "constant": false,
      "inputs": [
        {
          "name": "_address",
          "type": "address"
        }
      ],
      "name": "setGeneMagicAddress",
      "outputs": [],
      "payable": false,
      "stateMutability": "nonpayable",
      "type": "function"
    },
    {
      "constant": true,
      "inputs": [],
      "name": "siringAuction",
      "outputs": [
        {
          "name": "",
          "type": "address"
        }
      ],
      "payable": false,
      "stateMutability": "view",
      "type": "function"
    },
    {
      "constant": false,
      "inputs": [
        {
          "name": "_from",
          "type": "address"
        },
        {
          "name": "_to",
          "type": "address"
        },
        {
          "name": "_tokenId",
          "type": "uint256"
        }
      ],
      "name": "transferFrom",
      "outputs": [],
      "payable": false,
      "stateMutability": "nonpayable",
      "type": "function"
    },
    {
      "constant": false,
      "inputs": [
        {
          "name": "_newCEO",
          "type": "address"
        }
      ],
      "name": "setCEO",
      "outputs": [],
      "payable": false,
      "stateMutability": "nonpayable",
      "type": "function"
    },
    {
      "constant": false,
      "inputs": [
        {
          "name": "_newCOO",
          "type": "address"
        }
      ],
      "name": "setCOO",
      "outputs": [],
      "payable": false,
      "stateMutability": "nonpayable",
      "type": "function"
    },
    {
      "constant": false,
      "inputs": [
        {
          "name": "_beastId",
          "type": "uint256"
        },
        {
          "name": "_startingPrice",
          "type": "uint256"
        },
        {
          "name": "_endingPrice",
          "type": "uint256"
        },
        {
          "name": "_duration",
          "type": "uint256"
        }
      ],
      "name": "createSaleAuction",
      "outputs": [],
      "payable": false,
      "stateMutability": "nonpayable",
      "type": "function"
    },
    {
      "constant": false,
      "inputs": [],
      "name": "unpause",
      "outputs": [],
      "payable": false,
      "stateMutability": "nonpayable",
      "type": "function"
    },
    {
      "constant": true,
      "inputs": [
        {
          "name": "",
          "type": "uint256"
        }
      ],
      "name": "sireAllowedToAddress",
      "outputs": [
        {
          "name": "",
          "type": "address"
        }
      ],
      "payable": false,
      "stateMutability": "view",
      "type": "function"
    },
    {
      "constant": true,
      "inputs": [
        {
          "name": "_matronId",
          "type": "uint256"
        },
        {
          "name": "_sireId",
          "type": "uint256"
        }
      ],
      "name": "canBreedWith",
      "outputs": [
        {
          "name": "",
          "type": "bool"
        }
      ],
      "payable": false,
      "stateMutability": "view",
      "type": "function"
    },
    {
      "constant": false,
      "inputs": [
        {
          "name": "_beastId",
          "type": "uint256"
        },
        {
          "name": "_startingPrice",
          "type": "uint256"
        },
        {
          "name": "_endingPrice",
          "type": "uint256"
        },
        {
          "name": "_duration",
          "type": "uint256"
        }
      ],
      "name": "createSiringAuction",
      "outputs": [],
      "payable": false,
      "stateMutability": "nonpayable",
      "type": "function"
    },
    {
      "constant": false,
      "inputs": [
        {
          "name": "val",
          "type": "uint256"
        }
      ],
      "name": "setAutoBirthFee",
      "outputs": [],
      "payable": false,
      "stateMutability": "nonpayable",
      "type": "function"
    },
    {
      "constant": false,
      "inputs": [
        {
          "name": "_addr",
          "type": "address"
        },
        {
          "name": "_sireId",
          "type": "uint256"
        }
      ],
      "name": "approveSiring",
      "outputs": [],
      "payable": false,
      "stateMutability": "nonpayable",
      "type": "function"
    },
    {
      "constant": false,
      "inputs": [
        {
          "name": "_newCFO",
          "type": "address"
        }
      ],
      "name": "setCFO",
      "outputs": [],
      "payable": false,
      "stateMutability": "nonpayable",
      "type": "function"
    },
    {
      "constant": true,
      "inputs": [
        {
          "name": "",
          "type": "uint256"
        }
      ],
      "name": "beastIndexToOwner",
      "outputs": [
        {
          "name": "",
          "type": "address"
        }
      ],
      "payable": false,
      "stateMutability": "view",
      "type": "function"
    },
    {
      "constant": true,
      "inputs": [],
      "name": "paused",
      "outputs": [
        {
          "name": "",
          "type": "bool"
        }
      ],
      "payable": false,
      "stateMutability": "view",
      "type": "function"
    },
    {
      "constant": true,
      "inputs": [
        {
          "name": "_tokenId",
          "type": "uint256"
        }
      ],
      "name": "ownerOf",
      "outputs": [
        {
          "name": "owner",
          "type": "address"
        }
      ],
      "payable": false,
      "stateMutability": "view",
      "type": "function"
    },
    {
      "constant": false,
      "inputs": [
        {
          "name": "_address",
          "type": "address"
        }
      ],
      "name": "setSaleAuctionAddress",
      "outputs": [],
      "payable": false,
      "stateMutability": "nonpayable",
      "type": "function"
    },
    {
      "constant": false,
      "inputs": [
        {
          "name": "_eggId",
          "type": "uint256"
        },
        {
          "name": "_amount",
          "type": "uint256"
        }
      ],
      "name": "hatchEgg",
      "outputs": [],
      "payable": false,
      "stateMutability": "nonpayable",
      "type": "function"
    },
    {
      "constant": true,
      "inputs": [
        {
          "name": "_owner",
          "type": "address"
        }
      ],
      "name": "balanceOf",
      "outputs": [
        {
          "name": "count",
          "type": "uint256"
        }
      ],
      "payable": false,
      "stateMutability": "view",
      "type": "function"
    },
    {
      "constant": true,
      "inputs": [],
      "name": "secondsPerBlock",
      "outputs": [
        {
          "name": "",
          "type": "uint256"
        }
      ],
      "payable": false,
      "stateMutability": "view",
      "type": "function"
    },
    {
      "constant": true,
      "inputs": [],
      "name": "geneMagic",
      "outputs": [
        {
          "name": "",
          "type": "address"
        }
      ],
      "payable": false,
      "stateMutability": "view",
      "type": "function"
    },
    {
      "constant": false,
      "inputs": [],
      "name": "pause",
      "outputs": [],
      "payable": false,
      "stateMutability": "nonpayable",
      "type": "function"
    },
    {
      "constant": true,
      "inputs": [
        {
          "name": "_owner",
          "type": "address"
        }
      ],
      "name": "tokensOfOwner",
      "outputs": [
        {
          "name": "ownerTokens",
          "type": "uint256[]"
        }
      ],
      "payable": false,
      "stateMutability": "view",
      "type": "function"
    },
    {
      "constant": false,
      "inputs": [
        {
          "name": "_matronId",
          "type": "uint256"
        }
      ],
      "name": "giveBirth",
      "outputs": [
        {
          "name": "",
          "type": "uint256"
        }
      ],
      "payable": false,
      "stateMutability": "nonpayable",
      "type": "function"
    },
    {
      "constant": false,
      "inputs": [],
      "name": "withdrawAuctionBalances",
      "outputs": [],
      "payable": false,
      "stateMutability": "nonpayable",
      "type": "function"
    },
    {
      "constant": true,
      "inputs": [],
      "name": "symbol",
      "outputs": [
        {
          "name": "",
          "type": "string"
        }
      ],
      "payable": false,
      "stateMutability": "view",
      "type": "function"
    },
    {
      "constant": true,
      "inputs": [],
      "name": "promoBeastCreatedCount",
      "outputs": [
        {
          "name": "",
          "type": "uint256"
        }
      ],
      "payable": false,
      "stateMutability": "view",
      "type": "function"
    },
    {
      "constant": true,
      "inputs": [],
      "name": "legendaryRandomBoxOpenedCount",
      "outputs": [
        {
          "name": "",
          "type": "uint256"
        }
      ],
      "payable": false,
      "stateMutability": "view",
      "type": "function"
    },
    {
      "constant": true,
      "inputs": [
        {
          "name": "",
          "type": "uint256"
        }
      ],
      "name": "cooldowns",
      "outputs": [
        {
          "name": "",
          "type": "uint32"
        }
      ],
      "payable": false,
      "stateMutability": "view",
      "type": "function"
    },
    {
      "constant": false,
      "inputs": [
        {
          "name": "_to",
          "type": "address"
        },
        {
          "name": "_tokenId",
          "type": "uint256"
        }
      ],
      "name": "transfer",
      "outputs": [],
      "payable": false,
      "stateMutability": "nonpayable",
      "type": "function"
    },
    {
      "constant": true,
      "inputs": [],
      "name": "cooAddress",
      "outputs": [
        {
          "name": "",
          "type": "address"
        }
      ],
      "payable": false,
      "stateMutability": "view",
      "type": "function"
    },
    {
      "constant": true,
      "inputs": [],
      "name": "autoBirthFee",
      "outputs": [
        {
          "name": "",
          "type": "uint256"
        }
      ],
      "payable": false,
      "stateMutability": "view",
      "type": "function"
    },
    {
      "constant": true,
      "inputs": [],
      "name": "pregnantBeasts",
      "outputs": [
        {
          "name": "",
          "type": "uint256"
        }
      ],
      "payable": false,
      "stateMutability": "view",
      "type": "function"
    },
    {
      "constant": true,
      "inputs": [],
      "name": "erc721Metadata",
      "outputs": [
        {
          "name": "",
          "type": "address"
        }
      ],
      "payable": false,
      "stateMutability": "view",
      "type": "function"
    },
    {
      "constant": true,
      "inputs": [
        {
          "name": "",
          "type": "uint256"
        }
      ],
      "name": "beastIndexToApproved",
      "outputs": [
        {
          "name": "",
          "type": "address"
        }
      ],
      "payable": false,
      "stateMutability": "view",
      "type": "function"
    },
    {
      "constant": true,
      "inputs": [
        {
          "name": "_beastId",
          "type": "uint256"
        }
      ],
      "name": "isReadyToBreed",
      "outputs": [
        {
          "name": "",
          "type": "bool"
        }
      ],
      "payable": false,
      "stateMutability": "view",
      "type": "function"
    },
    {
      "constant": true,
      "inputs": [],
      "name": "randomBoxOpenedCount",
      "outputs": [
        {
          "name": "",
          "type": "uint256"
        }
      ],
      "payable": false,
      "stateMutability": "view",
      "type": "function"
    },
    {
      "constant": true,
      "inputs": [],
      "name": "PROMO_CREATION_LIMIT",
      "outputs": [
        {
          "name": "",
          "type": "uint256"
        }
      ],
      "payable": false,
      "stateMutability": "view",
      "type": "function"
    },
    {
      "constant": false,
      "inputs": [
        {
          "name": "_contractAddress",
          "type": "address"
        }
      ],
      "name": "setMetadataAddress",
      "outputs": [],
      "payable": false,
      "stateMutability": "nonpayable",
      "type": "function"
    },
    {
      "constant": true,
      "inputs": [],
      "name": "saleAuction",
      "outputs": [
        {
          "name": "",
          "type": "address"
        }
      ],
      "payable": false,
      "stateMutability": "view",
      "type": "function"
    },
    {
      "constant": false,
      "inputs": [
        {
          "name": "_address",
          "type": "address"
        }
      ],
      "name": "setEggFactoryAddress",
      "outputs": [],
      "payable": false,
      "stateMutability": "nonpayable",
      "type": "function"
    },
    {
      "constant": false,
      "inputs": [
        {
          "name": "_sireId",
          "type": "uint256"
        },
        {
          "name": "_matronId",
          "type": "uint256"
        }
      ],
      "name": "bidOnSiringAuction",
      "outputs": [],
      "payable": true,
      "stateMutability": "payable",
      "type": "function"
    },
    {
      "constant": true,
      "inputs": [],
      "name": "eggFactory",
      "outputs": [
        {
          "name": "",
          "type": "address"
        }
      ],
      "payable": false,
      "stateMutability": "view",
      "type": "function"
    },
    {
      "constant": false,
      "inputs": [
        {
          "name": "_matronId",
          "type": "uint256"
        },
        {
          "name": "_sireId",
          "type": "uint256"
        }
      ],
      "name": "breedWithAuto",
      "outputs": [],
      "payable": true,
      "stateMutability": "payable",
      "type": "function"
    },
    {
      "constant": false,
      "inputs": [
        {
          "name": "_genes",
          "type": "uint256"
        },
        {
          "name": "_owner",
          "type": "address"
        }
      ],
      "name": "createPromoBeast",
      "outputs": [],
      "payable": false,
      "stateMutability": "nonpayable",
      "type": "function"
    },
    {
      "inputs": [],
      "payable": false,
      "stateMutability": "nonpayable",
      "type": "constructor"
    },
    {
      "payable": true,
      "stateMutability": "payable",
      "type": "fallback"
    },
    {
      "anonymous": false,
      "inputs": [
        {
          "indexed": false,
          "name": "legendId",
          "type": "uint256"
        }
      ],
      "name": "EggOpened",
      "type": "event"
    },
    {
      "anonymous": false,
      "inputs": [
        {
          "indexed": false,
          "name": "legendId",
          "type": "uint256"
        }
      ],
      "name": "PromoBeastCreated",
      "type": "event"
    },
    {
      "anonymous": false,
      "inputs": [
        {
          "indexed": false,
          "name": "legendId",
          "type": "uint256"
        }
      ],
      "name": "RandomBoxOpened",
      "type": "event"
    },
    {
      "anonymous": false,
      "inputs": [
        {
          "indexed": false,
          "name": "legendId",
          "type": "uint256"
        }
      ],
      "name": "LegendaryRandomBoxOpened",
      "type": "event"
    },
    {
      "anonymous": false,
      "inputs": [
        {
          "indexed": false,
          "name": "owner",
          "type": "address"
        },
        {
          "indexed": false,
          "name": "matronId",
          "type": "uint256"
        },
        {
          "indexed": false,
          "name": "sireId",
          "type": "uint256"
        },
        {
          "indexed": false,
          "name": "cooldownEndBlock",
          "type": "uint256"
        }
      ],
      "name": "Pregnant",
      "type": "event"
    },
    {
      "anonymous": false,
      "inputs": [
        {
          "indexed": false,
          "name": "from",
          "type": "address"
        },
        {
          "indexed": false,
          "name": "to",
          "type": "address"
        },
        {
          "indexed": false,
          "name": "tokenId",
          "type": "uint256"
        }
      ],
      "name": "Transfer",
      "type": "event"
    },
    {
      "anonymous": false,
      "inputs": [
        {
          "indexed": false,
          "name": "owner",
          "type": "address"
        },
        {
          "indexed": false,
          "name": "approved",
          "type": "address"
        },
        {
          "indexed": false,
          "name": "tokenId",
          "type": "uint256"
        }
      ],
      "name": "Approval",
      "type": "event"
    },
    {
      "anonymous": false,
      "inputs": [
        {
          "indexed": false,
          "name": "owner",
          "type": "address"
        },
        {
          "indexed": false,
          "name": "beastId",
          "type": "uint256"
        },
        {
          "indexed": false,
          "name": "matronId",
          "type": "uint256"
        },
        {
          "indexed": false,
          "name": "sireId",
          "type": "uint256"
        },
        {
          "indexed": false,
          "name": "genes",
          "type": "uint256"
        }
      ],
      "name": "Birth",
      "type": "event"
    },
    {
      "anonymous": false,
      "inputs": [
        {
          "indexed": false,
          "name": "newContract",
          "type": "address"
        }
      ],
      "name": "ContractUpgrade",
      "type": "event"
    },
    {
      "constant": true,
      "inputs": [
        {
          "name": "_legendId",
          "type": "uint256"
        }
      ],
      "name": "getLegend",
      "outputs": [
        {
          "name": "race",
          "type": "uint256"
        },
        {
          "name": "isGestating",
          "type": "bool"
        },
        {
          "name": "isReady",
          "type": "bool"
        },
        {
          "name": "cooldownEndBlock",
          "type": "uint256"
        },
        {
          "name": "isReadyToFight",
          "type": "bool"
        },
        {
          "name": "experience",
          "type": "uint256"
        },
        {
          "name": "birthTime",
          "type": "uint256"
        },
        {
          "name": "sireId",
          "type": "uint256"
        },
        {
          "name": "matronId",
          "type": "uint256"
        },
        {
          "name": "siringWithId",
          "type": "uint256"
        },
        {
          "name": "cooldownIndex",
          "type": "uint256"
        },
        {
          "name": "generation",
          "type": "uint256"
        },
        {
          "name": "genes",
          "type": "uint256"
        }
      ],
      "payable": false,
      "stateMutability": "view",
      "type": "function"
    },
    {
      "constant": true,
      "inputs": [
        {
          "name": "_legendId",
          "type": "uint256"
        }
      ],
      "name": "getLegendAttrs",
      "outputs": [
        {
          "name": "strength",
          "type": "uint256"
        },
        {
          "name": "dexterity",
          "type": "uint256"
        },
        {
          "name": "endurance",
          "type": "uint256"
        },
        {
          "name": "knowledge",
          "type": "uint256"
        },
        {
          "name": "wisdom",
          "type": "uint256"
        },
        {
          "name": "charisma",
          "type": "uint256"
        }
      ],
      "payable": false,
      "stateMutability": "view",
      "type": "function"
    },
    {
      "constant": false,
      "inputs": [],
      "name": "withdrawBalance",
      "outputs": [],
      "payable": false,
      "stateMutability": "nonpayable",
      "type": "function"
    }
  ],
  "bytecode": "0x6003805460a060020a60ff0219169055610240604052603c6080908152607860a05261012c60c05261025860e05261070861010052610e1061012052611c2061014052613840610160526170806101805261e1006101a052620151806101c0526202a3006101e052620546006102005262093a80610220526200008790600490600e6200070b565b50600f60065566071afd498d0000600f55348015620000a557600080fd5b50600380546001805433600160a060020a0319918216811792839055600160a860020a031990931683179093556002805490931690911790915562000107906000908190819060001990600160a060020a03166401000000006200010e810204565b506200089d565b60006200011a620007ae565b600063ffffffff881688146200012f57600080fd5b63ffffffff871687146200014257600080fd5b61ffff861686146200015357600080fd5b604080516102208101825260008082526020820188905291810182905260608101829052426001604060020a0316608082015260a0810182905263ffffffff808a1660c08301528a1660e08201526101008101829052610120810182905261ffff8816610140820152610160810182905260016101808201526101a081018290526101c08101829052906101e082019081526040805160c08082018352600180835260208084018290528385018290526060808501839052608080860184905260a0808701859052978301959095526007805480850180835560008390528a517fa66cc928b5edb82af9bd49922954155ab7b0942694bea4ce44661d9a8736c68892909302918201928355938a01517fa66cc928b5edb82af9bd49922954155ab7b0942694bea4ce44661d9a8736c689820155968901517fa66cc928b5edb82af9bd49922954155ab7b0942694bea4ce44661d9a8736c68a88018054938b0151978b0151998b015167ffffffffffffffff199094166001604060020a0392831617604060020a608060020a03191668010000000000000000988316890217608060020a60c060020a0319167001000000000000000000000000000000009a83169a909a0299909917600160c060020a03167801000000000000000000000000000000000000000000000000919093160291909117909655918601517fa66cc928b5edb82af9bd49922954155ab7b0942694bea4ce44661d9a8736c68b8501805460e0890151610100808b01516101208c01516101408d015163ffffffff1990951663ffffffff9788161767ffffffff0000000019166401000000009488169490940293909317604060020a63ffffffff021916951690970293909317606060020a61ffff0219166c0100000000000000000000000061ffff9485160217607060020a61ffff0219166e01000000000000000000000000000093909116929092029190911790556101608601517fa66cc928b5edb82af9bd49922954155ab7b0942694bea4ce44661d9a8736c68c8501556101808601517fa66cc928b5edb82af9bd49922954155ab7b0942694bea4ce44661d9a8736c68d90940180546101a08801516101c089015160ff1990921660ff9788161761ff0019169087169095029490941762ff00001916620100009590941694909402929092178084556101e0860151959750919490938793909263ff00000019166301000000836003811115620004d957fe5b02179055506102009190910151805160069092018054602083015160408401516060850151608086015160a09096015160ff1990941660ff9788161761ff001916610100938816939093029290921762ff0000191662010000918716919091021763ff00000019166301000000918616919091021764ff000000001916640100000000938516939093029290921765ff0000000000191665010000000000939092169290920217905503905063ffffffff811681146200059857600080fd5b60e082015160c083015160208085015160408051600160a060020a038a16815292830186905263ffffffff948516838201529290931660608201526080810192909252517f0a5311bd2a6608f08a180df2ee7c5946819a649b204b554bb8e39825b2c50ad59181900360a00190a16200061d6000858364010000000062000628810204565b979650505050505050565b600160a060020a03808316600081815260096020908152604080832080546001019055858352600890915290208054600160a060020a0319169091179055831615620006bc57600160a060020a03831660009081526009602090815260408083208054600019019055838352600b82528083208054600160a060020a0319908116909155600a909252909120805490911690555b60408051600160a060020a0380861682528416602082015280820183905290517fddf252ad1be2c89b69c2b068fc378daa952ba7f163c4a11628f55a4df523b3ef9181900360600190a1505050565b6002830191839082156200079c5791602002820160005b838211156200076857835183826101000a81548163ffffffff021916908363ffffffff160217905550926020019260040160208160030104928301926001030262000722565b80156200079a5782816101000a81549063ffffffff021916905560040160208160030104928301926001030262000768565b505b50620007aa92915062000841565b5090565b604080516102c081018252600080825260208201819052918101829052606081018290526080810182905260a0810182905260c0810182905260e08101829052610100810182905261012081018290526101408101829052610160810182905261018081018290526101a081018290526101c08101829052906101e082019081526020016200083c62000868565b905290565b6200086591905b80821115620007aa57805463ffffffff1916815560010162000848565b90565b6040805160c081018252600080825260208201819052918101829052606081018290526080810182905260a081019190915290565b61377280620008ad6000396000f3006080604052600436106102a55763ffffffff60e060020a60003504166301ffc9a781146102d55780630519ce79146103205780630560ff441461035157806306fdde03146103ea578063095ea7b3146103ff5780630a0f81681461042357806314001f4c14610438578063147013bf1461045957806318160ddd1461047a5780631940a936146104a15780631dccf00c146104b95780631dfcec0b146104da57806321717ebf146104fb57806323b872dd1461051057806327d7874c1461053a5780632ba73c151461055b5780633d7d3f5a1461057c5780633f4ba83a1461059d57806346116e6f146105b257806346d22c70146105ca5780634ad8c938146105e55780634b85fd55146106065780634dfff04f1461061e5780634e0a3379146106425780635318673f146106635780635c975abb1461067b5780635fd8c710146106905780636352211e146106a55780636fbde40d146106bd5780636fc2790e146106de57806370a08231146106f95780637a7d49371461071a5780637d79e4401461072f57806382eefc9a146107ac5780638456cb59146107c15780638462151c146107d657806388c2a0bf1461084757806391876e571461085f57806395d89b41146108745780639941df54146108895780639a39fb121461089e5780639d6fac6f146108b3578063a9059cbb146108e4578063b047fb5014610908578063b0c35c051461091d578063bbdacd0f14610932578063bc4006f514610947578063d11dffee1461095c578063d1be094614610974578063d3e6f49f146109bf578063ddd5c029146109d7578063defb9584146109ec578063e17b25af14610a01578063e6cbe35114610a22578063eab2b9a414610a37578063ed60ade614610a58578063ef9b621c14610a66578063f7d8c88314610a7b578063f817bdaf14610a89575b600c54600160a060020a03163314806102c85750600d54600160a060020a031633145b15156102d357600080fd5b005b3480156102e157600080fd5b5061030c7bffffffffffffffffffffffffffffffffffffffffffffffffffffffff1960043516610aad565b604080519115158252519081900360200190f35b34801561032c57600080fd5b50610335610d40565b60408051600160a060020a039092168252519081900360200190f35b34801561035d57600080fd5b50610375600480359060248035908101910135610d4f565b6040805160208082528351818301528351919283929083019185019080838360005b838110156103af578181015183820152602001610397565b50505050905090810190601f1680156103dc5780820380516001836020036101000a031916815260200191505b509250505060405180910390f35b3480156103f657600080fd5b50610375610e52565b34801561040b57600080fd5b506102d3600160a060020a0360043516602435610e89565b34801561042f57600080fd5b50610335610f0b565b34801561044457600080fd5b506102d3600160a060020a0360043516610f1a565b34801561046557600080fd5b506102d3600160a060020a0360043516610fcf565b34801561048657600080fd5b5061048f611066565b60408051918252519081900360200190f35b3480156104ad57600080fd5b5061030c600435611070565b3480156104c557600080fd5b506102d3600160a060020a03600435166110ba565b3480156104e657600080fd5b506102d3600160a060020a0360043516611151565b34801561050757600080fd5b50610335611206565b34801561051c57600080fd5b506102d3600160a060020a0360043581169060243516604435611215565b34801561054657600080fd5b506102d3600160a060020a0360043516611291565b34801561056757600080fd5b506102d3600160a060020a03600435166112df565b34801561058857600080fd5b506102d360043560243560443560643561132d565b3480156105a957600080fd5b506102d3611422565b3480156105be57600080fd5b50610335600435611471565b3480156105d657600080fd5b5061030c60043560243561148c565b3480156105f157600080fd5b506102d360043560243560443560643561150c565b34801561061257600080fd5b506102d36004356115e4565b34801561062a57600080fd5b506102d3600160a060020a0360043516602435611600565b34801561064e57600080fd5b506102d3600160a060020a036004351661165a565b34801561066f57600080fd5b506103356004356116a8565b34801561068757600080fd5b5061030c6116c3565b34801561069c57600080fd5b506102d36116d3565b3480156106b157600080fd5b5061033560043561172d565b3480156106c957600080fd5b506102d3600160a060020a0360043516611751565b3480156106ea57600080fd5b506102d3600435602435611806565b34801561070557600080fd5b5061048f600160a060020a03600435166118ed565b34801561072657600080fd5b5061048f611908565b34801561073b57600080fd5b5061074760043561190e565b604080519d8e529b151560208e01529915158c8c015260608c019890985295151560808b015260a08a019490945260c089019290925260e088015261010087015261012086015261014085015261016084015261018083015251908190036101a00190f35b3480156107b857600080fd5b50610335611acb565b3480156107cd57600080fd5b506102d3611ada565b3480156107e257600080fd5b506107f7600160a060020a0360043516611b5a565b60408051602080825283518183015283519192839290830191858101910280838360005b8381101561083357818101518382015260200161081b565b505050509050019250505060405180910390f35b34801561085357600080fd5b5061048f600435611c2c565b34801561086b57600080fd5b506102d3611f5d565b34801561088057600080fd5b50610375612078565b34801561089557600080fd5b5061048f6120af565b3480156108aa57600080fd5b5061048f6120b5565b3480156108bf57600080fd5b506108cb6004356120bb565b6040805163ffffffff9092168252519081900360200190f35b3480156108f057600080fd5b506102d3600160a060020a03600435166024356120e8565b34801561091457600080fd5b50610335612180565b34801561092957600080fd5b5061048f61218f565b34801561093e57600080fd5b5061048f612195565b34801561095357600080fd5b5061033561219b565b34801561096857600080fd5b506103356004356121aa565b34801561098057600080fd5b5061098c6004356121c5565b604080519687526020870195909552858501939093526060850191909152608084015260a0830152519081900360c00190f35b3480156109cb57600080fd5b5061030c600435612236565b3480156109e357600080fd5b5061048f6123fe565b3480156109f857600080fd5b5061048f612404565b348015610a0d57600080fd5b506102d3600160a060020a0360043516612409565b348015610a2e57600080fd5b50610335612442565b348015610a4357600080fd5b506102d3600160a060020a0360043516612451565b6102d3600435602435612506565b348015610a7257600080fd5b506103356126a0565b6102d36004356024356126af565b348015610a9557600080fd5b506102d3600435600160a060020a03602435166129af565b604080517f737570706f727473496e74657266616365286279746573342900000000000000815290519081900360190190206000907bffffffffffffffffffffffffffffffffffffffffffffffffffffffff1983811691161480610d385750604080517f746f6b656e4d657461646174612875696e743235362c737472696e67290000008152815190819003601d0181207f746f6b656e734f664f776e657228616464726573732900000000000000000000825282519182900360160182207f7472616e7366657246726f6d28616464726573732c616464726573732c75696e83527f7432353629000000000000000000000000000000000000000000000000000000602084015283519283900360250183207f7472616e7366657228616464726573732c75696e743235362900000000000000845284519384900360190184207f617070726f766528616464726573732c75696e74323536290000000000000000855285519485900360180185207f6f776e65724f662875696e743235362900000000000000000000000000000000865286519586900360100186207f62616c616e63654f662861646472657373290000000000000000000000000000875287519687900360120187207f746f74616c537570706c792829000000000000000000000000000000000000008852885197889003600d0188207f73796d626f6c2829000000000000000000000000000000000000000000000000895289519889900360080189207f6e616d65282900000000000000000000000000000000000000000000000000008a529951988990036006019098207bffffffffffffffffffffffffffffffffffffffffffffffffffffffff198c811691909a189098181818181818181891909116145b90505b919050565b600254600160a060020a031681565b6060610d59613641565b600e54600090600160a060020a03161515610d7357600080fd5b600e54604080517fcb4799f2000000000000000000000000000000000000000000000000000000008152600481018981526024820192835260448201889052600160a060020a039093169263cb4799f2928a928a928a929091606401848480828437820191505094505050505060a060405180830381600087803b158015610dfa57600080fd5b505af1158015610e0e573d6000803e3d6000fd5b505050506040513d601f19601f8201168201806040525060a0811015610e3357600080fd5b5060808101519092509050610e488282612a41565b9695505050505050565b60408051808201909152601181527f52756d626c654c6567656e644265617374000000000000000000000000000000602082015281565b60035460a060020a900460ff1615610ea057600080fd5b610eaa3382612a95565b1515610eb557600080fd5b610ebf8183612ab5565b60408051338152600160a060020a038416602082015280820183905290517f8c5be1e5ebec7d5bd14f71427d1e84f3dd0314c0f7b2291e5b200ac8c7c3b9259181900360600190a15050565b600154600160a060020a031681565b600154600090600160a060020a03163314610f3457600080fd5b81905080600160a060020a03166376190f8f6040518163ffffffff1660e060020a028152600401602060405180830381600087803b158015610f7557600080fd5b505af1158015610f89573d6000803e3d6000fd5b505050506040513d6020811015610f9f57600080fd5b50511515610fac57600080fd5b600d8054600160a060020a031916600160a060020a039290921691909117905550565b6003546000908190600160a060020a03163314610feb57600080fd5b600160a060020a038316151561100057600080fd5b60148054600101905561101966038d7ea4c68000612ae3565b915061102a60008060008587612b79565b6040805182815290519192507f7d5917e650ed8f410e646ee48c18ae7623011556d29329e189c2d3dd0a3ce1ee919081900360200190a1505050565b6007546000190190565b600080821161107e57600080fd5b600780548390811061108c57fe5b600091825260209091206007909102016003015468010000000000000000900463ffffffff16151592915050565b6003546000908190600160a060020a031633146110d657600080fd5b600160a060020a03831615156110eb57600080fd5b60138054600101905561110466038d7ea4c68000612ae3565b915061111560008060008587612b79565b6040805182815290519192507f6c213846665cccdf36f59f714230343571b963d939adb61e51bad0d124cbb7ed919081900360200190a1505050565b600154600090600160a060020a0316331461116b57600080fd5b81905080600160a060020a03166364b13bc96040518163ffffffff1660e060020a028152600401602060405180830381600087803b1580156111ac57600080fd5b505af11580156111c0573d6000803e3d6000fd5b505050506040513d60208110156111d657600080fd5b505115156111e357600080fd5b60118054600160a060020a031916600160a060020a039290921691909117905550565b600d54600160a060020a031681565b60035460a060020a900460ff161561122c57600080fd5b600160a060020a038216151561124157600080fd5b600160a060020a03821630141561125757600080fd5b611261338261308b565b151561126c57600080fd5b6112768382612a95565b151561128157600080fd5b61128c8383836130ab565b505050565b600154600160a060020a031633146112a857600080fd5b600160a060020a03811615156112bd57600080fd5b60018054600160a060020a031916600160a060020a0392909216919091179055565b600154600160a060020a031633146112f657600080fd5b600160a060020a038116151561130b57600080fd5b60038054600160a060020a031916600160a060020a0392909216919091179055565b60035460a060020a900460ff161561134457600080fd5b61134e3385612a95565b151561135957600080fd5b61136284611070565b1561136c57600080fd5b600c54611383908590600160a060020a0316612ab5565b600c54604080517f27ebe40a000000000000000000000000000000000000000000000000000000008152600481018790526024810186905260448101859052606481018490523360848201529051600160a060020a03909216916327ebe40a9160a48082019260009290919082900301818387803b15801561140457600080fd5b505af1158015611418573d6000803e3d6000fd5b5050505050505050565b600154600160a060020a0316331461143957600080fd5b60035460a060020a900460ff16151561145157600080fd5b6003805474ff000000000000000000000000000000000000000019169055565b600b60205260009081526040902054600160a060020a031681565b6000808080851161149c57600080fd5b600084116114a957600080fd5b60078054869081106114b757fe5b906000526020600020906007020191506007848154811015156114d657fe5b906000526020600020906007020190506114f28286838761318d565b8015611503575061150384866132ec565b95945050505050565b60035460a060020a900460ff161561152357600080fd5b61152d3385612a95565b151561153857600080fd5b61154184612236565b151561154c57600080fd5b600d54611563908590600160a060020a0316612ab5565b600d54604080517f27ebe40a000000000000000000000000000000000000000000000000000000008152600481018790526024810186905260448101859052606481018490523360848201529051600160a060020a03909216916327ebe40a9160a48082019260009290919082900301818387803b15801561140457600080fd5b600354600160a060020a031633146115fb57600080fd5b600f55565b60035460a060020a900460ff161561161757600080fd5b6116213382612a95565b151561162c57600080fd5b6000908152600b602052604090208054600160a060020a031916600160a060020a0392909216919091179055565b600154600160a060020a0316331461167157600080fd5b600160a060020a038116151561168657600080fd5b60028054600160a060020a031916600160a060020a0392909216919091179055565b600860205260009081526040902054600160a060020a031681565b60035460a060020a900460ff1681565b600154600090600160a060020a031633146116ed57600080fd5b50600254604051303191600160a060020a03169082156108fc029083906000818181858888f19350505050158015611729573d6000803e3d6000fd5b5050565b600081815260086020526040902054600160a060020a0316801515610d3b57600080fd5b600154600090600160a060020a0316331461176b57600080fd5b81905080600160a060020a03166385b861886040518163ffffffff1660e060020a028152600401602060405180830381600087803b1580156117ac57600080fd5b505af11580156117c0573d6000803e3d6000fd5b505050506040513d60208110156117d657600080fd5b505115156117e357600080fd5b600c8054600160a060020a031916600160a060020a039290921691909117905550565b601554604080517fa5007da7000000000000000000000000000000000000000000000000000000008152600481018590526024810184905290516000928392600160a060020a039091169163a5007da791604480820192869290919082900301818387803b15801561187757600080fd5b505af115801561188b573d6000803e3d6000fd5b5050505061189f66038d7ea4c68000612ae3565b91506118b060008060008533612b79565b6040805182815290519192507ff8a9b46497a559a0138386210ebe6f79e5a29546b16e269725a0f12afd04094d919081900360200190a150505050565b600160a060020a031660009081526009602052604090205490565b60065481565b60008060008060008060008060008060008060008060078f81548110151561193257fe5b9060005260206000209060070201905080600001549d508060030160089054906101000a900463ffffffff1663ffffffff16600014159c50438160020160189054906101000a900467ffffffffffffffff1667ffffffffffffffff1611159b508060020160189054906101000a900467ffffffffffffffff1667ffffffffffffffff169a50438160020160089054906101000a900467ffffffffffffffff1667ffffffffffffffff16111599508060020160009054906101000a900467ffffffffffffffff1667ffffffffffffffff1698508060020160109054906101000a900467ffffffffffffffff1667ffffffffffffffff1697508060030160009054906101000a900463ffffffff1663ffffffff1696508060030160049054906101000a900463ffffffff1663ffffffff1695508060030160089054906101000a900463ffffffff1663ffffffff16945080600301600c9054906101000a900461ffff1661ffff16935080600301600e9054906101000a900461ffff1661ffff169250806001015491505091939597999b9d90929496989a9c50565b601154600160a060020a031681565b600354600160a060020a0316331480611afd5750600154600160a060020a031633145b80611b125750600254600160a060020a031633145b1515611b1d57600080fd5b60035460a060020a900460ff1615611b3457600080fd5b6003805474ff0000000000000000000000000000000000000000191660a060020a179055565b6060600060606000806000611b6e876118ed565b9450841515611b8d576040805160008152602081019091529550611c22565b84604051908082528060200260200182016040528015611bb7578160200160208202803883390190505b509350611bc2611066565b925060009150600190505b828111611c1e57600081815260086020526040902054600160a060020a0388811691161415611c1657808483815181101515611c0557fe5b602090810290910101526001909101905b600101611bcd565b8395505b5050505050919050565b600080600080600080600080600360149054906101000a900460ff16151515611c5457600080fd5b600780548a908110611c6257fe5b600091825260209091206007909102016002810154909750608060020a900467ffffffffffffffff161515611c9657600080fd5b60408051610220810182528854815260018901546020820152600289015467ffffffffffffffff808216938301939093526801000000000000000080820484166060840152608060020a82048416608084015260c060020a90910490921660a08201526003808a015463ffffffff80821660c08501526401000000008204811660e08501529381049093166101008084019190915261ffff6c0100000000000000000000000085048116610120850152607060020a90940490931661014083015260048a015461016083015260058a015460ff80821661018085015293810484166101a084015262010000810484166101c0840152611e23938b926101e08501926301000000900490911690811115611dab57fe5b6003811115611db657fe5b81526040805160c0810182526006939093015460ff8082168552610100820481166020868101919091526201000083048216938601939093526301000000820481166060860152640100000000820481166080860152650100000000009091041660a08401520152613341565b1515611e2e57600080fd5b6003870154600780546801000000000000000090920463ffffffff1697509087908110611e5757fe5b600091825260209091206003808a015460079093029091019081015490965061ffff607060020a928390048116965091900416841015611ea4576003850154607060020a900461ffff1693505b611eb466038d7ea4c68000612ae3565b60008a8152600860205260409020546003890154919450600160a060020a03169250611efd908a9068010000000000000000900463ffffffff166001870161ffff168686612b79565b6003880180546bffffffff00000000000000001916905560108054600019019055600f54604051919250339181156108fc0291906000818181858888f19350505050158015611f50573d6000803e3d6000fd5b5098975050505050505050565b600354600160a060020a0316331480611f805750600154600160a060020a031633145b80611f955750600254600160a060020a031633145b1515611fa057600080fd5b600c60009054906101000a9004600160a060020a0316600160a060020a0316635fd8c7106040518163ffffffff1660e060020a028152600401600060405180830381600087803b158015611ff357600080fd5b505af1158015612007573d6000803e3d6000fd5b50505050600d60009054906101000a9004600160a060020a0316600160a060020a0316635fd8c7106040518163ffffffff1660e060020a028152600401600060405180830381600087803b15801561205e57600080fd5b505af1158015612072573d6000803e3d6000fd5b50505050565b60408051808201909152600381527f524c420000000000000000000000000000000000000000000000000000000000602082015281565b60125481565b60145481565b600481600e81106120c857fe5b60089182820401919006600402915054906101000a900463ffffffff1681565b60035460a060020a900460ff16156120ff57600080fd5b600160a060020a038216151561211457600080fd5b600160a060020a03821630141561212a57600080fd5b600c54600160a060020a038381169116141561214557600080fd5b600d54600160a060020a038381169116141561216057600080fd5b61216a3382612a95565b151561217557600080fd5b6117293383836130ab565b600354600160a060020a031681565b600f5481565b60105481565b600e54600160a060020a031681565b600a60205260009081526040902054600160a060020a031681565b60008060008060008060006007888154811015156121df57fe5b600091825260209091206006600790920201015460ff8082169a610100830482169a506201000083048216995063010000008304821698506401000000008304821697506501000000000090920416945092505050565b60008080831161224557600080fd5b600780548490811061225357fe5b60009182526020918290206040805161022081018252600790930290910180548352600181015493830193909352600283015467ffffffffffffffff808216928401929092526801000000000000000080820483166060850152608060020a82048316608085015260c060020a90910490911660a083015260038084015463ffffffff80821660c08601526401000000008204811660e08601529281049092166101008085019190915261ffff6c0100000000000000000000000084048116610120860152607060020a9093049092166101408401526004840154610160840152600584015460ff80821661018086015292810483166101a085015262010000810483166101c08501529394506123f79385926101e08501926301000000909204169081111561237f57fe5b600381111561238a57fe5b81526040805160c0810182526006939093015460ff8082168552610100820481166020868101919091526201000083048216938601939093526301000000820481166060860152640100000000820481166080860152650100000000009091041660a08401520152613372565b9392505050565b60135481565b609681565b600154600160a060020a0316331461242057600080fd5b600e8054600160a060020a031916600160a060020a0392909216919091179055565b600c54600160a060020a031681565b600154600090600160a060020a0316331461246b57600080fd5b81905080600160a060020a03166399d1c4136040518163ffffffff1660e060020a028152600401602060405180830381600087803b1580156124ac57600080fd5b505af11580156124c0573d6000803e3d6000fd5b505050506040513d60208110156124d657600080fd5b505115156124e357600080fd5b60158054600160a060020a031916600160a060020a039290921691909117905550565b60035460009060a060020a900460ff161561252057600080fd5b61252a3383612a95565b151561253557600080fd5b61253e82612236565b151561254957600080fd5b61255382846133a2565b151561255e57600080fd5b600d54604080517fc55d0f56000000000000000000000000000000000000000000000000000000008152600481018690529051600160a060020a039092169163c55d0f56916024808201926020929091908290030181600087803b1580156125c557600080fd5b505af11580156125d9573d6000803e3d6000fd5b505050506040513d60208110156125ef57600080fd5b5051600f54909150810134101561260557600080fd5b600d54600f54604080517f454a2ab3000000000000000000000000000000000000000000000000000000008152600481018790529051600160a060020a039093169263454a2ab39234039160248082019260009290919082900301818588803b15801561267157600080fd5b505af1158015612685573d6000803e3d6000fd5b505050505061128c8263ffffffff168463ffffffff166133f1565b601554600160a060020a031681565b600354600090819060a060020a900460ff16156126cb57600080fd5b600f543410156126da57600080fd5b6126e43385612a95565b15156126ef57600080fd5b6126f983856132ec565b151561270457600080fd5b600780548590811061271257fe5b60009182526020918290206040805161022081018252600790930290910180548352600181015493830193909352600283015467ffffffffffffffff808216928401929092526801000000000000000080820483166060850152608060020a82048316608085015260c060020a90910490911660a083015260038084015463ffffffff80821660c08601526401000000008204811660e08601529281049092166101008085019190915261ffff6c0100000000000000000000000084048116610120860152607060020a9093049092166101408401526004840154610160840152600584015460ff80821661018086015292810483166101a085015262010000810483166101c085015293955061283e9386926101e08501926301000000909204169081111561237f57fe5b151561284957600080fd5b600780548490811061285757fe5b60009182526020918290206040805161022081018252600790930290910180548352600181015493830193909352600283015467ffffffffffffffff808216928401929092526801000000000000000080820483166060850152608060020a82048316608085015260c060020a90910490911660a083015260038084015463ffffffff80821660c08601526401000000008204811660e08601529281049092166101008085019190915261ffff6c0100000000000000000000000084048116610120860152607060020a9093049092166101408401526004840154610160840152600584015460ff80821661018086015292810483166101a085015262010000810483166101c08501529394506129839385926101e08501926301000000909204169081111561237f57fe5b151561298e57600080fd5b61299a8285838661318d565b15156129a557600080fd5b61207284846133f1565b600354600090600160a060020a031633146129c957600080fd5b600160a060020a03821615156129de57600080fd5b6012546096116129ed57600080fd5b6129fc60008060008686612b79565b6012805460010190556040805182815290519192507f9c8654d2981423bb733d46aeecbd2cca931fa46094d91de4e1af4a341e23de3a919081900360200190a1505050565b606080600080846040519080825280601f01601f191660200182016040528015612a75578160200160208202803883390190505b5092505060208201905084612a8b82828761351e565b5090949350505050565b600090815260086020526040902054600160a060020a0391821691161490565b6000918252600a60205260409091208054600160a060020a031916600160a060020a03909216919091179055565b6000612aed613660565b681020846100000000008152681020886100000000006020808301919091526810208c610000000000604080840191909152681020906100000000006060840152670688211840000000608084015267068822184000000060a08401528051428152905190819003909101902081906005900660010160088110612b6d57fe5b60200201519392505050565b6000612b83613680565b600063ffffffff88168814612b9757600080fd5b63ffffffff87168714612ba957600080fd5b61ffff86168614612bb957600080fd5b6040805161022081018252600080825260208201889052918101829052606081018290524267ffffffffffffffff16608082015260a0810182905263ffffffff808a1660c08301528a1660e08201526101008101829052610120810182905261ffff8816610140820152610160810182905260016101808201526101a081018290526101c08101829052906101e082019081526040805160c08082018352600180835260208084018290528385018290526060808501839052608080860184905260a0808701859052978301959095526007805480850180835560008390528a517fa66cc928b5edb82af9bd49922954155ab7b0942694bea4ce44661d9a8736c68892909302918201928355938a01517fa66cc928b5edb82af9bd49922954155ab7b0942694bea4ce44661d9a8736c689820155968901517fa66cc928b5edb82af9bd49922954155ab7b0942694bea4ce44661d9a8736c68a88018054938b0151978b0151998b015167ffffffffffffffff1990941667ffffffffffffffff928316176fffffffffffffffff000000000000000019166801000000000000000098831689021777ffffffffffffffff000000000000000000000000000000001916608060020a9a83169a909a029990991777ffffffffffffffffffffffffffffffffffffffffffffffff1660c060020a919093160291909117909655918601517fa66cc928b5edb82af9bd49922954155ab7b0942694bea4ce44661d9a8736c68b8501805460e0890151610100808b01516101208c01516101408d015163ffffffff1990951663ffffffff9788161767ffffffff00000000191664010000000094881694909402939093176bffffffff000000000000000019169516909702939093176dffff00000000000000000000000019166c0100000000000000000000000061ffff94851602176fffff00000000000000000000000000001916607060020a93909116929092029190911790556101608601517fa66cc928b5edb82af9bd49922954155ab7b0942694bea4ce44661d9a8736c68c8501556101808601517fa66cc928b5edb82af9bd49922954155ab7b0942694bea4ce44661d9a8736c68d90940180546101a08801516101c089015160ff1990921660ff9788161761ff0019169087169095029490941762ff00001916620100009590941694909402929092178084556101e0860151959750919490938793909263ff00000019166301000000836003811115612f4857fe5b02179055506102009190910151805160069092018054602083015160408401516060850151608086015160a09096015160ff1990941660ff9788161761ff001916610100938816939093029290921762ff0000191662010000918716919091021763ff00000019166301000000918616919091021764ff000000001916640100000000938516939093029290921765ff0000000000191665010000000000939092169290920217905503905063ffffffff8116811461300657600080fd5b60e082015160c083015160208085015160408051600160a060020a038a16815292830186905263ffffffff948516838201529290931660608201526080810192909252517f0a5311bd2a6608f08a180df2ee7c5946819a649b204b554bb8e39825b2c50ad59181900360a00190a1613080600085836130ab565b979650505050505050565b6000908152600a6020526040902054600160a060020a0391821691161490565b600160a060020a03808316600081815260096020908152604080832080546001019055858352600890915290208054600160a060020a031916909117905583161561313e57600160a060020a03831660009081526009602090815260408083208054600019019055838352600b82528083208054600160a060020a0319908116909155600a909252909120805490911690555b60408051600160a060020a0380861682528416602082015280820183905290517fddf252ad1be2c89b69c2b068fc378daa952ba7f163c4a11628f55a4df523b3ef9181900360600190a1505050565b60008184141561319f575060006132e4565b6003850154640100000000900463ffffffff168214806131c85750600385015463ffffffff1682145b156131d5575060006132e4565b6003830154640100000000900463ffffffff168414806131fe5750600383015463ffffffff1684145b1561320b575060006132e4565b6003830154640100000000900463ffffffff16158061323a57506003850154640100000000900463ffffffff16155b15613247575060016132e4565b600385810154908401546401000000009182900463ffffffff9081169290910416148061328d575060038086015490840154640100000000900463ffffffff9081169116145b1561329a575060006132e4565b6003808601549084015463ffffffff9081166401000000009092041614806132d357506003808601549084015463ffffffff9081169116145b156132e0575060006132e4565b5060015b949350505050565b6000818152600860205260408082205484835290822054600160a060020a0391821691168082148061150357506000858152600b6020526040902054600160a060020a03908116908316149250505092915050565b600081610100015163ffffffff16600014158015610d3857505060a0015167ffffffffffffffff4381169116111590565b600081610100015163ffffffff166000148015610d3857505060a0015167ffffffffffffffff4381169116111590565b60008060006007858154811015156133b657fe5b906000526020600020906007020191506007848154811015156133d557fe5b906000526020600020906007020190506115038286838761318d565b60008060078381548110151561340357fe5b9060005260206000209060070201915060078481548110151561342257fe5b600091825260209091206007909102016003810180546bffffffff000000000000000019166801000000000000000063ffffffff871602179055905061346782613562565b61347081613562565b6000848152600b602090815260408083208054600160a060020a03199081169091558684528184208054909116905560108054600101905586835260088252918290205460028401548351600160a060020a03909216825291810187905280830186905260c060020a90910467ffffffffffffffff16606082015290517f241ea03ca20251805084d27d4440371c34a0b85ff108f6bb5611248f73818b80916080908290030190a150505050565b60005b60208210613543578251845260209384019390920191601f1990910190613521565b50905182516020929092036101000a6000190180199091169116179052565b60065460038201544391906004906c01000000000000000000000000900461ffff16600e811061358e57fe5b600891828204019190066004029054906101000a900463ffffffff1663ffffffff168115156135b957fe5b04018160020160186101000a81548167ffffffffffffffff021916908367ffffffffffffffff160217905550600d81600301600c9054906101000a900461ffff1661ffff16101561363e5760038101805461ffff6c010000000000000000000000008083048216600101909116026dffff000000000000000000000000199091161790555b50565b6080604051908101604052806004906020820280388339509192915050565b610100604051908101604052806008906020820280388339509192915050565b604080516102c081018252600080825260208201819052918101829052606081018290526080810182905260a0810182905260c0810182905260e08101829052610100810182905261012081018290526101408101829052610160810182905261018081018290526101a081018290526101c08101829052906101e0820190815260200161370c613711565b905290565b6040805160c081018252600080825260208201819052918101829052606081018290526080810182905260a0810191909152905600a165627a7a7230582040a9140b21ecdaa426aebc48973bb5e5cc3c63aafa1289409bebe4d1c05293f40029",
  "source": "pragma solidity ^0.4.24;\n\nimport \"./BeastMinting.sol\";\n\ncontract Beasts is BeastMinting {\n  \n    /// @notice Creates the main Legend smart contract instance.\n    constructor() public {\n        // Starts paused.\n        paused = false;\n\n        // the creator of the contract is the initial CEO, COO and CFO\n        ceoAddress = msg.sender;\n        cooAddress = msg.sender;\n        cfoAddress = msg.sender;\n\n        // start with the mythical Beast 0 - so we don't have generation-0 parent issues\n        _createBeast(0, 0, 0, uint256(-1), ceoAddress);\n        // TODO: Create beast 1 (UNI GOD) and 2 (DINO GOD)\n        // _createBeast(0, 0, 0, uint256(-1), ceoAddress);\n        // _createBeast(0, 0, 0, uint256(-1), ceoAddress);\n    }\n\n    /// @notice No tipping!\n    /// @dev Reject all Ether from being sent here, unless it's from one of the\n    ///  two auction contracts. (Hopefully, we can prevent user accidents.)\n    function() external payable {\n        require(\n            msg.sender == address(saleAuction) ||\n            msg.sender == address(siringAuction)\n        );\n    }\n\n    // TODO: Check gas usage\n    function getLegend(uint256 _legendId) external view returns(\n        uint race,\n        bool isGestating,\n        bool isReady,\n        uint256 cooldownEndBlock,\n        bool isReadyToFight,\n        uint256 experience,\n        uint256 birthTime,\n        uint256 sireId,\n        uint256 matronId,\n        uint256 siringWithId,\n        uint256 cooldownIndex,\n        uint256 generation,\n        uint256 genes\n    ) {\n        Beast storage legend = beasts[_legendId];\n\n        race = legend.race;\n        isGestating = (legend.siringWithId != 0);\n        isReady = (legend.cooldownEndBlock <= block.number);\n        cooldownEndBlock = uint256(legend.cooldownEndBlock);\n        isReadyToFight = (legend.challengeCoolDown <= block.number);\n        experience = uint256(legend.experience);\n        birthTime = uint256(legend.birthTime);\n        sireId = uint256(legend.sireId);\n        matronId = uint256(legend.matronId);\n        siringWithId = uint256(legend.siringWithId);\n        cooldownIndex = uint256(legend.cooldownIndex);\n        generation = uint256(legend.generation);\n        genes = legend.genes;\n    }\n\n    // TODO: Check gas usage\n    function getLegendAttrs(uint256 _legendId) external view returns(\n        uint256 strength,\n        uint256 dexterity,\n        uint256 endurance,\n        uint256 knowledge,\n        uint256 wisdom,\n        uint256 charisma\n    ) {\n        Beast storage legend = beasts[_legendId];\n\n        strength = uint256(legend.attrs.strength);\n        dexterity = uint256(legend.attrs.dexterity);\n        endurance = uint256(legend.attrs.endurance);\n        knowledge = uint256(legend.attrs.knowledge);\n        wisdom = uint256(legend.attrs.wisdom);\n        charisma = uint256(legend.attrs.charisma);\n    }\n\n    // @dev Allows the CFO to capture the balance available to the contract.\n    // TODO: Check if this is a problem for the investors\n    function withdrawBalance() external onlyCEO {\n        uint256 balance = this.balance;\n        cfoAddress.transfer(balance);\n    }\n\n}\n",
  "sourcePath": "/Users/jonathanaraneda/BlockchainProjects/unicornsvsdinosaurs-smartcontracts/contracts/Beasts.sol",
  "compiler": {
    "name": "solc",
    "version": "0.4.24+commit.e67f0147.Emscripten.clang"
  },
  "schemaVersion": "2.0.1",
  "updatedAt": "2018-08-03T00:22:13.583Z"
}