{
  "contractName": "BeastBreeding",
  "abi": [
    {
      "constant": true,
      "inputs": [
        {
          "name": "_interfaceID",
          "type": "bytes4"
        }
      ],
      "name": "supportsInterface",
      "outputs": [
        {
          "name": "",
          "type": "bool"
        }
      ],
      "payable": false,
      "stateMutability": "view",
      "type": "function"
    },
    {
      "constant": true,
      "inputs": [],
      "name": "cfoAddress",
      "outputs": [
        {
          "name": "",
          "type": "address"
        }
      ],
      "payable": false,
      "stateMutability": "view",
      "type": "function"
    },
    {
      "constant": true,
      "inputs": [
        {
          "name": "_tokenId",
          "type": "uint256"
        },
        {
          "name": "_preferredTransport",
          "type": "string"
        }
      ],
      "name": "tokenMetadata",
      "outputs": [
        {
          "name": "infoUrl",
          "type": "string"
        }
      ],
      "payable": false,
      "stateMutability": "view",
      "type": "function"
    },
    {
      "constant": true,
      "inputs": [],
      "name": "name",
      "outputs": [
        {
          "name": "",
          "type": "string"
        }
      ],
      "payable": false,
      "stateMutability": "view",
      "type": "function"
    },
    {
      "constant": false,
      "inputs": [
        {
          "name": "_to",
          "type": "address"
        },
        {
          "name": "_tokenId",
          "type": "uint256"
        }
      ],
      "name": "approve",
      "outputs": [],
      "payable": false,
      "stateMutability": "nonpayable",
      "type": "function"
    },
    {
      "constant": true,
      "inputs": [],
      "name": "ceoAddress",
      "outputs": [
        {
          "name": "",
          "type": "address"
        }
      ],
      "payable": false,
      "stateMutability": "view",
      "type": "function"
    },
    {
      "constant": true,
      "inputs": [],
      "name": "totalSupply",
      "outputs": [
        {
          "name": "",
          "type": "uint256"
        }
      ],
      "payable": false,
      "stateMutability": "view",
      "type": "function"
    },
    {
      "constant": true,
      "inputs": [
        {
          "name": "_beastId",
          "type": "uint256"
        }
      ],
      "name": "isPregnant",
      "outputs": [
        {
          "name": "",
          "type": "bool"
        }
      ],
      "payable": false,
      "stateMutability": "view",
      "type": "function"
    },
    {
      "constant": true,
      "inputs": [],
      "name": "siringAuction",
      "outputs": [
        {
          "name": "",
          "type": "address"
        }
      ],
      "payable": false,
      "stateMutability": "view",
      "type": "function"
    },
    {
      "constant": false,
      "inputs": [
        {
          "name": "_from",
          "type": "address"
        },
        {
          "name": "_to",
          "type": "address"
        },
        {
          "name": "_tokenId",
          "type": "uint256"
        }
      ],
      "name": "transferFrom",
      "outputs": [],
      "payable": false,
      "stateMutability": "nonpayable",
      "type": "function"
    },
    {
      "constant": false,
      "inputs": [
        {
          "name": "_address",
          "type": "address"
        }
      ],
      "name": "setGeneScienceAddress",
      "outputs": [],
      "payable": false,
      "stateMutability": "nonpayable",
      "type": "function"
    },
    {
      "constant": false,
      "inputs": [
        {
          "name": "_newCEO",
          "type": "address"
        }
      ],
      "name": "setCEO",
      "outputs": [],
      "payable": false,
      "stateMutability": "nonpayable",
      "type": "function"
    },
    {
      "constant": false,
      "inputs": [
        {
          "name": "_newCOO",
          "type": "address"
        }
      ],
      "name": "setCOO",
      "outputs": [],
      "payable": false,
      "stateMutability": "nonpayable",
      "type": "function"
    },
    {
      "constant": false,
      "inputs": [],
      "name": "unpause",
      "outputs": [],
      "payable": false,
      "stateMutability": "nonpayable",
      "type": "function"
    },
    {
      "constant": true,
      "inputs": [
        {
          "name": "",
          "type": "uint256"
        }
      ],
      "name": "sireAllowedToAddress",
      "outputs": [
        {
          "name": "",
          "type": "address"
        }
      ],
      "payable": false,
      "stateMutability": "view",
      "type": "function"
    },
    {
      "constant": true,
      "inputs": [
        {
          "name": "_matronId",
          "type": "uint256"
        },
        {
          "name": "_sireId",
          "type": "uint256"
        }
      ],
      "name": "canBreedWith",
      "outputs": [
        {
          "name": "",
          "type": "bool"
        }
      ],
      "payable": false,
      "stateMutability": "view",
      "type": "function"
    },
    {
      "constant": false,
      "inputs": [
        {
          "name": "val",
          "type": "uint256"
        }
      ],
      "name": "setAutoBirthFee",
      "outputs": [],
      "payable": false,
      "stateMutability": "nonpayable",
      "type": "function"
    },
    {
      "constant": false,
      "inputs": [
        {
          "name": "_addr",
          "type": "address"
        },
        {
          "name": "_sireId",
          "type": "uint256"
        }
      ],
      "name": "approveSiring",
      "outputs": [],
      "payable": false,
      "stateMutability": "nonpayable",
      "type": "function"
    },
    {
      "constant": false,
      "inputs": [
        {
          "name": "_newCFO",
          "type": "address"
        }
      ],
      "name": "setCFO",
      "outputs": [],
      "payable": false,
      "stateMutability": "nonpayable",
      "type": "function"
    },
    {
      "constant": true,
      "inputs": [
        {
          "name": "",
          "type": "uint256"
        }
      ],
      "name": "beastIndexToOwner",
      "outputs": [
        {
          "name": "",
          "type": "address"
        }
      ],
      "payable": false,
      "stateMutability": "view",
      "type": "function"
    },
    {
      "constant": true,
      "inputs": [],
      "name": "paused",
      "outputs": [
        {
          "name": "",
          "type": "bool"
        }
      ],
      "payable": false,
      "stateMutability": "view",
      "type": "function"
    },
    {
      "constant": true,
      "inputs": [
        {
          "name": "_tokenId",
          "type": "uint256"
        }
      ],
      "name": "ownerOf",
      "outputs": [
        {
          "name": "owner",
          "type": "address"
        }
      ],
      "payable": false,
      "stateMutability": "view",
      "type": "function"
    },
    {
      "constant": true,
      "inputs": [
        {
          "name": "_owner",
          "type": "address"
        }
      ],
      "name": "balanceOf",
      "outputs": [
        {
          "name": "count",
          "type": "uint256"
        }
      ],
      "payable": false,
      "stateMutability": "view",
      "type": "function"
    },
    {
      "constant": true,
      "inputs": [],
      "name": "secondsPerBlock",
      "outputs": [
        {
          "name": "",
          "type": "uint256"
        }
      ],
      "payable": false,
      "stateMutability": "view",
      "type": "function"
    },
    {
      "constant": false,
      "inputs": [],
      "name": "pause",
      "outputs": [],
      "payable": false,
      "stateMutability": "nonpayable",
      "type": "function"
    },
    {
      "constant": true,
      "inputs": [
        {
          "name": "_owner",
          "type": "address"
        }
      ],
      "name": "tokensOfOwner",
      "outputs": [
        {
          "name": "ownerTokens",
          "type": "uint256[]"
        }
      ],
      "payable": false,
      "stateMutability": "view",
      "type": "function"
    },
    {
      "constant": false,
      "inputs": [
        {
          "name": "_matronId",
          "type": "uint256"
        }
      ],
      "name": "giveBirth",
      "outputs": [
        {
          "name": "",
          "type": "uint256"
        }
      ],
      "payable": false,
      "stateMutability": "nonpayable",
      "type": "function"
    },
    {
      "constant": true,
      "inputs": [],
      "name": "symbol",
      "outputs": [
        {
          "name": "",
          "type": "string"
        }
      ],
      "payable": false,
      "stateMutability": "view",
      "type": "function"
    },
    {
      "constant": true,
      "inputs": [
        {
          "name": "",
          "type": "uint256"
        }
      ],
      "name": "cooldowns",
      "outputs": [
        {
          "name": "",
          "type": "uint32"
        }
      ],
      "payable": false,
      "stateMutability": "view",
      "type": "function"
    },
    {
      "constant": false,
      "inputs": [
        {
          "name": "_to",
          "type": "address"
        },
        {
          "name": "_tokenId",
          "type": "uint256"
        }
      ],
      "name": "transfer",
      "outputs": [],
      "payable": false,
      "stateMutability": "nonpayable",
      "type": "function"
    },
    {
      "constant": true,
      "inputs": [],
      "name": "cooAddress",
      "outputs": [
        {
          "name": "",
          "type": "address"
        }
      ],
      "payable": false,
      "stateMutability": "view",
      "type": "function"
    },
    {
      "constant": true,
      "inputs": [],
      "name": "autoBirthFee",
      "outputs": [
        {
          "name": "",
          "type": "uint256"
        }
      ],
      "payable": false,
      "stateMutability": "view",
      "type": "function"
    },
    {
      "constant": true,
      "inputs": [],
      "name": "pregnantBeasts",
      "outputs": [
        {
          "name": "",
          "type": "uint256"
        }
      ],
      "payable": false,
      "stateMutability": "view",
      "type": "function"
    },
    {
      "constant": true,
      "inputs": [],
      "name": "erc721Metadata",
      "outputs": [
        {
          "name": "",
          "type": "address"
        }
      ],
      "payable": false,
      "stateMutability": "view",
      "type": "function"
    },
    {
      "constant": true,
      "inputs": [
        {
          "name": "",
          "type": "uint256"
        }
      ],
      "name": "beastIndexToApproved",
      "outputs": [
        {
          "name": "",
          "type": "address"
        }
      ],
      "payable": false,
      "stateMutability": "view",
      "type": "function"
    },
    {
      "constant": true,
      "inputs": [
        {
          "name": "_beastId",
          "type": "uint256"
        }
      ],
      "name": "isReadyToBreed",
      "outputs": [
        {
          "name": "",
          "type": "bool"
        }
      ],
      "payable": false,
      "stateMutability": "view",
      "type": "function"
    },
    {
      "constant": false,
      "inputs": [
        {
          "name": "_contractAddress",
          "type": "address"
        }
      ],
      "name": "setMetadataAddress",
      "outputs": [],
      "payable": false,
      "stateMutability": "nonpayable",
      "type": "function"
    },
    {
      "constant": true,
      "inputs": [],
      "name": "saleAuction",
      "outputs": [
        {
          "name": "",
          "type": "address"
        }
      ],
      "payable": false,
      "stateMutability": "view",
      "type": "function"
    },
    {
      "constant": true,
      "inputs": [],
      "name": "geneScience",
      "outputs": [
        {
          "name": "",
          "type": "address"
        }
      ],
      "payable": false,
      "stateMutability": "view",
      "type": "function"
    },
    {
      "constant": false,
      "inputs": [
        {
          "name": "_matronId",
          "type": "uint256"
        },
        {
          "name": "_sireId",
          "type": "uint256"
        }
      ],
      "name": "breedWithAuto",
      "outputs": [],
      "payable": true,
      "stateMutability": "payable",
      "type": "function"
    },
    {
      "anonymous": false,
      "inputs": [
        {
          "indexed": false,
          "name": "owner",
          "type": "address"
        },
        {
          "indexed": false,
          "name": "matronId",
          "type": "uint256"
        },
        {
          "indexed": false,
          "name": "sireId",
          "type": "uint256"
        },
        {
          "indexed": false,
          "name": "cooldownEndBlock",
          "type": "uint256"
        }
      ],
      "name": "Pregnant",
      "type": "event"
    },
    {
      "anonymous": false,
      "inputs": [
        {
          "indexed": false,
          "name": "from",
          "type": "address"
        },
        {
          "indexed": false,
          "name": "to",
          "type": "address"
        },
        {
          "indexed": false,
          "name": "tokenId",
          "type": "uint256"
        }
      ],
      "name": "Transfer",
      "type": "event"
    },
    {
      "anonymous": false,
      "inputs": [
        {
          "indexed": false,
          "name": "owner",
          "type": "address"
        },
        {
          "indexed": false,
          "name": "approved",
          "type": "address"
        },
        {
          "indexed": false,
          "name": "tokenId",
          "type": "uint256"
        }
      ],
      "name": "Approval",
      "type": "event"
    },
    {
      "anonymous": false,
      "inputs": [
        {
          "indexed": false,
          "name": "owner",
          "type": "address"
        },
        {
          "indexed": false,
          "name": "beastId",
          "type": "uint256"
        },
        {
          "indexed": false,
          "name": "matronId",
          "type": "uint256"
        },
        {
          "indexed": false,
          "name": "sireId",
          "type": "uint256"
        },
        {
          "indexed": false,
          "name": "genes",
          "type": "uint256"
        }
      ],
      "name": "Birth",
      "type": "event"
    },
    {
      "anonymous": false,
      "inputs": [
        {
          "indexed": false,
          "name": "newContract",
          "type": "address"
        }
      ],
      "name": "ContractUpgrade",
      "type": "event"
    }
  ],
  "bytecode": "0x60606040526000600260146101000a81548160ff0219169083151502179055506101c060405190810160405280603c63ffffffff1663ffffffff168152602001607863ffffffff1663ffffffff16815260200161012c63ffffffff1663ffffffff16815260200161025863ffffffff1663ffffffff16815260200161070863ffffffff1663ffffffff168152602001610e1063ffffffff1663ffffffff168152602001611c2063ffffffff1663ffffffff16815260200161384063ffffffff1663ffffffff16815260200161708063ffffffff1663ffffffff16815260200161e10063ffffffff1663ffffffff1681526020016201518063ffffffff1663ffffffff1681526020016202a30063ffffffff1663ffffffff1681526020016205460063ffffffff1663ffffffff16815260200162093a8063ffffffff1663ffffffff16815250600390600e6200015692919062000179565b50600f60055566071afd498d0000600e5534156200017357600080fd5b62000259565b82600e600701600890048101928215620002105791602002820160005b83821115620001dc57835183826101000a81548163ffffffff021916908363ffffffff160217905550926020019260040160208160030104928301926001030262000196565b80156200020e5782816101000a81549063ffffffff0219169055600401602081600301049283019260010302620001dc565b505b5090506200021f919062000223565b5090565b6200025691905b808211156200025257600081816101000a81549063ffffffff0219169055506001016200022a565b5090565b90565b61419480620002696000396000f3006060604052600436106101ee576000357c0100000000000000000000000000000000000000000000000000000000900463ffffffff16806301ffc9a7146101f35780630519ce791461024d5780630560ff44146102a257806306fdde0314610352578063095ea7b3146103e05780630a0f81681461042257806318160ddd146104775780631940a936146104a057806321717ebf146104db57806323b872dd1461053057806324e7a38a1461059157806327d7874c146105ca5780632ba73c15146106035780633f4ba83a1461063c57806346116e6f1461065157806346d22c70146106b45780634b85fd55146106f85780634dfff04f1461071b5780634e0a33791461075d5780635318673f146107965780635c975abb146107f95780636352211e1461082657806370a08231146108895780637a7d4937146108d65780638456cb59146108ff5780638462151c1461091457806388c2a0bf146109a257806395d89b41146109d95780639d6fac6f14610a67578063a9059cbb14610aaa578063b047fb5014610aec578063b0c35c0514610b41578063bbdacd0f14610b6a578063bc4006f514610b93578063d11dffee14610be8578063d3e6f49f14610c4b578063e17b25af14610c86578063e6cbe35114610cbf578063f2b47d5214610d14578063f7d8c88314610d69575b600080fd5b34156101fe57600080fd5b61023360048080357bffffffffffffffffffffffffffffffffffffffffffffffffffffffff1916906020019091905050610d8a565b604051808215151515815260200191505060405180910390f35b341561025857600080fd5b61026061109b565b604051808273ffffffffffffffffffffffffffffffffffffffff1673ffffffffffffffffffffffffffffffffffffffff16815260200191505060405180910390f35b34156102ad57600080fd5b6102d7600480803590602001909190803590602001908201803590602001919091929050506110c1565b6040518080602001828103825283818151815260200191508051906020019080838360005b838110156103175780820151818401526020810190506102fc565b50505050905090810190601f1680156103445780820380516001836020036101000a031916815260200191505b509250505060405180910390f35b341561035d57600080fd5b61036561122c565b6040518080602001828103825283818151815260200191508051906020019080838360005b838110156103a557808201518184015260208101905061038a565b50505050905090810190601f1680156103d25780820380516001836020036101000a031916815260200191505b509250505060405180910390f35b34156103eb57600080fd5b610420600480803573ffffffffffffffffffffffffffffffffffffffff16906020019091908035906020019091905050611265565b005b341561042d57600080fd5b610435611343565b604051808273ffffffffffffffffffffffffffffffffffffffff1673ffffffffffffffffffffffffffffffffffffffff16815260200191505060405180910390f35b341561048257600080fd5b61048a611368565b6040518082815260200191505060405180910390f35b34156104ab57600080fd5b6104c16004808035906020019091905050611378565b604051808215151515815260200191505060405180910390f35b34156104e657600080fd5b6104ee6113ca565b604051808273ffffffffffffffffffffffffffffffffffffffff1673ffffffffffffffffffffffffffffffffffffffff16815260200191505060405180910390f35b341561053b57600080fd5b61058f600480803573ffffffffffffffffffffffffffffffffffffffff1690602001909190803573ffffffffffffffffffffffffffffffffffffffff169060200190919080359060200190919050506113f0565b005b341561059c57600080fd5b6105c8600480803573ffffffffffffffffffffffffffffffffffffffff169060200190919050506114bd565b005b34156105d557600080fd5b610601600480803573ffffffffffffffffffffffffffffffffffffffff169060200190919050506115f4565b005b341561060e57600080fd5b61063a600480803573ffffffffffffffffffffffffffffffffffffffff169060200190919050506116ce565b005b341561064757600080fd5b61064f6117a9565b005b341561065c57600080fd5b610672600480803590602001909190505061183c565b604051808273ffffffffffffffffffffffffffffffffffffffff1673ffffffffffffffffffffffffffffffffffffffff16815260200191505060405180910390f35b34156106bf57600080fd5b6106de600480803590602001909190803590602001909190505061186f565b604051808215151515815260200191505060405180910390f35b341561070357600080fd5b61071960048080359060200190919050506118f7565b005b341561072657600080fd5b61075b600480803573ffffffffffffffffffffffffffffffffffffffff1690602001909190803590602001909190505061195d565b005b341561076857600080fd5b610794600480803573ffffffffffffffffffffffffffffffffffffffff169060200190919050506119e4565b005b34156107a157600080fd5b6107b76004808035906020019091905050611abf565b604051808273ffffffffffffffffffffffffffffffffffffffff1673ffffffffffffffffffffffffffffffffffffffff16815260200191505060405180910390f35b341561080457600080fd5b61080c611af2565b604051808215151515815260200191505060405180910390f35b341561083157600080fd5b6108476004808035906020019091905050611b05565b604051808273ffffffffffffffffffffffffffffffffffffffff1673ffffffffffffffffffffffffffffffffffffffff16815260200191505060405180910390f35b341561089457600080fd5b6108c0600480803573ffffffffffffffffffffffffffffffffffffffff16906020019091905050611b7e565b6040518082815260200191505060405180910390f35b34156108e157600080fd5b6108e9611bc7565b6040518082815260200191505060405180910390f35b341561090a57600080fd5b610912611bcd565b005b341561091f57600080fd5b61094b600480803573ffffffffffffffffffffffffffffffffffffffff16906020019091905050611d11565b6040518080602001828103825283818151815260200191508051906020019060200280838360005b8381101561098e578082015181840152602081019050610973565b505050509050019250505060405180910390f35b34156109ad57600080fd5b6109c36004808035906020019091905050611e48565b6040518082815260200191505060405180910390f35b34156109e457600080fd5b6109ec6123ab565b6040518080602001828103825283818151815260200191508051906020019080838360005b83811015610a2c578082015181840152602081019050610a11565b50505050905090810190601f168015610a595780820380516001836020036101000a031916815260200191505b509250505060405180910390f35b3415610a7257600080fd5b610a8860048080359060200190919050506123e4565b604051808263ffffffff1663ffffffff16815260200191505060405180910390f35b3415610ab557600080fd5b610aea600480803573ffffffffffffffffffffffffffffffffffffffff16906020019091908035906020019091905050612413565b005b3415610af757600080fd5b610aff612584565b604051808273ffffffffffffffffffffffffffffffffffffffff1673ffffffffffffffffffffffffffffffffffffffff16815260200191505060405180910390f35b3415610b4c57600080fd5b610b546125aa565b6040518082815260200191505060405180910390f35b3415610b7557600080fd5b610b7d6125b0565b6040518082815260200191505060405180910390f35b3415610b9e57600080fd5b610ba66125b6565b604051808273ffffffffffffffffffffffffffffffffffffffff1673ffffffffffffffffffffffffffffffffffffffff16815260200191505060405180910390f35b3415610bf357600080fd5b610c0960048080359060200190919050506125dc565b604051808273ffffffffffffffffffffffffffffffffffffffff1673ffffffffffffffffffffffffffffffffffffffff16815260200191505060405180910390f35b3415610c5657600080fd5b610c6c600480803590602001909190505061260f565b604051808215151515815260200191505060405180910390f35b3415610c9157600080fd5b610cbd600480803573ffffffffffffffffffffffffffffffffffffffff169060200190919050506128c2565b005b3415610cca57600080fd5b610cd2612961565b604051808273ffffffffffffffffffffffffffffffffffffffff1673ffffffffffffffffffffffffffffffffffffffff16815260200191505060405180910390f35b3415610d1f57600080fd5b610d27612987565b604051808273ffffffffffffffffffffffffffffffffffffffff1673ffffffffffffffffffffffffffffffffffffffff16815260200191505060405180910390f35b610d8860048080359060200190919080359060200190919050506129ad565b005b600060405180807f737570706f727473496e74657266616365286279746573342900000000000000815250601901905060405180910390207bffffffffffffffffffffffffffffffffffffffffffffffffffffffff1916827bffffffffffffffffffffffffffffffffffffffffffffffffffffffff19161480611094575060405180807f746f6b656e4d657461646174612875696e743235362c737472696e6729000000815250601d019050604051809103902060405180807f746f6b656e734f664f776e6572286164647265737329000000000000000000008152506016019050604051809103902060405180807f7472616e7366657246726f6d28616464726573732c616464726573732c75696e81526020017f74323536290000000000000000000000000000000000000000000000000000008152506025019050604051809103902060405180807f7472616e7366657228616464726573732c75696e7432353629000000000000008152506019019050604051809103902060405180807f617070726f766528616464726573732c75696e743235362900000000000000008152506018019050604051809103902060405180807f6f776e65724f662875696e7432353629000000000000000000000000000000008152506010019050604051809103902060405180807f62616c616e63654f6628616464726573732900000000000000000000000000008152506012019050604051809103902060405180807f746f74616c537570706c79282900000000000000000000000000000000000000815250600d019050604051809103902060405180807f73796d626f6c28290000000000000000000000000000000000000000000000008152506008019050604051809103902060405180807f6e616d6528290000000000000000000000000000000000000000000000000000815250600601905060405180910390201818181818181818187bffffffffffffffffffffffffffffffffffffffffffffffffffffffff1916827bffffffffffffffffffffffffffffffffffffffffffffffffffffffff1916145b9050919050565b600160009054906101000a900473ffffffffffffffffffffffffffffffffffffffff1681565b6110c9613e58565b6110d1613e6c565b60008073ffffffffffffffffffffffffffffffffffffffff16600d60009054906101000a900473ffffffffffffffffffffffffffffffffffffffff1673ffffffffffffffffffffffffffffffffffffffff161415151561113057600080fd5b600d60009054906101000a900473ffffffffffffffffffffffffffffffffffffffff1673ffffffffffffffffffffffffffffffffffffffff1663cb4799f2878787600060405160a001526040518463ffffffff167c010000000000000000000000000000000000000000000000000000000002815260040180848152602001806020018281038252848482818152602001925080828437820191505094505050505060a060405180830381600087803b15156111eb57600080fd5b6102c65a03f115156111fc57600080fd5b5050506040518060800180519060200160405280925081935050506112218282612f76565b925050509392505050565b6040805190810160405280600b81526020017f43727970746f426561737400000000000000000000000000000000000000000081525081565b600260149054906101000a900460ff1615151561128157600080fd5b61128b3382612fce565b151561129657600080fd5b6112a0818361303a565b7f8c5be1e5ebec7d5bd14f71427d1e84f3dd0314c0f7b2291e5b200ac8c7c3b925338383604051808473ffffffffffffffffffffffffffffffffffffffff1673ffffffffffffffffffffffffffffffffffffffff1681526020018373ffffffffffffffffffffffffffffffffffffffff1673ffffffffffffffffffffffffffffffffffffffff168152602001828152602001935050505060405180910390a15050565b6000809054906101000a900473ffffffffffffffffffffffffffffffffffffffff1681565b6000600160068054905003905090565b6000808211151561138857600080fd5b600060068381548110151561139957fe5b906000526020600020906004020160020160089054906101000a900463ffffffff1663ffffffff1614159050919050565b600c60009054906101000a900473ffffffffffffffffffffffffffffffffffffffff1681565b600260149054906101000a900460ff1615151561140c57600080fd5b600073ffffffffffffffffffffffffffffffffffffffff168273ffffffffffffffffffffffffffffffffffffffff161415151561144857600080fd5b3073ffffffffffffffffffffffffffffffffffffffff168273ffffffffffffffffffffffffffffffffffffffff161415151561148357600080fd5b61148d3382613090565b151561149857600080fd5b6114a28382612fce565b15156114ad57600080fd5b6114b88383836130fc565b505050565b60008060009054906101000a900473ffffffffffffffffffffffffffffffffffffffff1673ffffffffffffffffffffffffffffffffffffffff163373ffffffffffffffffffffffffffffffffffffffff1614151561151a57600080fd5b8190508073ffffffffffffffffffffffffffffffffffffffff166354c15b826000604051602001526040518163ffffffff167c0100000000000000000000000000000000000000000000000000000000028152600401602060405180830381600087803b151561158957600080fd5b6102c65a03f1151561159a57600080fd5b5050506040518051905015156115af57600080fd5b80601060006101000a81548173ffffffffffffffffffffffffffffffffffffffff021916908373ffffffffffffffffffffffffffffffffffffffff1602179055505050565b6000809054906101000a900473ffffffffffffffffffffffffffffffffffffffff1673ffffffffffffffffffffffffffffffffffffffff163373ffffffffffffffffffffffffffffffffffffffff1614151561164f57600080fd5b600073ffffffffffffffffffffffffffffffffffffffff168173ffffffffffffffffffffffffffffffffffffffff161415151561168b57600080fd5b806000806101000a81548173ffffffffffffffffffffffffffffffffffffffff021916908373ffffffffffffffffffffffffffffffffffffffff16021790555050565b6000809054906101000a900473ffffffffffffffffffffffffffffffffffffffff1673ffffffffffffffffffffffffffffffffffffffff163373ffffffffffffffffffffffffffffffffffffffff1614151561172957600080fd5b600073ffffffffffffffffffffffffffffffffffffffff168173ffffffffffffffffffffffffffffffffffffffff161415151561176557600080fd5b80600260006101000a81548173ffffffffffffffffffffffffffffffffffffffff021916908373ffffffffffffffffffffffffffffffffffffffff16021790555050565b6000809054906101000a900473ffffffffffffffffffffffffffffffffffffffff1673ffffffffffffffffffffffffffffffffffffffff163373ffffffffffffffffffffffffffffffffffffffff1614151561180457600080fd5b600260149054906101000a900460ff16151561181f57600080fd5b6000600260146101000a81548160ff021916908315150217905550565b600a6020528060005260406000206000915054906101000a900473ffffffffffffffffffffffffffffffffffffffff1681565b6000806000808511151561188257600080fd5b60008411151561189157600080fd5b6006858154811015156118a057fe5b906000526020600020906004020191506006848154811015156118bf57fe5b906000526020600020906004020190506118db82868387613334565b80156118ed57506118ec8486613549565b5b9250505092915050565b600260009054906101000a900473ffffffffffffffffffffffffffffffffffffffff1673ffffffffffffffffffffffffffffffffffffffff163373ffffffffffffffffffffffffffffffffffffffff1614151561195357600080fd5b80600e8190555050565b600260149054906101000a900460ff1615151561197957600080fd5b6119833382612fce565b151561198e57600080fd5b81600a600083815260200190815260200160002060006101000a81548173ffffffffffffffffffffffffffffffffffffffff021916908373ffffffffffffffffffffffffffffffffffffffff1602179055505050565b6000809054906101000a900473ffffffffffffffffffffffffffffffffffffffff1673ffffffffffffffffffffffffffffffffffffffff163373ffffffffffffffffffffffffffffffffffffffff16141515611a3f57600080fd5b600073ffffffffffffffffffffffffffffffffffffffff168173ffffffffffffffffffffffffffffffffffffffff1614151515611a7b57600080fd5b80600160006101000a81548173ffffffffffffffffffffffffffffffffffffffff021916908373ffffffffffffffffffffffffffffffffffffffff16021790555050565b60076020528060005260406000206000915054906101000a900473ffffffffffffffffffffffffffffffffffffffff1681565b600260149054906101000a900460ff1681565b60006007600083815260200190815260200160002060009054906101000a900473ffffffffffffffffffffffffffffffffffffffff169050600073ffffffffffffffffffffffffffffffffffffffff168173ffffffffffffffffffffffffffffffffffffffff1614151515611b7957600080fd5b919050565b6000600860008373ffffffffffffffffffffffffffffffffffffffff1673ffffffffffffffffffffffffffffffffffffffff168152602001908152602001600020549050919050565b60055481565b600260009054906101000a900473ffffffffffffffffffffffffffffffffffffffff1673ffffffffffffffffffffffffffffffffffffffff163373ffffffffffffffffffffffffffffffffffffffff161480611c7557506000809054906101000a900473ffffffffffffffffffffffffffffffffffffffff1673ffffffffffffffffffffffffffffffffffffffff163373ffffffffffffffffffffffffffffffffffffffff16145b80611ccd5750600160009054906101000a900473ffffffffffffffffffffffffffffffffffffffff1673ffffffffffffffffffffffffffffffffffffffff163373ffffffffffffffffffffffffffffffffffffffff16145b1515611cd857600080fd5b600260149054906101000a900460ff16151515611cf457600080fd5b6001600260146101000a81548160ff021916908315150217905550565b611d19613e97565b6000611d23613e97565b6000806000611d3187611b7e565b94506000851415611d63576000604051805910611d4b5750595b90808252806020026020018201604052509550611e3e565b84604051805910611d715750595b90808252806020026020018201604052509350611d8c611368565b925060009150600190505b8281111515611e3a578673ffffffffffffffffffffffffffffffffffffffff166007600083815260200190815260200160002060009054906101000a900473ffffffffffffffffffffffffffffffffffffffff1673ffffffffffffffffffffffffffffffffffffffff161415611e2d57808483815181101515611e1657fe5b906020019060200201818152505081806001019250505b8080600101915050611d97565b8395505b5050505050919050565b600080600080600080600080600260149054906101000a900460ff16151515611e7057600080fd5b600689815481101515611e7f57fe5b9060005260206000209060040201965060008760010160109054906101000a900467ffffffffffffffff1667ffffffffffffffff1614151515611ec157600080fd5b61213b876101806040519081016040529081600082015481526020016001820160009054906101000a900467ffffffffffffffff1667ffffffffffffffff1667ffffffffffffffff1681526020016001820160089054906101000a900467ffffffffffffffff1667ffffffffffffffff1667ffffffffffffffff1681526020016001820160109054906101000a900467ffffffffffffffff1667ffffffffffffffff1667ffffffffffffffff1681526020016001820160189054906101000a900467ffffffffffffffff1667ffffffffffffffff1667ffffffffffffffff1681526020016002820160009054906101000a900463ffffffff1663ffffffff1663ffffffff1681526020016002820160049054906101000a900463ffffffff1663ffffffff1663ffffffff1681526020016002820160089054906101000a900463ffffffff1663ffffffff1663ffffffff16815260200160028201600c9054906101000a900461ffff1661ffff1661ffff16815260200160028201600e9054906101000a900461ffff1661ffff1661ffff1681526020016002820160109054906101000a900460ff1660ff1660ff1681526020016003820160c060405190810160405290816000820160009054906101000a900460ff1660ff1660ff1681526020016000820160019054906101000a900460ff1660ff1660ff1681526020016000820160029054906101000a900460ff1660ff1660ff1681526020016000820160039054906101000a900460ff1660ff1660ff1681526020016000820160049054906101000a900460ff1660ff1660ff1681526020016000820160059054906101000a900460ff1660ff1660ff16815250508152505061365c565b151561214657600080fd5b8660020160089054906101000a900463ffffffff1663ffffffff16955060068681548110151561217257fe5b9060005260206000209060040201945086600201600e9054906101000a900461ffff16935086600201600e9054906101000a900461ffff1661ffff1685600201600e9054906101000a900461ffff1661ffff1611156121e15784600201600e9054906101000a900461ffff1693505b601060009054906101000a900473ffffffffffffffffffffffffffffffffffffffff1673ffffffffffffffffffffffffffffffffffffffff16630d9f5aed8860000154876000015460018b60010160189054906101000a900467ffffffffffffffff16036000604051602001526040518463ffffffff167c0100000000000000000000000000000000000000000000000000000000028152600401808481526020018381526020018267ffffffffffffffff1681526020019350505050602060405180830381600087803b15156122b757600080fd5b6102c65a03f115156122c857600080fd5b505050604051805190509250600760008a815260200190815260200160002060009054906101000a900473ffffffffffffffffffffffffffffffffffffffff169150612338898860020160089054906101000a900463ffffffff1663ffffffff166001870161ffff168686613697565b90508660020160086101000a81549063ffffffff0219169055600f60008154809291906001900391905055503373ffffffffffffffffffffffffffffffffffffffff166108fc600e549081150290604051600060405180830381858888f193505050505080975050505050505050919050565b6040805190810160405280600381526020017f425354000000000000000000000000000000000000000000000000000000000081525081565b600381600e811015156123f357fe5b60089182820401919006600402915054906101000a900463ffffffff1681565b600260149054906101000a900460ff1615151561242f57600080fd5b600073ffffffffffffffffffffffffffffffffffffffff168273ffffffffffffffffffffffffffffffffffffffff161415151561246b57600080fd5b3073ffffffffffffffffffffffffffffffffffffffff168273ffffffffffffffffffffffffffffffffffffffff16141515156124a657600080fd5b600b60009054906101000a900473ffffffffffffffffffffffffffffffffffffffff1673ffffffffffffffffffffffffffffffffffffffff168273ffffffffffffffffffffffffffffffffffffffff161415151561250357600080fd5b600c60009054906101000a900473ffffffffffffffffffffffffffffffffffffffff1673ffffffffffffffffffffffffffffffffffffffff168273ffffffffffffffffffffffffffffffffffffffff161415151561256057600080fd5b61256a3382612fce565b151561257557600080fd5b6125803383836130fc565b5050565b600260009054906101000a900473ffffffffffffffffffffffffffffffffffffffff1681565b600e5481565b600f5481565b600d60009054906101000a900473ffffffffffffffffffffffffffffffffffffffff1681565b60096020528060005260406000206000915054906101000a900473ffffffffffffffffffffffffffffffffffffffff1681565b60008060008311151561262157600080fd5b60068381548110151561263057fe5b906000526020600020906004020190506128ba816101806040519081016040529081600082015481526020016001820160009054906101000a900467ffffffffffffffff1667ffffffffffffffff1667ffffffffffffffff1681526020016001820160089054906101000a900467ffffffffffffffff1667ffffffffffffffff1667ffffffffffffffff1681526020016001820160109054906101000a900467ffffffffffffffff1667ffffffffffffffff1667ffffffffffffffff1681526020016001820160189054906101000a900467ffffffffffffffff1667ffffffffffffffff1667ffffffffffffffff1681526020016002820160009054906101000a900463ffffffff1663ffffffff1663ffffffff1681526020016002820160049054906101000a900463ffffffff1663ffffffff1663ffffffff1681526020016002820160089054906101000a900463ffffffff1663ffffffff1663ffffffff16815260200160028201600c9054906101000a900461ffff1661ffff1661ffff16815260200160028201600e9054906101000a900461ffff1661ffff1661ffff1681526020016002820160109054906101000a900460ff1660ff1660ff1681526020016003820160c060405190810160405290816000820160009054906101000a900460ff1660ff1660ff1681526020016000820160019054906101000a900460ff1660ff1660ff1681526020016000820160029054906101000a900460ff1660ff1660ff1681526020016000820160039054906101000a900460ff1660ff1660ff1681526020016000820160049054906101000a900460ff1660ff1660ff1681526020016000820160059054906101000a900460ff1660ff1660ff168152505081525050613b33565b915050919050565b6000809054906101000a900473ffffffffffffffffffffffffffffffffffffffff1673ffffffffffffffffffffffffffffffffffffffff163373ffffffffffffffffffffffffffffffffffffffff1614151561291d57600080fd5b80600d60006101000a81548173ffffffffffffffffffffffffffffffffffffffff021916908373ffffffffffffffffffffffffffffffffffffffff16021790555050565b600b60009054906101000a900473ffffffffffffffffffffffffffffffffffffffff1681565b601060009054906101000a900473ffffffffffffffffffffffffffffffffffffffff1681565b600080600260149054906101000a900460ff161515156129cc57600080fd5b600e5434101515156129dd57600080fd5b6129e73385612fce565b15156129f257600080fd5b6129fc8385613549565b1515612a0757600080fd5b600684815481101515612a1657fe5b90600052602060002090600402019150612ca0826101806040519081016040529081600082015481526020016001820160009054906101000a900467ffffffffffffffff1667ffffffffffffffff1667ffffffffffffffff1681526020016001820160089054906101000a900467ffffffffffffffff1667ffffffffffffffff1667ffffffffffffffff1681526020016001820160109054906101000a900467ffffffffffffffff1667ffffffffffffffff1667ffffffffffffffff1681526020016001820160189054906101000a900467ffffffffffffffff1667ffffffffffffffff1667ffffffffffffffff1681526020016002820160009054906101000a900463ffffffff1663ffffffff1663ffffffff1681526020016002820160049054906101000a900463ffffffff1663ffffffff1663ffffffff1681526020016002820160089054906101000a900463ffffffff1663ffffffff1663ffffffff16815260200160028201600c9054906101000a900461ffff1661ffff1661ffff16815260200160028201600e9054906101000a900461ffff1661ffff1661ffff1681526020016002820160109054906101000a900460ff1660ff1660ff1681526020016003820160c060405190810160405290816000820160009054906101000a900460ff1660ff1660ff1681526020016000820160019054906101000a900460ff1660ff1660ff1681526020016000820160029054906101000a900460ff1660ff1660ff1681526020016000820160039054906101000a900460ff1660ff1660ff1681526020016000820160049054906101000a900460ff1660ff1660ff1681526020016000820160059054906101000a900460ff1660ff1660ff168152505081525050613b33565b1515612cab57600080fd5b600683815481101515612cba57fe5b90600052602060002090600402019050612f44816101806040519081016040529081600082015481526020016001820160009054906101000a900467ffffffffffffffff1667ffffffffffffffff1667ffffffffffffffff1681526020016001820160089054906101000a900467ffffffffffffffff1667ffffffffffffffff1667ffffffffffffffff1681526020016001820160109054906101000a900467ffffffffffffffff1667ffffffffffffffff1667ffffffffffffffff1681526020016001820160189054906101000a900467ffffffffffffffff1667ffffffffffffffff1667ffffffffffffffff1681526020016002820160009054906101000a900463ffffffff1663ffffffff1663ffffffff1681526020016002820160049054906101000a900463ffffffff1663ffffffff1663ffffffff1681526020016002820160089054906101000a900463ffffffff1663ffffffff1663ffffffff16815260200160028201600c9054906101000a900461ffff1661ffff1661ffff16815260200160028201600e9054906101000a900461ffff1661ffff1661ffff1681526020016002820160109054906101000a900460ff1660ff1660ff1681526020016003820160c060405190810160405290816000820160009054906101000a900460ff1660ff1660ff1681526020016000820160019054906101000a900460ff1660ff1660ff1681526020016000820160029054906101000a900460ff1660ff1660ff1681526020016000820160039054906101000a900460ff1660ff1660ff1681526020016000820160049054906101000a900460ff1660ff1660ff1681526020016000820160059054906101000a900460ff1660ff1660ff168152505081525050613b33565b1515612f4f57600080fd5b612f5b82858386613334565b1515612f6657600080fd5b612f708484613b6d565b50505050565b612f7e613e58565b612f86613e58565b60008084604051805910612f975750595b9080825280601f01601f19166020018201604052509250602083019150859050612fc2828287613d37565b82935050505092915050565b60008273ffffffffffffffffffffffffffffffffffffffff166007600084815260200190815260200160002060009054906101000a900473ffffffffffffffffffffffffffffffffffffffff1673ffffffffffffffffffffffffffffffffffffffff1614905092915050565b806009600084815260200190815260200160002060006101000a81548173ffffffffffffffffffffffffffffffffffffffff021916908373ffffffffffffffffffffffffffffffffffffffff1602179055505050565b60008273ffffffffffffffffffffffffffffffffffffffff166009600084815260200190815260200160002060009054906101000a900473ffffffffffffffffffffffffffffffffffffffff1673ffffffffffffffffffffffffffffffffffffffff1614905092915050565b600860008373ffffffffffffffffffffffffffffffffffffffff1673ffffffffffffffffffffffffffffffffffffffff16815260200190815260200160002060008154809291906001019190505550816007600083815260200190815260200160002060006101000a81548173ffffffffffffffffffffffffffffffffffffffff021916908373ffffffffffffffffffffffffffffffffffffffff160217905550600073ffffffffffffffffffffffffffffffffffffffff168373ffffffffffffffffffffffffffffffffffffffff1614151561329057600860008473ffffffffffffffffffffffffffffffffffffffff1673ffffffffffffffffffffffffffffffffffffffff1681526020019081526020016000206000815480929190600190039190505550600a600082815260200190815260200160002060006101000a81549073ffffffffffffffffffffffffffffffffffffffff02191690556009600082815260200190815260200160002060006101000a81549073ffffffffffffffffffffffffffffffffffffffff02191690555b7fddf252ad1be2c89b69c2b068fc378daa952ba7f163c4a11628f55a4df523b3ef838383604051808473ffffffffffffffffffffffffffffffffffffffff1673ffffffffffffffffffffffffffffffffffffffff1681526020018373ffffffffffffffffffffffffffffffffffffffff1673ffffffffffffffffffffffffffffffffffffffff168152602001828152602001935050505060405180910390a1505050565b6000818414156133475760009050613541565b818560020160049054906101000a900463ffffffff1663ffffffff1614806133885750818560020160009054906101000a900463ffffffff1663ffffffff16145b156133965760009050613541565b838360020160049054906101000a900463ffffffff1663ffffffff1614806133d75750838360020160009054906101000a900463ffffffff1663ffffffff16145b156133e55760009050613541565b60008360020160049054906101000a900463ffffffff1663ffffffff161480613428575060008560020160049054906101000a900463ffffffff1663ffffffff16145b156134365760019050613541565b8460020160049054906101000a900463ffffffff1663ffffffff168360020160049054906101000a900463ffffffff1663ffffffff1614806134ab57508460020160009054906101000a900463ffffffff1663ffffffff168360020160049054906101000a900463ffffffff1663ffffffff16145b156134b95760009050613541565b8460020160049054906101000a900463ffffffff1663ffffffff168360020160009054906101000a900463ffffffff1663ffffffff16148061352e57508460020160009054906101000a900463ffffffff1663ffffffff168360020160009054906101000a900463ffffffff1663ffffffff16145b1561353c5760009050613541565b600190505b949350505050565b60008060006007600085815260200190815260200160002060009054906101000a900473ffffffffffffffffffffffffffffffffffffffff1691506007600086815260200190815260200160002060009054906101000a900473ffffffffffffffffffffffffffffffffffffffff1690508073ffffffffffffffffffffffffffffffffffffffff168273ffffffffffffffffffffffffffffffffffffffff16148061365257508173ffffffffffffffffffffffffffffffffffffffff16600a600087815260200190815260200160002060009054906101000a900473ffffffffffffffffffffffffffffffffffffffff1673ffffffffffffffffffffffffffffffffffffffff16145b9250505092915050565b6000808260e0015163ffffffff161415801561369057504367ffffffffffffffff16826080015167ffffffffffffffff1611155b9050919050565b60006136a1613eab565b60008763ffffffff16881415156136b757600080fd5b8663ffffffff16871415156136cb57600080fd5b8561ffff16861415156136dd57600080fd5b61018060405190810160405280868152602001600067ffffffffffffffff168152602001600067ffffffffffffffff1681526020014267ffffffffffffffff168152602001600067ffffffffffffffff1681526020018863ffffffff1681526020018963ffffffff168152602001600063ffffffff168152602001600061ffff1681526020018761ffff168152602001600160ff16815260200160c060405190810160405280600160ff168152602001600160ff168152602001600160ff168152602001600160ff168152602001600160ff168152602001600160ff1681525081525091506001600680548060010182816137d89190613f58565b916000526020600020906004020160008590919091506000820151816000015560208201518160010160006101000a81548167ffffffffffffffff021916908367ffffffffffffffff16021790555060408201518160010160086101000a81548167ffffffffffffffff021916908367ffffffffffffffff16021790555060608201518160010160106101000a81548167ffffffffffffffff021916908367ffffffffffffffff16021790555060808201518160010160186101000a81548167ffffffffffffffff021916908367ffffffffffffffff16021790555060a08201518160020160006101000a81548163ffffffff021916908363ffffffff16021790555060c08201518160020160046101000a81548163ffffffff021916908363ffffffff16021790555060e08201518160020160086101000a81548163ffffffff021916908363ffffffff16021790555061010082015181600201600c6101000a81548161ffff021916908361ffff16021790555061012082015181600201600e6101000a81548161ffff021916908361ffff1602179055506101408201518160020160106101000a81548160ff021916908360ff1602179055506101608201518160030160008201518160000160006101000a81548160ff021916908360ff16021790555060208201518160000160016101000a81548160ff021916908360ff16021790555060408201518160000160026101000a81548160ff021916908360ff16021790555060608201518160000160036101000a81548160ff021916908360ff16021790555060808201518160000160046101000a81548160ff021916908360ff16021790555060a08201518160000160056101000a81548160ff021916908360ff160217905550505050500390508063ffffffff1681141515613a7e57600080fd5b7f0a5311bd2a6608f08a180df2ee7c5946819a649b204b554bb8e39825b2c50ad584828460c0015163ffffffff168560a0015163ffffffff168660000151604051808673ffffffffffffffffffffffffffffffffffffffff1673ffffffffffffffffffffffffffffffffffffffff1681526020018581526020018481526020018381526020018281526020019550505050505060405180910390a1613b25600085836130fc565b809250505095945050505050565b6000808260e0015163ffffffff16148015613b6657504367ffffffffffffffff16826080015167ffffffffffffffff1611155b9050919050565b600080600683815481101515613b7f57fe5b90600052602060002090600402019150600684815481101515613b9e57fe5b90600052602060002090600402019050828160020160086101000a81548163ffffffff021916908363ffffffff160217905550613bda82613d82565b613be381613d82565b600a600085815260200190815260200160002060006101000a81549073ffffffffffffffffffffffffffffffffffffffff0219169055600a600084815260200190815260200160002060006101000a81549073ffffffffffffffffffffffffffffffffffffffff0219169055600f600081548092919060010191905055507f241ea03ca20251805084d27d4440371c34a0b85ff108f6bb5611248f73818b806007600086815260200190815260200160002060009054906101000a900473ffffffffffffffffffffffffffffffffffffffff1685858460010160189054906101000a900467ffffffffffffffff16604051808573ffffffffffffffffffffffffffffffffffffffff1673ffffffffffffffffffffffffffffffffffffffff1681526020018481526020018381526020018267ffffffffffffffff16815260200194505050505060405180910390a150505050565b60005b602082101515613d5f5782518452602084019350602083019250602082039150613d3a565b6001826020036101000a0390508019835116818551168181178652505050505050565b43600554600383600201600c9054906101000a900461ffff1661ffff16600e81101515613dab57fe5b600891828204019190066004029054906101000a900463ffffffff1663ffffffff16811515613dd657fe5b04018160010160186101000a81548167ffffffffffffffff021916908367ffffffffffffffff160217905550600d81600201600c9054906101000a900461ffff1661ffff161015613e5557600181600201600c8282829054906101000a900461ffff160192506101000a81548161ffff021916908361ffff1602179055505b50565b602060405190810160405280600081525090565b6080604051908101604052806004905b6000801916815260200190600190039081613e7c5790505090565b602060405190810160405280600081525090565b6102206040519081016040528060008152602001600067ffffffffffffffff168152602001600067ffffffffffffffff168152602001600067ffffffffffffffff168152602001600067ffffffffffffffff168152602001600063ffffffff168152602001600063ffffffff168152602001600063ffffffff168152602001600061ffff168152602001600061ffff168152602001600060ff168152602001613f52613f8a565b81525090565b815481835581811511613f8557600402816004028360005260206000209182019101613f849190613fd3565b5b505050565b60c060405190810160405280600060ff168152602001600060ff168152602001600060ff168152602001600060ff168152602001600060ff168152602001600060ff1681525090565b61416591905b80821115614161576000808201600090556001820160006101000a81549067ffffffffffffffff02191690556001820160086101000a81549067ffffffffffffffff02191690556001820160106101000a81549067ffffffffffffffff02191690556001820160186101000a81549067ffffffffffffffff02191690556002820160006101000a81549063ffffffff02191690556002820160046101000a81549063ffffffff02191690556002820160086101000a81549063ffffffff021916905560028201600c6101000a81549061ffff021916905560028201600e6101000a81549061ffff02191690556002820160106101000a81549060ff021916905560038201600080820160006101000a81549060ff02191690556000820160016101000a81549060ff02191690556000820160026101000a81549060ff02191690556000820160036101000a81549060ff02191690556000820160046101000a81549060ff02191690556000820160056101000a81549060ff0219169055505050600401613fd9565b5090565b905600a165627a7a723058207e53c7a5e76c5ad8cfb62a4b0fbc69efd051bc8758be39d371fa1ffad20821b20029",
  "source": "pragma solidity ^0.4.18;\n\nimport './BeastOwnership.sol';\nimport './interface/GeneScienceInterface.sol';\n\ncontract BeastBreeding is BeastOwnership {\n\n    /// @dev The Pregnant event is fired when two beast successfully breed and the pregnancy\n    ///  timer begins for the matron.\n    event Pregnant(address owner, uint256 matronId, uint256 sireId, uint256 cooldownEndBlock);\n\n    /// @notice The minimum payment required to use breedWithAuto(). This fee goes towards\n    ///  the gas cost paid by whatever calls giveBirth(), and can be dynamically updated by\n    ///  the COO role as the gas price changes.\n    uint256 public autoBirthFee = 2 finney;\n\n    // Keeps track of number of pregnant beasts.\n    uint256 public pregnantBeasts;\n\n    /// @dev The address of the sibling contract that is used to implement the sooper-sekret\n    ///  genetic combination algorithm.\n    GeneScienceInterface public geneScience;\n\n    /// @dev Update the address of the genetic contract, can only be called by the CEO.\n    /// @param _address An address of a GeneScience contract instance to be used from this point forward.\n    function setGeneScienceAddress(address _address) external onlyCEO {\n        GeneScienceInterface candidateContract = GeneScienceInterface(_address);\n\n        // NOTE: verify that a contract is what we expect - https://github.com/Lunyr/crowdsale-contracts/blob/cfadd15986c30521d8ba7d5b6f57b4fefcc7ac38/contracts/LunyrToken.sol#L117\n        require(candidateContract.isGeneScience());\n\n        // Set the new contract address\n        geneScience = candidateContract;\n    }\n\n    /// @dev Checks that a given beast is able to breed. Requires that the\n    ///  current cooldown is finished (for sires) and also checks that there is\n    ///  no pending pregnancy.\n    function _isReadyToBreed(Beast _beast) internal view returns (bool) {\n        // In addition to checking the cooldownEndBlock, we also need to check to see if\n        // the beast has a pending birth; there can be some period of time between the end\n        // of the pregnacy timer and the birth event.\n        return (_beast.siringWithId == 0) && (_beast.cooldownEndBlock <= uint64(block.number));\n    }\n\n    /// @dev Check if a sire has authorized breeding with this matron. True if both sire\n    ///  and matron have the same owner, or if the sire has given siring permission to\n    ///  the matron's owner (via approveSiring()).\n    function _isSiringPermitted(uint256 _sireId, uint256 _matronId) internal view returns (bool) {\n        address matronOwner = beastIndexToOwner[_matronId];\n        address sireOwner = beastIndexToOwner[_sireId];\n\n        // Siring is okay if they have same owner, or if the matron's owner was given\n        // permission to breed with this sire.\n        return (matronOwner == sireOwner || sireAllowedToAddress[_sireId] == matronOwner);\n    }\n\n    /// @dev Set the cooldownEndTime for the given Beast, based on its current cooldownIndex.\n    ///  Also increments the cooldownIndex (unless it has hit the cap).\n    /// @param _beast A reference to the Beast in storage which needs its timer started.\n    function _triggerCooldown(Beast storage _beast) internal {\n        // Compute an estimation of the cooldown time in blocks (based on current cooldownIndex).\n        _beast.cooldownEndBlock = uint64((cooldowns[_beast.cooldownIndex]/secondsPerBlock) + block.number);\n\n        // Increment the breeding count, clamping it at 13, which is the length of the\n        // cooldowns array. We could check the array size dynamically, but hard-coding\n        // this as a constant saves gas. Yay, Solidity!\n        if (_beast.cooldownIndex < 13) {\n            _beast.cooldownIndex += 1;\n        }\n    }\n\n    /// @notice Grants approval to another user to sire with one of your Beasts.\n    /// @param _addr The address that will be able to sire with your Beast. Set to\n    ///  address(0) to clear all siring approvals for this Beast.\n    /// @param _sireId A Beast that you own that _addr will now be able to sire with.\n    function approveSiring(address _addr, uint256 _sireId)\n        external\n        whenNotPaused\n    {\n        require(_owns(msg.sender, _sireId));\n        sireAllowedToAddress[_sireId] = _addr;\n    }\n\n    /// @dev Updates the minimum payment required for calling giveBirthAuto(). Can only\n    ///  be called by the COO address. (This fee is used to offset the gas cost incurred\n    ///  by the autobirth daemon).\n    function setAutoBirthFee(uint256 val) external onlyCOO {\n        autoBirthFee = val;\n    }\n\n    /// @dev Checks to see if a given Beast is pregnant and (if so) if the gestation\n    ///  period has passed.\n    function _isReadyToGiveBirth(Beast _matron) private view returns (bool) {\n        return (_matron.siringWithId != 0) && (_matron.cooldownEndBlock <= uint64(block.number));\n    }\n\n    /// @notice Checks that a given beast is able to breed (i.e. it is not pregnant or\n    ///  in the middle of a siring cooldown).\n    /// @param _beastId reference the id of the beast, any user can inquire about it\n    function isReadyToBreed(uint256 _beastId)\n        public\n        view\n        returns (bool)\n    {\n        require(_beastId > 0);\n        Beast storage bst = beasts[_beastId];\n        return _isReadyToBreed(bst);\n    }\n\n    /// @dev Checks whether a beast is currently pregnant.\n    /// @param _beastId reference the id of the beast, any user can inquire about it\n    function isPregnant(uint256 _beastId)\n        public\n        view\n        returns (bool)\n    {\n        require(_beastId > 0);\n        // A kitty is pregnant if and only if this field is set\n        return beasts[_beastId].siringWithId != 0;\n    }\n\n    /// @dev Internal check to see if a given sire and matron are a valid mating pair. DOES NOT\n    ///  check ownership permissions (that is up to the caller).\n    /// @param _matron A reference to the Beast struct of the potential matron.\n    /// @param _matronId The matron's ID.\n    /// @param _sire A reference to the Beast struct of the potential sire.\n    /// @param _sireId The sire's ID\n    function _isValidMatingPair(\n        Beast storage _matron,\n        uint256 _matronId,\n        Beast storage _sire,\n        uint256 _sireId\n    )\n        private\n        view\n        returns(bool)\n    {\n        // A Beast can't breed with itself!\n        if (_matronId == _sireId) {\n            return false;\n        }\n\n        // Beasts can't breed with their parents.\n        if (_matron.matronId == _sireId || _matron.sireId == _sireId) {\n            return false;\n        }\n        if (_sire.matronId == _matronId || _sire.sireId == _matronId) {\n            return false;\n        }\n\n        // We can short circuit the sibling check (below) if either beast is\n        // gen zero (has a matron ID of zero).\n        if (_sire.matronId == 0 || _matron.matronId == 0) {\n            return true;\n        }\n\n        // Beasts can't breed with full or half siblings.\n        if (_sire.matronId == _matron.matronId || _sire.matronId == _matron.sireId) {\n            return false;\n        }\n        if (_sire.sireId == _matron.matronId || _sire.sireId == _matron.sireId) {\n            return false;\n        }\n\n        // Everything seems cool! Let's get DTF.\n        return true;\n    }\n\n    /// @dev Internal check to see if a given sire and matron are a valid mating pair for\n    ///  breeding via auction (i.e. skips ownership and siring approval checks).\n    function _canBreedWithViaAuction(uint256 _matronId, uint256 _sireId)\n        internal\n        view\n        returns (bool)\n    {\n        Beast storage matron = beasts[_matronId];\n        Beast storage sire = beasts[_sireId];\n        return _isValidMatingPair(matron, _matronId, sire, _sireId);\n    }\n\n    /// @notice Checks to see if two beasts can breed together, including checks for\n    ///  ownership and siring approvals. Does NOT check that both beasts are ready for\n    ///  breeding (i.e. breedWith could still fail until the cooldowns are finished).\n    ///  TODO: Shouldn't this check pregnancy and cooldowns?!?\n    /// @param _matronId The ID of the proposed matron.\n    /// @param _sireId The ID of the proposed sire.\n    function canBreedWith(uint256 _matronId, uint256 _sireId)\n        external\n        view\n        returns(bool)\n    {\n        require(_matronId > 0);\n        require(_sireId > 0);\n        Beast storage matron = beasts[_matronId];\n        Beast storage sire = beasts[_sireId];\n        return _isValidMatingPair(matron, _matronId, sire, _sireId) &&\n            _isSiringPermitted(_sireId, _matronId);\n    }\n\n    /// @dev Internal utility function to initiate breeding, assumes that all breeding\n    ///  requirements have been checked.\n    function _breedWith(uint256 _matronId, uint256 _sireId) internal {\n        // Grab a reference to the Beasts from storage.\n        Beast storage sire = beasts[_sireId];\n        Beast storage matron = beasts[_matronId];\n\n        // Mark the matron as pregnant, keeping track of who the sire is.\n        matron.siringWithId = uint32(_sireId);\n\n        // Trigger the cooldown for both parents.\n        _triggerCooldown(sire);\n        _triggerCooldown(matron);\n\n        // Clear siring permission for both parents. This may not be strictly necessary\n        // but it's likely to avoid confusion!\n        delete sireAllowedToAddress[_matronId];\n        delete sireAllowedToAddress[_sireId];\n\n        // Every time a kitty gets pregnant, counter is incremented.\n        pregnantBeasts++;\n\n        // Emit the pregnancy event.\n        Pregnant(beastIndexToOwner[_matronId], _matronId, _sireId, matron.cooldownEndBlock);\n    }\n\n    /// @notice Breed a Beast you own (as matron) with a sire that you own, or for which you\n    ///  have previously been given Siring approval. Will either make your beast pregnant, or will\n    ///  fail entirely. Requires a pre-payment of the fee given out to the first caller of giveBirth()\n    /// @param _matronId The ID of the Beast acting as matron (will end up pregnant if successful)\n    /// @param _sireId The ID of the Beast acting as sire (will begin its siring cooldown if successful)\n    function breedWithAuto(uint256 _matronId, uint256 _sireId)\n        external\n        payable\n        whenNotPaused\n    {\n        // Checks for payment.\n        require(msg.value >= autoBirthFee);\n\n        // Caller must own the matron.\n        require(_owns(msg.sender, _matronId));\n\n        // Neither sire nor matron are allowed to be on auction during a normal\n        // breeding operation, but we don't need to check that explicitly.\n        // For matron: The caller of this function can't be the owner of the matron\n        //   because the owner of a Beast on auction is the auction house, and the\n        //   auction house will never call breedWith().\n        // For sire: Similarly, a sire on auction will be owned by the auction house\n        //   and the act of transferring ownership will have cleared any oustanding\n        //   siring approval.\n        // Thus we don't need to spend gas explicitly checking to see if either beast\n        // is on auction.\n\n        // Check that matron and sire are both owned by caller, or that the sire\n        // has given siring permission to caller (i.e. matron's owner).\n        // Will fail for _sireId = 0\n        require(_isSiringPermitted(_sireId, _matronId));\n\n        // Grab a reference to the potential matron\n        Beast storage matron = beasts[_matronId];\n\n        // Make sure matron isn't pregnant, or in the middle of a siring cooldown\n        require(_isReadyToBreed(matron));\n\n        // Grab a reference to the potential sire\n        Beast storage sire = beasts[_sireId];\n\n        // Make sure sire isn't pregnant, or in the middle of a siring cooldown\n        require(_isReadyToBreed(sire));\n\n        // Test that these cats are a valid mating pair.\n        require(_isValidMatingPair(\n            matron,\n            _matronId,\n            sire,\n            _sireId\n        ));\n\n        // All checks passed, beast gets pregnant!\n        _breedWith(_matronId, _sireId);\n    }\n\n    /// @notice Have a pregnant Beast give birth!\n    /// @param _matronId A Beast ready to give birth.\n    /// @return The Beast ID of the new beast.\n    /// @dev Looks at a given Beast and, if pregnant and if the gestation period has passed,\n    ///  combines the genes of the two parents to create a new beast. The new Kitty is assigned\n    ///  to the current owner of the matron. Upon successful completion, both the matron and the\n    ///  new beast will be ready to breed again. Note that anyone can call this function (if they\n    ///  are willing to pay the gas!), but the new beast always goes to the mother's owner.\n    function giveBirth(uint256 _matronId)\n        external\n        whenNotPaused\n        returns(uint256)\n    {\n        // Grab a reference to the matron in storage.\n        Beast storage matron = beasts[_matronId];\n\n        // Check that the matron is a valid cat.\n        require(matron.birthTime != 0);\n\n        // Check that the matron is pregnant, and that its time has come!\n        require(_isReadyToGiveBirth(matron));\n\n        // Grab a reference to the sire in storage.\n        uint256 sireId = matron.siringWithId;\n        Beast storage sire = beasts[sireId];\n\n        // Determine the higher generation number of the two parents\n        uint16 parentGen = matron.generation;\n        if (sire.generation > matron.generation) {\n            parentGen = sire.generation;\n        }\n\n        // Call the sooper-sekret gene mixing operation.\n        uint256 childGenes = geneScience.mixGenes(matron.genes, sire.genes, matron.cooldownEndBlock - 1);\n\n        // Make the new beast!\n        address owner = beastIndexToOwner[_matronId];\n        uint256 beastId = _createBeast(_matronId, matron.siringWithId, parentGen + 1, childGenes, owner);\n\n        // Clear the reference to sire from the matron (REQUIRED! Having siringWithId\n        // set is what marks a matron as being pregnant.)\n        delete matron.siringWithId;\n\n        // Every time a beast gives birth counter is decremented.\n        pregnantBeasts--;\n\n        // Send the balance fee to the person who made birth happen.\n        msg.sender.send(autoBirthFee);\n\n        // return the new beast's ID\n        return beastId;\n    }\n}\n",
  "sourcePath": "/Users/jonathanaraneda/BlockchainProjects/unis_dinos/contracts/BeastBreeding.sol",
  "compiler": {
    "name": "solc",
    "version": "0.4.18+commit.9cf6e910.Emscripten.clang"
  },
  "schemaVersion": "1.0.1",
  "updatedAt": "2018-02-21T04:10:48.056Z"
}