{
  "contractName": "BeastBreeding",
  "abi": [
    {
      "constant": true,
      "inputs": [
        {
          "name": "_interfaceID",
          "type": "bytes4"
        }
      ],
      "name": "supportsInterface",
      "outputs": [
        {
          "name": "",
          "type": "bool"
        }
      ],
      "payable": false,
      "stateMutability": "view",
      "type": "function"
    },
    {
      "constant": true,
      "inputs": [],
      "name": "cfoAddress",
      "outputs": [
        {
          "name": "",
          "type": "address"
        }
      ],
      "payable": false,
      "stateMutability": "view",
      "type": "function"
    },
    {
      "constant": true,
      "inputs": [
        {
          "name": "_tokenId",
          "type": "uint256"
        },
        {
          "name": "_preferredTransport",
          "type": "string"
        }
      ],
      "name": "tokenMetadata",
      "outputs": [
        {
          "name": "infoUrl",
          "type": "string"
        }
      ],
      "payable": false,
      "stateMutability": "view",
      "type": "function"
    },
    {
      "constant": true,
      "inputs": [],
      "name": "name",
      "outputs": [
        {
          "name": "",
          "type": "string"
        }
      ],
      "payable": false,
      "stateMutability": "view",
      "type": "function"
    },
    {
      "constant": false,
      "inputs": [
        {
          "name": "_to",
          "type": "address"
        },
        {
          "name": "_tokenId",
          "type": "uint256"
        }
      ],
      "name": "approve",
      "outputs": [],
      "payable": false,
      "stateMutability": "nonpayable",
      "type": "function"
    },
    {
      "constant": true,
      "inputs": [],
      "name": "ceoAddress",
      "outputs": [
        {
          "name": "",
          "type": "address"
        }
      ],
      "payable": false,
      "stateMutability": "view",
      "type": "function"
    },
    {
      "constant": true,
      "inputs": [],
      "name": "totalSupply",
      "outputs": [
        {
          "name": "",
          "type": "uint256"
        }
      ],
      "payable": false,
      "stateMutability": "view",
      "type": "function"
    },
    {
      "constant": true,
      "inputs": [],
      "name": "siringAuction",
      "outputs": [
        {
          "name": "",
          "type": "address"
        }
      ],
      "payable": false,
      "stateMutability": "view",
      "type": "function"
    },
    {
      "constant": false,
      "inputs": [
        {
          "name": "_from",
          "type": "address"
        },
        {
          "name": "_to",
          "type": "address"
        },
        {
          "name": "_tokenId",
          "type": "uint256"
        }
      ],
      "name": "transferFrom",
      "outputs": [],
      "payable": false,
      "stateMutability": "nonpayable",
      "type": "function"
    },
    {
      "constant": false,
      "inputs": [
        {
          "name": "_newCEO",
          "type": "address"
        }
      ],
      "name": "setCEO",
      "outputs": [],
      "payable": false,
      "stateMutability": "nonpayable",
      "type": "function"
    },
    {
      "constant": false,
      "inputs": [
        {
          "name": "_newCOO",
          "type": "address"
        }
      ],
      "name": "setCOO",
      "outputs": [],
      "payable": false,
      "stateMutability": "nonpayable",
      "type": "function"
    },
    {
      "constant": false,
      "inputs": [],
      "name": "unpause",
      "outputs": [],
      "payable": false,
      "stateMutability": "nonpayable",
      "type": "function"
    },
    {
      "constant": true,
      "inputs": [
        {
          "name": "",
          "type": "uint256"
        }
      ],
      "name": "sireAllowedToAddress",
      "outputs": [
        {
          "name": "",
          "type": "address"
        }
      ],
      "payable": false,
      "stateMutability": "view",
      "type": "function"
    },
    {
      "constant": false,
      "inputs": [
        {
          "name": "_newCFO",
          "type": "address"
        }
      ],
      "name": "setCFO",
      "outputs": [],
      "payable": false,
      "stateMutability": "nonpayable",
      "type": "function"
    },
    {
      "constant": true,
      "inputs": [
        {
          "name": "",
          "type": "uint256"
        }
      ],
      "name": "beastIndexToOwner",
      "outputs": [
        {
          "name": "",
          "type": "address"
        }
      ],
      "payable": false,
      "stateMutability": "view",
      "type": "function"
    },
    {
      "constant": true,
      "inputs": [],
      "name": "paused",
      "outputs": [
        {
          "name": "",
          "type": "bool"
        }
      ],
      "payable": false,
      "stateMutability": "view",
      "type": "function"
    },
    {
      "constant": true,
      "inputs": [
        {
          "name": "_tokenId",
          "type": "uint256"
        }
      ],
      "name": "ownerOf",
      "outputs": [
        {
          "name": "owner",
          "type": "address"
        }
      ],
      "payable": false,
      "stateMutability": "view",
      "type": "function"
    },
    {
      "constant": true,
      "inputs": [
        {
          "name": "_owner",
          "type": "address"
        }
      ],
      "name": "balanceOf",
      "outputs": [
        {
          "name": "count",
          "type": "uint256"
        }
      ],
      "payable": false,
      "stateMutability": "view",
      "type": "function"
    },
    {
      "constant": true,
      "inputs": [],
      "name": "secondsPerBlock",
      "outputs": [
        {
          "name": "",
          "type": "uint256"
        }
      ],
      "payable": false,
      "stateMutability": "view",
      "type": "function"
    },
    {
      "constant": true,
      "inputs": [],
      "name": "geneMagic",
      "outputs": [
        {
          "name": "",
          "type": "address"
        }
      ],
      "payable": false,
      "stateMutability": "view",
      "type": "function"
    },
    {
      "constant": false,
      "inputs": [],
      "name": "pause",
      "outputs": [],
      "payable": false,
      "stateMutability": "nonpayable",
      "type": "function"
    },
    {
      "constant": true,
      "inputs": [
        {
          "name": "_owner",
          "type": "address"
        }
      ],
      "name": "tokensOfOwner",
      "outputs": [
        {
          "name": "ownerTokens",
          "type": "uint256[]"
        }
      ],
      "payable": false,
      "stateMutability": "view",
      "type": "function"
    },
    {
      "constant": true,
      "inputs": [],
      "name": "symbol",
      "outputs": [
        {
          "name": "",
          "type": "string"
        }
      ],
      "payable": false,
      "stateMutability": "view",
      "type": "function"
    },
    {
      "constant": true,
      "inputs": [
        {
          "name": "",
          "type": "uint256"
        }
      ],
      "name": "cooldowns",
      "outputs": [
        {
          "name": "",
          "type": "uint32"
        }
      ],
      "payable": false,
      "stateMutability": "view",
      "type": "function"
    },
    {
      "constant": false,
      "inputs": [
        {
          "name": "_to",
          "type": "address"
        },
        {
          "name": "_tokenId",
          "type": "uint256"
        }
      ],
      "name": "transfer",
      "outputs": [],
      "payable": false,
      "stateMutability": "nonpayable",
      "type": "function"
    },
    {
      "constant": true,
      "inputs": [],
      "name": "cooAddress",
      "outputs": [
        {
          "name": "",
          "type": "address"
        }
      ],
      "payable": false,
      "stateMutability": "view",
      "type": "function"
    },
    {
      "constant": true,
      "inputs": [],
      "name": "autoBirthFee",
      "outputs": [
        {
          "name": "",
          "type": "uint256"
        }
      ],
      "payable": false,
      "stateMutability": "view",
      "type": "function"
    },
    {
      "constant": true,
      "inputs": [],
      "name": "pregnantBeasts",
      "outputs": [
        {
          "name": "",
          "type": "uint256"
        }
      ],
      "payable": false,
      "stateMutability": "view",
      "type": "function"
    },
    {
      "constant": true,
      "inputs": [],
      "name": "erc721Metadata",
      "outputs": [
        {
          "name": "",
          "type": "address"
        }
      ],
      "payable": false,
      "stateMutability": "view",
      "type": "function"
    },
    {
      "constant": true,
      "inputs": [
        {
          "name": "",
          "type": "uint256"
        }
      ],
      "name": "beastIndexToApproved",
      "outputs": [
        {
          "name": "",
          "type": "address"
        }
      ],
      "payable": false,
      "stateMutability": "view",
      "type": "function"
    },
    {
      "constant": false,
      "inputs": [
        {
          "name": "_contractAddress",
          "type": "address"
        }
      ],
      "name": "setMetadataAddress",
      "outputs": [],
      "payable": false,
      "stateMutability": "nonpayable",
      "type": "function"
    },
    {
      "constant": true,
      "inputs": [],
      "name": "saleAuction",
      "outputs": [
        {
          "name": "",
          "type": "address"
        }
      ],
      "payable": false,
      "stateMutability": "view",
      "type": "function"
    },
    {
      "anonymous": false,
      "inputs": [
        {
          "indexed": false,
          "name": "owner",
          "type": "address"
        },
        {
          "indexed": false,
          "name": "matronId",
          "type": "uint256"
        },
        {
          "indexed": false,
          "name": "sireId",
          "type": "uint256"
        },
        {
          "indexed": false,
          "name": "cooldownEndBlock",
          "type": "uint256"
        }
      ],
      "name": "Pregnant",
      "type": "event"
    },
    {
      "anonymous": false,
      "inputs": [
        {
          "indexed": false,
          "name": "from",
          "type": "address"
        },
        {
          "indexed": false,
          "name": "to",
          "type": "address"
        },
        {
          "indexed": false,
          "name": "tokenId",
          "type": "uint256"
        }
      ],
      "name": "Transfer",
      "type": "event"
    },
    {
      "anonymous": false,
      "inputs": [
        {
          "indexed": false,
          "name": "owner",
          "type": "address"
        },
        {
          "indexed": false,
          "name": "approved",
          "type": "address"
        },
        {
          "indexed": false,
          "name": "tokenId",
          "type": "uint256"
        }
      ],
      "name": "Approval",
      "type": "event"
    },
    {
      "anonymous": false,
      "inputs": [
        {
          "indexed": false,
          "name": "owner",
          "type": "address"
        },
        {
          "indexed": false,
          "name": "beastId",
          "type": "uint256"
        },
        {
          "indexed": false,
          "name": "matronId",
          "type": "uint256"
        },
        {
          "indexed": false,
          "name": "sireId",
          "type": "uint256"
        },
        {
          "indexed": false,
          "name": "genes",
          "type": "uint256"
        }
      ],
      "name": "Birth",
      "type": "event"
    },
    {
      "anonymous": false,
      "inputs": [
        {
          "indexed": false,
          "name": "newContract",
          "type": "address"
        }
      ],
      "name": "ContractUpgrade",
      "type": "event"
    },
    {
      "constant": false,
      "inputs": [
        {
          "name": "_address",
          "type": "address"
        }
      ],
      "name": "setGeneMagicAddress",
      "outputs": [],
      "payable": false,
      "stateMutability": "nonpayable",
      "type": "function"
    },
    {
      "constant": false,
      "inputs": [
        {
          "name": "_addr",
          "type": "address"
        },
        {
          "name": "_sireId",
          "type": "uint256"
        }
      ],
      "name": "approveSiring",
      "outputs": [],
      "payable": false,
      "stateMutability": "nonpayable",
      "type": "function"
    },
    {
      "constant": false,
      "inputs": [
        {
          "name": "val",
          "type": "uint256"
        }
      ],
      "name": "setAutoBirthFee",
      "outputs": [],
      "payable": false,
      "stateMutability": "nonpayable",
      "type": "function"
    },
    {
      "constant": true,
      "inputs": [
        {
          "name": "_beastId",
          "type": "uint256"
        }
      ],
      "name": "isReadyToBreed",
      "outputs": [
        {
          "name": "",
          "type": "bool"
        }
      ],
      "payable": false,
      "stateMutability": "view",
      "type": "function"
    },
    {
      "constant": true,
      "inputs": [
        {
          "name": "_beastId",
          "type": "uint256"
        }
      ],
      "name": "isPregnant",
      "outputs": [
        {
          "name": "",
          "type": "bool"
        }
      ],
      "payable": false,
      "stateMutability": "view",
      "type": "function"
    },
    {
      "constant": true,
      "inputs": [
        {
          "name": "_matronId",
          "type": "uint256"
        },
        {
          "name": "_sireId",
          "type": "uint256"
        }
      ],
      "name": "canBreedWith",
      "outputs": [
        {
          "name": "",
          "type": "bool"
        }
      ],
      "payable": false,
      "stateMutability": "view",
      "type": "function"
    },
    {
      "constant": false,
      "inputs": [
        {
          "name": "_matronId",
          "type": "uint256"
        },
        {
          "name": "_sireId",
          "type": "uint256"
        }
      ],
      "name": "breedWithAuto",
      "outputs": [],
      "payable": true,
      "stateMutability": "payable",
      "type": "function"
    },
    {
      "constant": false,
      "inputs": [
        {
          "name": "_matronId",
          "type": "uint256"
        }
      ],
      "name": "giveBirth",
      "outputs": [
        {
          "name": "",
          "type": "uint256"
        }
      ],
      "payable": false,
      "stateMutability": "nonpayable",
      "type": "function"
    }
  ],
  "bytecode": "0x6003805460a060020a60ff0219169055610240604052603c6080908152607860a05261012c60c05261025860e05261070861010052610e1061012052611c2061014052613840610160526170806101805261e1006101a052620151806101c0526202a3006101e052620546006102005262093a80610220526200008790600490600e620000ac565b50600f60065566071afd498d0000600f55348015620000a557600080fd5b5062000176565b6002830191839082156200013d5791602002820160005b838211156200010957835183826101000a81548163ffffffff021916908363ffffffff1602179055509260200192600401602081600301049283019260010302620000c3565b80156200013b5782816101000a81549063ffffffff021916905560040160208160030104928301926001030262000109565b505b506200014b9291506200014f565b5090565b6200017391905b808211156200014b57805463ffffffff1916815560010162000156565b90565b6127e080620001866000396000f3006080604052600436106101ed5763ffffffff7c010000000000000000000000000000000000000000000000000000000060003504166301ffc9a781146101f25780630519ce791461023d5780630560ff441461026e57806306fdde0314610307578063095ea7b31461031c5780630a0f81681461034257806318160ddd146103575780631940a9361461037e5780631dfcec0b1461039657806321717ebf146103b757806323b872dd146103cc57806327d7874c146103f65780632ba73c15146104175780633f4ba83a1461043857806346116e6f1461044d57806346d22c70146104655780634b85fd55146104805780634dfff04f146104985780634e0a3379146104bc5780635318673f146104dd5780635c975abb146104f55780636352211e1461050a57806370a08231146105225780637a7d49371461054357806382eefc9a146105585780638456cb591461056d5780638462151c1461058257806388c2a0bf146105f357806395d89b411461060b5780639d6fac6f14610620578063a9059cbb14610651578063b047fb5014610675578063b0c35c051461068a578063bbdacd0f1461069f578063bc4006f5146106b4578063d11dffee146106c9578063d3e6f49f146106e1578063e17b25af146106f9578063e6cbe3511461071a578063f7d8c8831461072f575b600080fd5b3480156101fe57600080fd5b506102297bffffffffffffffffffffffffffffffffffffffffffffffffffffffff196004351661073d565b604080519115158252519081900360200190f35b34801561024957600080fd5b506102526109d0565b60408051600160a060020a039092168252519081900360200190f35b34801561027a57600080fd5b506102926004803590602480359081019101356109df565b6040805160208082528351818301528351919283929083019185019080838360005b838110156102cc5781810151838201526020016102b4565b50505050905090810190601f1680156102f95780820380516001836020036101000a031916815260200191505b509250505060405180910390f35b34801561031357600080fd5b50610292610ae2565b34801561032857600080fd5b50610340600160a060020a0360043516602435610b19565b005b34801561034e57600080fd5b50610252610b9b565b34801561036357600080fd5b5061036c610baa565b60408051918252519081900360200190f35b34801561038a57600080fd5b50610229600435610bb4565b3480156103a257600080fd5b50610340600160a060020a0360043516610bfe565b3480156103c357600080fd5b50610252610ccc565b3480156103d857600080fd5b50610340600160a060020a0360043581169060243516604435610cdb565b34801561040257600080fd5b50610340600160a060020a0360043516610d57565b34801561042357600080fd5b50610340600160a060020a0360043516610da5565b34801561044457600080fd5b50610340610df3565b34801561045957600080fd5b50610252600435610e42565b34801561047157600080fd5b50610229600435602435610e5d565b34801561048c57600080fd5b50610340600435610edd565b3480156104a457600080fd5b50610340600160a060020a0360043516602435610ef9565b3480156104c857600080fd5b50610340600160a060020a0360043516610f53565b3480156104e957600080fd5b50610252600435610fa1565b34801561050157600080fd5b50610229610fbc565b34801561051657600080fd5b50610252600435610fcc565b34801561052e57600080fd5b5061036c600160a060020a0360043516610ff0565b34801561054f57600080fd5b5061036c61100b565b34801561056457600080fd5b50610252611011565b34801561057957600080fd5b50610340611020565b34801561058e57600080fd5b506105a3600160a060020a03600435166110a0565b60408051602080825283518183015283519192839290830191858101910280838360005b838110156105df5781810151838201526020016105c7565b505050509050019250505060405180910390f35b3480156105ff57600080fd5b5061036c600435611172565b34801561061757600080fd5b506102926114a3565b34801561062c57600080fd5b506106386004356114da565b6040805163ffffffff9092168252519081900360200190f35b34801561065d57600080fd5b50610340600160a060020a0360043516602435611507565b34801561068157600080fd5b506102526115a3565b34801561069657600080fd5b5061036c6115b2565b3480156106ab57600080fd5b5061036c6115b8565b3480156106c057600080fd5b506102526115be565b3480156106d557600080fd5b506102526004356115cd565b3480156106ed57600080fd5b506102296004356115e8565b34801561070557600080fd5b50610340600160a060020a03600435166117b0565b34801561072657600080fd5b506102526117e9565b6103406004356024356117f8565b604080517f737570706f727473496e74657266616365286279746573342900000000000000815290519081900360190190206000907bffffffffffffffffffffffffffffffffffffffffffffffffffffffff19838116911614806109c85750604080517f746f6b656e4d657461646174612875696e743235362c737472696e67290000008152815190819003601d0181207f746f6b656e734f664f776e657228616464726573732900000000000000000000825282519182900360160182207f7472616e7366657246726f6d28616464726573732c616464726573732c75696e83527f7432353629000000000000000000000000000000000000000000000000000000602084015283519283900360250183207f7472616e7366657228616464726573732c75696e743235362900000000000000845284519384900360190184207f617070726f766528616464726573732c75696e74323536290000000000000000855285519485900360180185207f6f776e65724f662875696e743235362900000000000000000000000000000000865286519586900360100186207f62616c616e63654f662861646472657373290000000000000000000000000000875287519687900360120187207f746f74616c537570706c792829000000000000000000000000000000000000008852885197889003600d0188207f73796d626f6c2829000000000000000000000000000000000000000000000000895289519889900360080189207f6e616d65282900000000000000000000000000000000000000000000000000008a529951988990036006019098207bffffffffffffffffffffffffffffffffffffffffffffffffffffffff198c811691909a189098181818181818181891909116145b90505b919050565b600254600160a060020a031681565b60606109e96126af565b600e54600090600160a060020a03161515610a0357600080fd5b600e54604080517fcb4799f2000000000000000000000000000000000000000000000000000000008152600481018981526024820192835260448201889052600160a060020a039093169263cb4799f2928a928a928a929091606401848480828437820191505094505050505060a060405180830381600087803b158015610a8a57600080fd5b505af1158015610a9e573d6000803e3d6000fd5b505050506040513d601f19601f8201168201806040525060a0811015610ac357600080fd5b5060808101519092509050610ad88282611afe565b9695505050505050565b60408051808201909152601181527f52756d626c654c6567656e644265617374000000000000000000000000000000602082015281565b60035460a060020a900460ff1615610b3057600080fd5b610b3a3382611b52565b1515610b4557600080fd5b610b4f8183611b72565b60408051338152600160a060020a038416602082015280820183905290517f8c5be1e5ebec7d5bd14f71427d1e84f3dd0314c0f7b2291e5b200ac8c7c3b9259181900360600190a15050565b600154600160a060020a031681565b6007546000190190565b6000808211610bc257600080fd5b6007805483908110610bd057fe5b600091825260209091206007909102016003015468010000000000000000900463ffffffff16151592915050565b600154600090600160a060020a03163314610c1857600080fd5b81905080600160a060020a03166364b13bc96040518163ffffffff167c0100000000000000000000000000000000000000000000000000000000028152600401602060405180830381600087803b158015610c7257600080fd5b505af1158015610c86573d6000803e3d6000fd5b505050506040513d6020811015610c9c57600080fd5b50511515610ca957600080fd5b60118054600160a060020a031916600160a060020a039290921691909117905550565b600d54600160a060020a031681565b60035460a060020a900460ff1615610cf257600080fd5b600160a060020a0382161515610d0757600080fd5b600160a060020a038216301415610d1d57600080fd5b610d273382611ba0565b1515610d3257600080fd5b610d3c8382611b52565b1515610d4757600080fd5b610d52838383611bc0565b505050565b600154600160a060020a03163314610d6e57600080fd5b600160a060020a0381161515610d8357600080fd5b60018054600160a060020a031916600160a060020a0392909216919091179055565b600154600160a060020a03163314610dbc57600080fd5b600160a060020a0381161515610dd157600080fd5b60038054600160a060020a031916600160a060020a0392909216919091179055565b600154600160a060020a03163314610e0a57600080fd5b60035460a060020a900460ff161515610e2257600080fd5b6003805474ff000000000000000000000000000000000000000019169055565b600b60205260009081526040902054600160a060020a031681565b60008080808511610e6d57600080fd5b60008411610e7a57600080fd5b6007805486908110610e8857fe5b90600052602060002090600702019150600784815481101515610ea757fe5b90600052602060002090600702019050610ec382868387611ca2565b8015610ed45750610ed48486611e01565b95945050505050565b600354600160a060020a03163314610ef457600080fd5b600f55565b60035460a060020a900460ff1615610f1057600080fd5b610f1a3382611b52565b1515610f2557600080fd5b6000908152600b602052604090208054600160a060020a031916600160a060020a0392909216919091179055565b600154600160a060020a03163314610f6a57600080fd5b600160a060020a0381161515610f7f57600080fd5b60028054600160a060020a031916600160a060020a0392909216919091179055565b600860205260009081526040902054600160a060020a031681565b60035460a060020a900460ff1681565b600081815260086020526040902054600160a060020a03168015156109cb57600080fd5b600160a060020a031660009081526009602052604090205490565b60065481565b601154600160a060020a031681565b600354600160a060020a03163314806110435750600154600160a060020a031633145b806110585750600254600160a060020a031633145b151561106357600080fd5b60035460a060020a900460ff161561107a57600080fd5b6003805474ff0000000000000000000000000000000000000000191660a060020a179055565b60606000606060008060006110b487610ff0565b94508415156110d3576040805160008152602081019091529550611168565b846040519080825280602002602001820160405280156110fd578160200160208202803883390190505b509350611108610baa565b925060009150600190505b82811161116457600081815260086020526040902054600160a060020a038881169116141561115c5780848381518110151561114b57fe5b602090810290910101526001909101905b600101611113565b8395505b5050505050919050565b600080600080600080600080600360149054906101000a900460ff1615151561119a57600080fd5b600780548a9081106111a857fe5b600091825260209091206007909102016002810154909750608060020a900467ffffffffffffffff1615156111dc57600080fd5b60408051610220810182528854815260018901546020820152600289015467ffffffffffffffff808216938301939093526801000000000000000080820484166060840152608060020a82048416608084015260c060020a90910490921660a08201526003808a015463ffffffff80821660c08501526401000000008204811660e08501529381049093166101008084019190915261ffff6c0100000000000000000000000085048116610120850152607060020a90940490931661014083015260048a015461016083015260058a015460ff80821661018085015293810484166101a084015262010000810484166101c0840152611369938b926101e085019263010000009004909116908111156112f157fe5b60038111156112fc57fe5b81526040805160c0810182526006939093015460ff8082168552610100820481166020868101919091526201000083048216938601939093526301000000820481166060860152640100000000820481166080860152650100000000009091041660a08401520152611e56565b151561137457600080fd5b6003870154600780546801000000000000000090920463ffffffff169750908790811061139d57fe5b600091825260209091206003808a015460079093029091019081015490965061ffff607060020a9283900481169650919004168410156113ea576003850154607060020a900461ffff1693505b6113fa66038d7ea4c68000611e87565b60008a8152600860205260409020546003890154919450600160a060020a03169250611443908a9068010000000000000000900463ffffffff166001870161ffff168686611f1d565b6003880180546bffffffff00000000000000001916905560108054600019019055600f54604051919250339181156108fc0291906000818181858888f19350505050158015611496573d6000803e3d6000fd5b5098975050505050505050565b60408051808201909152600381527f524c420000000000000000000000000000000000000000000000000000000000602082015281565b600481600e81106114e757fe5b60089182820401919006600402915054906101000a900463ffffffff1681565b60035460a060020a900460ff161561151e57600080fd5b600160a060020a038216151561153357600080fd5b600160a060020a03821630141561154957600080fd5b600c54600160a060020a038381169116141561156457600080fd5b600d54600160a060020a038381169116141561157f57600080fd5b6115893382611b52565b151561159457600080fd5b61159f338383611bc0565b5050565b600354600160a060020a031681565b600f5481565b60105481565b600e54600160a060020a031681565b600a60205260009081526040902054600160a060020a031681565b6000808083116115f757600080fd5b600780548490811061160557fe5b60009182526020918290206040805161022081018252600790930290910180548352600181015493830193909352600283015467ffffffffffffffff808216928401929092526801000000000000000080820483166060850152608060020a82048316608085015260c060020a90910490911660a083015260038084015463ffffffff80821660c08601526401000000008204811660e08601529281049092166101008085019190915261ffff6c0100000000000000000000000084048116610120860152607060020a9093049092166101408401526004840154610160840152600584015460ff80821661018086015292810483166101a085015262010000810483166101c08501529394506117a99385926101e08501926301000000909204169081111561173157fe5b600381111561173c57fe5b81526040805160c0810182526006939093015460ff8082168552610100820481166020868101919091526201000083048216938601939093526301000000820481166060860152640100000000820481166080860152650100000000009091041660a0840152015261242f565b9392505050565b600154600160a060020a031633146117c757600080fd5b600e8054600160a060020a031916600160a060020a0392909216919091179055565b600c54600160a060020a031681565b600354600090819060a060020a900460ff161561181457600080fd5b600f5434101561182357600080fd5b61182d3385611b52565b151561183857600080fd5b6118428385611e01565b151561184d57600080fd5b600780548590811061185b57fe5b60009182526020918290206040805161022081018252600790930290910180548352600181015493830193909352600283015467ffffffffffffffff808216928401929092526801000000000000000080820483166060850152608060020a82048316608085015260c060020a90910490911660a083015260038084015463ffffffff80821660c08601526401000000008204811660e08601529281049092166101008085019190915261ffff6c0100000000000000000000000084048116610120860152607060020a9093049092166101408401526004840154610160840152600584015460ff80821661018086015292810483166101a085015262010000810483166101c08501529395506119879386926101e08501926301000000909204169081111561173157fe5b151561199257600080fd5b60078054849081106119a057fe5b60009182526020918290206040805161022081018252600790930290910180548352600181015493830193909352600283015467ffffffffffffffff808216928401929092526801000000000000000080820483166060850152608060020a82048316608085015260c060020a90910490911660a083015260038084015463ffffffff80821660c08601526401000000008204811660e08601529281049092166101008085019190915261ffff6c0100000000000000000000000084048116610120860152607060020a9093049092166101408401526004840154610160840152600584015460ff80821661018086015292810483166101a085015262010000810483166101c0850152939450611acc9385926101e08501926301000000909204169081111561173157fe5b1515611ad757600080fd5b611ae382858386611ca2565b1515611aee57600080fd5b611af8848461245f565b50505050565b606080600080846040519080825280601f01601f191660200182016040528015611b32578160200160208202803883390190505b5092505060208201905084611b4882828761258c565b5090949350505050565b600090815260086020526040902054600160a060020a0391821691161490565b6000918252600a60205260409091208054600160a060020a031916600160a060020a03909216919091179055565b6000908152600a6020526040902054600160a060020a0391821691161490565b600160a060020a03808316600081815260096020908152604080832080546001019055858352600890915290208054600160a060020a0319169091179055831615611c5357600160a060020a03831660009081526009602090815260408083208054600019019055838352600b82528083208054600160a060020a0319908116909155600a909252909120805490911690555b60408051600160a060020a0380861682528416602082015280820183905290517fddf252ad1be2c89b69c2b068fc378daa952ba7f163c4a11628f55a4df523b3ef9181900360600190a1505050565b600081841415611cb457506000611df9565b6003850154640100000000900463ffffffff16821480611cdd5750600385015463ffffffff1682145b15611cea57506000611df9565b6003830154640100000000900463ffffffff16841480611d135750600383015463ffffffff1684145b15611d2057506000611df9565b6003830154640100000000900463ffffffff161580611d4f57506003850154640100000000900463ffffffff16155b15611d5c57506001611df9565b600385810154908401546401000000009182900463ffffffff90811692909104161480611da2575060038086015490840154640100000000900463ffffffff9081169116145b15611daf57506000611df9565b6003808601549084015463ffffffff908116640100000000909204161480611de857506003808601549084015463ffffffff9081169116145b15611df557506000611df9565b5060015b949350505050565b6000818152600860205260408082205484835290822054600160a060020a03918216911680821480610ed457506000858152600b6020526040902054600160a060020a03908116908316149250505092915050565b600081610100015163ffffffff166000141580156109c857505060a0015167ffffffffffffffff4381169116111590565b6000611e916126ce565b681020846100000000008152681020886100000000006020808301919091526810208c610000000000604080840191909152681020906100000000006060840152670688211840000000608084015267068822184000000060a08401528051428152905190819003909101902081906005900660010160088110611f1157fe5b60200201519392505050565b6000611f276126ee565b600063ffffffff88168814611f3b57600080fd5b63ffffffff87168714611f4d57600080fd5b61ffff86168614611f5d57600080fd5b6040805161022081018252600080825260208201889052918101829052606081018290524267ffffffffffffffff16608082015260a0810182905263ffffffff808a1660c08301528a1660e08201526101008101829052610120810182905261ffff8816610140820152610160810182905260016101808201526101a081018290526101c08101829052906101e082019081526040805160c08082018352600180835260208084018290528385018290526060808501839052608080860184905260a0808701859052978301959095526007805480850180835560008390528a517fa66cc928b5edb82af9bd49922954155ab7b0942694bea4ce44661d9a8736c68892909302918201928355938a01517fa66cc928b5edb82af9bd49922954155ab7b0942694bea4ce44661d9a8736c689820155968901517fa66cc928b5edb82af9bd49922954155ab7b0942694bea4ce44661d9a8736c68a88018054938b0151978b0151998b015167ffffffffffffffff1990941667ffffffffffffffff928316176fffffffffffffffff000000000000000019166801000000000000000098831689021777ffffffffffffffff000000000000000000000000000000001916608060020a9a83169a909a029990991777ffffffffffffffffffffffffffffffffffffffffffffffff1660c060020a919093160291909117909655918601517fa66cc928b5edb82af9bd49922954155ab7b0942694bea4ce44661d9a8736c68b8501805460e0890151610100808b01516101208c01516101408d015163ffffffff1990951663ffffffff9788161767ffffffff00000000191664010000000094881694909402939093176bffffffff000000000000000019169516909702939093176dffff00000000000000000000000019166c0100000000000000000000000061ffff94851602176fffff00000000000000000000000000001916607060020a93909116929092029190911790556101608601517fa66cc928b5edb82af9bd49922954155ab7b0942694bea4ce44661d9a8736c68c8501556101808601517fa66cc928b5edb82af9bd49922954155ab7b0942694bea4ce44661d9a8736c68d90940180546101a08801516101c089015160ff1990921660ff9788161761ff0019169087169095029490941762ff00001916620100009590941694909402929092178084556101e0860151959750919490938793909263ff000000191663010000008360038111156122ec57fe5b02179055506102009190910151805160069092018054602083015160408401516060850151608086015160a09096015160ff1990941660ff9788161761ff001916610100938816939093029290921762ff0000191662010000918716919091021763ff00000019166301000000918616919091021764ff000000001916640100000000938516939093029290921765ff0000000000191665010000000000939092169290920217905503905063ffffffff811681146123aa57600080fd5b60e082015160c083015160208085015160408051600160a060020a038a16815292830186905263ffffffff948516838201529290931660608201526080810192909252517f0a5311bd2a6608f08a180df2ee7c5946819a649b204b554bb8e39825b2c50ad59181900360a00190a161242460008583611bc0565b979650505050505050565b600081610100015163ffffffff1660001480156109c857505060a0015167ffffffffffffffff4381169116111590565b60008060078381548110151561247157fe5b9060005260206000209060070201915060078481548110151561249057fe5b600091825260209091206007909102016003810180546bffffffff000000000000000019166801000000000000000063ffffffff87160217905590506124d5826125d0565b6124de816125d0565b6000848152600b602090815260408083208054600160a060020a03199081169091558684528184208054909116905560108054600101905586835260088252918290205460028401548351600160a060020a03909216825291810187905280830186905260c060020a90910467ffffffffffffffff16606082015290517f241ea03ca20251805084d27d4440371c34a0b85ff108f6bb5611248f73818b80916080908290030190a150505050565b60005b602082106125b1578251845260209384019390920191601f199091019061258f565b50905182516020929092036101000a6000190180199091169116179052565b60065460038201544391906004906c01000000000000000000000000900461ffff16600e81106125fc57fe5b600891828204019190066004029054906101000a900463ffffffff1663ffffffff1681151561262757fe5b04018160020160186101000a81548167ffffffffffffffff021916908367ffffffffffffffff160217905550600d81600301600c9054906101000a900461ffff1661ffff1610156126ac5760038101805461ffff6c010000000000000000000000008083048216600101909116026dffff000000000000000000000000199091161790555b50565b6080604051908101604052806004906020820280388339509192915050565b610100604051908101604052806008906020820280388339509192915050565b604080516102c081018252600080825260208201819052918101829052606081018290526080810182905260a0810182905260c0810182905260e08101829052610100810182905261012081018290526101408101829052610160810182905261018081018290526101a081018290526101c08101829052906101e0820190815260200161277a61277f565b905290565b6040805160c081018252600080825260208201819052918101829052606081018290526080810182905260a0810191909152905600a165627a7a72305820f8b56c8cea679b1537860350e7932939c5b1aaa502629662f398ad9508536c240029",
  "source": "pragma solidity ^0.4.24;\n\nimport \"./BeastOwnership.sol\";\nimport \"./interface/GeneMagicInterface.sol\";\nimport \"./util/Random.sol\";\n\ncontract BeastBreeding is Random, BeastOwnership {\n\n    /// @dev The Pregnant event is fired when two beast successfully breed and the pregnancy\n    ///  timer begins for the matron.\n    event Pregnant(address owner, uint256 matronId, uint256 sireId, uint256 cooldownEndBlock);\n\n    /// @notice The minimum payment required to use breedWithAuto(). This fee goes towards\n    ///  the gas cost paid by whatever calls giveBirth(), and can be dynamically updated by\n    ///  the COO role as the gas price changes.\n    uint256 public autoBirthFee = 2 finney;\n\n    // Keeps track of number of pregnant beasts.\n    uint256 public pregnantBeasts;\n\n    /// @dev The address of the sibling contract that is used to implement the sooper-sekret\n    ///  genetic combination algorithm.\n    GeneMagicInterface public geneMagic;\n\n    /// @dev Update the address of the genetic contract, can only be called by the CEO.\n    /// @param _address An address of a GeneMagic contract instance to be used from this point forward.\n    function setGeneMagicAddress(address _address) external onlyCEO {\n        GeneMagicInterface candidateContract = GeneMagicInterface(_address);\n\n        // NOTE: verify that a contract is what we expect - https://github.com/Lunyr/crowdsale-contracts/blob/cfadd15986c30521d8ba7d5b6f57b4fefcc7ac38/contracts/LunyrToken.sol#L117\n        require(candidateContract.isGeneMagic());\n\n        // Set the new contract address\n        geneMagic = candidateContract;\n    }\n\n    /// @dev Checks that a given beast is able to breed. Requires that the\n    ///  current cooldown is finished (for sires) and also checks that there is\n    ///  no pending pregnancy.\n    function _isReadyToBreed(Beast _beast) internal view returns (bool) {\n        // In addition to checking the cooldownEndBlock, we also need to check to see if\n        // the beast has a pending birth; there can be some period of time between the end\n        // of the pregnacy timer and the birth event.\n        return (_beast.siringWithId == 0) && (_beast.cooldownEndBlock <= uint64(block.number));\n    }\n\n    /// @dev Check if a sire has authorized breeding with this matron. True if both sire\n    ///  and matron have the same owner, or if the sire has given siring permission to\n    ///  the matron's owner (via approveSiring()).\n    function _isSiringPermitted(uint256 _sireId, uint256 _matronId) internal view returns (bool) {\n        address matronOwner = beastIndexToOwner[_matronId];\n        address sireOwner = beastIndexToOwner[_sireId];\n\n        // Siring is okay if they have same owner, or if the matron's owner was given\n        // permission to breed with this sire.\n        return (matronOwner == sireOwner || sireAllowedToAddress[_sireId] == matronOwner);\n    }\n\n    /// @dev Set the cooldownEndTime for the given Beast, based on its current cooldownIndex.\n    ///  Also increments the cooldownIndex (unless it has hit the cap).\n    /// @param _beast A reference to the Beast in storage which needs its timer started.\n    function _triggerCooldown(Beast storage _beast) internal {\n        // Compute an estimation of the cooldown time in blocks (based on current cooldownIndex).\n        _beast.cooldownEndBlock = uint64((cooldowns[_beast.cooldownIndex]/secondsPerBlock) + block.number);\n\n        // Increment the breeding count, clamping it at 13, which is the length of the\n        // cooldowns array. We could check the array size dynamically, but hard-coding\n        // this as a constant saves gas. Yay, Solidity!\n        if (_beast.cooldownIndex < 13) {\n            _beast.cooldownIndex += 1;\n        }\n    }\n\n    /// @notice Grants approval to another user to sire with one of your Beasts.\n    /// @param _addr The address that will be able to sire with your Beast. Set to\n    ///  address(0) to clear all siring approvals for this Beast.\n    /// @param _sireId A Beast that you own that _addr will now be able to sire with.\n    function approveSiring(address _addr, uint256 _sireId)\n        external\n        whenNotPaused\n    {\n        require(_owns(msg.sender, _sireId));\n        sireAllowedToAddress[_sireId] = _addr;\n    }\n\n    /// @dev Updates the minimum payment required for calling giveBirthAuto(). Can only\n    ///  be called by the COO address. (This fee is used to offset the gas cost incurred\n    ///  by the autobirth daemon).\n    function setAutoBirthFee(uint256 val) external onlyCOO {\n        autoBirthFee = val;\n    }\n\n    /// @dev Checks to see if a given Beast is pregnant and (if so) if the gestation\n    ///  period has passed.\n    function _isReadyToGiveBirth(Beast _matron) private view returns (bool) {\n        return (_matron.siringWithId != 0) && (_matron.cooldownEndBlock <= uint64(block.number));\n    }\n\n    /// @notice Checks that a given beast is able to breed (i.e. it is not pregnant or\n    ///  in the middle of a siring cooldown).\n    /// @param _beastId reference the id of the beast, any user can inquire about it\n    function isReadyToBreed(uint256 _beastId)\n        public\n        view\n        returns (bool)\n    {\n        require(_beastId > 0);\n        Beast storage bst = beasts[_beastId];\n        return _isReadyToBreed(bst);\n    }\n\n    /// @dev Checks whether a beast is currently pregnant.\n    /// @param _beastId reference the id of the beast, any user can inquire about it\n    function isPregnant(uint256 _beastId)\n        public\n        view\n        returns (bool)\n    {\n        require(_beastId > 0);\n        // A beast is pregnant if and only if this field is set\n        return beasts[_beastId].siringWithId != 0;\n    }\n\n    /// @dev Internal check to see if a given sire and matron are a valid mating pair. DOES NOT\n    ///  check ownership permissions (that is up to the caller).\n    /// @param _matron A reference to the Beast struct of the potential matron.\n    /// @param _matronId The matron's ID.\n    /// @param _sire A reference to the Beast struct of the potential sire.\n    /// @param _sireId The sire's ID\n    function _isValidMatingPair(\n        Beast storage _matron,\n        uint256 _matronId,\n        Beast storage _sire,\n        uint256 _sireId\n    )\n        private\n        view\n        returns(bool)\n    {\n        // A Beast can't breed with itself!\n        if (_matronId == _sireId) {\n            return false;\n        }\n\n        // Beasts can't breed with their parents.\n        if (_matron.matronId == _sireId || _matron.sireId == _sireId) {\n            return false;\n        }\n        if (_sire.matronId == _matronId || _sire.sireId == _matronId) {\n            return false;\n        }\n\n        // We can short circuit the sibling check (below) if either beast is\n        // gen zero (has a matron ID of zero).\n        if (_sire.matronId == 0 || _matron.matronId == 0) {\n            return true;\n        }\n\n        // Beasts can't breed with full or half siblings.\n        if (_sire.matronId == _matron.matronId || _sire.matronId == _matron.sireId) {\n            return false;\n        }\n        if (_sire.sireId == _matron.matronId || _sire.sireId == _matron.sireId) {\n            return false;\n        }\n\n        // Everything seems cool! Let's get DTF.\n        return true;\n    }\n\n    /// @dev Internal check to see if a given sire and matron are a valid mating pair for\n    ///  breeding via auction (i.e. skips ownership and siring approval checks).\n    function _canBreedWithViaAuction(uint256 _matronId, uint256 _sireId)\n        internal\n        view\n        returns (bool)\n    {\n        Beast storage matron = beasts[_matronId];\n        Beast storage sire = beasts[_sireId];\n        return _isValidMatingPair(matron, _matronId, sire, _sireId);\n    }\n\n    /// @notice Checks to see if two beasts can breed together, including checks for\n    ///  ownership and siring approvals. Does NOT check that both beasts are ready for\n    ///  breeding (i.e. breedWith could still fail until the cooldowns are finished).\n    ///  TODO: Shouldn't this check pregnancy and cooldowns?!?\n    /// @param _matronId The ID of the proposed matron.\n    /// @param _sireId The ID of the proposed sire.\n    function canBreedWith(uint256 _matronId, uint256 _sireId)\n        external\n        view\n        returns(bool)\n    {\n        require(_matronId > 0);\n        require(_sireId > 0);\n        Beast storage matron = beasts[_matronId];\n        Beast storage sire = beasts[_sireId];\n        return _isValidMatingPair(matron, _matronId, sire, _sireId) &&\n            _isSiringPermitted(_sireId, _matronId);\n    }\n\n    /// @dev Internal utility function to initiate breeding, assumes that all breeding\n    ///  requirements have been checked.\n    function _breedWith(uint256 _matronId, uint256 _sireId) internal {\n        // Grab a reference to the Beasts from storage.\n        Beast storage sire = beasts[_sireId];\n        Beast storage matron = beasts[_matronId];\n\n        // Mark the matron as pregnant, keeping track of who the sire is.\n        matron.siringWithId = uint32(_sireId);\n\n        // Trigger the cooldown for both parents.\n        _triggerCooldown(sire);\n        _triggerCooldown(matron);\n\n        // Clear siring permission for both parents. This may not be strictly necessary\n        // but it's likely to avoid confusion!\n        delete sireAllowedToAddress[_matronId];\n        delete sireAllowedToAddress[_sireId];\n\n        // Every time a beast gets pregnant, counter is incremented.\n        pregnantBeasts++;\n\n        // Emit the pregnancy event.\n        Pregnant(beastIndexToOwner[_matronId], _matronId, _sireId, matron.cooldownEndBlock);\n    }\n\n    /// @notice Breed a Beast you own (as matron) with a sire that you own, or for which you\n    ///  have previously been given Siring approval. Will either make your beast pregnant, or will\n    ///  fail entirely. Requires a pre-payment of the fee given out to the first caller of giveBirth()\n    /// @param _matronId The ID of the Beast acting as matron (will end up pregnant if successful)\n    /// @param _sireId The ID of the Beast acting as sire (will begin its siring cooldown if successful)\n    function breedWithAuto(uint256 _matronId, uint256 _sireId)\n        external\n        payable\n        whenNotPaused\n    {\n        // Checks for payment.\n        require(msg.value >= autoBirthFee);\n\n        // Caller must own the matron.\n        require(_owns(msg.sender, _matronId));\n\n        // Neither sire nor matron are allowed to be on auction during a normal\n        // breeding operation, but we don't need to check that explicitly.\n        // For matron: The caller of this function can't be the owner of the matron\n        //   because the owner of a Beast on auction is the auction house, and the\n        //   auction house will never call breedWith().\n        // For sire: Similarly, a sire on auction will be owned by the auction house\n        //   and the act of transferring ownership will have cleared any oustanding\n        //   siring approval.\n        // Thus we don't need to spend gas explicitly checking to see if either beast\n        // is on auction.\n\n        // Check that matron and sire are both owned by caller, or that the sire\n        // has given siring permission to caller (i.e. matron's owner).\n        // Will fail for _sireId = 0\n        require(_isSiringPermitted(_sireId, _matronId));\n\n        // Grab a reference to the potential matron\n        Beast storage matron = beasts[_matronId];\n\n        // Make sure matron isn't pregnant, or in the middle of a siring cooldown\n        require(_isReadyToBreed(matron));\n\n        // Grab a reference to the potential sire\n        Beast storage sire = beasts[_sireId];\n\n        // Make sure sire isn't pregnant, or in the middle of a siring cooldown\n        require(_isReadyToBreed(sire));\n\n        // Test that these cats are a valid mating pair.\n        require(_isValidMatingPair(matron, _matronId, sire, _sireId));\n\n        // All checks passed, beast gets pregnant!\n        _breedWith(_matronId, _sireId);\n    }\n\n    /// @notice Have a pregnant Beast give birth!\n    /// @param _matronId A Beast ready to give birth.\n    /// @return The Beast ID of the new beast.\n    /// @dev Looks at a given Beast and, if pregnant and if the gestation period has passed,\n    ///  combines the genes of the two parents to create a new beast. The new Beast is assigned\n    ///  to the current owner of the matron. Upon successful completion, both the matron and the\n    ///  new beast will be ready to breed again. Note that anyone can call this function (if they\n    ///  are willing to pay the gas!), but the new beast always goes to the mother's owner.\n    function giveBirth(uint256 _matronId)\n        external\n        whenNotPaused\n        returns(uint256)\n    {\n        // Grab a reference to the matron in storage.\n        Beast storage matron = beasts[_matronId];\n\n        // Check that the matron is a valid cat.\n        require(matron.birthTime != 0);\n\n        // Check that the matron is pregnant, and that its time has come!\n        require(_isReadyToGiveBirth(matron));\n\n        // Grab a reference to the sire in storage.\n        uint256 sireId = matron.siringWithId;\n        Beast storage sire = beasts[sireId];\n\n        // Determine the higher generation number of the two parents\n        uint16 parentGen = matron.generation;\n        if (sire.generation > matron.generation) {\n            parentGen = sire.generation;\n        }\n\n        // Call the sooper-sekret gene mixing operation.\n        //uint256 childGenes = geneScience.mixGenes(matron.genes, sire.genes, matron.cooldownEndBlock - 1);\n        uint256 childGenes = random(1000000000000000);\n\n        // Make the new beast!\n        address owner = beastIndexToOwner[_matronId];\n        uint256 beastId = _createBeast(_matronId, matron.siringWithId, parentGen + 1, childGenes, owner);\n\n        // Clear the reference to sire from the matron (REQUIRED! Having siringWithId\n        // set is what marks a matron as being pregnant.)\n        delete matron.siringWithId;\n\n        // Every time a beast gives birth counter is decremented.\n        pregnantBeasts--;\n\n        // Send the balance fee to the person who made birth happen.\n        msg.sender.transfer(autoBirthFee);\n\n        // return the new beast's ID\n        return beastId;\n    }\n}\n",
  "sourcePath": "/Users/jonathanaraneda/BlockchainProjects/unicornsvsdinosaurs-smartcontracts/contracts/BeastBreeding.sol",
  "compiler": {
    "name": "solc",
    "version": "0.4.24+commit.e67f0147.Emscripten.clang"
  },
  "schemaVersion": "2.0.1",
  "updatedAt": "2018-08-03T01:48:24.068Z"
}