{
  "contractName": "BeastAttributes",
  "abi": [
    {
      "constant": true,
      "inputs": [],
      "name": "cfoAddress",
      "outputs": [
        {
          "name": "",
          "type": "address"
        }
      ],
      "payable": false,
      "stateMutability": "view",
      "type": "function"
    },
    {
      "constant": true,
      "inputs": [],
      "name": "ceoAddress",
      "outputs": [
        {
          "name": "",
          "type": "address"
        }
      ],
      "payable": false,
      "stateMutability": "view",
      "type": "function"
    },
    {
      "constant": true,
      "inputs": [],
      "name": "siringAuction",
      "outputs": [
        {
          "name": "",
          "type": "address"
        }
      ],
      "payable": false,
      "stateMutability": "view",
      "type": "function"
    },
    {
      "constant": false,
      "inputs": [
        {
          "name": "_newCEO",
          "type": "address"
        }
      ],
      "name": "setCEO",
      "outputs": [],
      "payable": false,
      "stateMutability": "nonpayable",
      "type": "function"
    },
    {
      "constant": false,
      "inputs": [
        {
          "name": "_newCOO",
          "type": "address"
        }
      ],
      "name": "setCOO",
      "outputs": [],
      "payable": false,
      "stateMutability": "nonpayable",
      "type": "function"
    },
    {
      "constant": false,
      "inputs": [],
      "name": "unpause",
      "outputs": [],
      "payable": false,
      "stateMutability": "nonpayable",
      "type": "function"
    },
    {
      "constant": true,
      "inputs": [
        {
          "name": "",
          "type": "uint256"
        }
      ],
      "name": "sireAllowedToAddress",
      "outputs": [
        {
          "name": "",
          "type": "address"
        }
      ],
      "payable": false,
      "stateMutability": "view",
      "type": "function"
    },
    {
      "constant": false,
      "inputs": [
        {
          "name": "_newCFO",
          "type": "address"
        }
      ],
      "name": "setCFO",
      "outputs": [],
      "payable": false,
      "stateMutability": "nonpayable",
      "type": "function"
    },
    {
      "constant": true,
      "inputs": [
        {
          "name": "",
          "type": "uint256"
        }
      ],
      "name": "beastIndexToOwner",
      "outputs": [
        {
          "name": "",
          "type": "address"
        }
      ],
      "payable": false,
      "stateMutability": "view",
      "type": "function"
    },
    {
      "constant": true,
      "inputs": [],
      "name": "paused",
      "outputs": [
        {
          "name": "",
          "type": "bool"
        }
      ],
      "payable": false,
      "stateMutability": "view",
      "type": "function"
    },
    {
      "constant": true,
      "inputs": [],
      "name": "secondsPerBlock",
      "outputs": [
        {
          "name": "",
          "type": "uint256"
        }
      ],
      "payable": false,
      "stateMutability": "view",
      "type": "function"
    },
    {
      "constant": false,
      "inputs": [],
      "name": "pause",
      "outputs": [],
      "payable": false,
      "stateMutability": "nonpayable",
      "type": "function"
    },
    {
      "constant": true,
      "inputs": [
        {
          "name": "",
          "type": "uint256"
        }
      ],
      "name": "cooldowns",
      "outputs": [
        {
          "name": "",
          "type": "uint32"
        }
      ],
      "payable": false,
      "stateMutability": "view",
      "type": "function"
    },
    {
      "constant": true,
      "inputs": [
        {
          "name": "",
          "type": "uint256"
        }
      ],
      "name": "experienceRequiredForLevel",
      "outputs": [
        {
          "name": "",
          "type": "uint256"
        }
      ],
      "payable": false,
      "stateMutability": "view",
      "type": "function"
    },
    {
      "constant": true,
      "inputs": [],
      "name": "cooAddress",
      "outputs": [
        {
          "name": "",
          "type": "address"
        }
      ],
      "payable": false,
      "stateMutability": "view",
      "type": "function"
    },
    {
      "constant": true,
      "inputs": [
        {
          "name": "",
          "type": "uint256"
        }
      ],
      "name": "beastIndexToApproved",
      "outputs": [
        {
          "name": "",
          "type": "address"
        }
      ],
      "payable": false,
      "stateMutability": "view",
      "type": "function"
    },
    {
      "constant": true,
      "inputs": [],
      "name": "saleAuction",
      "outputs": [
        {
          "name": "",
          "type": "address"
        }
      ],
      "payable": false,
      "stateMutability": "view",
      "type": "function"
    },
    {
      "anonymous": false,
      "inputs": [
        {
          "indexed": false,
          "name": "_beastID",
          "type": "uint256"
        },
        {
          "indexed": false,
          "name": "_from",
          "type": "uint256"
        },
        {
          "indexed": false,
          "name": "_to",
          "type": "uint256"
        }
      ],
      "name": "Level",
      "type": "event"
    },
    {
      "anonymous": false,
      "inputs": [
        {
          "indexed": false,
          "name": "_beastID",
          "type": "uint256"
        },
        {
          "indexed": false,
          "name": "_from",
          "type": "uint256"
        },
        {
          "indexed": false,
          "name": "_to",
          "type": "uint256"
        }
      ],
      "name": "ChangePreferedAttribute",
      "type": "event"
    },
    {
      "anonymous": false,
      "inputs": [
        {
          "indexed": false,
          "name": "owner",
          "type": "address"
        },
        {
          "indexed": false,
          "name": "beastId",
          "type": "uint256"
        },
        {
          "indexed": false,
          "name": "matronId",
          "type": "uint256"
        },
        {
          "indexed": false,
          "name": "sireId",
          "type": "uint256"
        },
        {
          "indexed": false,
          "name": "genes",
          "type": "uint256"
        }
      ],
      "name": "Birth",
      "type": "event"
    },
    {
      "anonymous": false,
      "inputs": [
        {
          "indexed": false,
          "name": "from",
          "type": "address"
        },
        {
          "indexed": false,
          "name": "to",
          "type": "address"
        },
        {
          "indexed": false,
          "name": "tokenId",
          "type": "uint256"
        }
      ],
      "name": "Transfer",
      "type": "event"
    },
    {
      "anonymous": false,
      "inputs": [
        {
          "indexed": false,
          "name": "newContract",
          "type": "address"
        }
      ],
      "name": "ContractUpgrade",
      "type": "event"
    },
    {
      "constant": false,
      "inputs": [
        {
          "name": "_attributeID",
          "type": "uint256"
        },
        {
          "name": "_tokenId",
          "type": "uint256"
        }
      ],
      "name": "skillValue",
      "outputs": [
        {
          "name": "",
          "type": "uint256"
        }
      ],
      "payable": false,
      "stateMutability": "nonpayable",
      "type": "function"
    },
    {
      "constant": false,
      "inputs": [
        {
          "name": "_tokenId",
          "type": "uint256"
        },
        {
          "name": "_preferedAttribute",
          "type": "uint256"
        }
      ],
      "name": "changePreferedAttribute",
      "outputs": [],
      "payable": false,
      "stateMutability": "nonpayable",
      "type": "function"
    }
  ],
  "bytecode": "0x6002805460a060020a60ff0219169055610240604052603c6080908152607860a05261012c60c05261025860e05261070861010052610e1061012052611c2061014052613840610160526170806101805261e1006101a052620151806101c0526202a3006101e052620546006102005262093a806102205261008590600390600e610157565b50600f60055561028060405190810160405280600281526020016004815260200160088152602001601081526020016020815260200160408152602001608081526020016101008152602001610200815260200161040081526020016108008152602001611000815260200161200081526020016140008152602001618000815260200162010000815260200162020000815260200162040000815260200162080000815260200162100000815250600d9060146101449291906101f3565b5034801561015157600080fd5b5061026b565b6002830191839082156101e35791602002820160005b838211156101b157835183826101000a81548163ffffffff021916908363ffffffff160217905550926020019260040160208160030104928301926001030261016d565b80156101e15782816101000a81549063ffffffff02191690556004016020816003010492830192600103026101b1565b505b506101ef92915061022d565b5090565b8260148101928215610221579160200282015b82811115610221578251825591602001919060010190610206565b506101ef929150610251565b61024e91905b808211156101ef57805463ffffffff19168155600101610233565b90565b61024e91905b808211156101ef5760008155600101610257565b6108338061027a6000396000f3006080604052600436106101065763ffffffff7c01000000000000000000000000000000000000000000000000000000006000350416630519ce79811461010b5780630a0f81681461013c57806321717ebf14610151578063269587621461016657806327d7874c146101835780632ba73c15146101a45780633f4ba83a146101c557806346116e6f146101da5780634e0a3379146101f25780635318673f146102135780635c975abb1461022b5780637a7d4937146102545780638456cb591461027b57806384e7bced146102905780639d6fac6f146102ab5780639fe2d38e146102dc578063b047fb50146102f4578063d11dffee14610309578063e6cbe35114610321575b600080fd5b34801561011757600080fd5b50610120610336565b60408051600160a060020a039092168252519081900360200190f35b34801561014857600080fd5b50610120610345565b34801561015d57600080fd5b50610120610354565b34801561017257600080fd5b50610181600435602435610363565b005b34801561018f57600080fd5b50610181600160a060020a0360043516610445565b3480156101b057600080fd5b50610181600160a060020a03600435166104a0565b3480156101d157600080fd5b506101816104fb565b3480156101e657600080fd5b5061012060043561055b565b3480156101fe57600080fd5b50610181600160a060020a0360043516610576565b34801561021f57600080fd5b506101206004356105d1565b34801561023757600080fd5b506102406105ec565b604080519115158252519081900360200190f35b34801561026057600080fd5b5061026961060d565b60408051918252519081900360200190f35b34801561028757600080fd5b50610181610613565b34801561029c57600080fd5b506102696004356024356106b5565b3480156102b757600080fd5b506102c360043561078d565b6040805163ffffffff9092168252519081900360200190f35b3480156102e857600080fd5b506102696004356107ba565b34801561030057600080fd5b506101206107ce565b34801561031557600080fd5b506101206004356107dd565b34801561032d57600080fd5b506101206107f8565b600154600160a060020a031681565b600054600160a060020a031681565b600c54600160a060020a031681565b600082815260076020526040812054600160a060020a0316331461038657600080fd5b600680548490811061039457fe5b600091825260209091206007909102016005810154909150610100900460ff168214156103c057600080fd5b6006821115806103d05750600082115b15156103db57600080fd5b60058101546040805185815261010090920460ff166020830152818101849052517f368917926b356ef47c1806e6230225cf52dd5084a923f2c5321a5c5aac5f720a916060908290030190a1600501805460ff9092166101000261ff001990921691909117905550565b600054600160a060020a0316331461045c57600080fd5b600160a060020a038116151561047157600080fd5b6000805473ffffffffffffffffffffffffffffffffffffffff1916600160a060020a0392909216919091179055565b600054600160a060020a031633146104b757600080fd5b600160a060020a03811615156104cc57600080fd5b6002805473ffffffffffffffffffffffffffffffffffffffff1916600160a060020a0392909216919091179055565b600054600160a060020a0316331461051257600080fd5b60025474010000000000000000000000000000000000000000900460ff16151561053b57600080fd5b6002805474ff000000000000000000000000000000000000000019169055565b600a60205260009081526040902054600160a060020a031681565b600054600160a060020a0316331461058d57600080fd5b600160a060020a03811615156105a257600080fd5b6001805473ffffffffffffffffffffffffffffffffffffffff1916600160a060020a0392909216919091179055565b600760205260009081526040902054600160a060020a031681565b60025474010000000000000000000000000000000000000000900460ff1681565b60055481565b600254600160a060020a03163314806106365750600054600160a060020a031633145b8061064b5750600154600160a060020a031633145b151561065657600080fd5b60025474010000000000000000000000000000000000000000900460ff161561067e57600080fd5b6002805474ff0000000000000000000000000000000000000000191674010000000000000000000000000000000000000000179055565b6000806006838154811015156106c757fe5b9060005260206000209060070201905083600114156106ef57600681015460ff169150610786565b836002141561070c576006810154610100900460ff169150610786565b836003141561072a57600681015462010000900460ff169150610786565b83600414156107495760068101546301000000900460ff169150610786565b8360051415610769576006810154640100000000900460ff169150610786565b836006141561078657600681015465010000000000900460ff1691505b5092915050565b600381600e811061079a57fe5b60089182820401919006600402915054906101000a900463ffffffff1681565b600d81601481106107c757fe5b0154905081565b600254600160a060020a031681565b600960205260009081526040902054600160a060020a031681565b600b54600160a060020a0316815600a165627a7a72305820849a39ca94c5b449de33fd146aeff32edfe81c0a9b79a91132399ac1d7970a4b0029",
  "source": "pragma solidity ^0.4.24;\n\nimport \"./BeastBase.sol\";\n\ncontract BeastAttributes is BeastBase {\n    /*** EVENTS ***/\n\n\n    /// @dev Transfer event as defined in current draft of ERC721. Emitted every time a beast\n    ///  ownership is assigned, including births.\n    event Level(uint _beastID, uint _from, uint _to);\n    event ChangePreferedAttribute(uint _beastID, uint _from, uint _to);\n\n    /// Table indicating experience requiere for each level\n    uint[20] public experienceRequiredForLevel = [\n        uint(2),\n        uint(4),\n        uint(8),\n        uint(16),\n        uint(32),\n        uint(64),\n        uint(128),\n        uint(256),\n        uint(512),\n        uint(1024),\n        uint(2048),\n        uint(4096),\n        uint(8192),\n        uint(16384),\n        uint(32768),\n        uint(65536),\n        uint(131072),\n        uint(262144),\n        uint(524288),\n        uint(1048576)\n    ];\n\n    // Return Skill Value based on Attribute ID for specific beast\n    function skillValue(uint _attributeID, uint _tokenId) public returns (uint) {\n        Beast storage _beast = beasts[_tokenId];\n        if (_attributeID == 1) {\n            return _beast.attrs.strength;\n        } else if(_attributeID == 2) {\n            return _beast.attrs.dexterity;\n        } else if(_attributeID == 3) {\n            return _beast.attrs.endurance;\n        } else if(_attributeID == 4) {\n            return _beast.attrs.knowledge;\n        } else if(_attributeID == 5) {\n            return _beast.attrs.wisdom;\n        } else if(_attributeID == 6) {\n            return _beast.attrs.charisma;\n        }\n    }\n\n\n    function levelUp(uint _tokenId, uint _toLevel) internal {\n        Beast storage _beast = beasts[_tokenId];\n        require(_beast.experience >= experienceRequiredForLevel[_toLevel - 1]);\n        // emit the Level event\n        emit Level(_tokenId, _toLevel -1, _toLevel);\n        // Add Prefered Skills\n        if(_beast.preferedAttribute == 1) {\n            _beast.attrs.strength += 1;\n        } else if(_beast.preferedAttribute == 2) {\n            _beast.attrs.dexterity += 1;\n        } else if(_beast.preferedAttribute == 3) {\n            _beast.attrs.endurance += 1;\n        } else if(_beast.preferedAttribute == 4) {\n            _beast.attrs.knowledge += 1;\n        } else if(_beast.preferedAttribute == 5) {\n            _beast.attrs.wisdom += 1;\n        } else if(_beast.preferedAttribute == 6) {\n            _beast.attrs.charisma += 1;\n        }\n        // Add remaining Random Skills\n        for(uint i = 0; i < 3; i++) {\n            uint randomAttribute = uint(keccak256(block.difficulty, now, beasts, i, _tokenId)) % 6 + 1;\n            if(randomAttribute == 1) {\n                _beast.attrs.strength += 1;\n            } else if(randomAttribute == 2) {\n                _beast.attrs.dexterity += 1;\n            } else if(randomAttribute == 3) {\n                _beast.attrs.endurance += 1;\n            } else if(randomAttribute == 4) {\n                _beast.attrs.knowledge += 1;\n            } else if(randomAttribute == 5) {\n                _beast.attrs.wisdom += 1;\n            } else if(randomAttribute == 6) {\n                _beast.attrs.charisma += 1;\n            }\n        }\n    }\n\n    function changePreferedAttribute(uint _tokenId, uint _preferedAttribute) public {\n        require(beastIndexToOwner[_tokenId] == msg.sender);\n\n        Beast storage _beast = beasts[_tokenId];\n        require(_beast.preferedAttribute != _preferedAttribute);\n        require(_preferedAttribute <= 6 || _preferedAttribute > 0);\n        // emit the Level event\n        emit ChangePreferedAttribute(_tokenId, _beast.preferedAttribute, _preferedAttribute);\n        _beast.preferedAttribute = uint8(_preferedAttribute);\n    }\n}",
  "sourcePath": "/Users/jonathanaraneda/BlockchainProjects/unicornsvsdinosaurs-smartcontracts/contracts/BeastAttributes.sol",
  "compiler": {
    "name": "solc",
    "version": "0.4.24+commit.e67f0147.Emscripten.clang"
  },
  "schemaVersion": "2.0.1",
  "updatedAt": "2018-08-03T00:21:33.128Z"
}