{
  "contractName": "ClockAuction",
  "abi": [
    {
      "constant": false,
      "inputs": [],
      "name": "unpause",
      "outputs": [
        {
          "name": "",
          "type": "bool"
        }
      ],
      "payable": false,
      "stateMutability": "nonpayable",
      "type": "function"
    },
    {
      "constant": true,
      "inputs": [],
      "name": "paused",
      "outputs": [
        {
          "name": "",
          "type": "bool"
        }
      ],
      "payable": false,
      "stateMutability": "view",
      "type": "function"
    },
    {
      "constant": true,
      "inputs": [],
      "name": "ownerCut",
      "outputs": [
        {
          "name": "",
          "type": "uint256"
        }
      ],
      "payable": false,
      "stateMutability": "view",
      "type": "function"
    },
    {
      "constant": false,
      "inputs": [],
      "name": "pause",
      "outputs": [
        {
          "name": "",
          "type": "bool"
        }
      ],
      "payable": false,
      "stateMutability": "nonpayable",
      "type": "function"
    },
    {
      "constant": true,
      "inputs": [],
      "name": "owner",
      "outputs": [
        {
          "name": "",
          "type": "address"
        }
      ],
      "payable": false,
      "stateMutability": "view",
      "type": "function"
    },
    {
      "constant": true,
      "inputs": [],
      "name": "nonFungibleContract",
      "outputs": [
        {
          "name": "",
          "type": "address"
        }
      ],
      "payable": false,
      "stateMutability": "view",
      "type": "function"
    },
    {
      "constant": false,
      "inputs": [
        {
          "name": "newOwner",
          "type": "address"
        }
      ],
      "name": "transferOwnership",
      "outputs": [],
      "payable": false,
      "stateMutability": "nonpayable",
      "type": "function"
    },
    {
      "inputs": [
        {
          "name": "_nftAddress",
          "type": "address"
        },
        {
          "name": "_cut",
          "type": "uint256"
        }
      ],
      "payable": false,
      "stateMutability": "nonpayable",
      "type": "constructor"
    },
    {
      "anonymous": false,
      "inputs": [
        {
          "indexed": false,
          "name": "tokenId",
          "type": "uint256"
        },
        {
          "indexed": false,
          "name": "startingPrice",
          "type": "uint256"
        },
        {
          "indexed": false,
          "name": "endingPrice",
          "type": "uint256"
        },
        {
          "indexed": false,
          "name": "duration",
          "type": "uint256"
        }
      ],
      "name": "AuctionCreated",
      "type": "event"
    },
    {
      "anonymous": false,
      "inputs": [
        {
          "indexed": false,
          "name": "tokenId",
          "type": "uint256"
        },
        {
          "indexed": false,
          "name": "totalPrice",
          "type": "uint256"
        },
        {
          "indexed": false,
          "name": "winner",
          "type": "address"
        }
      ],
      "name": "AuctionSuccessful",
      "type": "event"
    },
    {
      "anonymous": false,
      "inputs": [
        {
          "indexed": false,
          "name": "tokenId",
          "type": "uint256"
        }
      ],
      "name": "AuctionCancelled",
      "type": "event"
    },
    {
      "anonymous": false,
      "inputs": [],
      "name": "Pause",
      "type": "event"
    },
    {
      "anonymous": false,
      "inputs": [],
      "name": "Unpause",
      "type": "event"
    },
    {
      "constant": false,
      "inputs": [],
      "name": "withdrawBalance",
      "outputs": [],
      "payable": false,
      "stateMutability": "nonpayable",
      "type": "function"
    },
    {
      "constant": false,
      "inputs": [
        {
          "name": "_tokenId",
          "type": "uint256"
        },
        {
          "name": "_startingPrice",
          "type": "uint256"
        },
        {
          "name": "_endingPrice",
          "type": "uint256"
        },
        {
          "name": "_duration",
          "type": "uint256"
        },
        {
          "name": "_seller",
          "type": "address"
        }
      ],
      "name": "createAuction",
      "outputs": [],
      "payable": false,
      "stateMutability": "nonpayable",
      "type": "function"
    },
    {
      "constant": false,
      "inputs": [
        {
          "name": "_tokenId",
          "type": "uint256"
        }
      ],
      "name": "bid",
      "outputs": [],
      "payable": true,
      "stateMutability": "payable",
      "type": "function"
    },
    {
      "constant": false,
      "inputs": [
        {
          "name": "_tokenId",
          "type": "uint256"
        }
      ],
      "name": "cancelAuction",
      "outputs": [],
      "payable": false,
      "stateMutability": "nonpayable",
      "type": "function"
    },
    {
      "constant": false,
      "inputs": [
        {
          "name": "_tokenId",
          "type": "uint256"
        }
      ],
      "name": "cancelAuctionWhenPaused",
      "outputs": [],
      "payable": false,
      "stateMutability": "nonpayable",
      "type": "function"
    },
    {
      "constant": true,
      "inputs": [
        {
          "name": "_tokenId",
          "type": "uint256"
        }
      ],
      "name": "getAuction",
      "outputs": [
        {
          "name": "seller",
          "type": "address"
        },
        {
          "name": "startingPrice",
          "type": "uint256"
        },
        {
          "name": "endingPrice",
          "type": "uint256"
        },
        {
          "name": "duration",
          "type": "uint256"
        },
        {
          "name": "startedAt",
          "type": "uint256"
        }
      ],
      "payable": false,
      "stateMutability": "view",
      "type": "function"
    },
    {
      "constant": true,
      "inputs": [
        {
          "name": "_tokenId",
          "type": "uint256"
        }
      ],
      "name": "getCurrentPrice",
      "outputs": [
        {
          "name": "",
          "type": "uint256"
        }
      ],
      "payable": false,
      "stateMutability": "view",
      "type": "function"
    }
  ],
  "bytecode": "0x60806040526000805460a060020a60ff021916905534801561002057600080fd5b50604051604080610ee083398101604052805160209091015160008054600160a060020a0319163317815561271082111561005a57600080fd5b506002819055604080517f01ffc9a70000000000000000000000000000000000000000000000000000000081527f9a20483d00000000000000000000000000000000000000000000000000000000600482015290518391600160a060020a038316916301ffc9a7916024808201926020929091908290030181600087803b1580156100e457600080fd5b505af11580156100f8573d6000803e3d6000fd5b505050506040513d602081101561010e57600080fd5b5051151561011b57600080fd5b60018054600160a060020a03909216600160a060020a03199092169190911790555050610d938061014d6000396000f3006080604052600436106100cf5763ffffffff7c010000000000000000000000000000000000000000000000000000000060003504166327ebe40a81146100d45780633f4ba83a14610103578063454a2ab31461012c5780635c975abb146101375780635fd8c7101461014c57806378bd79351461016157806383b5ff8b146101ae5780638456cb59146101d5578063878eb368146101ea5780638da5cb5b1461020257806396b5a75514610233578063c55d0f561461024b578063dd1b7a0f14610263578063f2fde38b14610278575b600080fd5b3480156100e057600080fd5b50610101600435602435604435606435600160a060020a0360843516610299565b005b34801561010f57600080fd5b506101186103a6565b604080519115158252519081900360200190f35b610101600435610421565b34801561014357600080fd5b50610118610450565b34801561015857600080fd5b50610101610460565b34801561016d57600080fd5b506101796004356104bd565b60408051600160a060020a03909616865260208601949094528484019290925260608401526080830152519081900360a00190f35b3480156101ba57600080fd5b506101c3610553565b60408051918252519081900360200190f35b3480156101e157600080fd5b50610118610559565b3480156101f657600080fd5b506101016004356105d9565b34801561020e57600080fd5b50610217610646565b60408051600160a060020a039092168252519081900360200190f35b34801561023f57600080fd5b50610101600435610655565b34801561025757600080fd5b506101c360043561069f565b34801561026f57600080fd5b506102176106d1565b34801561028457600080fd5b50610101600160a060020a03600435166106e0565b6102a1610d39565b60005460a060020a900460ff16156102b857600080fd5b6fffffffffffffffffffffffffffffffff851685146102d657600080fd5b6fffffffffffffffffffffffffffffffff841684146102f457600080fd5b67ffffffffffffffff8316831461030a57600080fd5b6103143387610733565b151561031f57600080fd5b61032933876107dc565b60a06040519081016040528083600160a060020a03168152602001866fffffffffffffffffffffffffffffffff168152602001856fffffffffffffffffffffffffffffffff1681526020018467ffffffffffffffff1681526020014267ffffffffffffffff16815250905061039e8682610864565b505050505050565b60008054600160a060020a031633146103be57600080fd5b60005460a060020a900460ff1615156103d657600080fd5b6000805474ff0000000000000000000000000000000000000000191681556040517f7805862f689e2f13df9f062ff482ad3ad112aca9e0847911ed832e158c525b339190a150600190565b60005460a060020a900460ff161561043857600080fd5b61044281346109f8565b5061044d3382610b1e565b50565b60005460a060020a900460ff1681565b60015460008054600160a060020a039283169216331480610489575033600160a060020a038316145b151561049457600080fd5b604051600160a060020a03831690303180156108fc02916000818181858888f150505050505050565b600081815260036020526040812081908190819081906104dc81610b8c565b15156104e757600080fd5b80546001820154600290920154600160a060020a03909116986fffffffffffffffffffffffffffffffff8084169950700100000000000000000000000000000000909304909216965067ffffffffffffffff808216965068010000000000000000909104169350915050565b60025481565b60008054600160a060020a0316331461057157600080fd5b60005460a060020a900460ff161561058857600080fd5b6000805474ff0000000000000000000000000000000000000000191660a060020a1781556040517f6985a02210a168e66602d3235cb6db0e70f92b3ba4d376a33c0f3d9434bff6259190a150600190565b6000805460a060020a900460ff1615156105f257600080fd5b600054600160a060020a0316331461060957600080fd5b50600081815260036020526040902061062181610b8c565b151561062c57600080fd5b8054610642908390600160a060020a0316610bad565b5050565b600054600160a060020a031681565b60008181526003602052604081209061066d82610b8c565b151561067857600080fd5b508054600160a060020a031633811461069057600080fd5b61069a8382610bad565b505050565b60008181526003602052604081206106b681610b8c565b15156106c157600080fd5b6106ca81610bf7565b9392505050565b600154600160a060020a031681565b600054600160a060020a031633146106f757600080fd5b600160a060020a0381161561044d5760008054600160a060020a03831673ffffffffffffffffffffffffffffffffffffffff1990911617905550565b600154604080517f6352211e000000000000000000000000000000000000000000000000000000008152600481018490529051600092600160a060020a0380871693911691636352211e9160248082019260209290919082900301818887803b15801561079f57600080fd5b505af11580156107b3573d6000803e3d6000fd5b505050506040513d60208110156107c957600080fd5b5051600160a060020a0316149392505050565b600154604080517f23b872dd000000000000000000000000000000000000000000000000000000008152600160a060020a03858116600483015230602483015260448201859052915191909216916323b872dd91606480830192600092919082900301818387803b15801561085057600080fd5b505af115801561039e573d6000803e3d6000fd5b603c816060015167ffffffffffffffff161015151561088257600080fd5b60008281526003602090815260408083208451815473ffffffffffffffffffffffffffffffffffffffff1916600160a060020a0390911617815584830180516001808401805489870180516fffffffffffffffffffffffffffffffff199092166fffffffffffffffffffffffffffffffff95861617851670010000000000000000000000000000000092861692909202919091179091556060808a018051600290970180546080808e015167ffffffffffffffff1990921667ffffffffffffffff9a8b16176fffffffffffffffff0000000000000000191668010000000000000000928b169290920291909117909155600480549586018155909a527f8a35acfbc15ff81a39ae7d344fd709f28e8600b4aa8c65c6b64bfe7fe36bd19b9093018b905593519051915186518b8152918416978201979097529116818501529390911690830152517fa9c8dfcda5664a5a124c713e386da27de87432d5b668e79458501eb296389ba7929181900390910190a15050565b60008281526003602052604081208180808080610a1486610b8c565b1515610a1f57600080fd5b610a2886610bf7565b945084881015610a3757600080fd5b8554600160a060020a03169350610a4d89610c87565b6000851115610a9f57610a5f85610cf0565b6040519093508386039250600160a060020a0385169083156108fc029084906000818181858888f19350505050158015610a9d573d6000803e3d6000fd5b505b5060405184880390339082156108fc029083906000818181858888f19350505050158015610ad1573d6000803e3d6000fd5b50604080518a815260208101879052338183015290517f4fcc30d90a842164dd58501ab874a101a3749c3d4747139cefe7c876f4ccebd29181900360600190a15092979650505050505050565b600154604080517fa9059cbb000000000000000000000000000000000000000000000000000000008152600160a060020a038581166004830152602482018590529151919092169163a9059cbb91604480830192600092919082900301818387803b15801561085057600080fd5b6002015460006801000000000000000090910467ffffffffffffffff161190565b610bb682610c87565b610bc08183610b1e565b6040805183815290517f2809c7e17bf978fbc7194c0a694b638c4215e9140cacc6c38ca36010b45697df9181900360200190a15050565b6002810154600090819068010000000000000000900467ffffffffffffffff16421115610c3d5750600282015468010000000000000000900467ffffffffffffffff1642035b600183015460028401546106ca916fffffffffffffffffffffffffffffffff80821692700100000000000000000000000000000000909204169067ffffffffffffffff1684610cfc565b6004805482908110610c9557fe5b60009182526020808320909101829055918152600390915260408120805473ffffffffffffffffffffffffffffffffffffffff19168155600181019190915560020180546fffffffffffffffffffffffffffffffff19169055565b60025461271091020490565b6000808080858510610d1057869350610d2e565b878703925085858402811515610d2257fe5b05915081880190508093505b505050949350505050565b6040805160a081018252600080825260208201819052918101829052606081018290526080810191909152905600a165627a7a7230582077780b23e738cf623e959b3931b2bc34bf99927ed249dd7ecc4e42fe549459e20029",
  "source": "pragma solidity ^0.4.24;\n\nimport \"../token/ERC721.sol\";\nimport \"../util/Pausable.sol\";\nimport \"./ClockAuctionBase.sol\";\n\n/// @title Clock auction for non-fungible tokens.\n/// @notice We omit a fallback function to prevent accidental sends to this contract.\ncontract ClockAuction is Pausable, ClockAuctionBase {\n\n    /// @dev The ERC-165 interface signature for ERC-721.\n    ///  Ref: https://github.com/ethereum/EIPs/issues/165\n    ///  Ref: https://github.com/ethereum/EIPs/issues/721\n    bytes4 constant InterfaceSignature_ERC721 = bytes4(0x9a20483d);\n\n    /// @dev Constructor creates a reference to the NFT ownership contract\n    ///  and verifies the owner cut is in the valid range.\n    /// @param _nftAddress - address of a deployed contract implementing\n    ///  the Nonfungible Interface.\n    /// @param _cut - percent cut the owner takes on each auction, must be\n    ///  between 0-10,000.\n    constructor (address _nftAddress, uint256 _cut) public {\n        require(_cut <= 10000);\n        ownerCut = _cut;\n\n        ERC721 candidateContract = ERC721(_nftAddress);\n        require(candidateContract.supportsInterface(InterfaceSignature_ERC721));\n        nonFungibleContract = candidateContract;\n    }\n\n    /// @dev Remove all Ether from the contract, which is the owner's cuts\n    ///  as well as any Ether sent directly to the contract address.\n    ///  Always transfers to the NFT contract, but can be called either by\n    ///  the owner or the NFT contract.\n    function withdrawBalance() external {\n        address nftAddress = address(nonFungibleContract);\n\n        require(\n            msg.sender == owner ||\n            msg.sender == nftAddress\n        );\n        // We are using this boolean method to make sure that even if one fails it will still work\n        bool res = nftAddress.send(this.balance);\n    }\n\n    /// @dev Creates and begins a new auction.\n    /// @param _tokenId - ID of token to auction, sender must be owner.\n    /// @param _startingPrice - Price of item (in wei) at beginning of auction.\n    /// @param _endingPrice - Price of item (in wei) at end of auction.\n    /// @param _duration - Length of time to move between starting\n    ///  price and ending price (in seconds).\n    /// @param _seller - Seller, if not the message sender\n    function createAuction(\n        uint256 _tokenId,\n        uint256 _startingPrice,\n        uint256 _endingPrice,\n        uint256 _duration,\n        address _seller\n    )\n        external\n        whenNotPaused\n    {\n        // Sanity check that no inputs overflow how many bits we've allocated\n        // to store them in the auction struct.\n        require(_startingPrice == uint256(uint128(_startingPrice)));\n        require(_endingPrice == uint256(uint128(_endingPrice)));\n        require(_duration == uint256(uint64(_duration)));\n\n        require(_owns(msg.sender, _tokenId));\n        _escrow(msg.sender, _tokenId);\n        Auction memory auction = Auction(\n            _seller,\n            uint128(_startingPrice),\n            uint128(_endingPrice),\n            uint64(_duration),\n            uint64(now)\n        );\n        _addAuction(_tokenId, auction);\n    }\n\n    /// @dev Bids on an open auction, completing the auction and transferring\n    ///  ownership of the NFT if enough Ether is supplied.\n    /// @param _tokenId - ID of token to bid on.\n    function bid(uint256 _tokenId)\n        external\n        payable\n        whenNotPaused\n    {\n        // _bid will throw if the bid or funds transfer fails\n        _bid(_tokenId, msg.value);\n        _transfer(msg.sender, _tokenId);\n    }\n\n    /// @dev Cancels an auction that hasn't been won yet.\n    ///  Returns the NFT to original owner.\n    /// @notice This is a state-modifying function that can\n    ///  be called while the contract is paused.\n    /// @param _tokenId - ID of token on auction\n    function cancelAuction(uint256 _tokenId)\n        external\n    {\n        Auction storage auction = tokenIdToAuction[_tokenId];\n        require(_isOnAuction(auction));\n        address seller = auction.seller;\n        require(msg.sender == seller);\n        _cancelAuction(_tokenId, seller);\n    }\n\n    /// @dev Cancels an auction when the contract is paused.\n    ///  Only the owner may do this, and NFTs are returned to\n    ///  the seller. This should only be used in emergencies.\n    /// @param _tokenId - ID of the NFT on auction to cancel.\n    function cancelAuctionWhenPaused(uint256 _tokenId)\n        whenPaused\n        onlyOwner\n        external\n    {\n        Auction storage auction = tokenIdToAuction[_tokenId];\n        require(_isOnAuction(auction));\n        _cancelAuction(_tokenId, auction.seller);\n    }\n\n    /// @dev Returns auction info for an NFT on auction.\n    /// @param _tokenId - ID of NFT on auction.\n    function getAuction(uint256 _tokenId)\n        external\n        view\n        returns\n    (\n        address seller,\n        uint256 startingPrice,\n        uint256 endingPrice,\n        uint256 duration,\n        uint256 startedAt\n    ) {\n        Auction storage auction = tokenIdToAuction[_tokenId];\n        require(_isOnAuction(auction));\n        return (\n            auction.seller,\n            auction.startingPrice,\n            auction.endingPrice,\n            auction.duration,\n            auction.startedAt\n        );\n    }\n\n    /// @dev Returns the current price of an auction.\n    /// @param _tokenId - ID of the token price we are checking.\n    function getCurrentPrice(uint256 _tokenId)\n        external\n        view\n        returns (uint256)\n    {\n        Auction storage auction = tokenIdToAuction[_tokenId];\n        require(_isOnAuction(auction));\n        return _currentPrice(auction);\n    }\n\n}",
  "sourcePath": "/Users/jonathanaraneda/BlockchainProjects/unicornsvsdinosaurs-smartcontracts/contracts/auction/ClockAuction.sol",
  "compiler": {
    "name": "solc",
    "version": "0.4.24+commit.e67f0147.Emscripten.clang"
  },
  "schemaVersion": "2.0.1",
  "updatedAt": "2018-08-03T01:48:24.091Z"
}