{
  "contractName": "ERC721Metadata",
  "abi": [
    {
      "constant": true,
      "inputs": [
        {
          "name": "_tokenId",
          "type": "uint256"
        },
        {
          "name": "",
          "type": "string"
        }
      ],
      "name": "getMetadata",
      "outputs": [
        {
          "name": "buffer",
          "type": "bytes32[4]"
        },
        {
          "name": "count",
          "type": "uint256"
        }
      ],
      "payable": false,
      "stateMutability": "view",
      "type": "function"
    }
  ],
  "bytecode": "0x608060405234801561001057600080fd5b5061026e806100206000396000f3006080604052600436106100405763ffffffff7c0100000000000000000000000000000000000000000000000000000000600035041663cb4799f28114610045575b600080fd5b34801561005157600080fd5b5060408051602060046024803582810135601f81018590048502860185019096528585526100a39583359536956044949193909101919081908401838280828437509497506100e29650505050505050565b6040518083608080838360005b838110156100c85781810151838201526020016100b0565b505050509050018281526020019250505060405180910390f35b6100ea610223565b6000836001141561012057507f48656c6c6f20576f726c6421203a4400000000000000000000000000000000008152600f61021c565b836002141561017a57507f4920776f756c6420646566696e6974656c792063686f6f73652061206d65646981527f756d206c656e67746820737472696e672e0000000000000000000000000000006020820152603161021c565b836003141561021c57507f4c6f72656d20697073756d20646f6c6f722073697420616d65742c206d69206581527f737420616363756d73616e2064617069627573206175677565206c6f72656d2c60208201527f2074726973746971756520766573746962756c756d2069642c206c696265726f60408201527f207375736369706974207661726975732073617069656e20616c697175616d2e606082015260805b9250929050565b60806040519081016040528060049060208202803883395091929150505600a165627a7a723058206c90e2de2a2ccc33265386029301228a84fdfbcfbc115bc3eef484dee61563a60029",
  "source": "pragma solidity ^0.4.24;\n\ncontract ERC721Metadata {\n    /// @dev Given a token Id, returns a byte array that is supposed to be converted into string.\n    function getMetadata(uint256 _tokenId, string) public view returns (bytes32[4] buffer, uint256 count) {\n        if (_tokenId == 1) {\n            buffer[0] = \"Hello World! :D\";\n            count = 15;\n        } else if (_tokenId == 2) {\n            buffer[0] = \"I would definitely choose a medi\";\n            buffer[1] = \"um length string.\";\n            count = 49;\n        } else if (_tokenId == 3) {\n            buffer[0] = \"Lorem ipsum dolor sit amet, mi e\";\n            buffer[1] = \"st accumsan dapibus augue lorem,\";\n            buffer[2] = \" tristique vestibulum id, libero\";\n            buffer[3] = \" suscipit varius sapien aliquam.\";\n            count = 128;\n        }\n    }\n}",
  "sourcePath": "/Users/jonathanaraneda/BlockchainProjects/unicornsvsdinosaurs-smartcontracts/contracts/token/ERC721Metadata.sol",
  "compiler": {
    "name": "solc",
    "version": "0.4.24+commit.e67f0147.Emscripten.clang"
  },
  "schemaVersion": "2.0.1",
  "updatedAt": "2018-08-03T01:48:24.098Z"
}