{
  "contractName": "GeneMagic",
  "abi": [
    {
      "constant": true,
      "inputs": [
        {
          "name": "",
          "type": "uint256"
        }
      ],
      "name": "d_nose",
      "outputs": [
        {
          "name": "",
          "type": "uint256"
        }
      ],
      "payable": false,
      "stateMutability": "view",
      "type": "function"
    },
    {
      "constant": true,
      "inputs": [
        {
          "name": "",
          "type": "uint256"
        }
      ],
      "name": "u_type",
      "outputs": [
        {
          "name": "",
          "type": "uint256"
        }
      ],
      "payable": false,
      "stateMutability": "view",
      "type": "function"
    },
    {
      "constant": true,
      "inputs": [
        {
          "name": "",
          "type": "uint256"
        }
      ],
      "name": "u_eyes",
      "outputs": [
        {
          "name": "",
          "type": "uint256"
        }
      ],
      "payable": false,
      "stateMutability": "view",
      "type": "function"
    },
    {
      "constant": true,
      "inputs": [
        {
          "name": "",
          "type": "uint256"
        }
      ],
      "name": "d_mouth",
      "outputs": [
        {
          "name": "",
          "type": "uint256"
        }
      ],
      "payable": false,
      "stateMutability": "view",
      "type": "function"
    },
    {
      "constant": true,
      "inputs": [
        {
          "name": "",
          "type": "uint256"
        }
      ],
      "name": "u_horn",
      "outputs": [
        {
          "name": "",
          "type": "uint256"
        }
      ],
      "payable": false,
      "stateMutability": "view",
      "type": "function"
    },
    {
      "constant": true,
      "inputs": [
        {
          "name": "",
          "type": "uint256"
        }
      ],
      "name": "second_abilities",
      "outputs": [
        {
          "name": "",
          "type": "uint256"
        }
      ],
      "payable": false,
      "stateMutability": "view",
      "type": "function"
    },
    {
      "constant": true,
      "inputs": [
        {
          "name": "",
          "type": "uint256"
        }
      ],
      "name": "d_eyes",
      "outputs": [
        {
          "name": "",
          "type": "uint256"
        }
      ],
      "payable": false,
      "stateMutability": "view",
      "type": "function"
    },
    {
      "constant": true,
      "inputs": [
        {
          "name": "",
          "type": "uint256"
        }
      ],
      "name": "u_legs",
      "outputs": [
        {
          "name": "",
          "type": "uint256"
        }
      ],
      "payable": false,
      "stateMutability": "view",
      "type": "function"
    },
    {
      "constant": true,
      "inputs": [
        {
          "name": "",
          "type": "uint256"
        }
      ],
      "name": "d_spikes",
      "outputs": [
        {
          "name": "",
          "type": "uint256"
        }
      ],
      "payable": false,
      "stateMutability": "view",
      "type": "function"
    },
    {
      "constant": true,
      "inputs": [
        {
          "name": "",
          "type": "uint256"
        }
      ],
      "name": "u_tail",
      "outputs": [
        {
          "name": "",
          "type": "uint256"
        }
      ],
      "payable": false,
      "stateMutability": "view",
      "type": "function"
    },
    {
      "constant": true,
      "inputs": [
        {
          "name": "",
          "type": "uint256"
        }
      ],
      "name": "d_legs",
      "outputs": [
        {
          "name": "",
          "type": "uint256"
        }
      ],
      "payable": false,
      "stateMutability": "view",
      "type": "function"
    },
    {
      "constant": true,
      "inputs": [
        {
          "name": "",
          "type": "uint256"
        }
      ],
      "name": "u_hair",
      "outputs": [
        {
          "name": "",
          "type": "uint256"
        }
      ],
      "payable": false,
      "stateMutability": "view",
      "type": "function"
    },
    {
      "constant": true,
      "inputs": [
        {
          "name": "",
          "type": "uint256"
        }
      ],
      "name": "pedigree",
      "outputs": [
        {
          "name": "",
          "type": "uint256"
        }
      ],
      "payable": false,
      "stateMutability": "view",
      "type": "function"
    },
    {
      "constant": true,
      "inputs": [
        {
          "name": "",
          "type": "uint256"
        }
      ],
      "name": "u_snout",
      "outputs": [
        {
          "name": "",
          "type": "uint256"
        }
      ],
      "payable": false,
      "stateMutability": "view",
      "type": "function"
    },
    {
      "constant": true,
      "inputs": [
        {
          "name": "",
          "type": "uint256"
        }
      ],
      "name": "abilities",
      "outputs": [
        {
          "name": "",
          "type": "uint256"
        }
      ],
      "payable": false,
      "stateMutability": "view",
      "type": "function"
    },
    {
      "constant": true,
      "inputs": [
        {
          "name": "",
          "type": "uint256"
        }
      ],
      "name": "d_wings",
      "outputs": [
        {
          "name": "",
          "type": "uint256"
        }
      ],
      "payable": false,
      "stateMutability": "view",
      "type": "function"
    },
    {
      "constant": true,
      "inputs": [
        {
          "name": "",
          "type": "uint256"
        }
      ],
      "name": "d_tail",
      "outputs": [
        {
          "name": "",
          "type": "uint256"
        }
      ],
      "payable": false,
      "stateMutability": "view",
      "type": "function"
    },
    {
      "constant": true,
      "inputs": [
        {
          "name": "",
          "type": "uint256"
        }
      ],
      "name": "d_type",
      "outputs": [
        {
          "name": "",
          "type": "uint256"
        }
      ],
      "payable": false,
      "stateMutability": "view",
      "type": "function"
    },
    {
      "constant": true,
      "inputs": [
        {
          "name": "",
          "type": "uint256"
        }
      ],
      "name": "d_plume",
      "outputs": [
        {
          "name": "",
          "type": "uint256"
        }
      ],
      "payable": false,
      "stateMutability": "view",
      "type": "function"
    },
    {
      "constant": true,
      "inputs": [
        {
          "name": "",
          "type": "uint256"
        }
      ],
      "name": "elements",
      "outputs": [
        {
          "name": "",
          "type": "uint256"
        }
      ],
      "payable": false,
      "stateMutability": "view",
      "type": "function"
    },
    {
      "constant": true,
      "inputs": [
        {
          "name": "",
          "type": "uint256"
        }
      ],
      "name": "color_combination",
      "outputs": [
        {
          "name": "",
          "type": "uint256"
        }
      ],
      "payable": false,
      "stateMutability": "view",
      "type": "function"
    },
    {
      "anonymous": false,
      "inputs": [
        {
          "indexed": false,
          "name": "",
          "type": "string"
        },
        {
          "indexed": false,
          "name": "",
          "type": "uint256"
        }
      ],
      "name": "readGene",
      "type": "event"
    },
    {
      "constant": false,
      "inputs": [
        {
          "name": "beastType",
          "type": "uint8"
        },
        {
          "name": "genesMother",
          "type": "uint256"
        },
        {
          "name": "genesFather",
          "type": "uint256"
        },
        {
          "name": "incubatorId",
          "type": "uint16"
        }
      ],
      "name": "mixGenes",
      "outputs": [
        {
          "name": "",
          "type": "uint256"
        }
      ],
      "payable": false,
      "stateMutability": "nonpayable",
      "type": "function"
    },
    {
      "constant": false,
      "inputs": [
        {
          "name": "beastType",
          "type": "uint8"
        },
        {
          "name": "suggestedSequence",
          "type": "uint256"
        }
      ],
      "name": "createGenes",
      "outputs": [
        {
          "name": "",
          "type": "uint256"
        }
      ],
      "payable": false,
      "stateMutability": "nonpayable",
      "type": "function"
    },
    {
      "constant": false,
      "inputs": [
        {
          "name": "pos",
          "type": "uint32"
        },
        {
          "name": "val",
          "type": "uint256"
        }
      ],
      "name": "set_u_type",
      "outputs": [],
      "payable": false,
      "stateMutability": "nonpayable",
      "type": "function"
    },
    {
      "constant": false,
      "inputs": [
        {
          "name": "pos",
          "type": "uint32"
        },
        {
          "name": "val",
          "type": "uint256"
        }
      ],
      "name": "set_u_eyes",
      "outputs": [],
      "payable": false,
      "stateMutability": "nonpayable",
      "type": "function"
    },
    {
      "constant": false,
      "inputs": [
        {
          "name": "pos",
          "type": "uint32"
        },
        {
          "name": "val",
          "type": "uint256"
        }
      ],
      "name": "set_u_horn",
      "outputs": [],
      "payable": false,
      "stateMutability": "nonpayable",
      "type": "function"
    },
    {
      "constant": false,
      "inputs": [
        {
          "name": "pos",
          "type": "uint32"
        },
        {
          "name": "val",
          "type": "uint256"
        }
      ],
      "name": "set_u_hair",
      "outputs": [],
      "payable": false,
      "stateMutability": "nonpayable",
      "type": "function"
    },
    {
      "constant": false,
      "inputs": [
        {
          "name": "pos",
          "type": "uint32"
        },
        {
          "name": "val",
          "type": "uint256"
        }
      ],
      "name": "set_u_tail",
      "outputs": [],
      "payable": false,
      "stateMutability": "nonpayable",
      "type": "function"
    },
    {
      "constant": false,
      "inputs": [
        {
          "name": "pos",
          "type": "uint32"
        },
        {
          "name": "val",
          "type": "uint256"
        }
      ],
      "name": "set_u_snout",
      "outputs": [],
      "payable": false,
      "stateMutability": "nonpayable",
      "type": "function"
    },
    {
      "constant": false,
      "inputs": [
        {
          "name": "pos",
          "type": "uint32"
        },
        {
          "name": "val",
          "type": "uint256"
        }
      ],
      "name": "set_u_legs",
      "outputs": [],
      "payable": false,
      "stateMutability": "nonpayable",
      "type": "function"
    },
    {
      "constant": false,
      "inputs": [
        {
          "name": "pos",
          "type": "uint32"
        },
        {
          "name": "val",
          "type": "uint256"
        }
      ],
      "name": "set_d_type",
      "outputs": [],
      "payable": false,
      "stateMutability": "nonpayable",
      "type": "function"
    },
    {
      "constant": false,
      "inputs": [
        {
          "name": "pos",
          "type": "uint32"
        },
        {
          "name": "val",
          "type": "uint256"
        }
      ],
      "name": "set_d_eyes",
      "outputs": [],
      "payable": false,
      "stateMutability": "nonpayable",
      "type": "function"
    },
    {
      "constant": false,
      "inputs": [
        {
          "name": "pos",
          "type": "uint32"
        },
        {
          "name": "val",
          "type": "uint256"
        }
      ],
      "name": "set_d_nose",
      "outputs": [],
      "payable": false,
      "stateMutability": "nonpayable",
      "type": "function"
    },
    {
      "constant": false,
      "inputs": [
        {
          "name": "pos",
          "type": "uint32"
        },
        {
          "name": "val",
          "type": "uint256"
        }
      ],
      "name": "set_d_mouth",
      "outputs": [],
      "payable": false,
      "stateMutability": "nonpayable",
      "type": "function"
    },
    {
      "constant": false,
      "inputs": [
        {
          "name": "pos",
          "type": "uint32"
        },
        {
          "name": "val",
          "type": "uint256"
        }
      ],
      "name": "set_d_tail",
      "outputs": [],
      "payable": false,
      "stateMutability": "nonpayable",
      "type": "function"
    },
    {
      "constant": false,
      "inputs": [
        {
          "name": "pos",
          "type": "uint32"
        },
        {
          "name": "val",
          "type": "uint256"
        }
      ],
      "name": "set_d_plume",
      "outputs": [],
      "payable": false,
      "stateMutability": "nonpayable",
      "type": "function"
    },
    {
      "constant": false,
      "inputs": [
        {
          "name": "pos",
          "type": "uint32"
        },
        {
          "name": "val",
          "type": "uint256"
        }
      ],
      "name": "set_d_legs",
      "outputs": [],
      "payable": false,
      "stateMutability": "nonpayable",
      "type": "function"
    },
    {
      "constant": false,
      "inputs": [
        {
          "name": "pos",
          "type": "uint32"
        },
        {
          "name": "val",
          "type": "uint256"
        }
      ],
      "name": "set_d_spikes",
      "outputs": [],
      "payable": false,
      "stateMutability": "nonpayable",
      "type": "function"
    },
    {
      "constant": false,
      "inputs": [
        {
          "name": "pos",
          "type": "uint32"
        },
        {
          "name": "val",
          "type": "uint256"
        }
      ],
      "name": "set_d_wings",
      "outputs": [],
      "payable": false,
      "stateMutability": "nonpayable",
      "type": "function"
    },
    {
      "constant": false,
      "inputs": [
        {
          "name": "pos",
          "type": "uint32"
        },
        {
          "name": "val",
          "type": "uint256"
        }
      ],
      "name": "set_abilities",
      "outputs": [],
      "payable": false,
      "stateMutability": "nonpayable",
      "type": "function"
    },
    {
      "constant": false,
      "inputs": [
        {
          "name": "pos",
          "type": "uint32"
        },
        {
          "name": "val",
          "type": "uint256"
        }
      ],
      "name": "set_second_abilities",
      "outputs": [],
      "payable": false,
      "stateMutability": "nonpayable",
      "type": "function"
    },
    {
      "constant": false,
      "inputs": [
        {
          "name": "pos",
          "type": "uint32"
        },
        {
          "name": "val",
          "type": "uint256"
        }
      ],
      "name": "set_elements",
      "outputs": [],
      "payable": false,
      "stateMutability": "nonpayable",
      "type": "function"
    },
    {
      "constant": false,
      "inputs": [
        {
          "name": "pos",
          "type": "uint32"
        },
        {
          "name": "val",
          "type": "uint256"
        }
      ],
      "name": "set_pedigree",
      "outputs": [],
      "payable": false,
      "stateMutability": "nonpayable",
      "type": "function"
    }
  ],
  "bytecode": "0x608060405260006102a05534801561001657600080fd5b50612239806100266000396000f30060806040526004361061020e5763ffffffff7c01000000000000000000000000000000000000000000000000000000006000350416630300fc698114610213578063090d7077146102365780630c2f5ca31461025757806312f83acd14610278578063168c48d9146102a257806338f23407146102c35780633a0b244c146102db5780633a4d0b29146102f95780634057b9cd1461031157806346f2ba141461033257806349a52be314610353578063552089861461036b578063618558fc1461038c578063649b3081146103a45780636c3741a2146103bc57806379397427146103dd5780637b8a8cdf146103f557806383f0de8f14610416578063868b9c181461043757806388eb9cdc146104585780638b07350a146104705780638c7a2a961461049157806394dc208e146104a9578063a3111f1d146104c1578063a6303a1d146104e2578063a7460f0014610503578063b1bd939114610524578063b3e670fa1461053c578063b477fa8714610554578063b881b7e114610575578063bf85c66914610596578063c302c36e146105ae578063cae0d335146105c6578063cb8cb1d6146105de578063cdf351e1146105ff578063ce2f303d14610617578063d23255ea1461062f578063de2ca53414610650578063e013b08d14610668578063e0d64b3714610680578063e9be3ca414610698578063f488ce80146106b0578063f9c3453a146106d8575b600080fd5b34801561021f57600080fd5b5061023463ffffffff600435166024356106f9565b005b34801561024257600080fd5b5061023463ffffffff60043516602435610713565b34801561026357600080fd5b5061023463ffffffff60043516602435610728565b34801561028457600080fd5b5061029060043561073d565b60408051918252519081900360200190f35b3480156102ae57600080fd5b5061023463ffffffff60043516602435610752565b3480156102cf57600080fd5b50610290600435610767565b3480156102e757600080fd5b5061029060ff60043516602435610774565b34801561030557600080fd5b506102906004356107a4565b34801561031d57600080fd5b5061023463ffffffff600435166024356107b1565b34801561033e57600080fd5b5061023463ffffffff600435166024356107c6565b34801561035f57600080fd5b506102906004356107da565b34801561037757600080fd5b5061023463ffffffff600435166024356107e8565b34801561039857600080fd5b506102906004356107fd565b3480156103b057600080fd5b5061029060043561080a565b3480156103c857600080fd5b5061023463ffffffff60043516602435610816565b3480156103e957600080fd5b5061029060043561082a565b34801561040157600080fd5b5061023463ffffffff60043516602435610838565b34801561042257600080fd5b5061023463ffffffff6004351660243561084d565b34801561044357600080fd5b5061023463ffffffff60043516602435610862565b34801561046457600080fd5b50610290600435610877565b34801561047c57600080fd5b5061023463ffffffff60043516602435610885565b34801561049d57600080fd5b5061029060043561089a565b3480156104b557600080fd5b506102906004356108a8565b3480156104cd57600080fd5b5061023463ffffffff600435166024356108b6565b3480156104ee57600080fd5b5061023463ffffffff600435166024356108c9565b34801561050f57600080fd5b5061023463ffffffff600435166024356108de565b34801561053057600080fd5b506102906004356108f3565b34801561054857600080fd5b50610290600435610901565b34801561056057600080fd5b5061023463ffffffff6004351660243561090f565b34801561058157600080fd5b5061023463ffffffff60043516602435610923565b3480156105a257600080fd5b50610290600435610937565b3480156105ba57600080fd5b50610290600435610944565b3480156105d257600080fd5b50610290600435610952565b3480156105ea57600080fd5b5061023463ffffffff6004351660243561095f565b34801561060b57600080fd5b50610290600435610973565b34801561062357600080fd5b50610290600435610981565b34801561063b57600080fd5b5061023463ffffffff6004351660243561098f565b34801561065c57600080fd5b506102906004356109a4565b34801561067457600080fd5b506102906004356109b2565b34801561068c57600080fd5b506102906004356109c0565b3480156106a457600080fd5b506102906004356109cd565b3480156106bc57600080fd5b5061029060ff6004351660243560443561ffff606435166109da565b3480156106e457600080fd5b5061023463ffffffff60043516602435610a10565b80606063ffffffff84166020811061070d57fe5b01555050565b8061022063ffffffff84166020811061070d57fe5b8061016063ffffffff84166020811061070d57fe5b6101c0816020811061074b57fe5b0154905081565b806101e063ffffffff84166020811061070d57fe5b60a0816020811061074b57fe5b60008060ff841615156107915761078a83610a25565b905061079d565b61079a83610f86565b90505b9392505050565b60c0816020811061074b57fe5b806101c063ffffffff84166020811061070d57fe5b80604063ffffffff84166020811061070d57fe5b6101e0816020811061074b57fe5b8061018063ffffffff84166020811061070d57fe5b60e0816020811061074b57fe5b60208181811061074b57fe5b8060a063ffffffff84166020811061070d57fe5b6101a0816020811061074b57fe5b8061028063ffffffff84166020811061070d57fe5b806101a063ffffffff84166020811061070d57fe5b8061020063ffffffff84166020811061070d57fe5b610160816020811061074b57fe5b8061026063ffffffff84166020811061070d57fe5b610260816020811061074b57fe5b610120816020811061074b57fe5b80602063ffffffff841681811061070d57fe5b8061012063ffffffff84166020811061070d57fe5b8061024063ffffffff84166020811061070d57fe5b610240816020811061074b57fe5b610100816020811061074b57fe5b8060e063ffffffff84166020811061070d57fe5b80600063ffffffff84166020811061070d57fe5b6060816020811061074b57fe5b610140816020811061074b57fe5b6000816020811061074b57fe5b8060c063ffffffff84166020811061070d57fe5b610280816020811061074b57fe5b610200816020811061074b57fe5b8061010063ffffffff84166020811061070d57fe5b610180816020811061074b57fe5b610220816020811061074b57fe5b6040816020811061074b57fe5b6080816020811061074b57fe5b60008060ff861615156109f9576109f28585856113d2565b9050610a07565b610a048585856119a5565b90505b95945050505050565b8061014063ffffffff84166020811061070d57fe5b60008080610a34846005611de0565b9050610a41846005611e1b565b60408051610400810191829052919550610a7e91906102809060209082845b815481526020019060010190808311610a6057505050505082611e36565b61ffff16600560ff1660020a8302019150610a9a846005611de0565b9050610aa7846005611e1b565b6040805161040081019182905261026080548252929650610adf929091602090610261828501808311610a6057505050505082611e36565b61ffff16600560ff1660020a8302019150610afb846005611de0565b9050610b08846005611e1b565b6040805161040081019182905261024080548252929650610b40929091602090610241828501808311610a6057505050505082611e36565b61ffff16600560ff1660020a8302019150610b5c846005611de0565b9050610b69846005611e1b565b6040805161040081019182905261022080548252929650610ba1929091602090610221828501808311610a6057505050505082611e36565b61ffff16600560ff1660020a8302019150610bbd846005611de0565b9050610bca846005611e1b565b6040805161040081019182905261020080548252929650610c02929091602090610201828501808311610a6057505050505082611e36565b61ffff16600560ff1660020a8302019150610c1e846005611de0565b9050610c2b846005611e1b565b604080516104008101918290526101e080548252929650610c639290916020906101e1828501808311610a6057505050505082611e36565b61ffff16600560ff1660020a8302019150610c7f846005611de0565b9050610c8c846005611e1b565b604080516104008101918290526101c080548252929650610cc49290916020906101c1828501808311610a6057505050505082611e36565b61ffff16600560ff1660020a8302019150610ce0846005611de0565b9050610ced846005611e1b565b604080516104008101918290526101a080548252929650610d259290916020906101a1828501808311610a6057505050505082611e36565b61ffff16600560ff1660020a8302019150610d41846005611de0565b9050610d4e846005611e1b565b6040805161040081019182905261018080548252929650610d86929091602090610181828501808311610a6057505050505082611e36565b61ffff16600560ff1660020a8302019150610da2846005611de0565b9050610daf846005611e1b565b60408051610400810180835282548252929650610de3929091906020906041828501808311610a6057505050505082611e36565b61ffff16600560ff1660020a8302019150610dff846005611de0565b9050610e0c846005611e1b565b60408051610400810191829052606080548252929650610e429290916020906061828501808311610a6057505050505082611e36565b61ffff16600560ff1660020a8302019150610e5e846005611de0565b9050610e6b846005611e1b565b60408051610400810191829052602080548252929650610ea092909181906021828501808311610a6057505050505082611e36565b61ffff16600560ff1660020a8302019150610ebc846005611de0565b9050610ec9846005611e1b565b60408051610400810191829052600080548252929650610eff9290916020906001828501808311610a6057505050505082611e36565b61ffff16600560ff1660020a8302019150610f1b846002611de0565b9050610f28846002611e1b565b9350816004029150610f3b846005611de0565b60408051610400810191829052608080548252929350610f719290916020906081828501808311610a6057505050505082611e36565b61ffff16602092909202919091019392505050565b60008080610f95846005611de0565b9050610fa2846005611e1b565b6040805161040081019182905261016080548252929650610fda929091602090610161828501808311610a6057505050505082611e36565b61ffff16600560ff1660020a8302019150610ff6846005611de0565b9050611003846005611e1b565b604080516104008101918290526101408054825292965061103b929091602090610141828501808311610a6057505050505082611e36565b61ffff16600560ff1660020a8302019150611057846005611de0565b9050611064846005611e1b565b604080516104008101918290526101208054825292965061109c929091602090610121828501808311610a6057505050505082611e36565b61ffff16600560ff1660020a83020191506110b8846005611de0565b90506110c5846005611e1b565b60408051610400810191829052610100805482529296506110fd929091602090610101828501808311610a6057505050505082611e36565b61ffff16600560ff1660020a8302019150611119846005611de0565b9050611126846005611e1b565b6040805161040081019182905260e08054825292965061115c92909160209060e1828501808311610a6057505050505082611e36565b61ffff16600560ff1660020a8302019150611178846005611de0565b9050611185846005611e1b565b6040805161040081019182905260c0805482529296506111bb92909160209060c1828501808311610a6057505050505082611e36565b61ffff16600560ff1660020a83020191506111d7846005611de0565b90506111e4846005611e1b565b6040805161040081019182905260a08054825292965061121a92909160209060a1828501808311610a6057505050505082611e36565b61ffff16600560ff1660020a8302019150611236846005611de0565b9050611243846005611e1b565b60408051610400810180835282548252929650611277929091906020906041828501808311610a6057505050505082611e36565b61ffff16600560ff1660020a8302019150611293846005611de0565b90506112a0846005611e1b565b604080516104008101918290526060805482529296506112d69290916020906061828501808311610a6057505050505082611e36565b61ffff16600560ff1660020a83020191506112f2846005611de0565b90506112ff846005611e1b565b6040805161040081019182905260208054825292965061133492909181906021828501808311610a6057505050505082611e36565b61ffff16600560ff1660020a8302019150611350846005611de0565b905061135d846005611e1b565b604080516104008101918290526000805482529296506113939290916020906001828501808311610a6057505050505082611e36565b61ffff16600560ff1660020a83020191506113af846002611de0565b90506113bc846002611e1b565b9350816004026001019150610f3b846005611de0565b60008060008060048561ffff161015611401576003604061ffff8716602081106113f857fe5b01805490910290555b61140a86611ef6565b925061141587611ef6565b604080516104008101918290529193506000925061145f916005918a918a916102809060209082845b81548152602001906001019080831161143e57505050505060018789611f17565b61ffff1660209190910201611475866005611e1b565b9550611482876005611e1b565b60408051610400810191829052610260805482529299506114c4926005928b928b92909160209061026182850180831161143e57505050505060018789611f17565b61ffff16602091909102016114da866005611e1b565b95506114e7876005611e1b565b6040805161040081019182905261024080548252929950611529926005928b928b92909160209061024182850180831161143e57505050505060018789611f17565b61ffff166020919091020161153f866005611e1b565b955061154c876005611e1b565b604080516104008101918290526102208054825292995061158e926005928b928b92909160209061022182850180831161143e57505050505060018789611f17565b61ffff16602091909102016115a4866005611e1b565b95506115b1876005611e1b565b60408051610400810191829052610200805482529299506115f3926005928b928b92909160209061020182850180831161143e57505050505060018789611f17565b61ffff1660209190910201611609866005611e1b565b9550611616876005611e1b565b604080516104008101918290526101e080548252929950611658926005928b928b9290916020906101e182850180831161143e57505050505060018789611f17565b61ffff166020919091020161166e866005611e1b565b955061167b876005611e1b565b604080516104008101918290526101c0805482529299506116bd926005928b928b9290916020906101c182850180831161143e57505050505060018789611f17565b61ffff16602091909102016116d3866005611e1b565b95506116e0876005611e1b565b604080516104008101918290526101a080548252929950611722926005928b928b9290916020906101a182850180831161143e57505050505060018789611f17565b61ffff1660209190910201611738866005611e1b565b9550611745876005611e1b565b6040805161040081019182905261018080548252929950611787926005928b928b92909160209061018182850180831161143e57505050505060018789611f17565b61ffff166020919091020161179d866005611e1b565b95506117aa876005611e1b565b604080516104008101808352825482529299506117e8926005928b928b92909190602090604182850180831161143e57505050505060018789611f17565b61ffff16602091909102016117fe866005611e1b565b955061180b876005611e1b565b6040805161040081019182905260608054825292995061184b926005928b928b929091602090606182850180831161143e57505050505060018789611f17565b61ffff1660209190910201611861866005611e1b565b955061186e876005611e1b565b604080516104008101918290526020805482529299506118ad926005928b928b9290918190602182850180831161143e57505050505060018789611f17565b61ffff16602091909102016118c3866005611e1b565b95506118d0876005611e1b565b60408051610400810191829052600080548252929950611910926005928b928b929091602090600182850180831161143e57505050505060018789611f17565b61ffff1660209190910201611926866005611e1b565b9550611933876005611e1b565b9650602002611943866002611e1b565b9550611950876002611e1b565b60408051610400810191829052600080548252929950611990926005928b928b929091602090600182850180831161143e57505050505060018789611f17565b61ffff16602091909102019695505050505050565b60008060008060048561ffff1610156119d4576003604061ffff8716602081106119cb57fe5b01805490910290555b6119dd866121c6565b92506119e8876121c6565b604080516104008101918290526101408054825292945060009350611a2e926005928b928b92909160209061014182850180831161143e57505050505060018789611f17565b61ffff1660209190910201611a44866005611e1b565b9550611a51876005611e1b565b6040805161040081019182905261012080548252929950611a93926005928b928b92909160209061012182850180831161143e57505050505060018789611f17565b61ffff1660209190910201611aa9866005611e1b565b9550611ab6876005611e1b565b6040805161040081019182905261010080548252929950611af8926005928b928b92909160209061010182850180831161143e57505050505060018789611f17565b61ffff1660209190910201611b0e866005611e1b565b9550611b1b876005611e1b565b6040805161040081019182905260e080548252929950611b5b926005928b928b92909160209060e182850180831161143e57505050505060018789611f17565b61ffff1660209190910201611b71866005611e1b565b9550611b7e876005611e1b565b6040805161040081019182905260c080548252929950611bbe926005928b928b92909160209060c182850180831161143e57505050505060018789611f17565b61ffff1660209190910201611bd4866005611e1b565b9550611be1876005611e1b565b6040805161040081019182905260a080548252929950611c21926005928b928b92909160209060a182850180831161143e57505050505060018789611f17565b61ffff1660209190910201611c37866005611e1b565b9550611c44876005611e1b565b60408051610400810180835282548252929950611c82926005928b928b92909190602090604182850180831161143e57505050505060018789611f17565b61ffff1660209190910201611c98866005611e1b565b9550611ca5876005611e1b565b60408051610400810191829052606080548252929950611ce5926005928b928b929091602090606182850180831161143e57505050505060018789611f17565b61ffff1660209190910201611cfb866005611e1b565b9550611d08876005611e1b565b60408051610400810191829052602080548252929950611d47926005928b928b9290918190602182850180831161143e57505050505060018789611f17565b61ffff1660209190910201611d5d866005611e1b565b9550611d6a876005611e1b565b60408051610400810191829052600080548252929950611daa926005928b928b929091602090600182850180831161143e57505050505060018789611f17565b61ffff1660209190910201611dc0866005611e1b565b9550611dcd876005611e1b565b9650602002600101611943866002611e1b565b60008080805b8460ff16821015611e11575060018516600282810a8202939093019286049550600190910190611de6565b5090949350505050565b60008160ff1660020a83811515611e2e57fe5b049392505050565b6000808080808061ffff871615611e4f57869550611eeb565b6102a080546001019055600094508493505b6020841015611e8b57878460208110611e7657fe5b60200201519490940193600190930192611e61565b611e94856121d6565b925060209150600090505b6020811015611ed557878160208110611eb457fe5b60200201519092039160008313611ecd57809150611ed5565b600101611e9f565b8161ffff1660201415611ee757600091505b8195505b505050505092915050565b6000671000000000000000825b049150611f11826005611de0565b92915050565b6102a08054600101905560008080808080805b602086101561211c57611f3d8c8f611de0565b61ffff168b8760208110611f4d57fe5b60200201511415611f765760028b8760208110611f6657fe5b6020020180519091029052611fb5565b611f808d8f611de0565b61ffff168b8760208110611f9057fe5b60200201511415611fb55760028b8760208110611fa957fe5b60200201805190910290525b89156121115761ffff8816600c148015611feb5750611fd48c8f611de0565b61ffff168b8760208110611fe457fe5b6020020151145b156120175760028b8760208110611ffe57fe5b6020020181815181151561200e57fe5b04905250612066565b61ffff8816601714801561204757506120308c8f611de0565b61ffff168b876020811061204057fe5b6020020151145b156120665760028b876020811061205a57fe5b60200201805190910290525b61ffff8916600c148015612096575061207f8d8f611de0565b61ffff168b876020811061208f57fe5b6020020151145b156120c25760028b87602081106120a957fe5b602002018181518115156120b957fe5b04905250612111565b61ffff891660171480156120f257506120db8d8f611de0565b61ffff168b87602081106120eb57fe5b6020020151145b156121115760028b876020811061210557fe5b60200201805190910290525b600190950194611f2a565b60009450600093505b602084101561214f578a846020811061213a57fe5b60200201519490940193600190930192612125565b612158856121d6565b92508d60020a60ff169150600090505b602081101561219e578a816020811061217d57fe5b602002015190920391600083136121965780915061219e565b600101612168565b8d60020a60ff168261ffff1614156121b557600091505b509c9b505050505050505050505050565b6000660400000000000082611f03565b6102a054604080514481524260208201528082019290925251908190036060019020600090829081151561220657fe5b06929150505600a165627a7a723058208081a78cf5314d868280d4c8d2293d7ead1b53da1299a03a8d180ecbe5a5595b0029",
  "source": "pragma solidity ^0.4.0;\r\ncontract GeneMagic {\r\n    \r\n    uint8 constant BEAST_TYPE_LENGTH = 2;\r\n    uint8 constant GENE_BASE_LENGTH = 254;\r\n    uint8 constant GENE_SIZE = 5;\r\n    uint8 constant EXTRA_GENE_SIZE = 5;\r\n    uint8 constant RECESSIVE_GENE_ABILITY = 12;\r\n    uint8 constant DOMINANT_GENE_ABILITY = 23;\r\n\r\n    // PROBABILITIES FOR ABILITIES\r\n    uint256[32] public abilities;\r\n    uint256[32] public second_abilities;\r\n        \r\n    // PROBABILITIES FOR ELEMENTS\r\n    uint256[32] public elements;\r\n\r\n    // PROBABILITIES FOR PEDIGREE\r\n    uint256[32] public pedigree;\r\n\r\n    // PROBABILITIES FOR COLOR COMBINATION\r\n    uint256[32] public color_combination;\r\n        \r\n    // PROBABILITIES FOR UNICORNS\r\n    uint256[32] public u_type;\r\n    uint256[32] public u_eyes;\r\n    uint256[32] public u_horn;\r\n    uint256[32] public u_hair;\r\n    uint256[32] public u_tail;\r\n    uint256[32] public u_snout;\r\n    uint256[32] public u_legs;\r\n\r\n    // PROBABILITIES FOR DINOSAURS\r\n    uint256[32] public d_type;\r\n    uint256[32] public d_eyes;\r\n    uint256[32] public d_nose;\r\n    uint256[32] public d_mouth;\r\n    uint256[32] public d_tail;\r\n    uint256[32] public d_plume;\r\n    uint256[32] public d_legs;\r\n    uint256[32] public d_spikes;\r\n    uint256[32] public d_wings;\r\n    \r\n    uint private mixesMade = 0;\r\n\r\n    event readGene(string, uint256);\r\n    \r\n    /**\r\n     * Performs Gene Magic between two gene sequences.\r\n     * @param genesMother - The gene sequence of the mother\r\n     * @param genesFather - The gene sequence of the father\r\n     * @param incubatorId - The id of the incubator\r\n     * @return {uint256} The gene configuration of the child\r\n    */\r\n    function mixGenes(uint8 beastType, uint256 genesMother, uint256 genesFather, uint16 incubatorId) public returns (uint256) {\r\n        uint256 mixedGenes = 0;\r\n        if (beastType == 0) {\r\n            mixedGenes = mixGenesDinosaurs(genesMother, genesFather, incubatorId);\r\n        } else {\r\n            mixedGenes = mixGenesUnicorns(genesMother, genesFather, incubatorId);\r\n        }\r\n        \r\n        return mixedGenes;\r\n    }\r\n\r\n    /**\r\n     * Creates a brand new gene sequence\r\n     * @param beastType - The beast type of this new beast\r\n     * @return {uint256} The gene configuration of the new beast\r\n    */\r\n    function createGenes(uint8 beastType, uint256 suggestedSequence) public returns(uint256) {\r\n        uint256 mixedGenes = 0;\r\n        if (beastType == 0) {\r\n            mixedGenes = createGenesDinosaur(suggestedSequence);\r\n        } else {\r\n            mixedGenes = createGenesUnicorn(suggestedSequence);\r\n        }\r\n        return mixedGenes;\r\n    }\r\n\r\n    /**\r\n     * Auxiliary function - Creates a brand new gene unicorn sequence\r\n     * @return {uint256} The gene configuration of the new unicorn\r\n    */\r\n    function createGenesUnicorn(uint256 suggestedSequence) private returns(uint256) {\r\n        uint256 newGenes = 0;\r\n        uint16 nextSuggestedGene = catchNextGene(suggestedSequence, GENE_SIZE);\r\n        suggestedSequence = remainingGenes(suggestedSequence, GENE_SIZE);\r\n        \r\n        // Legs\r\n        newGenes = newGenes * 2**uint(GENE_SIZE) + createGene(u_legs, nextSuggestedGene);\r\n        nextSuggestedGene = catchNextGene(suggestedSequence, GENE_SIZE);\r\n        suggestedSequence = remainingGenes(suggestedSequence, GENE_SIZE);\r\n        \r\n        // Snout\r\n        newGenes = newGenes * 2**uint(GENE_SIZE) + createGene(u_snout, nextSuggestedGene);\r\n        nextSuggestedGene = catchNextGene(suggestedSequence, GENE_SIZE);\r\n        suggestedSequence = remainingGenes(suggestedSequence, GENE_SIZE);\r\n        \r\n        // Tail\r\n        newGenes = newGenes * 2**uint(GENE_SIZE) + createGene(u_tail, nextSuggestedGene);\r\n        nextSuggestedGene = catchNextGene(suggestedSequence, GENE_SIZE);\r\n        suggestedSequence = remainingGenes(suggestedSequence, GENE_SIZE);\r\n        \r\n        // Hair\r\n        newGenes = newGenes * 2**uint(GENE_SIZE) + createGene(u_hair, nextSuggestedGene);\r\n        nextSuggestedGene = catchNextGene(suggestedSequence, GENE_SIZE);\r\n        suggestedSequence = remainingGenes(suggestedSequence, GENE_SIZE);\r\n        \r\n        // Horn\r\n        newGenes = newGenes * 2**uint(GENE_SIZE) + createGene(u_horn, nextSuggestedGene);\r\n        nextSuggestedGene = catchNextGene(suggestedSequence, GENE_SIZE);\r\n        suggestedSequence = remainingGenes(suggestedSequence, GENE_SIZE);\r\n        \r\n        // Eyes\r\n        newGenes = newGenes * 2**uint(GENE_SIZE) + createGene(u_eyes, nextSuggestedGene);\r\n        nextSuggestedGene = catchNextGene(suggestedSequence, GENE_SIZE);\r\n        suggestedSequence = remainingGenes(suggestedSequence, GENE_SIZE);\r\n        \r\n        // Type\r\n        newGenes = newGenes * 2**uint(GENE_SIZE) + createGene(u_type, nextSuggestedGene);\r\n        nextSuggestedGene = catchNextGene(suggestedSequence, GENE_SIZE);\r\n        suggestedSequence = remainingGenes(suggestedSequence, GENE_SIZE);\r\n        \r\n        // Element\r\n        newGenes = newGenes * 2**uint(GENE_SIZE) + createGene(elements, nextSuggestedGene);\r\n        nextSuggestedGene = catchNextGene(suggestedSequence, GENE_SIZE);\r\n        suggestedSequence = remainingGenes(suggestedSequence, GENE_SIZE);\r\n\r\n        // Pedigree\r\n        newGenes = newGenes * 2**uint(GENE_SIZE) + createGene(pedigree, nextSuggestedGene);\r\n        nextSuggestedGene = catchNextGene(suggestedSequence, GENE_SIZE);\r\n        suggestedSequence = remainingGenes(suggestedSequence, GENE_SIZE);\r\n\r\n        // Second Ability\r\n        newGenes = newGenes * 2**uint(GENE_SIZE) + createGene(second_abilities, nextSuggestedGene);\r\n        nextSuggestedGene = catchNextGene(suggestedSequence, GENE_SIZE);\r\n        suggestedSequence = remainingGenes(suggestedSequence, GENE_SIZE);\r\n        \r\n        // Ability\r\n        newGenes = newGenes * 2**uint(GENE_SIZE) + createGene(abilities, nextSuggestedGene);\r\n        nextSuggestedGene = catchNextGene(suggestedSequence, 2);\r\n        suggestedSequence = remainingGenes(suggestedSequence, 2);\r\n\r\n        // Beast Type (will always be 1)\r\n        newGenes = newGenes * 2**2 + 1;\r\n        nextSuggestedGene = catchNextGene(suggestedSequence, EXTRA_GENE_SIZE);\r\n\r\n        // Color Combination\r\n        newGenes = newGenes * 2**uint(GENE_SIZE) + createGene(color_combination, nextSuggestedGene);\r\n    \r\n        return newGenes;\r\n    }\r\n    \r\n    /**\r\n     * Auxiliary function - Performs Gene Magic between two unicorn gene sequences.\r\n     * @param genesMother - The gene sequence of the unicorn mother\r\n     * @param genesFather - The gene sequence of the unicorn father\r\n     * @param incubatorId - The id of the incubator\r\n     * @return {uint256} The gene configuration of the unicorn child\r\n    */\r\n    function mixGenesUnicorns(uint256 genesMother, uint256 genesFather, uint16 incubatorId) private returns(uint256) {\r\n        \r\n        \r\n        if (incubatorId < 4) {\r\n            elements[incubatorId] *= 3;\r\n        }\r\n\r\n        uint16 abilityFather = catchAbilityUnicorn(genesFather);\r\n        uint16 abilityMother = catchAbilityUnicorn(genesMother);\r\n        uint256 newGenes = 0;\r\n        \r\n        // Snout\r\n        newGenes = newGenes * 2**uint(GENE_SIZE) + mixGene(GENE_SIZE, genesMother, genesFather, u_snout, true, abilityMother, abilityFather);\r\n        genesFather = remainingGenes(genesFather, GENE_SIZE);\r\n        genesMother = remainingGenes(genesMother, GENE_SIZE);\r\n        \r\n        // Tail\r\n        newGenes = newGenes * 2**uint(GENE_SIZE) + mixGene(GENE_SIZE, genesMother, genesFather, u_tail, true, abilityMother, abilityFather);\r\n        genesFather = remainingGenes(genesFather, GENE_SIZE);\r\n        genesMother = remainingGenes(genesMother, GENE_SIZE);\r\n        \r\n        // Hair\r\n        newGenes = newGenes * 2**uint(GENE_SIZE) + mixGene(GENE_SIZE, genesMother, genesFather, u_hair, true, abilityMother, abilityFather);\r\n        genesFather = remainingGenes(genesFather, GENE_SIZE);\r\n        genesMother = remainingGenes(genesMother, GENE_SIZE);\r\n        \r\n        // Horn\r\n        newGenes = newGenes * 2**uint(GENE_SIZE) + mixGene(GENE_SIZE, genesMother, genesFather, u_horn, true, abilityMother, abilityFather);\r\n        genesFather = remainingGenes(genesFather, GENE_SIZE);\r\n        genesMother = remainingGenes(genesMother, GENE_SIZE);\r\n        \r\n        // Eyes\r\n        newGenes = newGenes * 2**uint(GENE_SIZE) + mixGene(GENE_SIZE, genesMother, genesFather, u_eyes, true, abilityMother, abilityFather);\r\n        genesFather = remainingGenes(genesFather, GENE_SIZE);\r\n        genesMother = remainingGenes(genesMother, GENE_SIZE);\r\n        \r\n        // Type\r\n        newGenes = newGenes * 2**uint(GENE_SIZE) + mixGene(GENE_SIZE, genesMother, genesFather, u_type, true, abilityMother, abilityFather);\r\n        genesFather = remainingGenes(genesFather, GENE_SIZE);\r\n        genesMother = remainingGenes(genesMother, GENE_SIZE);\r\n        \r\n        // Element\r\n        newGenes = newGenes * 2**uint(GENE_SIZE) + mixGene(GENE_SIZE, genesMother, genesFather, elements, true, abilityMother, abilityFather);\r\n        genesFather = remainingGenes(genesFather, GENE_SIZE);\r\n        genesMother = remainingGenes(genesMother, GENE_SIZE);\r\n\r\n        // Pedigree\r\n        newGenes = newGenes * 2**uint(GENE_SIZE) + mixGene(GENE_SIZE, genesMother, genesFather, pedigree, true, abilityMother, abilityFather);\r\n        genesFather = remainingGenes(genesFather, GENE_SIZE);\r\n        genesMother = remainingGenes(genesMother, GENE_SIZE);\r\n\r\n        // Second Ability\r\n        newGenes = newGenes * 2**uint(GENE_SIZE) + mixGene(GENE_SIZE, genesMother, genesFather, second_abilities, true, abilityMother, abilityFather);\r\n        genesFather = remainingGenes(genesFather, GENE_SIZE);\r\n        genesMother = remainingGenes(genesMother, GENE_SIZE);\r\n        \r\n        // Ability\r\n        newGenes = newGenes * 2**uint(GENE_SIZE) + mixGene(GENE_SIZE, genesMother, genesFather, abilities, true, abilityMother, abilityFather);\r\n        genesFather = remainingGenes(genesFather, GENE_SIZE);\r\n        genesMother = remainingGenes(genesMother, GENE_SIZE);\r\n        \r\n        // Beast Type - will always be 1\r\n        newGenes = newGenes * 2**uint(GENE_SIZE) + 1;\r\n        genesFather = remainingGenes(genesFather, 2);\r\n        genesMother = remainingGenes(genesMother, 2);\r\n        \r\n        // Color Combination\r\n        newGenes = newGenes * 2**uint(EXTRA_GENE_SIZE) + mixGene(EXTRA_GENE_SIZE, genesMother, genesFather, abilities, true, abilityMother, abilityFather);\r\n    \r\n        return newGenes;\r\n    }\r\n    \r\n    /**\r\n     * Auxiliary function - Creates a brand new gene dinosaur sequence\r\n     * @return {uint256} The gene configuration of the new dinosaur\r\n    */\r\n    function createGenesDinosaur(uint256 suggestedSequence) private returns(uint256) {\r\n        uint256 newGenes = 0;\r\n        uint16 nextSuggestedGene = catchNextGene(suggestedSequence, GENE_SIZE);\r\n        suggestedSequence = remainingGenes(suggestedSequence, GENE_SIZE);\r\n        \r\n        // Wings\r\n        newGenes = newGenes * 2**uint(GENE_SIZE) + createGene(d_wings, nextSuggestedGene);\r\n        nextSuggestedGene = catchNextGene(suggestedSequence, GENE_SIZE);\r\n        suggestedSequence = remainingGenes(suggestedSequence, GENE_SIZE);\r\n        \r\n        // Spikes\r\n        newGenes = newGenes * 2**uint(GENE_SIZE) + createGene(d_spikes, nextSuggestedGene);\r\n        nextSuggestedGene = catchNextGene(suggestedSequence, GENE_SIZE);\r\n        suggestedSequence = remainingGenes(suggestedSequence, GENE_SIZE);\r\n        \r\n        // Legs\r\n        newGenes = newGenes * 2**uint(GENE_SIZE) + createGene(d_legs, nextSuggestedGene);\r\n        nextSuggestedGene = catchNextGene(suggestedSequence, GENE_SIZE);\r\n        suggestedSequence = remainingGenes(suggestedSequence, GENE_SIZE);\r\n        \r\n        // Plume\r\n        newGenes = newGenes * 2**uint(GENE_SIZE) + createGene(d_plume, nextSuggestedGene);\r\n        nextSuggestedGene = catchNextGene(suggestedSequence, GENE_SIZE);\r\n        suggestedSequence = remainingGenes(suggestedSequence, GENE_SIZE);\r\n        \r\n        // Tail\r\n        newGenes = newGenes * 2**uint(GENE_SIZE) + createGene(d_tail, nextSuggestedGene);\r\n        nextSuggestedGene = catchNextGene(suggestedSequence, GENE_SIZE);\r\n        suggestedSequence = remainingGenes(suggestedSequence, GENE_SIZE);\r\n        \r\n        // Mouth\r\n        newGenes = newGenes * 2**uint(GENE_SIZE) + createGene(d_mouth, nextSuggestedGene);\r\n        nextSuggestedGene = catchNextGene(suggestedSequence, GENE_SIZE);\r\n        suggestedSequence = remainingGenes(suggestedSequence, GENE_SIZE);\r\n        \r\n        // Nose\r\n        newGenes = newGenes * 2**uint(GENE_SIZE) + createGene(d_nose, nextSuggestedGene);\r\n        nextSuggestedGene = catchNextGene(suggestedSequence, GENE_SIZE);\r\n        suggestedSequence = remainingGenes(suggestedSequence, GENE_SIZE);\r\n        \r\n        // Eyes\r\n        newGenes = newGenes * 2**uint(GENE_SIZE) + createGene(d_eyes, nextSuggestedGene);\r\n        nextSuggestedGene = catchNextGene(suggestedSequence, GENE_SIZE);\r\n        suggestedSequence = remainingGenes(suggestedSequence, GENE_SIZE);\r\n        \r\n        // Type\r\n        newGenes = newGenes * 2**uint(GENE_SIZE) + createGene(d_type, nextSuggestedGene);\r\n        nextSuggestedGene = catchNextGene(suggestedSequence, GENE_SIZE);\r\n        suggestedSequence = remainingGenes(suggestedSequence, GENE_SIZE);\r\n        \r\n        // Element\r\n        newGenes = newGenes * 2**uint(GENE_SIZE) + createGene(elements, nextSuggestedGene);\r\n        nextSuggestedGene = catchNextGene(suggestedSequence, GENE_SIZE);\r\n        suggestedSequence = remainingGenes(suggestedSequence, GENE_SIZE);\r\n\r\n        // Pedigree\r\n        newGenes = newGenes * 2**uint(GENE_SIZE) + createGene(pedigree, nextSuggestedGene);\r\n        nextSuggestedGene = catchNextGene(suggestedSequence, GENE_SIZE);\r\n        suggestedSequence = remainingGenes(suggestedSequence, GENE_SIZE);\r\n\r\n        // Second Ability\r\n        newGenes = newGenes * 2**uint(GENE_SIZE) + createGene(second_abilities, nextSuggestedGene);\r\n        nextSuggestedGene = catchNextGene(suggestedSequence, GENE_SIZE);\r\n        suggestedSequence = remainingGenes(suggestedSequence, GENE_SIZE);\r\n        \r\n        // Ability\r\n        newGenes = newGenes * 2**uint(GENE_SIZE) + createGene(abilities, nextSuggestedGene);\r\n        nextSuggestedGene = catchNextGene(suggestedSequence, 2);\r\n        suggestedSequence = remainingGenes(suggestedSequence, 2);\r\n\r\n        // Beast Type (will always be 0)\r\n        newGenes = newGenes * 2**2;\r\n        nextSuggestedGene = catchNextGene(suggestedSequence, EXTRA_GENE_SIZE);\r\n\r\n        // Color Combination\r\n        newGenes = newGenes * 2**uint(GENE_SIZE) + createGene(color_combination, nextSuggestedGene);\r\n    \r\n        return newGenes;\r\n    }\r\n \r\n    /**\r\n     * Auxiliary function - Performs Gene Magic between two dinosaur gene sequences.\r\n     * @param genesMother - The gene sequence of the dinosaur mother\r\n     * @param genesFather - The gene sequence of the dinosaur father\r\n     * @param incubatorId - The id of the incubator\r\n     * @return {uint256} The gene configuration of the dinosaur child\r\n    */\r\n    function mixGenesDinosaurs(uint256 genesMother, uint256 genesFather, uint16 incubatorId) private returns(uint256) {\r\n        if (incubatorId < 4) {\r\n            elements[incubatorId] *= 3;\r\n        }\r\n\r\n        uint16 abilityFather = catchAbilityDinosaur(genesFather);\r\n        uint16 abilityMother = catchAbilityDinosaur(genesMother);\r\n        uint256 newGenes = 0;\r\n        \r\n        // Wings\r\n        newGenes = newGenes * 2**uint(GENE_SIZE) + mixGene(GENE_SIZE, genesMother, genesFather, d_wings, true, abilityMother, abilityFather);\r\n        genesFather = remainingGenes(genesFather, GENE_SIZE);\r\n        genesMother = remainingGenes(genesMother, GENE_SIZE);\r\n        \r\n        // Spikes\r\n        newGenes = newGenes * 2**uint(GENE_SIZE) + mixGene(GENE_SIZE, genesMother, genesFather, d_spikes, true, abilityMother, abilityFather);\r\n        genesFather = remainingGenes(genesFather, GENE_SIZE);\r\n        genesMother = remainingGenes(genesMother, GENE_SIZE);\r\n        \r\n        // Legs\r\n        newGenes = newGenes * 2**uint(GENE_SIZE) + mixGene(GENE_SIZE, genesMother, genesFather, d_legs, true, abilityMother, abilityFather);\r\n        genesFather = remainingGenes(genesFather, GENE_SIZE);\r\n        genesMother = remainingGenes(genesMother, GENE_SIZE);\r\n        \r\n        // Plume\r\n        newGenes = newGenes * 2**uint(GENE_SIZE) + mixGene(GENE_SIZE, genesMother, genesFather, d_plume, true, abilityMother, abilityFather);\r\n        genesFather = remainingGenes(genesFather, GENE_SIZE);\r\n        genesMother = remainingGenes(genesMother, GENE_SIZE);\r\n        \r\n        // Tail\r\n        newGenes = newGenes * 2**uint(GENE_SIZE) + mixGene(GENE_SIZE, genesMother, genesFather, d_tail, true, abilityMother, abilityFather);\r\n        genesFather = remainingGenes(genesFather, GENE_SIZE);\r\n        genesMother = remainingGenes(genesMother, GENE_SIZE);\r\n        \r\n        // Mouth\r\n        newGenes = newGenes * 2**uint(GENE_SIZE) + mixGene(GENE_SIZE, genesMother, genesFather, d_mouth, true, abilityMother, abilityFather);\r\n        genesFather = remainingGenes(genesFather, GENE_SIZE);\r\n        genesMother = remainingGenes(genesMother, GENE_SIZE);\r\n        \r\n        // Nose\r\n        newGenes = newGenes * 2**uint(GENE_SIZE) + mixGene(GENE_SIZE, genesMother, genesFather, d_nose, true, abilityMother, abilityFather);\r\n        genesFather = remainingGenes(genesFather, GENE_SIZE);\r\n        genesMother = remainingGenes(genesMother, GENE_SIZE);\r\n        \r\n        // Eyes\r\n        newGenes = newGenes * 2**uint(GENE_SIZE) + mixGene(GENE_SIZE, genesMother, genesFather, d_eyes, true, abilityMother, abilityFather);\r\n        genesFather = remainingGenes(genesFather, GENE_SIZE);\r\n        genesMother = remainingGenes(genesMother, GENE_SIZE);\r\n        \r\n        // Type\r\n        newGenes = newGenes * 2**uint(GENE_SIZE) + mixGene(GENE_SIZE, genesMother, genesFather, d_type, true, abilityMother, abilityFather);\r\n        genesFather = remainingGenes(genesFather, GENE_SIZE);\r\n        genesMother = remainingGenes(genesMother, GENE_SIZE);\r\n        \r\n        // Element\r\n        newGenes = newGenes * 2**uint(GENE_SIZE) + mixGene(GENE_SIZE, genesMother, genesFather, elements, true, abilityMother, abilityFather);\r\n        genesFather = remainingGenes(genesFather, GENE_SIZE);\r\n        genesMother = remainingGenes(genesMother, GENE_SIZE);\r\n\r\n        // Pedigree\r\n        newGenes = newGenes * 2**uint(GENE_SIZE) + mixGene(GENE_SIZE, genesMother, genesFather, pedigree, true, abilityMother, abilityFather);\r\n        genesFather = remainingGenes(genesFather, GENE_SIZE);\r\n        genesMother = remainingGenes(genesMother, GENE_SIZE);\r\n\r\n        // Second Ability\r\n        newGenes = newGenes * 2**uint(GENE_SIZE) + mixGene(GENE_SIZE, genesMother, genesFather, second_abilities, true, abilityMother, abilityFather);\r\n        genesFather = remainingGenes(genesFather, GENE_SIZE);\r\n        genesMother = remainingGenes(genesMother, GENE_SIZE);\r\n        \r\n        // Ability\r\n        newGenes = newGenes * 2**uint(GENE_SIZE) + mixGene(GENE_SIZE, genesMother, genesFather, abilities, true, abilityMother, abilityFather);\r\n        genesFather = remainingGenes(genesFather, GENE_SIZE);\r\n        genesMother = remainingGenes(genesMother, GENE_SIZE);\r\n        \r\n        // Beast Type - will always be 0\r\n        newGenes = newGenes * 2**uint(GENE_SIZE) + 0;\r\n        genesFather = remainingGenes(genesFather, 2);\r\n        genesMother = remainingGenes(genesMother, 2);\r\n        \r\n        // Color Combination\r\n        newGenes = newGenes * 2**uint(EXTRA_GENE_SIZE) + mixGene(EXTRA_GENE_SIZE, genesMother, genesFather, abilities, true, abilityMother, abilityFather);\r\n    \r\n        return newGenes;\r\n    }\r\n\r\n    /**\r\n     * Generates a new gene according to a density function.\r\n     * @param attributeProbabilities - The probability distribution of the gene values.\r\n     * @return {uint16} The new gene value\r\n    */\r\n    function createGene(uint[32] attributeProbabilities, uint16 suggestedGene) private returns(uint16) {\r\n        \r\n        if (suggestedGene != 0) {\r\n            return suggestedGene;\r\n        }\r\n\r\n        mixesMade++;\r\n        \r\n        uint total = 0;\r\n        for (uint i = 0; i < attributeProbabilities.length; i++) {\r\n            total += attributeProbabilities[i];\r\n        }\r\n        \r\n        int _randomNumber = int(randomNumber(total));\r\n        \r\n        uint16 r = 32;\r\n        \r\n        for (uint z = 0; z < attributeProbabilities.length; z++) {\r\n            _randomNumber -= int(attributeProbabilities[z]);\r\n            if (_randomNumber <= 0) {\r\n                r = uint16(z);\r\n                break;\r\n            }\r\n        }\r\n        \r\n        if (r == 32) {\r\n            r = 0;\r\n        }\r\n        \r\n        return r;\r\n    }\r\n\r\n    /**\r\n     * Mixes two genes using a density function.\r\n     * @param genesMother - The gene sequence of the dinosaur mother\r\n     * @param genesFather - The gene sequence of the dinosaur father\r\n     * @param attributeProbabilities - The probability distribution of the gene values.\r\n     * @return {uint16} The new gene value\r\n    */\r\n    function mixGene(uint8 geneSize, uint256 genesMother, uint256 genesFather, uint[32] attributeProbabilities, bool useAbilities, uint16 abilityMother, uint16 abilityFather) private returns(uint16) {\r\n        \r\n        mixesMade++;\r\n        \r\n        for (uint j = 0; j < attributeProbabilities.length; j++) {\r\n            if (attributeProbabilities[j] == uint(catchNextGene(genesFather, geneSize))) {\r\n                attributeProbabilities[j] *= 2;\r\n            } else if (attributeProbabilities[j] == uint(catchNextGene(genesMother, geneSize))) {\r\n                attributeProbabilities[j] *= 2;\r\n            }\r\n\r\n            if (useAbilities) {\r\n                if (abilityFather == RECESSIVE_GENE_ABILITY && attributeProbabilities[j] == uint(catchNextGene(genesFather, geneSize))) {\r\n                    attributeProbabilities[j] /= 2;\r\n                } else if (abilityFather == DOMINANT_GENE_ABILITY && attributeProbabilities[j] == uint(catchNextGene(genesFather, geneSize))) {\r\n                    attributeProbabilities[j] *= 2;\r\n                }\r\n\r\n                if (abilityMother == RECESSIVE_GENE_ABILITY && attributeProbabilities[j] == uint(catchNextGene(genesMother, geneSize))) {\r\n                    attributeProbabilities[j] /= 2;\r\n                } else if (abilityMother == DOMINANT_GENE_ABILITY && attributeProbabilities[j] == uint(catchNextGene(genesMother, geneSize))) {\r\n                    attributeProbabilities[j] *= 2;\r\n                }\r\n            }\r\n\r\n        }\r\n        \r\n        uint total = 0;\r\n        for (uint i = 0; i < attributeProbabilities.length; i++) {\r\n            total += attributeProbabilities[i];\r\n        }\r\n        \r\n        int _randomNumber = int(randomNumber(total));\r\n        \r\n        uint16 r = 2 ** geneSize;\r\n        \r\n        for (uint z = 0; z < attributeProbabilities.length; z++) {\r\n            _randomNumber -= int(attributeProbabilities[z]);\r\n            if (_randomNumber <= 0) {\r\n                r = uint16(z);\r\n                break;\r\n            }\r\n        }\r\n        \r\n        if (r == 2 ** geneSize) {\r\n            r = 0;\r\n        }\r\n        \r\n        return r;\r\n    }\r\n\r\n    /**\r\n     * Returns the next available gene of a gene sequence.\r\n     * @param geneBase - The gene sequence\r\n     * @return {uint16} The next gene available\r\n    */\r\n    function catchNextGene(uint256 geneBase, uint8 geneSize) private pure returns (uint16) {\r\n        uint16 accumulator = 0;\r\n        for (uint b = 0; b < geneSize; b++) {\r\n            uint256 r = geneBase % 2;\r\n            accumulator += uint16(r) * uint16(2 ** b);\r\n            geneBase /= 2;\r\n        }\r\n        return accumulator;\r\n    }\r\n\r\n    function catchAbilityUnicorn(uint256 geneBase) private pure returns (uint16) {\r\n        geneBase = geneBase / (2 ** uint(GENE_SIZE * 10));\r\n        return catchNextGene(geneBase, GENE_SIZE);\r\n    }\r\n\r\n    function catchAbilityDinosaur(uint256 geneBase) private pure returns (uint16) {\r\n        geneBase = geneBase / (2 ** uint(GENE_SIZE * 12));\r\n        return catchNextGene(geneBase, GENE_SIZE);\r\n    }\r\n    \r\n    /**\r\n     * Extracts the next available gene of a gene sequence and returns the remainder.\r\n     * @param geneBase - The gene sequence\r\n     * @param geneSize - The gene size\r\n     * @return {uint16} The remainder of the sequence after extracting the gene\r\n    */\r\n    function remainingGenes(uint256 geneBase, uint8 geneSize) private pure returns (uint256) {\r\n        return geneBase / (2 ** uint(geneSize));\r\n    }\r\n\r\n    /**\r\n     * Returns a random number using block difficulty, time and mixes previously made as seed.\r\n     * @return {number} The random value.\r\n    */\r\n    function randomNumber(uint b) private constant returns (uint) {\r\n        return uint(keccak256(block.difficulty, now, mixesMade))%b;\r\n    }\r\n\r\n\r\n\r\n    // Unicorn setters\r\n\r\n    function set_u_type(uint32 pos, uint256 val) public {\r\n        u_type[pos] = val;\r\n    }\r\n\r\n    function set_u_eyes(uint32 pos, uint256 val) public {\r\n        u_eyes[pos] = val;\r\n    }\r\n\r\n    function set_u_horn(uint32 pos, uint256 val) public {\r\n        u_horn[pos] = val;\r\n    }\r\n\r\n    function set_u_hair(uint32 pos, uint256 val) public {\r\n        u_hair[pos] = val;\r\n    }\r\n\r\n    function set_u_tail(uint32 pos, uint256 val) public {\r\n        u_tail[pos] = val;\r\n    }\r\n\r\n    function set_u_snout(uint32 pos, uint256 val) public {\r\n        u_snout[pos] = val;\r\n    }\r\n\r\n    function set_u_legs(uint32 pos, uint256 val) public {\r\n        u_legs[pos] = val;\r\n    }\r\n\r\n    // Dinosaur setters\r\n\r\n    function set_d_type(uint32 pos, uint256 val) public {\r\n        d_type[pos] = val;\r\n    }\r\n\r\n    function set_d_eyes(uint32 pos, uint256 val) public {\r\n        d_eyes[pos] = val;\r\n    }\r\n\r\n    function set_d_nose(uint32 pos, uint256 val) public {\r\n        d_nose[pos] = val;\r\n    }\r\n\r\n    function set_d_mouth(uint32 pos, uint256 val) public {\r\n        d_mouth[pos] = val;\r\n    }\r\n\r\n    function set_d_tail(uint32 pos, uint256 val) public {\r\n        d_tail[pos] = val;\r\n    }\r\n\r\n    function set_d_plume(uint32 pos, uint256 val) public {\r\n        d_plume[pos] = val;\r\n    }\r\n\r\n    function set_d_legs(uint32 pos, uint256 val) public {\r\n        d_legs[pos] = val;\r\n    }\r\n\r\n    function set_d_spikes(uint32 pos, uint256 val) public {\r\n        d_spikes[pos] = val;\r\n    }\r\n\r\n    function set_d_wings(uint32 pos, uint256 val) public {\r\n        d_wings[pos] = val;\r\n    }\r\n\r\n    // COMMON SETTERS\r\n\r\n    function set_abilities(uint32 pos, uint256 val) public {\r\n        abilities[pos] = val;\r\n    }\r\n\r\n    function set_second_abilities(uint32 pos, uint256 val) public {\r\n        second_abilities[pos] = val;\r\n    }\r\n\r\n    function set_elements(uint32 pos, uint256 val) public {\r\n        elements[pos] = val;\r\n    }\r\n\r\n    function set_pedigree(uint32 pos, uint256 val) public {\r\n        pedigree[pos] = val;\r\n    }\r\n\r\n}",
  "sourcePath": "/Users/jonathanaraneda/BlockchainProjects/unicornsvsdinosaurs-smartcontracts/contracts/GeneMagic.sol",
  "compiler": {
    "name": "solc",
    "version": "0.4.24+commit.e67f0147.Emscripten.clang"
  },
  "schemaVersion": "2.0.1",
  "updatedAt": "2018-08-03T00:22:13.612Z"
}