{
  "contractName": "Legends",
  "abi": [
    {
      "constant": true,
      "inputs": [
        {
          "name": "_interfaceID",
          "type": "bytes4"
        }
      ],
      "name": "supportsInterface",
      "outputs": [
        {
          "name": "",
          "type": "bool"
        }
      ],
      "payable": false,
      "stateMutability": "view",
      "type": "function"
    },
    {
      "constant": true,
      "inputs": [],
      "name": "cfoAddress",
      "outputs": [
        {
          "name": "",
          "type": "address"
        }
      ],
      "payable": false,
      "stateMutability": "view",
      "type": "function"
    },
    {
      "constant": true,
      "inputs": [
        {
          "name": "_tokenId",
          "type": "uint256"
        },
        {
          "name": "_preferredTransport",
          "type": "string"
        }
      ],
      "name": "tokenMetadata",
      "outputs": [
        {
          "name": "infoUrl",
          "type": "string"
        }
      ],
      "payable": false,
      "stateMutability": "view",
      "type": "function"
    },
    {
      "constant": true,
      "inputs": [],
      "name": "promoCreatedCount",
      "outputs": [
        {
          "name": "",
          "type": "uint256"
        }
      ],
      "payable": false,
      "stateMutability": "view",
      "type": "function"
    },
    {
      "constant": true,
      "inputs": [],
      "name": "name",
      "outputs": [
        {
          "name": "",
          "type": "string"
        }
      ],
      "payable": false,
      "stateMutability": "view",
      "type": "function"
    },
    {
      "constant": false,
      "inputs": [
        {
          "name": "_to",
          "type": "address"
        },
        {
          "name": "_tokenId",
          "type": "uint256"
        }
      ],
      "name": "approve",
      "outputs": [],
      "payable": false,
      "stateMutability": "nonpayable",
      "type": "function"
    },
    {
      "constant": true,
      "inputs": [],
      "name": "ceoAddress",
      "outputs": [
        {
          "name": "",
          "type": "address"
        }
      ],
      "payable": false,
      "stateMutability": "view",
      "type": "function"
    },
    {
      "constant": false,
      "inputs": [
        {
          "name": "_address",
          "type": "address"
        }
      ],
      "name": "setSiringAuctionAddress",
      "outputs": [],
      "payable": false,
      "stateMutability": "nonpayable",
      "type": "function"
    },
    {
      "constant": true,
      "inputs": [],
      "name": "totalSupply",
      "outputs": [
        {
          "name": "",
          "type": "uint256"
        }
      ],
      "payable": false,
      "stateMutability": "view",
      "type": "function"
    },
    {
      "constant": true,
      "inputs": [
        {
          "name": "_beastId",
          "type": "uint256"
        }
      ],
      "name": "isPregnant",
      "outputs": [
        {
          "name": "",
          "type": "bool"
        }
      ],
      "payable": false,
      "stateMutability": "view",
      "type": "function"
    },
    {
      "constant": true,
      "inputs": [],
      "name": "siringAuction",
      "outputs": [
        {
          "name": "",
          "type": "address"
        }
      ],
      "payable": false,
      "stateMutability": "view",
      "type": "function"
    },
    {
      "constant": false,
      "inputs": [
        {
          "name": "_from",
          "type": "address"
        },
        {
          "name": "_to",
          "type": "address"
        },
        {
          "name": "_tokenId",
          "type": "uint256"
        }
      ],
      "name": "transferFrom",
      "outputs": [],
      "payable": false,
      "stateMutability": "nonpayable",
      "type": "function"
    },
    {
      "constant": false,
      "inputs": [
        {
          "name": "_address",
          "type": "address"
        }
      ],
      "name": "setGeneScienceAddress",
      "outputs": [],
      "payable": false,
      "stateMutability": "nonpayable",
      "type": "function"
    },
    {
      "constant": false,
      "inputs": [
        {
          "name": "_newCEO",
          "type": "address"
        }
      ],
      "name": "setCEO",
      "outputs": [],
      "payable": false,
      "stateMutability": "nonpayable",
      "type": "function"
    },
    {
      "constant": false,
      "inputs": [
        {
          "name": "_newCOO",
          "type": "address"
        }
      ],
      "name": "setCOO",
      "outputs": [],
      "payable": false,
      "stateMutability": "nonpayable",
      "type": "function"
    },
    {
      "constant": false,
      "inputs": [
        {
          "name": "_beastId",
          "type": "uint256"
        },
        {
          "name": "_startingPrice",
          "type": "uint256"
        },
        {
          "name": "_endingPrice",
          "type": "uint256"
        },
        {
          "name": "_duration",
          "type": "uint256"
        }
      ],
      "name": "createSaleAuction",
      "outputs": [],
      "payable": false,
      "stateMutability": "nonpayable",
      "type": "function"
    },
    {
      "constant": false,
      "inputs": [],
      "name": "unpause",
      "outputs": [],
      "payable": false,
      "stateMutability": "nonpayable",
      "type": "function"
    },
    {
      "constant": true,
      "inputs": [
        {
          "name": "",
          "type": "uint256"
        }
      ],
      "name": "sireAllowedToAddress",
      "outputs": [
        {
          "name": "",
          "type": "address"
        }
      ],
      "payable": false,
      "stateMutability": "view",
      "type": "function"
    },
    {
      "constant": true,
      "inputs": [
        {
          "name": "_matronId",
          "type": "uint256"
        },
        {
          "name": "_sireId",
          "type": "uint256"
        }
      ],
      "name": "canBreedWith",
      "outputs": [
        {
          "name": "",
          "type": "bool"
        }
      ],
      "payable": false,
      "stateMutability": "view",
      "type": "function"
    },
    {
      "constant": false,
      "inputs": [
        {
          "name": "_beastId",
          "type": "uint256"
        },
        {
          "name": "_startingPrice",
          "type": "uint256"
        },
        {
          "name": "_endingPrice",
          "type": "uint256"
        },
        {
          "name": "_duration",
          "type": "uint256"
        }
      ],
      "name": "createSiringAuction",
      "outputs": [],
      "payable": false,
      "stateMutability": "nonpayable",
      "type": "function"
    },
    {
      "constant": false,
      "inputs": [
        {
          "name": "val",
          "type": "uint256"
        }
      ],
      "name": "setAutoBirthFee",
      "outputs": [],
      "payable": false,
      "stateMutability": "nonpayable",
      "type": "function"
    },
    {
      "constant": false,
      "inputs": [],
      "name": "createBeastFromEgg",
      "outputs": [],
      "payable": true,
      "stateMutability": "payable",
      "type": "function"
    },
    {
      "constant": false,
      "inputs": [
        {
          "name": "_addr",
          "type": "address"
        },
        {
          "name": "_sireId",
          "type": "uint256"
        }
      ],
      "name": "approveSiring",
      "outputs": [],
      "payable": false,
      "stateMutability": "nonpayable",
      "type": "function"
    },
    {
      "constant": false,
      "inputs": [
        {
          "name": "_newCFO",
          "type": "address"
        }
      ],
      "name": "setCFO",
      "outputs": [],
      "payable": false,
      "stateMutability": "nonpayable",
      "type": "function"
    },
    {
      "constant": true,
      "inputs": [
        {
          "name": "",
          "type": "uint256"
        }
      ],
      "name": "beastIndexToOwner",
      "outputs": [
        {
          "name": "",
          "type": "address"
        }
      ],
      "payable": false,
      "stateMutability": "view",
      "type": "function"
    },
    {
      "constant": true,
      "inputs": [],
      "name": "EGGS_LIMIT",
      "outputs": [
        {
          "name": "",
          "type": "uint256"
        }
      ],
      "payable": false,
      "stateMutability": "view",
      "type": "function"
    },
    {
      "constant": true,
      "inputs": [],
      "name": "paused",
      "outputs": [
        {
          "name": "",
          "type": "bool"
        }
      ],
      "payable": false,
      "stateMutability": "view",
      "type": "function"
    },
    {
      "constant": false,
      "inputs": [],
      "name": "withdrawBalance",
      "outputs": [],
      "payable": false,
      "stateMutability": "nonpayable",
      "type": "function"
    },
    {
      "constant": true,
      "inputs": [
        {
          "name": "_tokenId",
          "type": "uint256"
        }
      ],
      "name": "ownerOf",
      "outputs": [
        {
          "name": "owner",
          "type": "address"
        }
      ],
      "payable": false,
      "stateMutability": "view",
      "type": "function"
    },
    {
      "constant": true,
      "inputs": [],
      "name": "getCurrentEggPrice",
      "outputs": [
        {
          "name": "",
          "type": "uint256"
        }
      ],
      "payable": false,
      "stateMutability": "view",
      "type": "function"
    },
    {
      "constant": false,
      "inputs": [
        {
          "name": "_address",
          "type": "address"
        }
      ],
      "name": "setSaleAuctionAddress",
      "outputs": [],
      "payable": false,
      "stateMutability": "nonpayable",
      "type": "function"
    },
    {
      "constant": true,
      "inputs": [
        {
          "name": "_owner",
          "type": "address"
        }
      ],
      "name": "balanceOf",
      "outputs": [
        {
          "name": "count",
          "type": "uint256"
        }
      ],
      "payable": false,
      "stateMutability": "view",
      "type": "function"
    },
    {
      "constant": true,
      "inputs": [],
      "name": "secondsPerBlock",
      "outputs": [
        {
          "name": "",
          "type": "uint256"
        }
      ],
      "payable": false,
      "stateMutability": "view",
      "type": "function"
    },
    {
      "constant": true,
      "inputs": [
        {
          "name": "_legendId",
          "type": "uint256"
        }
      ],
      "name": "getLegend",
      "outputs": [
        {
          "name": "experience",
          "type": "uint256"
        },
        {
          "name": "birthTime",
          "type": "uint256"
        },
        {
          "name": "sireId",
          "type": "uint256"
        },
        {
          "name": "matronId",
          "type": "uint256"
        },
        {
          "name": "siringWithId",
          "type": "uint256"
        },
        {
          "name": "generation",
          "type": "uint256"
        },
        {
          "name": "strength",
          "type": "uint256"
        },
        {
          "name": "dexterity",
          "type": "uint256"
        },
        {
          "name": "endurance",
          "type": "uint256"
        },
        {
          "name": "knowledge",
          "type": "uint256"
        },
        {
          "name": "wisdom",
          "type": "uint256"
        },
        {
          "name": "charisma",
          "type": "uint256"
        },
        {
          "name": "genes",
          "type": "uint256"
        }
      ],
      "payable": false,
      "stateMutability": "view",
      "type": "function"
    },
    {
      "constant": false,
      "inputs": [],
      "name": "pause",
      "outputs": [],
      "payable": false,
      "stateMutability": "nonpayable",
      "type": "function"
    },
    {
      "constant": true,
      "inputs": [
        {
          "name": "_owner",
          "type": "address"
        }
      ],
      "name": "tokensOfOwner",
      "outputs": [
        {
          "name": "ownerTokens",
          "type": "uint256[]"
        }
      ],
      "payable": false,
      "stateMutability": "view",
      "type": "function"
    },
    {
      "constant": false,
      "inputs": [
        {
          "name": "_matronId",
          "type": "uint256"
        }
      ],
      "name": "giveBirth",
      "outputs": [
        {
          "name": "",
          "type": "uint256"
        }
      ],
      "payable": false,
      "stateMutability": "nonpayable",
      "type": "function"
    },
    {
      "constant": false,
      "inputs": [],
      "name": "withdrawAuctionBalances",
      "outputs": [],
      "payable": false,
      "stateMutability": "nonpayable",
      "type": "function"
    },
    {
      "constant": true,
      "inputs": [],
      "name": "symbol",
      "outputs": [
        {
          "name": "",
          "type": "string"
        }
      ],
      "payable": false,
      "stateMutability": "view",
      "type": "function"
    },
    {
      "constant": true,
      "inputs": [
        {
          "name": "",
          "type": "uint256"
        }
      ],
      "name": "cooldowns",
      "outputs": [
        {
          "name": "",
          "type": "uint32"
        }
      ],
      "payable": false,
      "stateMutability": "view",
      "type": "function"
    },
    {
      "constant": false,
      "inputs": [
        {
          "name": "_to",
          "type": "address"
        },
        {
          "name": "_tokenId",
          "type": "uint256"
        }
      ],
      "name": "transfer",
      "outputs": [],
      "payable": false,
      "stateMutability": "nonpayable",
      "type": "function"
    },
    {
      "constant": true,
      "inputs": [],
      "name": "EGGS_PRICE_INCREASE",
      "outputs": [
        {
          "name": "",
          "type": "uint256"
        }
      ],
      "payable": false,
      "stateMutability": "view",
      "type": "function"
    },
    {
      "constant": true,
      "inputs": [],
      "name": "cooAddress",
      "outputs": [
        {
          "name": "",
          "type": "address"
        }
      ],
      "payable": false,
      "stateMutability": "view",
      "type": "function"
    },
    {
      "constant": true,
      "inputs": [],
      "name": "autoBirthFee",
      "outputs": [
        {
          "name": "",
          "type": "uint256"
        }
      ],
      "payable": false,
      "stateMutability": "view",
      "type": "function"
    },
    {
      "constant": true,
      "inputs": [],
      "name": "EGGS_PRICE_BASE",
      "outputs": [
        {
          "name": "",
          "type": "uint256"
        }
      ],
      "payable": false,
      "stateMutability": "view",
      "type": "function"
    },
    {
      "constant": true,
      "inputs": [],
      "name": "pregnantBeasts",
      "outputs": [
        {
          "name": "",
          "type": "uint256"
        }
      ],
      "payable": false,
      "stateMutability": "view",
      "type": "function"
    },
    {
      "constant": true,
      "inputs": [],
      "name": "erc721Metadata",
      "outputs": [
        {
          "name": "",
          "type": "address"
        }
      ],
      "payable": false,
      "stateMutability": "view",
      "type": "function"
    },
    {
      "constant": true,
      "inputs": [],
      "name": "eggsCreatedCount",
      "outputs": [
        {
          "name": "",
          "type": "uint256"
        }
      ],
      "payable": false,
      "stateMutability": "view",
      "type": "function"
    },
    {
      "constant": true,
      "inputs": [
        {
          "name": "",
          "type": "uint256"
        }
      ],
      "name": "beastIndexToApproved",
      "outputs": [
        {
          "name": "",
          "type": "address"
        }
      ],
      "payable": false,
      "stateMutability": "view",
      "type": "function"
    },
    {
      "constant": true,
      "inputs": [
        {
          "name": "_beastId",
          "type": "uint256"
        }
      ],
      "name": "isReadyToBreed",
      "outputs": [
        {
          "name": "",
          "type": "bool"
        }
      ],
      "payable": false,
      "stateMutability": "view",
      "type": "function"
    },
    {
      "constant": true,
      "inputs": [],
      "name": "PROMO_CREATION_LIMIT",
      "outputs": [
        {
          "name": "",
          "type": "uint256"
        }
      ],
      "payable": false,
      "stateMutability": "view",
      "type": "function"
    },
    {
      "constant": false,
      "inputs": [
        {
          "name": "_contractAddress",
          "type": "address"
        }
      ],
      "name": "setMetadataAddress",
      "outputs": [],
      "payable": false,
      "stateMutability": "nonpayable",
      "type": "function"
    },
    {
      "constant": true,
      "inputs": [],
      "name": "saleAuction",
      "outputs": [
        {
          "name": "",
          "type": "address"
        }
      ],
      "payable": false,
      "stateMutability": "view",
      "type": "function"
    },
    {
      "constant": false,
      "inputs": [
        {
          "name": "_sireId",
          "type": "uint256"
        },
        {
          "name": "_matronId",
          "type": "uint256"
        }
      ],
      "name": "bidOnSiringAuction",
      "outputs": [],
      "payable": true,
      "stateMutability": "payable",
      "type": "function"
    },
    {
      "constant": true,
      "inputs": [],
      "name": "geneScience",
      "outputs": [
        {
          "name": "",
          "type": "address"
        }
      ],
      "payable": false,
      "stateMutability": "view",
      "type": "function"
    },
    {
      "constant": false,
      "inputs": [
        {
          "name": "_matronId",
          "type": "uint256"
        },
        {
          "name": "_sireId",
          "type": "uint256"
        }
      ],
      "name": "breedWithAuto",
      "outputs": [],
      "payable": true,
      "stateMutability": "payable",
      "type": "function"
    },
    {
      "constant": false,
      "inputs": [
        {
          "name": "_genes",
          "type": "uint256"
        },
        {
          "name": "_owner",
          "type": "address"
        }
      ],
      "name": "createPromoBeast",
      "outputs": [],
      "payable": false,
      "stateMutability": "nonpayable",
      "type": "function"
    },
    {
      "inputs": [],
      "payable": false,
      "stateMutability": "nonpayable",
      "type": "constructor"
    },
    {
      "payable": true,
      "stateMutability": "payable",
      "type": "fallback"
    },
    {
      "anonymous": false,
      "inputs": [
        {
          "indexed": false,
          "name": "legendId",
          "type": "uint256"
        }
      ],
      "name": "EggBought",
      "type": "event"
    },
    {
      "anonymous": false,
      "inputs": [
        {
          "indexed": false,
          "name": "owner",
          "type": "address"
        },
        {
          "indexed": false,
          "name": "matronId",
          "type": "uint256"
        },
        {
          "indexed": false,
          "name": "sireId",
          "type": "uint256"
        },
        {
          "indexed": false,
          "name": "cooldownEndBlock",
          "type": "uint256"
        }
      ],
      "name": "Pregnant",
      "type": "event"
    },
    {
      "anonymous": false,
      "inputs": [
        {
          "indexed": false,
          "name": "from",
          "type": "address"
        },
        {
          "indexed": false,
          "name": "to",
          "type": "address"
        },
        {
          "indexed": false,
          "name": "tokenId",
          "type": "uint256"
        }
      ],
      "name": "Transfer",
      "type": "event"
    },
    {
      "anonymous": false,
      "inputs": [
        {
          "indexed": false,
          "name": "owner",
          "type": "address"
        },
        {
          "indexed": false,
          "name": "approved",
          "type": "address"
        },
        {
          "indexed": false,
          "name": "tokenId",
          "type": "uint256"
        }
      ],
      "name": "Approval",
      "type": "event"
    },
    {
      "anonymous": false,
      "inputs": [
        {
          "indexed": false,
          "name": "owner",
          "type": "address"
        },
        {
          "indexed": false,
          "name": "beastId",
          "type": "uint256"
        },
        {
          "indexed": false,
          "name": "matronId",
          "type": "uint256"
        },
        {
          "indexed": false,
          "name": "sireId",
          "type": "uint256"
        },
        {
          "indexed": false,
          "name": "genes",
          "type": "uint256"
        }
      ],
      "name": "Birth",
      "type": "event"
    },
    {
      "anonymous": false,
      "inputs": [
        {
          "indexed": false,
          "name": "newContract",
          "type": "address"
        }
      ],
      "name": "ContractUpgrade",
      "type": "event"
    }
  ],
  "bytecode": "0x60606040526000600260146101000a81548160ff0219169083151502179055506101c060405190810160405280603c63ffffffff1663ffffffff168152602001607863ffffffff1663ffffffff16815260200161012c63ffffffff1663ffffffff16815260200161025863ffffffff1663ffffffff16815260200161070863ffffffff1663ffffffff168152602001610e1063ffffffff1663ffffffff168152602001611c2063ffffffff1663ffffffff16815260200161384063ffffffff1663ffffffff16815260200161708063ffffffff1663ffffffff16815260200161e10063ffffffff1663ffffffff1681526020016201518063ffffffff1663ffffffff1681526020016202a30063ffffffff1663ffffffff1681526020016205460063ffffffff1663ffffffff16815260200162093a8063ffffffff1663ffffffff16815250600390600e6200015692919062000934565b50600f60055566071afd498d0000600e5534156200017357600080fd5b336000806101000a81548173ffffffffffffffffffffffffffffffffffffffff021916908373ffffffffffffffffffffffffffffffffffffffff16021790555033600260006101000a81548173ffffffffffffffffffffffffffffffffffffffff021916908373ffffffffffffffffffffffffffffffffffffffff1602179055506200023a60008060007fffffffffffffffffffffffffffffffffffffffffffffffffffffffffffffffff600062000241640100000000026200485e176401000000009004565b5062000cd9565b60006200024d620009de565b60008763ffffffff16881415156200026457600080fd5b8663ffffffff16871415156200027957600080fd5b8561ffff16861415156200028c57600080fd5b61018060405190810160405280868152602001600067ffffffffffffffff168152602001600067ffffffffffffffff1681526020014267ffffffffffffffff168152602001600067ffffffffffffffff1681526020018863ffffffff1681526020018963ffffffff168152602001600063ffffffff168152602001600061ffff1681526020018761ffff168152602001600160ff16815260200160c060405190810160405280600160ff168152602001600160ff168152602001600160ff168152602001600160ff168152602001600160ff168152602001600160ff16815250815250915060016006805480600101828162000389919062000a8d565b916000526020600020906004020160008590919091506000820151816000015560208201518160010160006101000a81548167ffffffffffffffff021916908367ffffffffffffffff16021790555060408201518160010160086101000a81548167ffffffffffffffff021916908367ffffffffffffffff16021790555060608201518160010160106101000a81548167ffffffffffffffff021916908367ffffffffffffffff16021790555060808201518160010160186101000a81548167ffffffffffffffff021916908367ffffffffffffffff16021790555060a08201518160020160006101000a81548163ffffffff021916908363ffffffff16021790555060c08201518160020160046101000a81548163ffffffff021916908363ffffffff16021790555060e08201518160020160086101000a81548163ffffffff021916908363ffffffff16021790555061010082015181600201600c6101000a81548161ffff021916908361ffff16021790555061012082015181600201600e6101000a81548161ffff021916908361ffff1602179055506101408201518160020160106101000a81548160ff021916908360ff1602179055506101608201518160030160008201518160000160006101000a81548160ff021916908360ff16021790555060208201518160000160016101000a81548160ff021916908360ff16021790555060408201518160000160026101000a81548160ff021916908360ff16021790555060608201518160000160036101000a81548160ff021916908360ff16021790555060808201518160000160046101000a81548160ff021916908360ff16021790555060a08201518160000160056101000a81548160ff021916908360ff160217905550505050500390508063ffffffff16811415156200063057600080fd5b7f0a5311bd2a6608f08a180df2ee7c5946819a649b204b554bb8e39825b2c50ad584828460c0015163ffffffff168560a0015163ffffffff168660000151604051808673ffffffffffffffffffffffffffffffffffffffff1673ffffffffffffffffffffffffffffffffffffffff1681526020018581526020018481526020018381526020018281526020019550505050505060405180910390a1620006ed60008583620006fb64010000000002620042e2176401000000009004565b809250505095945050505050565b600860008373ffffffffffffffffffffffffffffffffffffffff1673ffffffffffffffffffffffffffffffffffffffff16815260200190815260200160002060008154809291906001019190505550816007600083815260200190815260200160002060006101000a81548173ffffffffffffffffffffffffffffffffffffffff021916908373ffffffffffffffffffffffffffffffffffffffff160217905550600073ffffffffffffffffffffffffffffffffffffffff168373ffffffffffffffffffffffffffffffffffffffff161415156200089057600860008473ffffffffffffffffffffffffffffffffffffffff1673ffffffffffffffffffffffffffffffffffffffff1681526020019081526020016000206000815480929190600190039190505550600a600082815260200190815260200160002060006101000a81549073ffffffffffffffffffffffffffffffffffffffff02191690556009600082815260200190815260200160002060006101000a81549073ffffffffffffffffffffffffffffffffffffffff02191690555b7fddf252ad1be2c89b69c2b068fc378daa952ba7f163c4a11628f55a4df523b3ef838383604051808473ffffffffffffffffffffffffffffffffffffffff1673ffffffffffffffffffffffffffffffffffffffff1681526020018373ffffffffffffffffffffffffffffffffffffffff1673ffffffffffffffffffffffffffffffffffffffff168152602001828152602001935050505060405180910390a1505050565b82600e600701600890048101928215620009cb5791602002820160005b838211156200099757835183826101000a81548163ffffffff021916908363ffffffff160217905550926020019260040160208160030104928301926001030262000951565b8015620009c95782816101000a81549063ffffffff021916905560040160208160030104928301926001030262000997565b505b509050620009da919062000ac2565b5090565b6102206040519081016040528060008152602001600067ffffffffffffffff168152602001600067ffffffffffffffff168152602001600067ffffffffffffffff168152602001600067ffffffffffffffff168152602001600063ffffffff168152602001600063ffffffff168152602001600063ffffffff168152602001600061ffff168152602001600061ffff168152602001600060ff16815260200162000a8762000af8565b81525090565b81548183558181151162000abd5760040281600402836000526020600020918201910162000abc919062000b41565b5b505050565b62000af591905b8082111562000af157600081816101000a81549063ffffffff02191690555060010162000ac9565b5090565b90565b60c060405190810160405280600060ff168152602001600060ff168152602001600060ff168152602001600060ff168152602001600060ff168152602001600060ff1681525090565b62000cd691905b8082111562000cd2576000808201600090556001820160006101000a81549067ffffffffffffffff02191690556001820160086101000a81549067ffffffffffffffff02191690556001820160106101000a81549067ffffffffffffffff02191690556001820160186101000a81549067ffffffffffffffff02191690556002820160006101000a81549063ffffffff02191690556002820160046101000a81549063ffffffff02191690556002820160086101000a81549063ffffffff021916905560028201600c6101000a81549061ffff021916905560028201600e6101000a81549061ffff02191690556002820160106101000a81549060ff021916905560038201600080820160006101000a81549060ff02191690556000820160016101000a81549060ff02191690556000820160026101000a81549060ff02191690556000820160036101000a81549060ff02191690556000820160046101000a81549060ff02191690556000820160056101000a81549060ff021916905550505060040162000b48565b5090565b90565b61547a8062000ce96000396000f3006060604052600436106102a9576000357c0100000000000000000000000000000000000000000000000000000000900463ffffffff16806301ffc9a71461035f5780630519ce79146103b95780630560ff441461040e57806305e45546146104be57806306fdde03146104e7578063095ea7b3146105755780630a0f8168146105b757806314001f4c1461060c57806318160ddd146106455780631940a9361461066e57806321717ebf146106a957806323b872dd146106fe57806324e7a38a1461075f57806327d7874c146107985780632ba73c15146107d15780633d7d3f5a1461080a5780633f4ba83a1461084857806346116e6f1461085d57806346d22c70146108c05780634ad8c938146109045780634b85fd55146109425780634c3f2296146109655780634dfff04f1461096f5780634e0a3379146109b15780635318673f146109ea57806357b6d9b814610a4d5780635c975abb14610a765780635fd8c71014610aa35780636352211e14610ab85780636c80b1d914610b1b5780636fbde40d14610b4457806370a0823114610b7d5780637a7d493714610bca5780637d79e44014610bf35780638456cb5914610c7e5780638462151c14610c9357806388c2a0bf14610d2157806391876e5714610d5857806395d89b4114610d6d5780639d6fac6f14610dfb578063a9059cbb14610e3e578063ab18997414610e80578063b047fb5014610ea9578063b0c35c0514610efe578063bb1fdb8f14610f27578063bbdacd0f14610f50578063bc4006f514610f79578063c9765eac14610fce578063d11dffee14610ff7578063d3e6f49f1461105a578063defb958414611095578063e17b25af146110be578063e6cbe351146110f7578063ed60ade61461114c578063f2b47d521461116d578063f7d8c883146111c2578063f817bdaf146111e3575b600b60009054906101000a900473ffffffffffffffffffffffffffffffffffffffff1673ffffffffffffffffffffffffffffffffffffffff163373ffffffffffffffffffffffffffffffffffffffff1614806103525750600c60009054906101000a900473ffffffffffffffffffffffffffffffffffffffff1673ffffffffffffffffffffffffffffffffffffffff163373ffffffffffffffffffffffffffffffffffffffff16145b151561035d57600080fd5b005b341561036a57600080fd5b61039f60048080357bffffffffffffffffffffffffffffffffffffffffffffffffffffffff1916906020019091905050611225565b604051808215151515815260200191505060405180910390f35b34156103c457600080fd5b6103cc611536565b604051808273ffffffffffffffffffffffffffffffffffffffff1673ffffffffffffffffffffffffffffffffffffffff16815260200191505060405180910390f35b341561041957600080fd5b6104436004808035906020019091908035906020019082018035906020019190919290505061155c565b6040518080602001828103825283818151815260200191508051906020019080838360005b83811015610483578082015181840152602081019050610468565b50505050905090810190601f1680156104b05780820380516001836020036101000a031916815260200191505b509250505060405180910390f35b34156104c957600080fd5b6104d16116c7565b6040518082815260200191505060405180910390f35b34156104f257600080fd5b6104fa6116cd565b6040518080602001828103825283818151815260200191508051906020019080838360005b8381101561053a57808201518184015260208101905061051f565b50505050905090810190601f1680156105675780820380516001836020036101000a031916815260200191505b509250505060405180910390f35b341561058057600080fd5b6105b5600480803573ffffffffffffffffffffffffffffffffffffffff16906020019091908035906020019091905050611706565b005b34156105c257600080fd5b6105ca6117e4565b604051808273ffffffffffffffffffffffffffffffffffffffff1673ffffffffffffffffffffffffffffffffffffffff16815260200191505060405180910390f35b341561061757600080fd5b610643600480803573ffffffffffffffffffffffffffffffffffffffff16906020019091905050611809565b005b341561065057600080fd5b610658611940565b6040518082815260200191505060405180910390f35b341561067957600080fd5b61068f6004808035906020019091905050611950565b604051808215151515815260200191505060405180910390f35b34156106b457600080fd5b6106bc6119a2565b604051808273ffffffffffffffffffffffffffffffffffffffff1673ffffffffffffffffffffffffffffffffffffffff16815260200191505060405180910390f35b341561070957600080fd5b61075d600480803573ffffffffffffffffffffffffffffffffffffffff1690602001909190803573ffffffffffffffffffffffffffffffffffffffff169060200190919080359060200190919050506119c8565b005b341561076a57600080fd5b610796600480803573ffffffffffffffffffffffffffffffffffffffff16906020019091905050611a95565b005b34156107a357600080fd5b6107cf600480803573ffffffffffffffffffffffffffffffffffffffff16906020019091905050611bcc565b005b34156107dc57600080fd5b610808600480803573ffffffffffffffffffffffffffffffffffffffff16906020019091905050611ca6565b005b341561081557600080fd5b6108466004808035906020019091908035906020019091908035906020019091908035906020019091905050611d81565b005b341561085357600080fd5b61085b611ee9565b005b341561086857600080fd5b61087e6004808035906020019091905050611f7c565b604051808273ffffffffffffffffffffffffffffffffffffffff1673ffffffffffffffffffffffffffffffffffffffff16815260200191505060405180910390f35b34156108cb57600080fd5b6108ea6004808035906020019091908035906020019091905050611faf565b604051808215151515815260200191505060405180910390f35b341561090f57600080fd5b6109406004808035906020019091908035906020019091908035906020019091908035906020019091905050612037565b005b341561094d57600080fd5b610963600480803590602001909190505061219e565b005b61096d612204565b005b341561097a57600080fd5b6109af600480803573ffffffffffffffffffffffffffffffffffffffff1690602001909190803590602001909190505061228c565b005b34156109bc57600080fd5b6109e8600480803573ffffffffffffffffffffffffffffffffffffffff16906020019091905050612313565b005b34156109f557600080fd5b610a0b60048080359060200190919050506123ee565b604051808273ffffffffffffffffffffffffffffffffffffffff1673ffffffffffffffffffffffffffffffffffffffff16815260200191505060405180910390f35b3415610a5857600080fd5b610a60612421565b6040518082815260200191505060405180910390f35b3415610a8157600080fd5b610a89612427565b604051808215151515815260200191505060405180910390f35b3415610aae57600080fd5b610ab661243a565b005b3415610ac357600080fd5b610ad96004808035906020019091905050612517565b604051808273ffffffffffffffffffffffffffffffffffffffff1673ffffffffffffffffffffffffffffffffffffffff16815260200191505060405180910390f35b3415610b2657600080fd5b610b2e612590565b6040518082815260200191505060405180910390f35b3415610b4f57600080fd5b610b7b600480803573ffffffffffffffffffffffffffffffffffffffff169060200190919050506125ac565b005b3415610b8857600080fd5b610bb4600480803573ffffffffffffffffffffffffffffffffffffffff169060200190919050506126e3565b6040518082815260200191505060405180910390f35b3415610bd557600080fd5b610bdd61272c565b6040518082815260200191505060405180910390f35b3415610bfe57600080fd5b610c146004808035906020019091905050612732565b604051808e81526020018d81526020018c81526020018b81526020018a81526020018981526020018881526020018781526020018681526020018581526020018481526020018381526020018281526020019d505050505050505050505050505060405180910390f35b3415610c8957600080fd5b610c916128d5565b005b3415610c9e57600080fd5b610cca600480803573ffffffffffffffffffffffffffffffffffffffff16906020019091905050612a19565b6040518080602001828103825283818151815260200191508051906020019060200280838360005b83811015610d0d578082015181840152602081019050610cf2565b505050509050019250505060405180910390f35b3415610d2c57600080fd5b610d426004808035906020019091905050612b50565b6040518082815260200191505060405180910390f35b3415610d6357600080fd5b610d6b6130b3565b005b3415610d7857600080fd5b610d806132f2565b6040518080602001828103825283818151815260200191508051906020019080838360005b83811015610dc0578082015181840152602081019050610da5565b50505050905090810190601f168015610ded5780820380516001836020036101000a031916815260200191505b509250505060405180910390f35b3415610e0657600080fd5b610e1c600480803590602001909190505061332b565b604051808263ffffffff1663ffffffff16815260200191505060405180910390f35b3415610e4957600080fd5b610e7e600480803573ffffffffffffffffffffffffffffffffffffffff1690602001909190803590602001909190505061335a565b005b3415610e8b57600080fd5b610e936134cb565b6040518082815260200191505060405180910390f35b3415610eb457600080fd5b610ebc6134d6565b604051808273ffffffffffffffffffffffffffffffffffffffff1673ffffffffffffffffffffffffffffffffffffffff16815260200191505060405180910390f35b3415610f0957600080fd5b610f116134fc565b6040518082815260200191505060405180910390f35b3415610f3257600080fd5b610f3a613502565b6040518082815260200191505060405180910390f35b3415610f5b57600080fd5b610f6361350d565b6040518082815260200191505060405180910390f35b3415610f8457600080fd5b610f8c613513565b604051808273ffffffffffffffffffffffffffffffffffffffff1673ffffffffffffffffffffffffffffffffffffffff16815260200191505060405180910390f35b3415610fd957600080fd5b610fe1613539565b6040518082815260200191505060405180910390f35b341561100257600080fd5b611018600480803590602001909190505061353f565b604051808273ffffffffffffffffffffffffffffffffffffffff1673ffffffffffffffffffffffffffffffffffffffff16815260200191505060405180910390f35b341561106557600080fd5b61107b6004808035906020019091905050613572565b604051808215151515815260200191505060405180910390f35b34156110a057600080fd5b6110a8613825565b6040518082815260200191505060405180910390f35b34156110c957600080fd5b6110f5600480803573ffffffffffffffffffffffffffffffffffffffff1690602001909190505061382b565b005b341561110257600080fd5b61110a6138ca565b604051808273ffffffffffffffffffffffffffffffffffffffff1673ffffffffffffffffffffffffffffffffffffffff16815260200191505060405180910390f35b61116b60048080359060200190919080359060200190919050506138f0565b005b341561117857600080fd5b611180613ad9565b604051808273ffffffffffffffffffffffffffffffffffffffff1673ffffffffffffffffffffffffffffffffffffffff16815260200191505060405180910390f35b6111e16004808035906020019091908035906020019091905050613aff565b005b34156111ee57600080fd5b611223600480803590602001909190803573ffffffffffffffffffffffffffffffffffffffff169060200190919050506140c8565b005b600060405180807f737570706f727473496e74657266616365286279746573342900000000000000815250601901905060405180910390207bffffffffffffffffffffffffffffffffffffffffffffffffffffffff1916827bffffffffffffffffffffffffffffffffffffffffffffffffffffffff1916148061152f575060405180807f746f6b656e4d657461646174612875696e743235362c737472696e6729000000815250601d019050604051809103902060405180807f746f6b656e734f664f776e6572286164647265737329000000000000000000008152506016019050604051809103902060405180807f7472616e7366657246726f6d28616464726573732c616464726573732c75696e81526020017f74323536290000000000000000000000000000000000000000000000000000008152506025019050604051809103902060405180807f7472616e7366657228616464726573732c75696e7432353629000000000000008152506019019050604051809103902060405180807f617070726f766528616464726573732c75696e743235362900000000000000008152506018019050604051809103902060405180807f6f776e65724f662875696e7432353629000000000000000000000000000000008152506010019050604051809103902060405180807f62616c616e63654f6628616464726573732900000000000000000000000000008152506012019050604051809103902060405180807f746f74616c537570706c79282900000000000000000000000000000000000000815250600d019050604051809103902060405180807f73796d626f6c28290000000000000000000000000000000000000000000000008152506008019050604051809103902060405180807f6e616d6528290000000000000000000000000000000000000000000000000000815250600601905060405180910390201818181818181818187bffffffffffffffffffffffffffffffffffffffffffffffffffffffff1916827bffffffffffffffffffffffffffffffffffffffffffffffffffffffff1916145b9050919050565b600160009054906101000a900473ffffffffffffffffffffffffffffffffffffffff1681565b61156461513e565b61156c615152565b60008073ffffffffffffffffffffffffffffffffffffffff16600d60009054906101000a900473ffffffffffffffffffffffffffffffffffffffff1673ffffffffffffffffffffffffffffffffffffffff16141515156115cb57600080fd5b600d60009054906101000a900473ffffffffffffffffffffffffffffffffffffffff1673ffffffffffffffffffffffffffffffffffffffff1663cb4799f2878787600060405160a001526040518463ffffffff167c010000000000000000000000000000000000000000000000000000000002815260040180848152602001806020018281038252848482818152602001925080828437820191505094505050505060a060405180830381600087803b151561168657600080fd5b6102c65a03f1151561169757600080fd5b5050506040518060800180519060200160405280925081935050506116bc828261415c565b925050509392505050565b60115481565b6040805190810160405280600b81526020017f43727970746f426561737400000000000000000000000000000000000000000081525081565b600260149054906101000a900460ff1615151561172257600080fd5b61172c33826141b4565b151561173757600080fd5b6117418183614220565b7f8c5be1e5ebec7d5bd14f71427d1e84f3dd0314c0f7b2291e5b200ac8c7c3b925338383604051808473ffffffffffffffffffffffffffffffffffffffff1673ffffffffffffffffffffffffffffffffffffffff1681526020018373ffffffffffffffffffffffffffffffffffffffff1673ffffffffffffffffffffffffffffffffffffffff168152602001828152602001935050505060405180910390a15050565b6000809054906101000a900473ffffffffffffffffffffffffffffffffffffffff1681565b60008060009054906101000a900473ffffffffffffffffffffffffffffffffffffffff1673ffffffffffffffffffffffffffffffffffffffff163373ffffffffffffffffffffffffffffffffffffffff1614151561186657600080fd5b8190508073ffffffffffffffffffffffffffffffffffffffff166376190f8f6000604051602001526040518163ffffffff167c0100000000000000000000000000000000000000000000000000000000028152600401602060405180830381600087803b15156118d557600080fd5b6102c65a03f115156118e657600080fd5b5050506040518051905015156118fb57600080fd5b80600c60006101000a81548173ffffffffffffffffffffffffffffffffffffffff021916908373ffffffffffffffffffffffffffffffffffffffff1602179055505050565b6000600160068054905003905090565b6000808211151561196057600080fd5b600060068381548110151561197157fe5b906000526020600020906004020160020160089054906101000a900463ffffffff1663ffffffff1614159050919050565b600c60009054906101000a900473ffffffffffffffffffffffffffffffffffffffff1681565b600260149054906101000a900460ff161515156119e457600080fd5b600073ffffffffffffffffffffffffffffffffffffffff168273ffffffffffffffffffffffffffffffffffffffff1614151515611a2057600080fd5b3073ffffffffffffffffffffffffffffffffffffffff168273ffffffffffffffffffffffffffffffffffffffff1614151515611a5b57600080fd5b611a653382614276565b1515611a7057600080fd5b611a7a83826141b4565b1515611a8557600080fd5b611a908383836142e2565b505050565b60008060009054906101000a900473ffffffffffffffffffffffffffffffffffffffff1673ffffffffffffffffffffffffffffffffffffffff163373ffffffffffffffffffffffffffffffffffffffff16141515611af257600080fd5b8190508073ffffffffffffffffffffffffffffffffffffffff166354c15b826000604051602001526040518163ffffffff167c0100000000000000000000000000000000000000000000000000000000028152600401602060405180830381600087803b1515611b6157600080fd5b6102c65a03f11515611b7257600080fd5b505050604051805190501515611b8757600080fd5b80601060006101000a81548173ffffffffffffffffffffffffffffffffffffffff021916908373ffffffffffffffffffffffffffffffffffffffff1602179055505050565b6000809054906101000a900473ffffffffffffffffffffffffffffffffffffffff1673ffffffffffffffffffffffffffffffffffffffff163373ffffffffffffffffffffffffffffffffffffffff16141515611c2757600080fd5b600073ffffffffffffffffffffffffffffffffffffffff168173ffffffffffffffffffffffffffffffffffffffff1614151515611c6357600080fd5b806000806101000a81548173ffffffffffffffffffffffffffffffffffffffff021916908373ffffffffffffffffffffffffffffffffffffffff16021790555050565b6000809054906101000a900473ffffffffffffffffffffffffffffffffffffffff1673ffffffffffffffffffffffffffffffffffffffff163373ffffffffffffffffffffffffffffffffffffffff16141515611d0157600080fd5b600073ffffffffffffffffffffffffffffffffffffffff168173ffffffffffffffffffffffffffffffffffffffff1614151515611d3d57600080fd5b80600260006101000a81548173ffffffffffffffffffffffffffffffffffffffff021916908373ffffffffffffffffffffffffffffffffffffffff16021790555050565b600260149054906101000a900460ff16151515611d9d57600080fd5b611da733856141b4565b1515611db257600080fd5b611dbb84611950565b151515611dc757600080fd5b611df384600b60009054906101000a900473ffffffffffffffffffffffffffffffffffffffff16614220565b600b60009054906101000a900473ffffffffffffffffffffffffffffffffffffffff1673ffffffffffffffffffffffffffffffffffffffff166327ebe40a85858585336040518663ffffffff167c0100000000000000000000000000000000000000000000000000000000028152600401808681526020018581526020018481526020018381526020018273ffffffffffffffffffffffffffffffffffffffff1673ffffffffffffffffffffffffffffffffffffffff16815260200195505050505050600060405180830381600087803b1515611ecf57600080fd5b6102c65a03f11515611ee057600080fd5b50505050505050565b6000809054906101000a900473ffffffffffffffffffffffffffffffffffffffff1673ffffffffffffffffffffffffffffffffffffffff163373ffffffffffffffffffffffffffffffffffffffff16141515611f4457600080fd5b600260149054906101000a900460ff161515611f5f57600080fd5b6000600260146101000a81548160ff021916908315150217905550565b600a6020528060005260406000206000915054906101000a900473ffffffffffffffffffffffffffffffffffffffff1681565b60008060008085111515611fc257600080fd5b600084111515611fd157600080fd5b600685815481101515611fe057fe5b90600052602060002090600402019150600684815481101515611fff57fe5b9060005260206000209060040201905061201b8286838761451a565b801561202d575061202c848661472f565b5b9250505092915050565b600260149054906101000a900460ff1615151561205357600080fd5b61205d33856141b4565b151561206857600080fd5b61207184613572565b151561207c57600080fd5b6120a884600c60009054906101000a900473ffffffffffffffffffffffffffffffffffffffff16614220565b600c60009054906101000a900473ffffffffffffffffffffffffffffffffffffffff1673ffffffffffffffffffffffffffffffffffffffff166327ebe40a85858585336040518663ffffffff167c0100000000000000000000000000000000000000000000000000000000028152600401808681526020018581526020018481526020018381526020018273ffffffffffffffffffffffffffffffffffffffff1673ffffffffffffffffffffffffffffffffffffffff16815260200195505050505050600060405180830381600087803b151561218457600080fd5b6102c65a03f1151561219557600080fd5b50505050505050565b600260009054906101000a900473ffffffffffffffffffffffffffffffffffffffff1673ffffffffffffffffffffffffffffffffffffffff163373ffffffffffffffffffffffffffffffffffffffff161415156121fa57600080fd5b80600e8190555050565b60008034612210612590565b14151561221c57600080fd5b61222c66038d7ea4c68000614842565b915061223d6000806000853361485e565b90506012600081548092919060010191905055507ff2890738c1d35c8601fd273d8ca10fb20e77327465d11f84b9c5fb235c91933b816040518082815260200191505060405180910390a15050565b600260149054906101000a900460ff161515156122a857600080fd5b6122b233826141b4565b15156122bd57600080fd5b81600a600083815260200190815260200160002060006101000a81548173ffffffffffffffffffffffffffffffffffffffff021916908373ffffffffffffffffffffffffffffffffffffffff1602179055505050565b6000809054906101000a900473ffffffffffffffffffffffffffffffffffffffff1673ffffffffffffffffffffffffffffffffffffffff163373ffffffffffffffffffffffffffffffffffffffff1614151561236e57600080fd5b600073ffffffffffffffffffffffffffffffffffffffff168173ffffffffffffffffffffffffffffffffffffffff16141515156123aa57600080fd5b80600160006101000a81548173ffffffffffffffffffffffffffffffffffffffff021916908373ffffffffffffffffffffffffffffffffffffffff16021790555050565b60076020528060005260406000206000915054906101000a900473ffffffffffffffffffffffffffffffffffffffff1681565b619c4081565b600260149054906101000a900460ff1681565b6000600160009054906101000a900473ffffffffffffffffffffffffffffffffffffffff1673ffffffffffffffffffffffffffffffffffffffff163373ffffffffffffffffffffffffffffffffffffffff1614151561249857600080fd5b3073ffffffffffffffffffffffffffffffffffffffff16319050600160009054906101000a900473ffffffffffffffffffffffffffffffffffffffff1673ffffffffffffffffffffffffffffffffffffffff166108fc829081150290604051600060405180830381858888f19350505050151561251457600080fd5b50565b60006007600083815260200190815260200160002060009054906101000a900473ffffffffffffffffffffffffffffffffffffffff169050600073ffffffffffffffffffffffffffffffffffffffff168173ffffffffffffffffffffffffffffffffffffffff161415151561258b57600080fd5b919050565b60006601c6bf5263400060125402660aa87bee53800001905090565b60008060009054906101000a900473ffffffffffffffffffffffffffffffffffffffff1673ffffffffffffffffffffffffffffffffffffffff163373ffffffffffffffffffffffffffffffffffffffff1614151561260957600080fd5b8190508073ffffffffffffffffffffffffffffffffffffffff166385b861886000604051602001526040518163ffffffff167c0100000000000000000000000000000000000000000000000000000000028152600401602060405180830381600087803b151561267857600080fd5b6102c65a03f1151561268957600080fd5b50505060405180519050151561269e57600080fd5b80600b60006101000a81548173ffffffffffffffffffffffffffffffffffffffff021916908373ffffffffffffffffffffffffffffffffffffffff1602179055505050565b6000600860008373ffffffffffffffffffffffffffffffffffffffff1673ffffffffffffffffffffffffffffffffffffffff168152602001908152602001600020549050919050565b60055481565b60008060008060008060008060008060008060008060068f81548110151561275657fe5b906000526020600020906004020190508060010160009054906101000a900467ffffffffffffffff1667ffffffffffffffff169d508060010160109054906101000a900467ffffffffffffffff1667ffffffffffffffff169c508060020160009054906101000a900463ffffffff1663ffffffff169b508060020160049054906101000a900463ffffffff1663ffffffff169a508060020160089054906101000a900463ffffffff1663ffffffff16995080600201600e9054906101000a900461ffff1661ffff1698508060030160000160009054906101000a900460ff1660ff1697508060030160000160019054906101000a900460ff1660ff1696508060030160000160029054906101000a900460ff1660ff1695508060030160000160039054906101000a900460ff1660ff1694508060030160000160049054906101000a900460ff1660ff1693508060030160000160059054906101000a900460ff1660ff169250806000015491505091939597999b9d90929496989a9c50565b600260009054906101000a900473ffffffffffffffffffffffffffffffffffffffff1673ffffffffffffffffffffffffffffffffffffffff163373ffffffffffffffffffffffffffffffffffffffff16148061297d57506000809054906101000a900473ffffffffffffffffffffffffffffffffffffffff1673ffffffffffffffffffffffffffffffffffffffff163373ffffffffffffffffffffffffffffffffffffffff16145b806129d55750600160009054906101000a900473ffffffffffffffffffffffffffffffffffffffff1673ffffffffffffffffffffffffffffffffffffffff163373ffffffffffffffffffffffffffffffffffffffff16145b15156129e057600080fd5b600260149054906101000a900460ff161515156129fc57600080fd5b6001600260146101000a81548160ff021916908315150217905550565b612a2161517d565b6000612a2b61517d565b6000806000612a39876126e3565b94506000851415612a6b576000604051805910612a535750595b90808252806020026020018201604052509550612b46565b84604051805910612a795750595b90808252806020026020018201604052509350612a94611940565b925060009150600190505b8281111515612b42578673ffffffffffffffffffffffffffffffffffffffff166007600083815260200190815260200160002060009054906101000a900473ffffffffffffffffffffffffffffffffffffffff1673ffffffffffffffffffffffffffffffffffffffff161415612b3557808483815181101515612b1e57fe5b906020019060200201818152505081806001019250505b8080600101915050612a9f565b8395505b5050505050919050565b600080600080600080600080600260149054906101000a900460ff16151515612b7857600080fd5b600689815481101515612b8757fe5b9060005260206000209060040201965060008760010160109054906101000a900467ffffffffffffffff1667ffffffffffffffff1614151515612bc957600080fd5b612e43876101806040519081016040529081600082015481526020016001820160009054906101000a900467ffffffffffffffff1667ffffffffffffffff1667ffffffffffffffff1681526020016001820160089054906101000a900467ffffffffffffffff1667ffffffffffffffff1667ffffffffffffffff1681526020016001820160109054906101000a900467ffffffffffffffff1667ffffffffffffffff1667ffffffffffffffff1681526020016001820160189054906101000a900467ffffffffffffffff1667ffffffffffffffff1667ffffffffffffffff1681526020016002820160009054906101000a900463ffffffff1663ffffffff1663ffffffff1681526020016002820160049054906101000a900463ffffffff1663ffffffff1663ffffffff1681526020016002820160089054906101000a900463ffffffff1663ffffffff1663ffffffff16815260200160028201600c9054906101000a900461ffff1661ffff1661ffff16815260200160028201600e9054906101000a900461ffff1661ffff1661ffff1681526020016002820160109054906101000a900460ff1660ff1660ff1681526020016003820160c060405190810160405290816000820160009054906101000a900460ff1660ff1660ff1681526020016000820160019054906101000a900460ff1660ff1660ff1681526020016000820160029054906101000a900460ff1660ff1660ff1681526020016000820160039054906101000a900460ff1660ff1660ff1681526020016000820160049054906101000a900460ff1660ff1660ff1681526020016000820160059054906101000a900460ff1660ff1660ff168152505081525050614cfa565b1515612e4e57600080fd5b8660020160089054906101000a900463ffffffff1663ffffffff169550600686815481101515612e7a57fe5b9060005260206000209060040201945086600201600e9054906101000a900461ffff16935086600201600e9054906101000a900461ffff1661ffff1685600201600e9054906101000a900461ffff1661ffff161115612ee95784600201600e9054906101000a900461ffff1693505b601060009054906101000a900473ffffffffffffffffffffffffffffffffffffffff1673ffffffffffffffffffffffffffffffffffffffff16630d9f5aed8860000154876000015460018b60010160189054906101000a900467ffffffffffffffff16036000604051602001526040518463ffffffff167c0100000000000000000000000000000000000000000000000000000000028152600401808481526020018381526020018267ffffffffffffffff1681526020019350505050602060405180830381600087803b1515612fbf57600080fd5b6102c65a03f11515612fd057600080fd5b505050604051805190509250600760008a815260200190815260200160002060009054906101000a900473ffffffffffffffffffffffffffffffffffffffff169150613040898860020160089054906101000a900463ffffffff1663ffffffff166001870161ffff16868661485e565b90508660020160086101000a81549063ffffffff0219169055600f60008154809291906001900391905055503373ffffffffffffffffffffffffffffffffffffffff166108fc600e549081150290604051600060405180830381858888f193505050505080975050505050505050919050565b600260009054906101000a900473ffffffffffffffffffffffffffffffffffffffff1673ffffffffffffffffffffffffffffffffffffffff163373ffffffffffffffffffffffffffffffffffffffff16148061315b57506000809054906101000a900473ffffffffffffffffffffffffffffffffffffffff1673ffffffffffffffffffffffffffffffffffffffff163373ffffffffffffffffffffffffffffffffffffffff16145b806131b35750600160009054906101000a900473ffffffffffffffffffffffffffffffffffffffff1673ffffffffffffffffffffffffffffffffffffffff163373ffffffffffffffffffffffffffffffffffffffff16145b15156131be57600080fd5b600b60009054906101000a900473ffffffffffffffffffffffffffffffffffffffff1673ffffffffffffffffffffffffffffffffffffffff16635fd8c7106040518163ffffffff167c0100000000000000000000000000000000000000000000000000000000028152600401600060405180830381600087803b151561324357600080fd5b6102c65a03f1151561325457600080fd5b505050600c60009054906101000a900473ffffffffffffffffffffffffffffffffffffffff1673ffffffffffffffffffffffffffffffffffffffff16635fd8c7106040518163ffffffff167c0100000000000000000000000000000000000000000000000000000000028152600401600060405180830381600087803b15156132dc57600080fd5b6102c65a03f115156132ed57600080fd5b505050565b6040805190810160405280600381526020017f425354000000000000000000000000000000000000000000000000000000000081525081565b600381600e8110151561333a57fe5b60089182820401919006600402915054906101000a900463ffffffff1681565b600260149054906101000a900460ff1615151561337657600080fd5b600073ffffffffffffffffffffffffffffffffffffffff168273ffffffffffffffffffffffffffffffffffffffff16141515156133b257600080fd5b3073ffffffffffffffffffffffffffffffffffffffff168273ffffffffffffffffffffffffffffffffffffffff16141515156133ed57600080fd5b600b60009054906101000a900473ffffffffffffffffffffffffffffffffffffffff1673ffffffffffffffffffffffffffffffffffffffff168273ffffffffffffffffffffffffffffffffffffffff161415151561344a57600080fd5b600c60009054906101000a900473ffffffffffffffffffffffffffffffffffffffff1673ffffffffffffffffffffffffffffffffffffffff168273ffffffffffffffffffffffffffffffffffffffff16141515156134a757600080fd5b6134b133826141b4565b15156134bc57600080fd5b6134c73383836142e2565b5050565b6601c6bf5263400081565b600260009054906101000a900473ffffffffffffffffffffffffffffffffffffffff1681565b600e5481565b660aa87bee53800081565b600f5481565b600d60009054906101000a900473ffffffffffffffffffffffffffffffffffffffff1681565b60125481565b60096020528060005260406000206000915054906101000a900473ffffffffffffffffffffffffffffffffffffffff1681565b60008060008311151561358457600080fd5b60068381548110151561359357fe5b9060005260206000209060040201905061381d816101806040519081016040529081600082015481526020016001820160009054906101000a900467ffffffffffffffff1667ffffffffffffffff1667ffffffffffffffff1681526020016001820160089054906101000a900467ffffffffffffffff1667ffffffffffffffff1667ffffffffffffffff1681526020016001820160109054906101000a900467ffffffffffffffff1667ffffffffffffffff1667ffffffffffffffff1681526020016001820160189054906101000a900467ffffffffffffffff1667ffffffffffffffff1667ffffffffffffffff1681526020016002820160009054906101000a900463ffffffff1663ffffffff1663ffffffff1681526020016002820160049054906101000a900463ffffffff1663ffffffff1663ffffffff1681526020016002820160089054906101000a900463ffffffff1663ffffffff1663ffffffff16815260200160028201600c9054906101000a900461ffff1661ffff1661ffff16815260200160028201600e9054906101000a900461ffff1661ffff1661ffff1681526020016002820160109054906101000a900460ff1660ff1660ff1681526020016003820160c060405190810160405290816000820160009054906101000a900460ff1660ff1660ff1681526020016000820160019054906101000a900460ff1660ff1660ff1681526020016000820160029054906101000a900460ff1660ff1660ff1681526020016000820160039054906101000a900460ff1660ff1660ff1681526020016000820160049054906101000a900460ff1660ff1660ff1681526020016000820160059054906101000a900460ff1660ff1660ff168152505081525050614d35565b915050919050565b6103e881565b6000809054906101000a900473ffffffffffffffffffffffffffffffffffffffff1673ffffffffffffffffffffffffffffffffffffffff163373ffffffffffffffffffffffffffffffffffffffff1614151561388657600080fd5b80600d60006101000a81548173ffffffffffffffffffffffffffffffffffffffff021916908373ffffffffffffffffffffffffffffffffffffffff16021790555050565b600b60009054906101000a900473ffffffffffffffffffffffffffffffffffffffff1681565b6000600260149054906101000a900460ff1615151561390e57600080fd5b61391833836141b4565b151561392357600080fd5b61392c82613572565b151561393757600080fd5b6139418284614d6f565b151561394c57600080fd5b600c60009054906101000a900473ffffffffffffffffffffffffffffffffffffffff1673ffffffffffffffffffffffffffffffffffffffff1663c55d0f56846000604051602001526040518263ffffffff167c010000000000000000000000000000000000000000000000000000000002815260040180828152602001915050602060405180830381600087803b15156139e557600080fd5b6102c65a03f115156139f657600080fd5b505050604051805190509050600e5481013410151515613a1557600080fd5b600c60009054906101000a900473ffffffffffffffffffffffffffffffffffffffff1673ffffffffffffffffffffffffffffffffffffffff1663454a2ab3600e543403856040518363ffffffff167c0100000000000000000000000000000000000000000000000000000000028152600401808281526020019150506000604051808303818588803b1515613aa957600080fd5b6125ee5a03f11515613aba57600080fd5b50505050613ad48263ffffffff168463ffffffff16614dc8565b505050565b601060009054906101000a900473ffffffffffffffffffffffffffffffffffffffff1681565b600080600260149054906101000a900460ff16151515613b1e57600080fd5b600e543410151515613b2f57600080fd5b613b3933856141b4565b1515613b4457600080fd5b613b4e838561472f565b1515613b5957600080fd5b600684815481101515613b6857fe5b90600052602060002090600402019150613df2826101806040519081016040529081600082015481526020016001820160009054906101000a900467ffffffffffffffff1667ffffffffffffffff1667ffffffffffffffff1681526020016001820160089054906101000a900467ffffffffffffffff1667ffffffffffffffff1667ffffffffffffffff1681526020016001820160109054906101000a900467ffffffffffffffff1667ffffffffffffffff1667ffffffffffffffff1681526020016001820160189054906101000a900467ffffffffffffffff1667ffffffffffffffff1667ffffffffffffffff1681526020016002820160009054906101000a900463ffffffff1663ffffffff1663ffffffff1681526020016002820160049054906101000a900463ffffffff1663ffffffff1663ffffffff1681526020016002820160089054906101000a900463ffffffff1663ffffffff1663ffffffff16815260200160028201600c9054906101000a900461ffff1661ffff1661ffff16815260200160028201600e9054906101000a900461ffff1661ffff1661ffff1681526020016002820160109054906101000a900460ff1660ff1660ff1681526020016003820160c060405190810160405290816000820160009054906101000a900460ff1660ff1660ff1681526020016000820160019054906101000a900460ff1660ff1660ff1681526020016000820160029054906101000a900460ff1660ff1660ff1681526020016000820160039054906101000a900460ff1660ff1660ff1681526020016000820160049054906101000a900460ff1660ff1660ff1681526020016000820160059054906101000a900460ff1660ff1660ff168152505081525050614d35565b1515613dfd57600080fd5b600683815481101515613e0c57fe5b90600052602060002090600402019050614096816101806040519081016040529081600082015481526020016001820160009054906101000a900467ffffffffffffffff1667ffffffffffffffff1667ffffffffffffffff1681526020016001820160089054906101000a900467ffffffffffffffff1667ffffffffffffffff1667ffffffffffffffff1681526020016001820160109054906101000a900467ffffffffffffffff1667ffffffffffffffff1667ffffffffffffffff1681526020016001820160189054906101000a900467ffffffffffffffff1667ffffffffffffffff1667ffffffffffffffff1681526020016002820160009054906101000a900463ffffffff1663ffffffff1663ffffffff1681526020016002820160049054906101000a900463ffffffff1663ffffffff1663ffffffff1681526020016002820160089054906101000a900463ffffffff1663ffffffff1663ffffffff16815260200160028201600c9054906101000a900461ffff1661ffff1661ffff16815260200160028201600e9054906101000a900461ffff1661ffff1661ffff1681526020016002820160109054906101000a900460ff1660ff1660ff1681526020016003820160c060405190810160405290816000820160009054906101000a900460ff1660ff1660ff1681526020016000820160019054906101000a900460ff1660ff1660ff1681526020016000820160029054906101000a900460ff1660ff1660ff1681526020016000820160039054906101000a900460ff1660ff1660ff1681526020016000820160049054906101000a900460ff1660ff1660ff1681526020016000820160059054906101000a900460ff1660ff1660ff168152505081525050614d35565b15156140a157600080fd5b6140ad8285838661451a565b15156140b857600080fd5b6140c28484614dc8565b50505050565b600260009054906101000a900473ffffffffffffffffffffffffffffffffffffffff1673ffffffffffffffffffffffffffffffffffffffff163373ffffffffffffffffffffffffffffffffffffffff1614151561412457600080fd5b6103e860115410151561413657600080fd5b6011600081548092919060010191905055506141576000806000858561485e565b505050565b61416461513e565b61416c61513e565b6000808460405180591061417d5750595b9080825280601f01601f191660200182016040525092506020830191508590506141a8828287614f92565b82935050505092915050565b60008273ffffffffffffffffffffffffffffffffffffffff166007600084815260200190815260200160002060009054906101000a900473ffffffffffffffffffffffffffffffffffffffff1673ffffffffffffffffffffffffffffffffffffffff1614905092915050565b806009600084815260200190815260200160002060006101000a81548173ffffffffffffffffffffffffffffffffffffffff021916908373ffffffffffffffffffffffffffffffffffffffff1602179055505050565b60008273ffffffffffffffffffffffffffffffffffffffff166009600084815260200190815260200160002060009054906101000a900473ffffffffffffffffffffffffffffffffffffffff1673ffffffffffffffffffffffffffffffffffffffff1614905092915050565b600860008373ffffffffffffffffffffffffffffffffffffffff1673ffffffffffffffffffffffffffffffffffffffff16815260200190815260200160002060008154809291906001019190505550816007600083815260200190815260200160002060006101000a81548173ffffffffffffffffffffffffffffffffffffffff021916908373ffffffffffffffffffffffffffffffffffffffff160217905550600073ffffffffffffffffffffffffffffffffffffffff168373ffffffffffffffffffffffffffffffffffffffff1614151561447657600860008473ffffffffffffffffffffffffffffffffffffffff1673ffffffffffffffffffffffffffffffffffffffff1681526020019081526020016000206000815480929190600190039190505550600a600082815260200190815260200160002060006101000a81549073ffffffffffffffffffffffffffffffffffffffff02191690556009600082815260200190815260200160002060006101000a81549073ffffffffffffffffffffffffffffffffffffffff02191690555b7fddf252ad1be2c89b69c2b068fc378daa952ba7f163c4a11628f55a4df523b3ef838383604051808473ffffffffffffffffffffffffffffffffffffffff1673ffffffffffffffffffffffffffffffffffffffff1681526020018373ffffffffffffffffffffffffffffffffffffffff1673ffffffffffffffffffffffffffffffffffffffff168152602001828152602001935050505060405180910390a1505050565b60008184141561452d5760009050614727565b818560020160049054906101000a900463ffffffff1663ffffffff16148061456e5750818560020160009054906101000a900463ffffffff1663ffffffff16145b1561457c5760009050614727565b838360020160049054906101000a900463ffffffff1663ffffffff1614806145bd5750838360020160009054906101000a900463ffffffff1663ffffffff16145b156145cb5760009050614727565b60008360020160049054906101000a900463ffffffff1663ffffffff16148061460e575060008560020160049054906101000a900463ffffffff1663ffffffff16145b1561461c5760019050614727565b8460020160049054906101000a900463ffffffff1663ffffffff168360020160049054906101000a900463ffffffff1663ffffffff16148061469157508460020160009054906101000a900463ffffffff1663ffffffff168360020160049054906101000a900463ffffffff1663ffffffff16145b1561469f5760009050614727565b8460020160049054906101000a900463ffffffff1663ffffffff168360020160009054906101000a900463ffffffff1663ffffffff16148061471457508460020160009054906101000a900463ffffffff1663ffffffff168360020160009054906101000a900463ffffffff1663ffffffff16145b156147225760009050614727565b600190505b949350505050565b60008060006007600085815260200190815260200160002060009054906101000a900473ffffffffffffffffffffffffffffffffffffffff1691506007600086815260200190815260200160002060009054906101000a900473ffffffffffffffffffffffffffffffffffffffff1690508073ffffffffffffffffffffffffffffffffffffffff168273ffffffffffffffffffffffffffffffffffffffff16148061483857508173ffffffffffffffffffffffffffffffffffffffff16600a600087815260200190815260200160002060009054906101000a900473ffffffffffffffffffffffffffffffffffffffff1673ffffffffffffffffffffffffffffffffffffffff16145b9250505092915050565b60008161484d614fdd565b81151561485657fe5b069050919050565b6000614868615191565b60008763ffffffff168814151561487e57600080fd5b8663ffffffff168714151561489257600080fd5b8561ffff16861415156148a457600080fd5b61018060405190810160405280868152602001600067ffffffffffffffff168152602001600067ffffffffffffffff1681526020014267ffffffffffffffff168152602001600067ffffffffffffffff1681526020018863ffffffff1681526020018963ffffffff168152602001600063ffffffff168152602001600061ffff1681526020018761ffff168152602001600160ff16815260200160c060405190810160405280600160ff168152602001600160ff168152602001600160ff168152602001600160ff168152602001600160ff168152602001600160ff16815250815250915060016006805480600101828161499f919061523e565b916000526020600020906004020160008590919091506000820151816000015560208201518160010160006101000a81548167ffffffffffffffff021916908367ffffffffffffffff16021790555060408201518160010160086101000a81548167ffffffffffffffff021916908367ffffffffffffffff16021790555060608201518160010160106101000a81548167ffffffffffffffff021916908367ffffffffffffffff16021790555060808201518160010160186101000a81548167ffffffffffffffff021916908367ffffffffffffffff16021790555060a08201518160020160006101000a81548163ffffffff021916908363ffffffff16021790555060c08201518160020160046101000a81548163ffffffff021916908363ffffffff16021790555060e08201518160020160086101000a81548163ffffffff021916908363ffffffff16021790555061010082015181600201600c6101000a81548161ffff021916908361ffff16021790555061012082015181600201600e6101000a81548161ffff021916908361ffff1602179055506101408201518160020160106101000a81548160ff021916908360ff1602179055506101608201518160030160008201518160000160006101000a81548160ff021916908360ff16021790555060208201518160000160016101000a81548160ff021916908360ff16021790555060408201518160000160026101000a81548160ff021916908360ff16021790555060608201518160000160036101000a81548160ff021916908360ff16021790555060808201518160000160046101000a81548160ff021916908360ff16021790555060a08201518160000160056101000a81548160ff021916908360ff160217905550505050500390508063ffffffff1681141515614c4557600080fd5b7f0a5311bd2a6608f08a180df2ee7c5946819a649b204b554bb8e39825b2c50ad584828460c0015163ffffffff168560a0015163ffffffff168660000151604051808673ffffffffffffffffffffffffffffffffffffffff1673ffffffffffffffffffffffffffffffffffffffff1681526020018581526020018481526020018381526020018281526020019550505050505060405180910390a1614cec600085836142e2565b809250505095945050505050565b6000808260e0015163ffffffff1614158015614d2e57504367ffffffffffffffff16826080015167ffffffffffffffff1611155b9050919050565b6000808260e0015163ffffffff16148015614d6857504367ffffffffffffffff16826080015167ffffffffffffffff1611155b9050919050565b6000806000600685815481101515614d8357fe5b90600052602060002090600402019150600684815481101515614da257fe5b90600052602060002090600402019050614dbe8286838761451a565b9250505092915050565b600080600683815481101515614dda57fe5b90600052602060002090600402019150600684815481101515614df957fe5b90600052602060002090600402019050828160020160086101000a81548163ffffffff021916908363ffffffff160217905550614e3582615068565b614e3e81615068565b600a600085815260200190815260200160002060006101000a81549073ffffffffffffffffffffffffffffffffffffffff0219169055600a600084815260200190815260200160002060006101000a81549073ffffffffffffffffffffffffffffffffffffffff0219169055600f600081548092919060010191905055507f241ea03ca20251805084d27d4440371c34a0b85ff108f6bb5611248f73818b806007600086815260200190815260200160002060009054906101000a900473ffffffffffffffffffffffffffffffffffffffff1685858460010160189054906101000a900467ffffffffffffffff16604051808573ffffffffffffffffffffffffffffffffffffffff1673ffffffffffffffffffffffffffffffffffffffff1681526020018481526020018381526020018267ffffffffffffffff16815260200194505050505060405180910390a150505050565b60005b602082101515614fba5782518452602084019350602083019250602082039150614f95565b6001826020036101000a0390508019835116818551168181178652505050505050565b6000601354600143034041446040518085815260200184600019166000191681526020018373ffffffffffffffffffffffffffffffffffffffff1673ffffffffffffffffffffffffffffffffffffffff166c01000000000000000000000000028152601401828152602001945050505050604051809103902060019004601381905550601354905090565b43600554600383600201600c9054906101000a900461ffff1661ffff16600e8110151561509157fe5b600891828204019190066004029054906101000a900463ffffffff1663ffffffff168115156150bc57fe5b04018160010160186101000a81548167ffffffffffffffff021916908367ffffffffffffffff160217905550600d81600201600c9054906101000a900461ffff1661ffff16101561513b57600181600201600c8282829054906101000a900461ffff160192506101000a81548161ffff021916908361ffff1602179055505b50565b602060405190810160405280600081525090565b6080604051908101604052806004905b60008019168152602001906001900390816151625790505090565b602060405190810160405280600081525090565b6102206040519081016040528060008152602001600067ffffffffffffffff168152602001600067ffffffffffffffff168152602001600067ffffffffffffffff168152602001600067ffffffffffffffff168152602001600063ffffffff168152602001600063ffffffff168152602001600063ffffffff168152602001600061ffff168152602001600061ffff168152602001600060ff168152602001615238615270565b81525090565b81548183558181151161526b5760040281600402836000526020600020918201910161526a91906152b9565b5b505050565b60c060405190810160405280600060ff168152602001600060ff168152602001600060ff168152602001600060ff168152602001600060ff168152602001600060ff1681525090565b61544b91905b80821115615447576000808201600090556001820160006101000a81549067ffffffffffffffff02191690556001820160086101000a81549067ffffffffffffffff02191690556001820160106101000a81549067ffffffffffffffff02191690556001820160186101000a81549067ffffffffffffffff02191690556002820160006101000a81549063ffffffff02191690556002820160046101000a81549063ffffffff02191690556002820160086101000a81549063ffffffff021916905560028201600c6101000a81549061ffff021916905560028201600e6101000a81549061ffff02191690556002820160106101000a81549060ff021916905560038201600080820160006101000a81549060ff02191690556000820160016101000a81549060ff02191690556000820160026101000a81549060ff02191690556000820160036101000a81549060ff02191690556000820160046101000a81549060ff02191690556000820160056101000a81549060ff02191690555050506004016152bf565b5090565b905600a165627a7a72305820e6651297a506d3054b79e9eae1e43affd4da2f577c60540055034e72073949990029",
  "source": "pragma solidity ^0.4.18;\n\nimport './BeastMinting.sol';\n\ncontract Legends is BeastMinting {\n  \n    /// @notice Creates the main Legend smart contract instance.\n    function Legends() public {\n        // Starts paused.\n        //paused = true;\n\n        // the creator of the contract is the initial CEO\n        ceoAddress = msg.sender;\n\n        // the creator of the contract is also the initial COO\n        cooAddress = msg.sender;\n\n        // start with the mythical kitten 0 - so we don't have generation-0 parent issues\n        _createBeast(0, 0, 0, uint256(-1), address(0));\n    }\n\n    /// @notice No tipping!\n    /// @dev Reject all Ether from being sent here, unless it's from one of the\n    ///  two auction contracts. (Hopefully, we can prevent user accidents.)\n    function() external payable {\n        require(\n            msg.sender == address(saleAuction) ||\n            msg.sender == address(siringAuction)\n        );\n    }\n\n    function getLegend(uint256 _legendId) external view returns(\n        uint256 experience,\n        uint256 birthTime,\n        uint256 sireId,\n        uint256 matronId,\n        uint256 siringWithId,\n        uint256 generation,\n        uint256 strength,\n        uint256 dexterity,\n        uint256 endurance,\n        uint256 knowledge,\n        uint256 wisdom,\n        uint256 charisma,\n        uint256 genes\n    ) {\n      Beast storage legend = beasts[_legendId];\n\n      //isGestating = (legend.siringWithId != 0);\n      //isReady = (legend.cooldownEndBlock <= block.number);\n      //isReadyToFight = (legend.challengeCoolDown <= block.number);\n      experience = uint256(legend.experience);\n      birthTime = uint256(legend.birthTime);\n      sireId = uint256(legend.sireId);\n      matronId = uint256(legend.matronId);\n      siringWithId = uint256(legend.siringWithId);\n      //cooldownIndex = uint256(legend.cooldownIndex);\n      generation = uint256(legend.generation);\n      strength = uint256(legend.attrs.strength);\n      dexterity = uint256(legend.attrs.dexterity);\n      endurance = uint256(legend.attrs.endurance);\n      knowledge = uint256(legend.attrs.knowledge);\n      wisdom = uint256(legend.attrs.wisdom);\n      charisma = uint256(legend.attrs.charisma);\n      genes = legend.genes;\n    }\n\n    // @dev Allows the CFO to capture the balance available to the contract.\n    function withdrawBalance() external onlyCFO {\n        uint256 balance = this.balance;\n        cfoAddress.transfer(balance);\n    }\n\n}\n",
  "sourcePath": "/Users/jonathanaraneda/BlockchainProjects/unis_dinos/contracts/Legends.sol",
  "compiler": {
    "name": "solc",
    "version": "0.4.18+commit.9cf6e910.Emscripten.clang"
  },
  "schemaVersion": "1.0.1",
  "updatedAt": "2018-02-21T04:10:48.021Z"
}