{
  "contractName": "SaleClockAuction",
  "abi": [
    {
      "constant": false,
      "inputs": [],
      "name": "unpause",
      "outputs": [
        {
          "name": "",
          "type": "bool"
        }
      ],
      "payable": false,
      "stateMutability": "nonpayable",
      "type": "function"
    },
    {
      "constant": true,
      "inputs": [],
      "name": "paused",
      "outputs": [
        {
          "name": "",
          "type": "bool"
        }
      ],
      "payable": false,
      "stateMutability": "view",
      "type": "function"
    },
    {
      "constant": false,
      "inputs": [],
      "name": "withdrawBalance",
      "outputs": [],
      "payable": false,
      "stateMutability": "nonpayable",
      "type": "function"
    },
    {
      "constant": true,
      "inputs": [
        {
          "name": "_tokenId",
          "type": "uint256"
        }
      ],
      "name": "getAuction",
      "outputs": [
        {
          "name": "seller",
          "type": "address"
        },
        {
          "name": "startingPrice",
          "type": "uint256"
        },
        {
          "name": "endingPrice",
          "type": "uint256"
        },
        {
          "name": "duration",
          "type": "uint256"
        },
        {
          "name": "startedAt",
          "type": "uint256"
        }
      ],
      "payable": false,
      "stateMutability": "view",
      "type": "function"
    },
    {
      "constant": true,
      "inputs": [],
      "name": "ownerCut",
      "outputs": [
        {
          "name": "",
          "type": "uint256"
        }
      ],
      "payable": false,
      "stateMutability": "view",
      "type": "function"
    },
    {
      "constant": false,
      "inputs": [],
      "name": "pause",
      "outputs": [
        {
          "name": "",
          "type": "bool"
        }
      ],
      "payable": false,
      "stateMutability": "nonpayable",
      "type": "function"
    },
    {
      "constant": true,
      "inputs": [],
      "name": "isSaleClockAuction",
      "outputs": [
        {
          "name": "",
          "type": "bool"
        }
      ],
      "payable": false,
      "stateMutability": "view",
      "type": "function"
    },
    {
      "constant": false,
      "inputs": [
        {
          "name": "_tokenId",
          "type": "uint256"
        }
      ],
      "name": "cancelAuctionWhenPaused",
      "outputs": [],
      "payable": false,
      "stateMutability": "nonpayable",
      "type": "function"
    },
    {
      "constant": true,
      "inputs": [],
      "name": "owner",
      "outputs": [
        {
          "name": "",
          "type": "address"
        }
      ],
      "payable": false,
      "stateMutability": "view",
      "type": "function"
    },
    {
      "constant": false,
      "inputs": [
        {
          "name": "_tokenId",
          "type": "uint256"
        }
      ],
      "name": "cancelAuction",
      "outputs": [],
      "payable": false,
      "stateMutability": "nonpayable",
      "type": "function"
    },
    {
      "constant": true,
      "inputs": [
        {
          "name": "_tokenId",
          "type": "uint256"
        }
      ],
      "name": "getCurrentPrice",
      "outputs": [
        {
          "name": "",
          "type": "uint256"
        }
      ],
      "payable": false,
      "stateMutability": "view",
      "type": "function"
    },
    {
      "constant": true,
      "inputs": [],
      "name": "nonFungibleContract",
      "outputs": [
        {
          "name": "",
          "type": "address"
        }
      ],
      "payable": false,
      "stateMutability": "view",
      "type": "function"
    },
    {
      "constant": false,
      "inputs": [
        {
          "name": "newOwner",
          "type": "address"
        }
      ],
      "name": "transferOwnership",
      "outputs": [],
      "payable": false,
      "stateMutability": "nonpayable",
      "type": "function"
    },
    {
      "inputs": [
        {
          "name": "_nftAddr",
          "type": "address"
        },
        {
          "name": "_cut",
          "type": "uint256"
        }
      ],
      "payable": false,
      "stateMutability": "nonpayable",
      "type": "constructor"
    },
    {
      "anonymous": false,
      "inputs": [
        {
          "indexed": false,
          "name": "tokenId",
          "type": "uint256"
        },
        {
          "indexed": false,
          "name": "startingPrice",
          "type": "uint256"
        },
        {
          "indexed": false,
          "name": "endingPrice",
          "type": "uint256"
        },
        {
          "indexed": false,
          "name": "duration",
          "type": "uint256"
        }
      ],
      "name": "AuctionCreated",
      "type": "event"
    },
    {
      "anonymous": false,
      "inputs": [
        {
          "indexed": false,
          "name": "tokenId",
          "type": "uint256"
        },
        {
          "indexed": false,
          "name": "totalPrice",
          "type": "uint256"
        },
        {
          "indexed": false,
          "name": "winner",
          "type": "address"
        }
      ],
      "name": "AuctionSuccessful",
      "type": "event"
    },
    {
      "anonymous": false,
      "inputs": [
        {
          "indexed": false,
          "name": "tokenId",
          "type": "uint256"
        }
      ],
      "name": "AuctionCancelled",
      "type": "event"
    },
    {
      "anonymous": false,
      "inputs": [],
      "name": "Pause",
      "type": "event"
    },
    {
      "anonymous": false,
      "inputs": [],
      "name": "Unpause",
      "type": "event"
    },
    {
      "constant": false,
      "inputs": [
        {
          "name": "_tokenId",
          "type": "uint256"
        },
        {
          "name": "_startingPrice",
          "type": "uint256"
        },
        {
          "name": "_endingPrice",
          "type": "uint256"
        },
        {
          "name": "_duration",
          "type": "uint256"
        },
        {
          "name": "_seller",
          "type": "address"
        }
      ],
      "name": "createAuction",
      "outputs": [],
      "payable": false,
      "stateMutability": "nonpayable",
      "type": "function"
    },
    {
      "constant": false,
      "inputs": [
        {
          "name": "_tokenId",
          "type": "uint256"
        }
      ],
      "name": "bid",
      "outputs": [],
      "payable": true,
      "stateMutability": "payable",
      "type": "function"
    }
  ],
  "bytecode": "0x60806040526000805460a060020a60ff02191690556005805460ff1916600117905534801561002d57600080fd5b50604051604080610e5d83398101604052805160209091015160008054600160a060020a031916331781558290829061271082111561006b57600080fd5b506002819055604080517f01ffc9a70000000000000000000000000000000000000000000000000000000081527f9a20483d00000000000000000000000000000000000000000000000000000000600482015290518391600160a060020a038316916301ffc9a7916024808201926020929091908290030181600087803b1580156100f557600080fd5b505af1158015610109573d6000803e3d6000fd5b505050506040513d602081101561011f57600080fd5b5051151561012c57600080fd5b60018054600160a060020a03909216600160a060020a031990921691909117905550505050610cfd806101606000396000f3006080604052600436106100da5763ffffffff7c010000000000000000000000000000000000000000000000000000000060003504166327ebe40a81146100df5780633f4ba83a1461010e578063454a2ab3146101375780635c975abb146101425780635fd8c7101461015757806378bd79351461016c57806383b5ff8b146101b95780638456cb59146101e057806385b86188146101f5578063878eb3681461020a5780638da5cb5b1461022257806396b5a75514610253578063c55d0f561461026b578063dd1b7a0f14610283578063f2fde38b14610298575b600080fd5b3480156100eb57600080fd5b5061010c600435602435604435606435600160a060020a03608435166102b9565b005b34801561011a57600080fd5b506101236103b1565b604080519115158252519081900360200190f35b61010c60043561042c565b34801561014e57600080fd5b50610123610460565b34801561016357600080fd5b5061010c610470565b34801561017857600080fd5b506101846004356104cd565b60408051600160a060020a03909616865260208601949094528484019290925260608401526080830152519081900360a00190f35b3480156101c557600080fd5b506101ce610563565b60408051918252519081900360200190f35b3480156101ec57600080fd5b50610123610569565b34801561020157600080fd5b506101236105e9565b34801561021657600080fd5b5061010c6004356105f2565b34801561022e57600080fd5b5061023761065f565b60408051600160a060020a039092168252519081900360200190f35b34801561025f57600080fd5b5061010c60043561066e565b34801561027757600080fd5b506101ce6004356106b3565b34801561028f57600080fd5b506102376106e5565b3480156102a457600080fd5b5061010c600160a060020a03600435166106f4565b6102c1610ca3565b6fffffffffffffffffffffffffffffffff851685146102df57600080fd5b6fffffffffffffffffffffffffffffffff841684146102fd57600080fd5b67ffffffffffffffff8316831461031357600080fd5b600154600160a060020a0316331461032a57600080fd5b6103348287610746565b60a06040519081016040528083600160a060020a03168152602001866fffffffffffffffffffffffffffffffff168152602001856fffffffffffffffffffffffffffffffff1681526020018467ffffffffffffffff1681526020014267ffffffffffffffff1681525090506103a986826107ce565b505050505050565b60008054600160a060020a031633146103c957600080fd5b60005460a060020a900460ff1615156103e157600080fd5b6000805474ff0000000000000000000000000000000000000000191681556040517f7805862f689e2f13df9f062ff482ad3ad112aca9e0847911ed832e158c525b339190a150600190565b600081815260036020526040812054600160a060020a03169061044f8334610962565b905061045b3384610a88565b505050565b60005460a060020a900460ff1681565b60015460008054600160a060020a039283169216331480610499575033600160a060020a038316145b15156104a457600080fd5b604051600160a060020a03831690303180156108fc02916000818181858888f150505050505050565b600081815260036020526040812081908190819081906104ec81610af6565b15156104f757600080fd5b80546001820154600290920154600160a060020a03909116986fffffffffffffffffffffffffffffffff8084169950700100000000000000000000000000000000909304909216965067ffffffffffffffff808216965068010000000000000000909104169350915050565b60025481565b60008054600160a060020a0316331461058157600080fd5b60005460a060020a900460ff161561059857600080fd5b6000805474ff0000000000000000000000000000000000000000191660a060020a1781556040517f6985a02210a168e66602d3235cb6db0e70f92b3ba4d376a33c0f3d9434bff6259190a150600190565b60055460ff1681565b6000805460a060020a900460ff16151561060b57600080fd5b600054600160a060020a0316331461062257600080fd5b50600081815260036020526040902061063a81610af6565b151561064557600080fd5b805461065b908390600160a060020a0316610b17565b5050565b600054600160a060020a031681565b60008181526003602052604081209061068682610af6565b151561069157600080fd5b508054600160a060020a03163381146106a957600080fd5b61045b8382610b17565b60008181526003602052604081206106ca81610af6565b15156106d557600080fd5b6106de81610b61565b9392505050565b600154600160a060020a031681565b600054600160a060020a0316331461070b57600080fd5b600160a060020a03811615610743576000805473ffffffffffffffffffffffffffffffffffffffff1916600160a060020a0383161790555b50565b600154604080517f23b872dd000000000000000000000000000000000000000000000000000000008152600160a060020a03858116600483015230602483015260448201859052915191909216916323b872dd91606480830192600092919082900301818387803b1580156107ba57600080fd5b505af11580156103a9573d6000803e3d6000fd5b603c816060015167ffffffffffffffff16101515156107ec57600080fd5b60008281526003602090815260408083208451815473ffffffffffffffffffffffffffffffffffffffff1916600160a060020a0390911617815584830180516001808401805489870180516fffffffffffffffffffffffffffffffff199092166fffffffffffffffffffffffffffffffff95861617851670010000000000000000000000000000000092861692909202919091179091556060808a018051600290970180546080808e015167ffffffffffffffff1990921667ffffffffffffffff9a8b16176fffffffffffffffff0000000000000000191668010000000000000000928b169290920291909117909155600480549586018155909a527f8a35acfbc15ff81a39ae7d344fd709f28e8600b4aa8c65c6b64bfe7fe36bd19b9093018b905593519051915186518b8152918416978201979097529116818501529390911690830152517fa9c8dfcda5664a5a124c713e386da27de87432d5b668e79458501eb296389ba7929181900390910190a15050565b6000828152600360205260408120818080808061097e86610af6565b151561098957600080fd5b61099286610b61565b9450848810156109a157600080fd5b8554600160a060020a031693506109b789610bf1565b6000851115610a09576109c985610c5a565b6040519093508386039250600160a060020a0385169083156108fc029084906000818181858888f19350505050158015610a07573d6000803e3d6000fd5b505b5060405184880390339082156108fc029083906000818181858888f19350505050158015610a3b573d6000803e3d6000fd5b50604080518a815260208101879052338183015290517f4fcc30d90a842164dd58501ab874a101a3749c3d4747139cefe7c876f4ccebd29181900360600190a15092979650505050505050565b600154604080517fa9059cbb000000000000000000000000000000000000000000000000000000008152600160a060020a038581166004830152602482018590529151919092169163a9059cbb91604480830192600092919082900301818387803b1580156107ba57600080fd5b6002015460006801000000000000000090910467ffffffffffffffff161190565b610b2082610bf1565b610b2a8183610a88565b6040805183815290517f2809c7e17bf978fbc7194c0a694b638c4215e9140cacc6c38ca36010b45697df9181900360200190a15050565b6002810154600090819068010000000000000000900467ffffffffffffffff16421115610ba75750600282015468010000000000000000900467ffffffffffffffff1642035b600183015460028401546106de916fffffffffffffffffffffffffffffffff80821692700100000000000000000000000000000000909204169067ffffffffffffffff1684610c66565b6004805482908110610bff57fe5b60009182526020808320909101829055918152600390915260408120805473ffffffffffffffffffffffffffffffffffffffff19168155600181019190915560020180546fffffffffffffffffffffffffffffffff19169055565b60025461271091020490565b6000808080858510610c7a57869350610c98565b878703925085858402811515610c8c57fe5b05915081880190508093505b505050949350505050565b6040805160a081018252600080825260208201819052918101829052606081018290526080810191909152905600a165627a7a72305820218a5c45dbf3464734d9baf5623e45fb65917058a75ca74860da55fd4d28e7a60029",
  "source": "pragma solidity ^0.4.24;\n\nimport \"./ClockAuction.sol\";\n\n/// @title Clock auction modified for sale of beasts\n/// @notice We omit a fallback function to prevent accidental sends to this contract.\ncontract SaleClockAuction is ClockAuction {\n\n    // @dev Sanity check that allows us to ensure that we are pointing to the\n    //  right auction in our setSaleAuctionAddress() call.\n    bool public isSaleClockAuction = true;\n\n    // Delegate constructor\n    constructor(address _nftAddr, uint256 _cut) public ClockAuction(_nftAddr, _cut) { }\n\n    /// @dev Creates and begins a new auction.\n    /// @param _tokenId - ID of token to auction, sender must be owner.\n    /// @param _startingPrice - Price of item (in wei) at beginning of auction.\n    /// @param _endingPrice - Price of item (in wei) at end of auction.\n    /// @param _duration - Length of auction (in seconds).\n    /// @param _seller - Seller, if not the message sender\n    function createAuction(\n        uint256 _tokenId,\n        uint256 _startingPrice,\n        uint256 _endingPrice,\n        uint256 _duration,\n        address _seller\n    )\n        external\n    {\n        // Sanity check that no inputs overflow how many bits we've allocated\n        // to store them in the auction struct.\n        require(_startingPrice == uint256(uint128(_startingPrice)));\n        require(_endingPrice == uint256(uint128(_endingPrice)));\n        require(_duration == uint256(uint64(_duration)));\n\n        require(msg.sender == address(nonFungibleContract));\n        _escrow(_seller, _tokenId);\n        Auction memory auction = Auction(\n            _seller,\n            uint128(_startingPrice),\n            uint128(_endingPrice),\n            uint64(_duration),\n            uint64(now)\n        );\n        _addAuction(_tokenId, auction);\n    }\n\n    /// @dev Updates lastSalePrice if seller is the nft contract\n    /// Otherwise, works the same as default bid method.\n    function bid(uint256 _tokenId)\n        external\n        payable\n    {\n        // _bid verifies token ID size\n        address seller = tokenIdToAuction[_tokenId].seller;\n        uint256 price = _bid(_tokenId, msg.value);\n        _transfer(msg.sender, _tokenId);\n    }\n\n}\n\n",
  "sourcePath": "/Users/jonathanaraneda/BlockchainProjects/unicornsvsdinosaurs-smartcontracts/contracts/auction/SaleClockAuction.sol",
  "compiler": {
    "name": "solc",
    "version": "0.4.24+commit.e67f0147.Emscripten.clang"
  },
  "schemaVersion": "2.0.1",
  "updatedAt": "2018-08-03T00:22:13.579Z"
}