{
  "contractName": "SiringClockAuction",
  "abi": [
    {
      "constant": false,
      "inputs": [],
      "name": "unpause",
      "outputs": [
        {
          "name": "",
          "type": "bool"
        }
      ],
      "payable": false,
      "stateMutability": "nonpayable",
      "type": "function"
    },
    {
      "constant": true,
      "inputs": [],
      "name": "paused",
      "outputs": [
        {
          "name": "",
          "type": "bool"
        }
      ],
      "payable": false,
      "stateMutability": "view",
      "type": "function"
    },
    {
      "constant": false,
      "inputs": [],
      "name": "withdrawBalance",
      "outputs": [],
      "payable": false,
      "stateMutability": "nonpayable",
      "type": "function"
    },
    {
      "constant": true,
      "inputs": [],
      "name": "isSiringClockAuction",
      "outputs": [
        {
          "name": "",
          "type": "bool"
        }
      ],
      "payable": false,
      "stateMutability": "view",
      "type": "function"
    },
    {
      "constant": true,
      "inputs": [
        {
          "name": "_tokenId",
          "type": "uint256"
        }
      ],
      "name": "getAuction",
      "outputs": [
        {
          "name": "seller",
          "type": "address"
        },
        {
          "name": "startingPrice",
          "type": "uint256"
        },
        {
          "name": "endingPrice",
          "type": "uint256"
        },
        {
          "name": "duration",
          "type": "uint256"
        },
        {
          "name": "startedAt",
          "type": "uint256"
        }
      ],
      "payable": false,
      "stateMutability": "view",
      "type": "function"
    },
    {
      "constant": true,
      "inputs": [],
      "name": "ownerCut",
      "outputs": [
        {
          "name": "",
          "type": "uint256"
        }
      ],
      "payable": false,
      "stateMutability": "view",
      "type": "function"
    },
    {
      "constant": false,
      "inputs": [],
      "name": "pause",
      "outputs": [
        {
          "name": "",
          "type": "bool"
        }
      ],
      "payable": false,
      "stateMutability": "nonpayable",
      "type": "function"
    },
    {
      "constant": false,
      "inputs": [
        {
          "name": "_tokenId",
          "type": "uint256"
        }
      ],
      "name": "cancelAuctionWhenPaused",
      "outputs": [],
      "payable": false,
      "stateMutability": "nonpayable",
      "type": "function"
    },
    {
      "constant": true,
      "inputs": [],
      "name": "owner",
      "outputs": [
        {
          "name": "",
          "type": "address"
        }
      ],
      "payable": false,
      "stateMutability": "view",
      "type": "function"
    },
    {
      "constant": false,
      "inputs": [
        {
          "name": "_tokenId",
          "type": "uint256"
        }
      ],
      "name": "cancelAuction",
      "outputs": [],
      "payable": false,
      "stateMutability": "nonpayable",
      "type": "function"
    },
    {
      "constant": true,
      "inputs": [
        {
          "name": "_tokenId",
          "type": "uint256"
        }
      ],
      "name": "getCurrentPrice",
      "outputs": [
        {
          "name": "",
          "type": "uint256"
        }
      ],
      "payable": false,
      "stateMutability": "view",
      "type": "function"
    },
    {
      "constant": true,
      "inputs": [],
      "name": "nonFungibleContract",
      "outputs": [
        {
          "name": "",
          "type": "address"
        }
      ],
      "payable": false,
      "stateMutability": "view",
      "type": "function"
    },
    {
      "constant": false,
      "inputs": [
        {
          "name": "newOwner",
          "type": "address"
        }
      ],
      "name": "transferOwnership",
      "outputs": [],
      "payable": false,
      "stateMutability": "nonpayable",
      "type": "function"
    },
    {
      "inputs": [
        {
          "name": "_nftAddr",
          "type": "address"
        },
        {
          "name": "_cut",
          "type": "uint256"
        }
      ],
      "payable": false,
      "stateMutability": "nonpayable",
      "type": "constructor"
    },
    {
      "anonymous": false,
      "inputs": [
        {
          "indexed": false,
          "name": "tokenId",
          "type": "uint256"
        },
        {
          "indexed": false,
          "name": "startingPrice",
          "type": "uint256"
        },
        {
          "indexed": false,
          "name": "endingPrice",
          "type": "uint256"
        },
        {
          "indexed": false,
          "name": "duration",
          "type": "uint256"
        }
      ],
      "name": "AuctionCreated",
      "type": "event"
    },
    {
      "anonymous": false,
      "inputs": [
        {
          "indexed": false,
          "name": "tokenId",
          "type": "uint256"
        },
        {
          "indexed": false,
          "name": "totalPrice",
          "type": "uint256"
        },
        {
          "indexed": false,
          "name": "winner",
          "type": "address"
        }
      ],
      "name": "AuctionSuccessful",
      "type": "event"
    },
    {
      "anonymous": false,
      "inputs": [
        {
          "indexed": false,
          "name": "tokenId",
          "type": "uint256"
        }
      ],
      "name": "AuctionCancelled",
      "type": "event"
    },
    {
      "anonymous": false,
      "inputs": [],
      "name": "Pause",
      "type": "event"
    },
    {
      "anonymous": false,
      "inputs": [],
      "name": "Unpause",
      "type": "event"
    },
    {
      "constant": false,
      "inputs": [
        {
          "name": "_tokenId",
          "type": "uint256"
        },
        {
          "name": "_startingPrice",
          "type": "uint256"
        },
        {
          "name": "_endingPrice",
          "type": "uint256"
        },
        {
          "name": "_duration",
          "type": "uint256"
        },
        {
          "name": "_seller",
          "type": "address"
        }
      ],
      "name": "createAuction",
      "outputs": [],
      "payable": false,
      "stateMutability": "nonpayable",
      "type": "function"
    },
    {
      "constant": false,
      "inputs": [
        {
          "name": "_tokenId",
          "type": "uint256"
        }
      ],
      "name": "bid",
      "outputs": [],
      "payable": true,
      "stateMutability": "payable",
      "type": "function"
    }
  ],
  "bytecode": "0x60806040526000805460a060020a60ff02191690556005805460ff1916600117905534801561002d57600080fd5b50604051604080610e7683398101604052805160209091015160008054600160a060020a031916331781558290829061271082111561006b57600080fd5b506002819055604080517f01ffc9a70000000000000000000000000000000000000000000000000000000081527f9a20483d00000000000000000000000000000000000000000000000000000000600482015290518391600160a060020a038316916301ffc9a7916024808201926020929091908290030181600087803b1580156100f557600080fd5b505af1158015610109573d6000803e3d6000fd5b505050506040513d602081101561011f57600080fd5b5051151561012c57600080fd5b60018054600160a060020a03909216600160a060020a031990921691909117905550505050610d16806101606000396000f3006080604052600436106100da5763ffffffff7c010000000000000000000000000000000000000000000000000000000060003504166327ebe40a81146100df5780633f4ba83a1461010e578063454a2ab3146101375780635c975abb146101425780635fd8c7101461015757806376190f8f1461016c57806378bd79351461018157806383b5ff8b146101ce5780638456cb59146101f5578063878eb3681461020a5780638da5cb5b1461022257806396b5a75514610253578063c55d0f561461026b578063dd1b7a0f14610283578063f2fde38b14610298575b600080fd5b3480156100eb57600080fd5b5061010c600435602435604435606435600160a060020a03608435166102b9565b005b34801561011a57600080fd5b506101236103b1565b604080519115158252519081900360200190f35b61010c60043561042c565b34801561014e57600080fd5b50610123610478565b34801561016357600080fd5b5061010c610488565b34801561017857600080fd5b506101236104e5565b34801561018d57600080fd5b506101996004356104ee565b60408051600160a060020a03909616865260208601949094528484019290925260608401526080830152519081900360a00190f35b3480156101da57600080fd5b506101e3610584565b60408051918252519081900360200190f35b34801561020157600080fd5b5061012361058a565b34801561021657600080fd5b5061010c60043561060a565b34801561022e57600080fd5b50610237610673565b60408051600160a060020a039092168252519081900360200190f35b34801561025f57600080fd5b5061010c600435610682565b34801561027757600080fd5b506101e36004356106cc565b34801561028f57600080fd5b506102376106fe565b3480156102a457600080fd5b5061010c600160a060020a036004351661070d565b6102c1610cbc565b6fffffffffffffffffffffffffffffffff851685146102df57600080fd5b6fffffffffffffffffffffffffffffffff841684146102fd57600080fd5b67ffffffffffffffff8316831461031357600080fd5b600154600160a060020a0316331461032a57600080fd5b610334828761075f565b60a06040519081016040528083600160a060020a03168152602001866fffffffffffffffffffffffffffffffff168152602001856fffffffffffffffffffffffffffffffff1681526020018467ffffffffffffffff1681526020014267ffffffffffffffff1681525090506103a986826107e7565b505050505050565b60008054600160a060020a031633146103c957600080fd5b60005460a060020a900460ff1615156103e157600080fd5b6000805474ff0000000000000000000000000000000000000000191681556040517f7805862f689e2f13df9f062ff482ad3ad112aca9e0847911ed832e158c525b339190a150600190565b600154600090600160a060020a0316331461044657600080fd5b50600081815260036020526040902054600160a060020a0316610469823461097b565b506104748183610aa1565b5050565b60005460a060020a900460ff1681565b60015460008054600160a060020a0392831692163314806104b1575033600160a060020a038316145b15156104bc57600080fd5b604051600160a060020a03831690303180156108fc02916000818181858888f150505050505050565b60055460ff1681565b6000818152600360205260408120819081908190819061050d81610b0f565b151561051857600080fd5b80546001820154600290920154600160a060020a03909116986fffffffffffffffffffffffffffffffff8084169950700100000000000000000000000000000000909304909216965067ffffffffffffffff808216965068010000000000000000909104169350915050565b60025481565b60008054600160a060020a031633146105a257600080fd5b60005460a060020a900460ff16156105b957600080fd5b6000805474ff0000000000000000000000000000000000000000191660a060020a1781556040517f6985a02210a168e66602d3235cb6db0e70f92b3ba4d376a33c0f3d9434bff6259190a150600190565b6000805460a060020a900460ff16151561062357600080fd5b600054600160a060020a0316331461063a57600080fd5b50600081815260036020526040902061065281610b0f565b151561065d57600080fd5b8054610474908390600160a060020a0316610b30565b600054600160a060020a031681565b60008181526003602052604081209061069a82610b0f565b15156106a557600080fd5b508054600160a060020a03163381146106bd57600080fd5b6106c78382610b30565b505050565b60008181526003602052604081206106e381610b0f565b15156106ee57600080fd5b6106f781610b7a565b9392505050565b600154600160a060020a031681565b600054600160a060020a0316331461072457600080fd5b600160a060020a0381161561075c576000805473ffffffffffffffffffffffffffffffffffffffff1916600160a060020a0383161790555b50565b600154604080517f23b872dd000000000000000000000000000000000000000000000000000000008152600160a060020a03858116600483015230602483015260448201859052915191909216916323b872dd91606480830192600092919082900301818387803b1580156107d357600080fd5b505af11580156103a9573d6000803e3d6000fd5b603c816060015167ffffffffffffffff161015151561080557600080fd5b60008281526003602090815260408083208451815473ffffffffffffffffffffffffffffffffffffffff1916600160a060020a0390911617815584830180516001808401805489870180516fffffffffffffffffffffffffffffffff199092166fffffffffffffffffffffffffffffffff95861617851670010000000000000000000000000000000092861692909202919091179091556060808a018051600290970180546080808e015167ffffffffffffffff1990921667ffffffffffffffff9a8b16176fffffffffffffffff0000000000000000191668010000000000000000928b169290920291909117909155600480549586018155909a527f8a35acfbc15ff81a39ae7d344fd709f28e8600b4aa8c65c6b64bfe7fe36bd19b9093018b905593519051915186518b8152918416978201979097529116818501529390911690830152517fa9c8dfcda5664a5a124c713e386da27de87432d5b668e79458501eb296389ba7929181900390910190a15050565b6000828152600360205260408120818080808061099786610b0f565b15156109a257600080fd5b6109ab86610b7a565b9450848810156109ba57600080fd5b8554600160a060020a031693506109d089610c0a565b6000851115610a22576109e285610c73565b6040519093508386039250600160a060020a0385169083156108fc029084906000818181858888f19350505050158015610a20573d6000803e3d6000fd5b505b5060405184880390339082156108fc029083906000818181858888f19350505050158015610a54573d6000803e3d6000fd5b50604080518a815260208101879052338183015290517f4fcc30d90a842164dd58501ab874a101a3749c3d4747139cefe7c876f4ccebd29181900360600190a15092979650505050505050565b600154604080517fa9059cbb000000000000000000000000000000000000000000000000000000008152600160a060020a038581166004830152602482018590529151919092169163a9059cbb91604480830192600092919082900301818387803b1580156107d357600080fd5b6002015460006801000000000000000090910467ffffffffffffffff161190565b610b3982610c0a565b610b438183610aa1565b6040805183815290517f2809c7e17bf978fbc7194c0a694b638c4215e9140cacc6c38ca36010b45697df9181900360200190a15050565b6002810154600090819068010000000000000000900467ffffffffffffffff16421115610bc05750600282015468010000000000000000900467ffffffffffffffff1642035b600183015460028401546106f7916fffffffffffffffffffffffffffffffff80821692700100000000000000000000000000000000909204169067ffffffffffffffff1684610c7f565b6004805482908110610c1857fe5b60009182526020808320909101829055918152600390915260408120805473ffffffffffffffffffffffffffffffffffffffff19168155600181019190915560020180546fffffffffffffffffffffffffffffffff19169055565b60025461271091020490565b6000808080858510610c9357869350610cb1565b878703925085858402811515610ca557fe5b05915081880190508093505b505050949350505050565b6040805160a081018252600080825260208201819052918101829052606081018290526080810191909152905600a165627a7a72305820e2a42673866c61073f76d91377d159c6e60747d37e5b29a3ab39ec2c3b2612050029",
  "source": "pragma solidity ^0.4.24;\n\nimport \"./ClockAuction.sol\";\n\n/// @title Reverse auction modified for siring\n/// @notice We omit a fallback function to prevent accidental sends to this contract.\ncontract SiringClockAuction is ClockAuction {\n\n    // @dev Sanity check that allows us to ensure that we are pointing to the\n    //  right auction in our setSiringAuctionAddress() call.\n    bool public isSiringClockAuction = true;\n\n    // Delegate constructor\n    constructor(address _nftAddr, uint256 _cut) public ClockAuction(_nftAddr, _cut) { }\n\n    /// @dev Creates and begins a new auction. Since this function is wrapped,\n    /// require sender to be Legends contract.\n    /// @param _tokenId - ID of token to auction, sender must be owner.\n    /// @param _startingPrice - Price of item (in wei) at beginning of auction.\n    /// @param _endingPrice - Price of item (in wei) at end of auction.\n    /// @param _duration - Length of auction (in seconds).\n    /// @param _seller - Seller, if not the message sender\n    function createAuction(\n        uint256 _tokenId,\n        uint256 _startingPrice,\n        uint256 _endingPrice,\n        uint256 _duration,\n        address _seller\n    )\n        external\n    {\n        // Sanity check that no inputs overflow how many bits we've allocated\n        // to store them in the auction struct.\n        require(_startingPrice == uint256(uint128(_startingPrice)));\n        require(_endingPrice == uint256(uint128(_endingPrice)));\n        require(_duration == uint256(uint64(_duration)));\n\n        require(msg.sender == address(nonFungibleContract));\n        _escrow(_seller, _tokenId);\n        Auction memory auction = Auction(\n            _seller,\n            uint128(_startingPrice),\n            uint128(_endingPrice),\n            uint64(_duration),\n            uint64(now)\n        );\n        _addAuction(_tokenId, auction);\n    }\n\n    /// @dev Places a bid for siring. Requires the sender\n    /// is the Legend contract because all bid methods\n    /// should be wrapped. Also returns the beast to the\n    /// seller rather than the winner.\n    function bid(uint256 _tokenId)\n        external\n        payable\n    {\n        require(msg.sender == address(nonFungibleContract));\n        address seller = tokenIdToAuction[_tokenId].seller;\n        // _bid checks that token ID is valid and will throw if bid fails\n        _bid(_tokenId, msg.value);\n        // We transfer the beast back to the seller, the winner will get\n        // the offspring\n        _transfer(seller, _tokenId);\n    }\n\n}\n\n",
  "sourcePath": "/Users/jonathanaraneda/BlockchainProjects/unicornsvsdinosaurs-smartcontracts/contracts/auction/SiringClockAuction.sol",
  "compiler": {
    "name": "solc",
    "version": "0.4.24+commit.e67f0147.Emscripten.clang"
  },
  "schemaVersion": "2.0.1",
  "updatedAt": "2018-08-03T00:22:13.586Z"
}