{
  "contractName": "SkillsSystem",
  "abi": [
    {
      "constant": true,
      "inputs": [
        {
          "name": "",
          "type": "uint256"
        }
      ],
      "name": "skills",
      "outputs": [
        {
          "name": "id",
          "type": "uint256"
        },
        {
          "name": "name",
          "type": "string"
        },
        {
          "name": "attirbuteId",
          "type": "uint256"
        },
        {
          "name": "addAttributePercentaje",
          "type": "bool"
        },
        {
          "name": "attributeBonus",
          "type": "uint256"
        },
        {
          "name": "winExperienceBonus",
          "type": "uint256"
        },
        {
          "name": "loseExperienceBonus",
          "type": "uint256"
        },
        {
          "name": "elementalAdvantageBonus",
          "type": "uint256"
        },
        {
          "name": "elementalDisadvantageBonus",
          "type": "uint256"
        },
        {
          "name": "randomAttributeBonus",
          "type": "uint256"
        },
        {
          "name": "has5LevelBonus",
          "type": "bool"
        },
        {
          "name": "preferedAttributeIncreasedChance",
          "type": "bool"
        },
        {
          "name": "fertileSpeedBonus",
          "type": "bool"
        },
        {
          "name": "isSkill",
          "type": "bool"
        }
      ],
      "payable": false,
      "stateMutability": "view",
      "type": "function"
    }
  ],
  "bytecode": "0x608060405234801561001057600080fd5b506102cc806100206000396000f300608060405260043610610041576000357c0100000000000000000000000000000000000000000000000000000000900463ffffffff16806350d15fbe14610046575b600080fd5b34801561005257600080fd5b506100716004803603810190808035906020019092919050505061015b565b604051808f8152602001806020018e81526020018d1515151581526020018c81526020018b81526020018a81526020018981526020018881526020018781526020018615151515815260200185151515158152602001841515151581526020018315151515815260200182810382528f818151815260200191508051906020019080838360005b838110156101135780820151818401526020810190506100f8565b50505050905090810190601f1680156101405780820380516001836020036101000a031916815260200191505b509f5050505050505050505050505050505060405180910390f35b6000602052806000526040600020600091509050806000015490806001018054600181600116156101000203166002900480601f01602080910402602001604051908101604052809291908181526020018280546001816001161561010002031660029004801561020d5780601f106101e25761010080835404028352916020019161020d565b820191906000526020600020905b8154815290600101906020018083116101f057829003601f168201915b5050505050908060020154908060030160009054906101000a900460ff169080600401549080600501549080600601549080600701549080600801549080600901549080600a0160009054906101000a900460ff169080600a0160019054906101000a900460ff169080600a0160029054906101000a900460ff169080600a0160039054906101000a900460ff1690508e5600a165627a7a72305820f8506d4ffcc59b86114222f8cd773fb559a9fa0904c2235d81832bdd921f5e3f0029",
  "source": "pragma solidity ^0.4.24;\n\nimport \"./util/AccessControl.sol\";\n\ncontract SkillsSystem is AccessControl {\n\n    struct Skill {\n        uint id;\n        string name;\n        uint attirbuteId;\n        bool addAttributePercentaje;\n        uint attributeBonus;\n        uint winExperienceBonus;\n        uint loseExperienceBonus;\n        uint elementalAdvantageBonus;\n        uint elementalDisadvantageBonus;\n        uint randomAttributeBonus;\n        bool has5LevelBonus;\n        bool preferedAttributeIncreasedChance;\n        bool fertileSpeedBonus;\n        bool isSkill;\n    }\n\n    mapping (uint => Skill) public skills;\n\n    function skillExists( uint skillId) internal view returns(bool) {\n        return skills[skillId].isSkill;\n    }\n/*\n    // Create a new skill, important to have Unique ID\n    function createSkill(\n        uint _id, \n        string _name, \n        uint _attirbuteId, \n        bool _addAttributePercentaje, \n        uint _attributeBonus, \n        uint _winExperienceBonus, \n        uint _loseExperienceBonus, \n        uint _elementalAdvantageBonus, \n        uint _elementalDisadvantageBonus, \n        uint _randomAttributeBonus, \n        bool _has5LevelBonus, \n        bool _preferedAttributeIncreasedChance, \n        bool _fertileSpeedBonus, \n        bool _dominantGene, \n        bool _recesiveGene\n    ) public onlyCOO {\n        require(!skillExists(_id)); // prevents destruction of existing skill with same ID\n        Skill memory _skill = Skill({\n            id: _id,\n            name: _name,\n            attirbuteId: _attirbuteId,\n            addAttributePercentaje: _addAttributePercentaje,\n            attributeBonus: _attributeBonus,\n            winExperienceBonus: _winExperienceBonus,\n            loseExperienceBonus: _loseExperienceBonus,\n            elementalAdvantageBonus: _elementalAdvantageBonus,\n            elementalDisadvantageBonus: _elementalDisadvantageBonus,\n            randomAttributeBonus: _randomAttributeBonus,\n            has5LevelBonus: _has5LevelBonus,\n            preferedAttributeIncreasedChance: _preferedAttributeIncreasedChance,\n            fertileSpeedBonus: _fertileSpeedBonus,\n            dominantGene: _dominantGene,\n            recesiveGene: _recesiveGene,\n            isSkill: true\n        });\n\n        skills[_id] = _skill;\n    }\n\n    // Edit a  skill, important to have Unique ID\n    function editSkill(\n        uint _id, \n        string _name, \n        uint _attirbuteId, \n        bool _addAttributePercentaje, \n        uint _attributeBonus, \n        uint _winExperienceBonus, \n        uint _loseExperienceBonus, \n        uint _elementalAdvantageBonus, \n        uint _elementalDisadvantageBonus, \n        uint _randomAttributeBonus, \n        bool _has5LevelBonus, \n        bool _preferedAttributeIncreasedChance, \n        bool _fertileSpeedBonus, \n        bool _dominantGene, \n        bool _recesiveGene\n    ) external onlyCOO {\n\n        Skill storage _skill = skills[_id];\n        _skill.name = _name;\n        _skill.attirbuteId = _attirbuteId;\n        _skill.addAttributePercentaje = _addAttributePercentaje;\n        _skill.attributeBonus = _attributeBonus;\n        _skill.winExperienceBonus = _winExperienceBonus;\n        _skill.loseExperienceBonus = _loseExperienceBonus;\n        _skill.elementalAdvantageBonus = _elementalAdvantageBonus;\n        _skill.elementalDisadvantageBonus = _elementalDisadvantageBonus;\n        _skill.randomAttributeBonus = _randomAttributeBonus;\n        _skill.has5LevelBonus = _has5LevelBonus;\n        _skill.preferedAttributeIncreasedChance = _preferedAttributeIncreasedChance;\n        _skill.fertileSpeedBonus = _fertileSpeedBonus;\n        _skill.dominantGene = _dominantGene;\n        _skill.recesiveGene = _recesiveGene;\n    }\n*/\n}",
  "sourcePath": "/Users/jonathanaraneda/BlockchainProjects/unis_dinos/contracts/SkillsSystem.sol",
  "compiler": {
    "name": "solc",
    "version": "0.4.24+commit.e67f0147.Emscripten.clang"
  },
  "schemaVersion": "2.0.1",
  "updatedAt": "2018-07-25T04:03:11.588Z"
}