{
  "contractName": "SplitPayment",
  "abi": [
    {
      "constant": true,
      "inputs": [],
      "name": "totalShares",
      "outputs": [
        {
          "name": "",
          "type": "uint256"
        }
      ],
      "payable": false,
      "stateMutability": "view",
      "type": "function"
    },
    {
      "constant": false,
      "inputs": [],
      "name": "claim",
      "outputs": [],
      "payable": false,
      "stateMutability": "nonpayable",
      "type": "function"
    },
    {
      "constant": true,
      "inputs": [
        {
          "name": "",
          "type": "uint256"
        }
      ],
      "name": "payees",
      "outputs": [
        {
          "name": "",
          "type": "address"
        }
      ],
      "payable": false,
      "stateMutability": "view",
      "type": "function"
    },
    {
      "constant": true,
      "inputs": [
        {
          "name": "",
          "type": "address"
        }
      ],
      "name": "released",
      "outputs": [
        {
          "name": "",
          "type": "uint256"
        }
      ],
      "payable": false,
      "stateMutability": "view",
      "type": "function"
    },
    {
      "constant": true,
      "inputs": [
        {
          "name": "",
          "type": "address"
        }
      ],
      "name": "shares",
      "outputs": [
        {
          "name": "",
          "type": "uint256"
        }
      ],
      "payable": false,
      "stateMutability": "view",
      "type": "function"
    },
    {
      "constant": true,
      "inputs": [],
      "name": "totalReleased",
      "outputs": [
        {
          "name": "",
          "type": "uint256"
        }
      ],
      "payable": false,
      "stateMutability": "view",
      "type": "function"
    },
    {
      "inputs": [
        {
          "name": "_payees",
          "type": "address[]"
        },
        {
          "name": "_shares",
          "type": "uint256[]"
        }
      ],
      "payable": true,
      "stateMutability": "payable",
      "type": "constructor"
    },
    {
      "payable": true,
      "stateMutability": "payable",
      "type": "fallback"
    }
  ],
  "bytecode": "0x60606040526000805560006001556040516109c63803806109c68339810160405280805182019190602001805182019190505060008151835114151561004457600080fd5b600090505b82518110156100aa5761009d838281518110151561006357fe5b90602001906020020151838381518110151561007b57fe5b906020019060200201516100b26401000000000261054e176401000000009004565b8080600101915050610049565b50505061028d565b600073ffffffffffffffffffffffffffffffffffffffff168273ffffffffffffffffffffffffffffffffffffffff16141515156100ee57600080fd5b6000811115156100fd57600080fd5b6000600260008473ffffffffffffffffffffffffffffffffffffffff1673ffffffffffffffffffffffffffffffffffffffff1681526020019081526020016000205414151561014b57600080fd5b6004805480600101828161015f919061023c565b9160005260206000209001600084909190916101000a81548173ffffffffffffffffffffffffffffffffffffffff021916908373ffffffffffffffffffffffffffffffffffffffff1602179055505080600260008473ffffffffffffffffffffffffffffffffffffffff1673ffffffffffffffffffffffffffffffffffffffff168152602001908152602001600020819055506102148160005461021e640100000000026104c1179091906401000000009004565b6000819055505050565b600080828401905083811015151561023257fe5b8091505092915050565b815481835581811511610263578183600052602060002091820191016102629190610268565b5b505050565b61028a91905b8082111561028657600081600090555060010161026e565b5090565b90565b61072a8061029c6000396000f300606060405260043610610078576000357c0100000000000000000000000000000000000000000000000000000000900463ffffffff1680633a98ef391461007a5780634e71d92d146100a357806363037b0c146100b85780639852595c1461011b578063ce7c2ac214610168578063e33b7de3146101b5575b005b341561008557600080fd5b61008d6101de565b6040518082815260200191505060405180910390f35b34156100ae57600080fd5b6100b66101e4565b005b34156100c357600080fd5b6100d9600480803590602001909190505061044c565b604051808273ffffffffffffffffffffffffffffffffffffffff1673ffffffffffffffffffffffffffffffffffffffff16815260200191505060405180910390f35b341561012657600080fd5b610152600480803573ffffffffffffffffffffffffffffffffffffffff1690602001909190505061048b565b6040518082815260200191505060405180910390f35b341561017357600080fd5b61019f600480803573ffffffffffffffffffffffffffffffffffffffff169060200190919050506104a3565b6040518082815260200191505060405180910390f35b34156101c057600080fd5b6101c86104bb565b6040518082815260200191505060405180910390f35b60005481565b60008060003392506000600260008573ffffffffffffffffffffffffffffffffffffffff1673ffffffffffffffffffffffffffffffffffffffff1681526020019081526020016000205411151561023a57600080fd5b6102666001543073ffffffffffffffffffffffffffffffffffffffff16316104c190919063ffffffff16565b915061031f600360008573ffffffffffffffffffffffffffffffffffffffff1673ffffffffffffffffffffffffffffffffffffffff16815260200190815260200160002054610311600054610303600260008973ffffffffffffffffffffffffffffffffffffffff1673ffffffffffffffffffffffffffffffffffffffff16815260200190815260200160002054876104df90919063ffffffff16565b61051a90919063ffffffff16565b61053590919063ffffffff16565b90506000811415151561033157600080fd5b803073ffffffffffffffffffffffffffffffffffffffff16311015151561035757600080fd5b6103a981600360008673ffffffffffffffffffffffffffffffffffffffff1673ffffffffffffffffffffffffffffffffffffffff168152602001908152602001600020546104c190919063ffffffff16565b600360008573ffffffffffffffffffffffffffffffffffffffff1673ffffffffffffffffffffffffffffffffffffffff16815260200190815260200160002081905550610401816001546104c190919063ffffffff16565b6001819055508273ffffffffffffffffffffffffffffffffffffffff166108fc829081150290604051600060405180830381858888f19350505050151561044757600080fd5b505050565b60048181548110151561045b57fe5b90600052602060002090016000915054906101000a900473ffffffffffffffffffffffffffffffffffffffff1681565b60036020528060005260406000206000915090505481565b60026020528060005260406000206000915090505481565b60015481565b60008082840190508381101515156104d557fe5b8091505092915050565b60008060008414156104f45760009150610513565b828402905082848281151561050557fe5b0414151561050f57fe5b8091505b5092915050565b600080828481151561052857fe5b0490508091505092915050565b600082821115151561054357fe5b818303905092915050565b600073ffffffffffffffffffffffffffffffffffffffff168273ffffffffffffffffffffffffffffffffffffffff161415151561058a57600080fd5b60008111151561059957600080fd5b6000600260008473ffffffffffffffffffffffffffffffffffffffff1673ffffffffffffffffffffffffffffffffffffffff168152602001908152602001600020541415156105e757600080fd5b600480548060010182816105fb91906106ad565b9160005260206000209001600084909190916101000a81548173ffffffffffffffffffffffffffffffffffffffff021916908373ffffffffffffffffffffffffffffffffffffffff1602179055505080600260008473ffffffffffffffffffffffffffffffffffffffff1673ffffffffffffffffffffffffffffffffffffffff168152602001908152602001600020819055506106a3816000546104c190919063ffffffff16565b6000819055505050565b8154818355818115116106d4578183600052602060002091820191016106d391906106d9565b5b505050565b6106fb91905b808211156106f75760008160009055506001016106df565b5090565b905600a165627a7a723058200d0222862c63f738113ef77cef54e4e54cb1b8d310971a08f32963a8c5a763250029",
  "source": "pragma solidity ^0.4.18;\n\nimport \"../lib/SafeMath.sol\";\n\n\n/**\n * @title SplitPayment\n * @dev Base contract that supports multiple payees claiming funds sent to this contract\n * according to the proportion they own.\n */\ncontract SplitPayment {\n  using SafeMath for uint256;\n\n  uint256 public totalShares = 0;\n  uint256 public totalReleased = 0;\n\n  mapping(address => uint256) public shares;\n  mapping(address => uint256) public released;\n  address[] public payees;\n\n  /**\n   * @dev Constructor\n   */\n  function SplitPayment(address[] _payees, uint256[] _shares) public payable {\n    require(_payees.length == _shares.length);\n\n    for (uint256 i = 0; i < _payees.length; i++) {\n      addPayee(_payees[i], _shares[i]);\n    }\n  }\n\n  /**\n   * @dev payable fallback\n   */\n  function () public payable {}\n\n  /**\n   * @dev Claim your share of the balance.\n   */\n  function claim() public {\n    address payee = msg.sender;\n\n    require(shares[payee] > 0);\n\n    uint256 totalReceived = this.balance.add(totalReleased);\n    uint256 payment = totalReceived.mul(shares[payee]).div(totalShares).sub(released[payee]);\n\n    require(payment != 0);\n    require(this.balance >= payment);\n\n    released[payee] = released[payee].add(payment);\n    totalReleased = totalReleased.add(payment);\n\n    payee.transfer(payment);\n  }\n\n  /**\n   * @dev Add a new payee to the contract.\n   * @param _payee The address of the payee to add.\n   * @param _shares The number of shares owned by the payee.\n   */\n  function addPayee(address _payee, uint256 _shares) internal {\n    require(_payee != address(0));\n    require(_shares > 0);\n    require(shares[_payee] == 0);\n\n    payees.push(_payee);\n    shares[_payee] = _shares;\n    totalShares = totalShares.add(_shares);\n  }\n}",
  "sourcePath": "/Users/jonathanaraneda/BlockchainProjects/unis_dinos/contracts/payment/SplitPayment.sol",
  "compiler": {
    "name": "solc",
    "version": "0.4.18+commit.9cf6e910.Emscripten.clang"
  },
  "schemaVersion": "1.0.1",
  "updatedAt": "2018-02-17T00:00:44.581Z"
}